:1000000000800020BD0100006D2C0000312C00009C
:10001000312C0000312C0000312C0000312C00006C
:10002000312C0000312C0000312C00006D2C000020
:100030006D2C0000312C00006D2C0000212C0000E4
:100040006D2C00006D2C00006D2C00006D2C00004C
:100050006D2C00006D2C00006D2C00006D2C00003C
:100060006D2C00006D2C00006D2C00006D2C00002C
:100070006D2C00006D2C00006D2C00006D2C00001C
:100080006D2C00006D2C00006D2C00006D2C00000C
:100090006D2C00006D2C00006D2C00006D2C0000FC
:1000A000591500006D2C00006D2C00006D2C000017
:1000B0006D2C00006D2C00006D2C00006D2C0000DC
:1000C0006D2C00006D2C00006D2C00006D2C0000CC
:1000D0006D2C00006D2C00006D2C00006D2C0000BC
:1000E0006D2C00006D2C00006D2C00006D2C0000AC
:1000F0006D2C0000714C00006D2C0000D5530000E9
:100100006D2C0000515900006D2C00006D2C00007A
:100110006D2C00006D2C00006D2C00006D2C00007B
:100120006D2C00006D2C00006D2C00006D2C00006B
:100130006D2C00006D2C00006D2C00006D2C00005B
:100140006D2C00006D2C00006D2C00006D2C00004B
:10015000BD220000D5220000ED2200000523000092
:100160006D2C00002D3700006D2C00006D2C000060
:100170006D2C00006D2C00006D2C00006D2C00001B
:100180006D2C00006D2C00006D2C00006D2C00000B
:100190006D2C00006D2C00006D2C00006D2C0000FB
:1001A0006D2C00006D2C00006D2C00006D2C0000EB
:1001B0006D2C00006D2C00006D2C0000574B4CF294
:1001C000205210B51A804DF628121A8000BF00BFC9
:1001D00002F050FD524B4FF010621A60514A9A6083
:1001E000514ADA60A3F53043203B1A6812F480725A
:1001F00004D14E490A604FF4A8521A604C4B1A7849
:10020000110703D51A7842F008021A70494B4A4C7C
:100210004A482A221A704A4A00239918A14203D256
:10022000195899500433F8E7464B474900228B424E
:1002300002D243F8042BFAE74448454900235A58B0
:100240001A500433B3F5DE7FF9D1424B424A802184
:1002500003F8011B9342FBD1404B3C4A1A60404BD0
:100260008A221A70A3F5805324225A70A0221A7091
:100270009A799207FCD59A79D406FCD4394A9379B5
:1002800003F00C03082B374BF9D105221A714322D6
:100290005A719A799006FCD5324A9179314B4906C8
:1002A000FBD5314A4FF08171116005215160202248
:1002B0001A709A7902F00C020C2AFAD12B4B2C4AB4
:1002C0001A602C4B2C4A1A6000225A60072243F80D
:1002D000042C2A4AC3F80C2D62B603F0E7F8134B3E
:1002E0001B68DA0705D5264802F0ACFE254B264AE6
:1002F0001A60264B1B785B0609D5224C224A2368DC
:10030000934204D11E4802F09DFE0023236006F0B4
:100310007FFB02F0B5FC02F0E1FBFEE70E2005409A
:1003200030800440823F04000100002B14D00340C1
:1003300002D0074000E007404092FF1FCC9E000023
:100340006087FF1F4092FF1F6C96FF1F0082FF1FF8
:100350000000000000E400E05FE400E008ED00E0E1
:1003600000500640004006404480044004800440A1
:10037000C010050014E000E03F190100000020203B
:100380002076CD581CE00340A5C3945A00F00740E6
:10039000FFFFFFFFFFFFFFFFFFFFFFFFFFFFFFFF6D
:1003A000FFFFFFFFFFFFFFFFFFFFFFFFFFFFFFFF5D
:1003B000FFFFFFFFFFFFFFFFFFFFFFFFFFFFFFFF4D
:1003C000FFFFFFFFFFFFFFFFFFFFFFFFFFFFFFFF3D
:1003D000FFFFFFFFFFFFFFFFFFFFFFFFFFFFFFFF2D
:1003E000FFFFFFFFFFFFFFFFFFFFFFFFFFFFFFFF1D
:1003F000FFFFFFFFFFFFFFFFFFFFFFFFFFFFFFFF0D
:10040000FFFFFFFFFFFFFFFFFFFFFFFFDEF9FFFF23
:1004100010B5054C237833B9044B13B10448AFF33E
:1004200000800123237010BD4092FF1F00000000D8
:10043000CC9E000008B5064B1BB106480649AFF339
:1004400000800648036813B1054B03B1984708BD07
:1004500000000000CC9E00004492FF1F4092FF1F4E
:1004600000000000014B0360704700BF4898000087
:10047000704700BF014B0360704700BF4898000001
:10048000014B0360704700BF48980000014B0360B8
:10049000704700BF4898000010B50446024B036047
:1004A00002F01EFC204610BD4898000010B504461E
:1004B000024B036002F014FC204610BD4898000077
:1004C00010B50446024B036002F00AFC204610BD42
:1004D0004898000010B50446024B036002F000FC8F
:1004E000204610BD4898000010B5044601F0D0FE2B
:1004F000204610BD38B504460D46084607F0E2F820
:10050000024623685B6820462946984705462046F0
:1005100001F02AFF284438BD10B5114801F0EAFA6D
:1005200050B9104C23685B6820460F493022984729
:10053000204601F019FFFEE70C4801F011FB20B93D
:1005400008480949FFF7D6FFFEE70948FA2101F0FC
:1005500011FD20B903480749FFF7CCFFFEE710BDA6
:100560007C92FF1F3C94FF1F609800009492FF1F35
:100570006092FF1F949800002DE9F0478EB008208C
:1005800002F0D0F9FFF7C8FF0C2002F0A5FB0446EB
:100590000F211022112300F0CBFB4C4B1C600120DB
:1005A00002F09AFB04464FF00108CDF800800C23BE
:1005B000019303210222002300F014FE444F3C600B
:1005C00000F02EFE782002F087FB81463B68002475
:1005D000404DCDE90045002202921521142200F081
:1005E000D1FA3D4EC6F80090782002F075FB8246A5
:1005F0003B68CDE90045CDF808801621172200F0B0
:10060000C1FADFF8E890C9F800A0306800F000FBFC
:1006100030680026314F00240025CDE90045CDE9A2
:10062000024532463B4600F0E7FAD9F8000000F0F8
:10063000EFFAD9F80000CDE90045CDE90245324690
:100640003B4600F0D9FA0D20414602F03DFD0A2458
:100650000D26474664253046394602F003FD2846FC
:1006600002F00EFF3046002102F0FCFC284602F0AA
:1006700007FF013CEFD10D20012102F0F3FC4FF404
:100680007A7002F0FDFE14240025154F64263846CA
:1006900005A901F0B1FC28460C9905F091FE05462C
:1006A000304602F0EDFE013CF1D128460D4906F03E
:1006B00043F80D4B18600D20002102F0D3FC4FF4DD
:1006C0007A7002F0DDFE0EB0BDE8F0875C92FF1F8D
:1006D000BC92FF1F000059408C92FF1F0000244075
:1006E0006092FF1F0000A0417892FF1FB092FF1F91
:1006F000F0B58BB00D20012102F0B4FC0A240025D6
:100700000D4F0F26384601A901F076FC28460899BE
:1007100005F056FE0546304602F0B2FE013CF1D12E
:100720002846064906F008F8054B18600D20002100
:1007300002F098FC0BB0F0BD6092FF1F000020415A
:100740007892FF1F2DE9F041EEB0AF480DA901F0FE
:1007500053FCAE4B1B680093009805F0E1FE054684
:10076000AB4C216805F02AFE06462560A94C14987A
:10077000A94B196805F022FEA84905F029FF31466A
:1007800005F026FFA64905F0D7FF216805F018FE01
:10079000206003F055FC002800F0898101A8A149E0
:1007A000782201F00FFE1AA89F4901F073FE01A8FC
:1007B0001AA901F06FFF421C16A801A901F094FFCD
:1007C00001A816A901F098FE16A801F017FE1AA8B4
:1007D00001F014FE954C22A8214601F05BFE01A811
:1007E00022A901F057FF03461EA801A9002201F02B
:1007F00057FF1EA801F080FF80461EA801F0FEFDF5
:1008000022A801F0FBFD26A8214601F043FE01A825
:1008100026A901F03FFF421C05A801A901F064FFD1
:1008200026A801F0EBFD2EA8214601F033FE05A815
:100830002EA901F02FFF03462AA805A9002201F0E6
:100840002FFF2AA801F058FF07462AA801F0D6FD7D
:100850002EA801F0D3FD32A8214601F01BFE05A809
:1008600032A901F017FF421C09A805A901F03CFFBD
:1008700032A801F0C3FD3AA86D4901F00BFE09A8AA
:100880003AA901F007FF034636A809A9002201F0A2
:1008900007FF09A836A901F02FFE36A801F0AEFD2A
:1008A0003AA801F0ABFD09A801F026FF0446614B10
:1008B0001E68404605F056FA02460B46304600F0E8
:1008C000D3F95D4B1E68384605F04CFA02460B46DC
:1008D000304600F0C9F90D20E1B202F0C3FB012C53
:1008E00005D1FFF705FF0D20002102F0BBFB3EA85C
:1008F000524901F0CFFD524E306800F0ADFB014689
:1009000042A80A2201F012FE3EA842A901F08EFE82
:100910000146444C204601F001FD204601F024FD33
:1009200042A801F06BFD3EA801F068FD46A84549CC
:1009300001F0B0FD306800F053FB01464AA80A22DE
:1009400001F0F4FD46A84AA901F070FE01462046D8
:1009500001F0E4FC204601F007FD4AA801F04EFD3D
:1009600046A801F04BFD4EA8374901F093FD3068D1
:1009700000F054FB014652A80A2201F0D7FD4EA810
:1009800052A901F053FE0146204601F0C7FC204663
:1009900001F0EAFC52A801F031FD4EA801F02EFD55
:1009A00056A82A4901F076FD5AA81A4B1968022266
:1009B00001F0E4FD56A85AA901F038FE0146204690
:1009C00001F0ACFC204601F0CFFC5AA801F016FD66
:1009D00056A801F013FD5EA81D4901F05BFD154B03
:1009E000186800F03BF9014662A80A2201F0B2FD46
:1009F0005EA862A901F01AFE0146204601F08EFCB5
:100A0000204601F0B1FC25E06092FF1F5493FF1FC8
:100A1000C492FF1FC092FF1F7892FF1FE12E654214
:100A200000007A443C94FF1FC8980000CC98000056
:100A3000D09800008C92FF1FB092FF1FD498000046
:100A40005C92FF1FD8980000DC980000E09800003E
:100A5000E498000062A801F0D1FC5EA801F0CEFC91
:100A600066A81D4901F016FD1C4B186800F0F6F849
:100A700001466AA80A2201F06DFD66A86AA901F084
:100A8000D5FD0146204601F049FC204601F06CFCF2
:100A90006AA801F0B3FC66A801F0B0FC09A801F057
:100AA000ADFC05A801F0AAFC01A801F0A7FC0C4BC5
:100AB0001B680993099805F033FD294605F07EFC73
:100AC0000146084805F07AFC05F05EFF02F0D8FC0C
:100AD0006EB0BDE8F08100BFE8980000B092FF1F43
:100AE0005493FF1F00002041F8B51B4801F0CCFBD8
:100AF0001A4D284647F25D6100F032FF184C284637
:100B00001849224605F060FF174D284647F25E61FE
:100B100000F030FF28461549224605F055FF144DD8
:100B20002846142101F0E4F928461249224605F02E
:100B30004BFF114800270760802606710F4D29469C
:100B4000224605F041FF0E480760067129462246FD
:100B500005F03AFFF8BD00BF9092FF1F7C92FF1F87
:100B60003C88FF1F750400009492FF1F8104000061
:100B70006092FF1F8D040000B492FF1FE904000083
:100B8000A892FF1F2DE9F0418046DDE9066741602C
:100B9000826000240025C0E90445C0E90645002222
:100BA0004263C0E90E45C0E91045C0E91245C0E9FD
:100BB0001445C0E91645C0E91845C0E91A4580F852
:100BC000702080F8712080F87220C0E90867036007
:100BD000089B0363C0E90445C0E906453046394631
:100BE0000022044B05F024F9C8E90A014046BDE89B
:100BF000F08100BF00002840C0E91623DDE9002392
:100C0000C0E91823DDE90223C0E91A23704700BFB9
:100C100038B504460079012102F056FA207A012104
:100C200002F052FA2079002102F01CFA207A002109
:100C300002F018FA074D2B685B682846064909221E
:100C40009847284601F090FB00220023C4E90423C2
:100C500038BD00BF3C94FF1FEC98000008B5006B46
:100C600000F036FB08BD00BFF8B5064614461D4629
:100C70000079012102F028FA307A012102F024FAE9
:100C80002046294605F06EFB05F06CF804460D463B
:100C9000C6E9064596F871301BB101F100430446E0
:100CA0001D46204629460022002305F051FBF0B1E5
:100CB00096F872306BB137792046294605F052FB21
:100CC0000146384602F0C0FA307A012102F0CAF932
:100CD000F8BD3079002102F0C5F9367A2046294660
:100CE00005F040FB0146304602F0AEFAF8BD96F83A
:100CF000723073B13079012102F0B4F9367A2046AE
:100D000005F1004105F02EFB0146304602F09CFA49
:100D1000F8BD3779204605F1004105F023FB014677
:100D2000384602F091FA307A002102F09BF9F8BDC2
:100D300010B50446016042608360C8B2002102F031
:100D4000C3F92079002102F0BFF9207A002102F0D6
:100D5000BBF9204610BD00BF10B4024652F804494A
:100D600050F8043C9C4207DA1146036052F8043DF7
:100D70009C4202DA0846F7E701460C605DF8044B36
:100D8000704700BF2DE9F04106460F4688421BD050
:100D9000041DA14218D06FF00308C0EB08082046DC
:100DA00054F8045B33689D420ADA08EB040292109F
:100DB00004D09200A01A314606F0FEF8356001E03A
:100DC000FFF7CAFFA742EAD1BDE8F08138B50D466A
:100DD0000B1A432B0DDD00F140042146FFF7D2FF33
:100DE000A54208D02046FFF7B7FF0434A542F9D149
:100DF00038BDFFF7C7FF38BD2DE9F00102F1FF3C18
:100E00000CEBDC7C4FEA6C0C614516DA0D466FF09A
:100E100040486C1C640004EB080750F8246050F84C
:100E20002770BE42B8BF04F1FF3450F8246040F888
:100E30002560644502DA2546EBE70C4612F0010F07
:100E40000FD1023A02EBD272B4EB620F09D1651CEA
:100E50006D0005F18042013A50F8222040F824202C
:100E60006C1E621E02EBD27252108C4212DD50F8E0
:100E70002250AB4210DD40F82450541E04EBD474D1
:100E80006610914209DA50F82650AB4205DD14464F
:100E90003246F0E7224600E0224640F82230BDE824
:100EA000F00170472DE9F8430746904681460B1A3A
:100EB000432B00F38A80BDE8F883B8F1000F28D1F6
:100EC00000E00E46072B40F383804FEAA308A8F109
:100ED000020404EBD4746410651C07EB85053846E6
:100EE0002146424655F8043DFFF786FF002C6FD09F
:100EF000013CF4E756F8043C3A6846F8042DF41B2C
:100F000038462946A210FFF777FF072CF2DCBDE830
:100F1000F883314608F1FF389B1003EBD373581068
:100F20003E1D7A6857F820309A4211DA51F8044C85
:100F3000A34204DA3A683B6047F820201BE0A24253
:100F40003B68B9BF3C6041F8043C3A607B6012E00A
:100F500051F8044CA24203DA3B683A607B600AE035
:100F6000A34204DA3B683C6041F8043C03E03A6881
:100F70003B6047F82020084635683C68A54205DA02
:100F8000331D1E4653F8045BA542FADB031F50F8DD
:100F9000042CA24207DDA0F10803184653F80429E7
:100FA000A242FADC00E0184686420AD330464246A6
:100FB000FFF778FFC9EB0603432B3FF77EAFBDE891
:100FC000F88346F8042B0560D6E7002AA2D178E71B
:100FD000F31B072B01DD00258CE7BDE8F88300BF7C
:100FE00070B586B00646ADF1040405AD307A01F067
:100FF000C7FC44F8040FAC42F8D1684606A90422A5
:10100000FFF750FF684606A9FFF7E0FE039B029832
:10101000184400EBD070401006B070BD70B586B0BB
:101020000646ADF1040405AD307801F0A9FC44F8A2
:10103000040FAC42F8D1684606A90422FFF732FF3C
:10104000684606A9FFF7C2FE039B0298184400EB0E
:10105000D070401006B070BD70B586B00646ADF1D8
:10106000040405AD307901F08BFC44F8040FAC4268
:10107000F8D1684606A90422FFF714FF684606A9BE
:10108000FFF7A4FE039B0298184400EBD0704010B9
:1010900006B070BD08B5114B187802F007F80128AA
:1010A0000ED10F4B187802F001F820B90D4B1A68D9
:1010B00001321A6008BD0B4B1A68013A1A6008BD6C
:1010C000074B187801F0F2FF0128064B1A680CBF95
:1010D000013202F1FF321A6008BD00BFCC92FF1F3F
:1010E000D492FF1FD092FF1F08B5114B187801F062
:1010F000DDFF01280CD10F4B187801F0D7FF012834
:101100000D4B1A680CBF013202F1FF321A6008BDA4
:10111000084B187801F0CAFF20B9074B1A68013252
:101120001A6008BD044B1A68013A1A6008BD00BF76
:10113000D492FF1FCC92FF1FD092FF1F08B5114B16
:10114000187801F0B3FF01280ED10F4B187801F089
:10115000ADFF20B90D4B1A6801321A6008BD0B4B68
:101160001A68013A1A6008BD074B187801F09EFF13
:101170000128064B1A680CBF013202F1FF321A60D7
:1011800008BD00BFDC92FF1FC892FF1FD892FF1F4F
:1011900008B5114B187801F089FF01280CD10F4BCD
:1011A000187801F083FF01280D4B1A680CBF01323B
:1011B00002F1FF321A6008BD084B187801F076FF83
:1011C00020B9074B1A6801321A6008BD044B1A682F
:1011D000013A1A6008BD00BFC892FF1FDC92FF1FD2
:1011E000D892FF1F10B4084C216008490A60084AD1
:1011F0001360084A019B13600023074A1360074AE3
:1012000013605DF8044B7047CC92FF1FD492FF1F10
:10121000DC92FF1FC892FF1FD092FF1FD892FF1FC2
:10122000F8B5214F3878002101F04EFF1F4E30787D
:10123000002101F049FF1E4D2878002101F044FFF4
:101240001C4C2078002101F03FFF3878012101F08B
:1012500009FF3078012101F005FF2878012101F014
:1012600001FF2078012101F0FDFE387812490422A7
:1012700001F06AFF30781149042201F065FF2878F7
:101280000F49042201F060FF20780E49042201F08A
:101290005BFF0D4C23685B6820460C490B22984786
:1012A000204601F061F8F8BDCC92FF1FD492FF1FD9
:1012B000DC92FF1FC892FF1F95100000E91000008C
:1012C0003D110000911100003C94FF1FF8980000B0
:1012D000034610B9044B18687047012806BF034B3A
:1012E00018684FF0FF307047D092FF1FD892FF1F51
:1012F000044BD878C0B2044B1B6898421CBF024B09
:1013000018607047006006404488FF1F08B5FFF76B
:10131000EFFF10F0020FFAD00222014BDA7008BD85
:10132000006006400B4B1B7813B90B4B1B7873B155
:101330000A4B1B78202B03D901230371002070472F
:10134000581C064A1070064AD154012070470020EC
:10135000704700BF4A93FF1F0C93FF1F4B93FF1F63
:10136000E892FF1F704700BF024B1878024B1B78B2
:10137000C01A70474993FF1F4893FF1F074B1B7804
:10138000074A12789A4205D9591C044A1170054A35
:10139000D05C70474FF0FF30704700BF4893FF1F8D
:1013A0004993FF1F1093FF1F054B1B78054A1278C6
:1013B0009A4286BF044AD05C4FF0FF30704700BFAE
:1013C0004893FF1F4993FF1F1093FF1F08B5104B51
:1013D000DB7813F0200F0CD1122001F0E9FD0D4B4A
:1013E0001B689BB100210C4A11700C4A1078984779
:1013F00008BD0B4A13780133DBB21370012B02D8FE
:10140000084B1B7813B9122001F0D2FD08BD00BFB4
:1014100000600640E492FF1F4893FF1F4993FF1F9F
:101420003493FF1F0C93FF1F38B514460D4B1B78E8
:1014300013B90D4B1B7893B10C4B1D78C5F12103EB
:10144000A34202D2012202711C46094828442246C6
:1014500001F04CFB2544054B1D70204638BD002093
:1014600038BD00BF4A93FF1F0C93FF1F4B93FF1F14
:10147000E892FF1F002202714FF47A7181600273BB
:10148000014A0260704700BF109900000B4B1B68B7
:1014900013F0400F10D00A4B994203D82822094B71
:1014A0005A7006E0084B994294BF19220A22054B54
:1014B0005A700322034B9A71704700BF3480044076
:1014C0007F1A0600006006403F420F0008B5002367
:1014D000174A1370174A116841F040011160164A0B
:1014E0009370164B1B78122B04D14FF41972144BC6
:1014F0001A6005E0112B03D14FF41972114B1A60D9
:10150000114B1B78132B04D14FF419720F4B1A6037
:1015100005E0102B03D14FF419720D4B1A600D49E1
:10152000FFF7B4FF044B20225A7180229A7008BD45
:101530000C93FF1F34800440006006404088FF1F6A
:101540000CA0044004A004404888FF1F08A00440E9
:1015500000A00440A086010008B53D4BDB78DBB25B
:1015600013F0100F06D01021394AD17013F0400F3C
:1015700003D108BD13F0400F2CD013F0040F1BD083
:101580000023344A1370344A1370344B1B681BB168
:101590009847314B1B782BB901222F4B1A70002230
:1015A0002F4B1A702A4BD0229A702D4A12781A713A
:1015B00001222C4B1A7009E00122264B1A700022DE
:1015C000294B1A70224BC0229A701B790222204BA1
:1015D000DA7008BD1E4A927812F0100F1CD013F07A
:1015E000010F14D11F4B1B781B4A12789A4207D95E
:1015F000591C1C4A11701A4AD25C154B1A7102E030
:101600000022134B1A71D022114B9A701BE0104B21
:10161000C0229A701B7916E00022144B1A70122017
:101620001349032201F090FD094B1B79DAB20E4BEE
:101630001B781F2B07D80749097821B1581C0A4984
:1016400008700C49CA540222014BDA7008BD00BF71
:1016500000600640E092FF1F4B93FF1F3093FF1F77
:10166000E892FF1F4C93FF1F4993FF1F3493FF1F06
:10167000CD1300001093FF1F4900044B1970012384
:10168000034A1370034A1370704700BFE892FF1FAC
:101690004A93FF1F4B93FF1F2DE9F04182B088460C
:1016A000374B1222DA709B7813F0200F03D0B4224C
:1016B000334B9A701DE0334B1B680093009D314CF7
:1016C0000CE023680193019B5B1B0F2B06D92C4B6D
:1016D00000229A7080229A7004204EE0FFF708FEE4
:1016E00010F0200FEDD10022274B1A70B022244BAE
:1016F0009A70FFF7FDFD10F0200FFAD0234B1B78F6
:101700007BB30024224E1E4D204F335D2B71FFF71B
:10171000EFFD10F0020F02D110F0200FF7D10223DD
:10172000EB70FFF7E5FD10F0100F04D08022144B92
:101730009A70042018E010F0200F04D18022104B82
:101740009A70042010E010F0010F04D0002C0CBFA0
:10175000022003200BE00134E4B23B78A342D4D84A
:1017600001E0002000E00020B8F1000F02D080224C
:10177000034B9A700022074B1A7002B0BDE8F0814B
:10178000006006405493FF1F0C93FF1F4B93FF1FF5
:10179000E892FF1F4A93FF1F2DE9F8430D461446B8
:1017A000984600233E4A13703E4A13703E4B122265
:1017B000DA709B7813F0200F03D0B4223A4B9A7062
:1017C0000AE0FFF795FD10F0200FFAD10022374B09
:1017D0001A70B022344B9A706D0045F00105EDB2DD
:1017E000314B1D71FFF792FDFFF782FD10F01100E4
:1017F00005D080222C4B9A700020BDE8F88344B9B4
:10180000B8F1000F0CBFA0228022274B9A70BDE8D0
:10181000F883012C04D1244BA8229A701B7938E05C
:10182000214BA0229A701B79012C32D900251E4E23
:101830004FF0A8091E4FFFF769FD013CE4B2012CEF
:1018400008BF86F802901F2D04D86A1C33797B5597
:10185000D5B200E03379012CEDD1FFF757FDB0226E
:10186000114B9A701F2D07D82B465D1CEDB20E4A06
:1018700011790F4AD15401E00B4B1B79B8F1000FDD
:1018800002D08022084B9A70064B1D702846BDE896
:10189000F883FFF73BFDB022034B9A700023E4E787
:1018A0004893FF1F4993FF1F006006400C93FF1FE2
:1018B0001093FF1F08B50123FFF76EFF08BD00BF9F
:1018C00008B5C9B2FFF7D8FE08BD00BF08B50121B1
:1018D000FFF7E2FE08BD00BF08B50248FFF7CAFDEA
:1018E00008BD00BF3893FF1F4173704738B50546E8
:1018F0000C4608460021282205F0BEFB2046084978
:101900000B2205F00FFF0023E3720122E260E96879
:101910002161626163620023A361E361236238BDD8
:101920004899000038B505460C4608460021282293
:1019300005F0A2FB204609490B2205F0F3FE002327
:10194000E3720122E2602A6922610222626163621B
:101950000023A361E361236238BD00BF4899000002
:10196000034A0260C1600022C28002814281704746
:1019700058990000044A0260016100224273C2804B
:1019800002814281704700BF3099000070B5164651
:101990001D46084C2046FFF76FFE20463146FFF7F4
:1019A000C1FC20462946FFF7BDFC2046FFF78EFF0D
:1019B00070BD00BF3893FF1F70B516461D46084C1A
:1019C0002046FFF759FE20463146FFF7ABFC204684
:1019D0002946FFF7A7FC2046FFF778FF70BD00BF40
:1019E0003893FF1F38B505460C461E2101222346B9
:1019F000FFF7E2FF2C73802C23D006D8402C12D0A6
:101A0000602C17D0202C37D106E0C02C27D0E02C3A
:101A10002CD0A02C30D11BE0184A194B1A60194A5F
:101A2000194B1A6038BD194A154B1A60184A164BE3
:101A30001A6038BD174A124B1A60174A124B1A60C7
:101A400038BD164A0E4B1A60154A0F4B1A6038BD46
:101A5000134A0B4B1A60134A0B4B1A6038BD124ADB
:101A6000074B1A60114A084B1A6038BD104A044BE4
:101A70001A60104A044B1A6038BD00BF00808944C8
:101A80004C88FF1F000075445088FF1F00C055445C
:101A900000003E4400802744000016440000E1435B
:101AA0000000C8430080B1430000A5430080934379
:101AB0000000664300004D4370B50D4616460C4CC1
:101AC0002046FFF7D9FD20463146FFF72BFC204684
:101AD000FFF7FCFE204629460122FFF7EBFE2046D9
:101AE000FFF74CFC05462046FFF7F0FEE8B270BD5C
:101AF0003893FF1F10B504460948FFF7E7FC20465E
:101B0000192120225723FFF741FF204619212022C7
:101B1000FFF7D2FF572814BF0020012010BD00BFDF
:101B20003893FF1F70B50D4616460C4C2046FFF744
:101B3000A3FD20463146FFF7F5FB2046FFF7C6FE22
:101B4000204629460122FFF7B5FE2046FFF716FC86
:101B500005462046FFF7BAFEE8B270BD3893FF1F76
:101B600010B504460B48FFF7B1FC20461E210222A7
:101B70000023FFF721FF20461E210022FFF7D2FF9E
:101B8000102805D120462021FFF72CFF012010BD91
:101B9000002010BD3893FF1F2DE9F0470546254C66
:101BA00020461921FFF768FD23681B682046A821FD
:101BB00098472046FFF78AFE204619210622FFF7A4
:101BC00079FE2046FFF7D0FB0528FADD194C2046A8
:101BD000FFF7D4FB81462046FFF7D0FB8246204624
:101BE000FFF7CCFB07462046FFF7C8FB80462046A0
:101BF000FFF7C4FB06462046FFF7C0FB5FFA8AFAF0
:101C00005FFA89F949EA0A2949F30B19A5F8069000
:101C10005FFA88F8FFB247EA082747F30B172F81CE
:101C2000C0B2F6B246EA002646F30B166E81BDE856
:101C3000F08700BF3893FF1F70B582B005460C4691
:101C4000242608460021324605F016FA2846FFF7FA
:101C5000A3FF2660EB6863600126A660144B1B6837
:101C60000193019B2361B5F9060004F05DFC114965
:101C700004F0AEFC104904F0ABFC6061B5F908005B
:101C800004F052FC0B4904F0A3FC0B4904F0A0FC47
:101C9000A061B5F90A0004F047FC064904F098FC7D
:101CA000054904F095FCE061304602B070BD00BF0C
:101CB0005493FF1F6F12833A0AE81C412DE9F04745
:101CC0000546224C20461E21FFF7D6FC23681B68E0
:101CD0002046032198472046FFF7F8FD20461E21A5
:101CE0000622FFF7E7FD2046FFF73EFB0528FADD59
:101CF000164C2046FFF742FB82462046FFF73EFB8C
:101D000081462046FFF73AFB07462046FFF736FBA1
:101D100006462046FFF732FB80462046FFF72EFBA3
:101D20005FFA8AFA5FFA89F949EA0A29A5F8069062
:101D30005FFA88F8C0B240EA0828A5F80880FFB228
:101D4000F6B246EA07266E81BDE8F0873893FF1F9A
:101D50002DE9F04182B0044688460846002124223D
:101D600005F08AF91E27092640F6EE752046394609
:101D70003246FFF7D7FE10F0010F7DD02046FFF767
:101D80009DFF637B002B3FD0E28802F2F77292B294
:101D9000638903F2F7739BB2AB4298BFAA4205D89E
:101DA000238903F2F7739BB2AB422DD9237B602BBF
:101DB0001BD004D8202B22D0402B1BD024E0A02BFA
:101DC00009D0C02B02D0802B1ED109E02046E02193
:101DD000FFF708FECAE72046C021FFF703FEC5E76C
:101DE0002046A021FFF7FEFDC0E720468021FFF737
:101DF000F9FDBBE720466021FFF7F4FDB6E720467A
:101E00004021FFF7EFFDB1E72423C8F80030236934
:101E1000C8F804300223C8F80830194B1B68019336
:101E2000019BC8F81030174B1D68B4F9060004F088
:101E30007BFB294604F080FC134904F0C9FBC8F879
:101E40001400B4F9080004F06FFB294604F074FC98
:101E50000D4904F0BDFBC8F81800B4F90A0004F0FD
:101E600063FB0A4B196804F067FC074904F0B0FBF8
:101E7000C8F81C00012000E0002002B0BDE8F0819D
:101E80005493FF1F4C88FF1F0000C8425088FF1F5B
:101E90000175704738B505460C46084600212822D2
:101EA00005F0EAF8204610490B2205F03BFC002320
:101EB000E3720122E2602A692261042262616362A4
:101EC000A88904F02DFB094904F082FBA061A889D0
:101ED00004F02AFB00F10040044904F079FBE061C2
:101EE0000023236238BD00BF9099000035FA8E3C74
:101EF000024A026001610022027570477899000071
:101F000070B50E461546084C20466B21FFF7D8FCED
:101F100020463146FFF706FA20462946FFF702FA27
:101F20002046FFF7D3FC70BD3893FF1F38B50D4630
:101F30000F4C20466B21FFF79FFB20462946FFF7F9
:101F4000F1F92046FFF7C2FC20466B210122FFF782
:101F5000B1FC2046FFF708FA0028FAD0044C2046CE
:101F6000FFF70CFA05462046FFF7B0FCE8B238BD93
:101F70003893FF1F38B504460D461E48FFF7A6FAF2
:101F8000A5810023E3802381638120460F21FFF791
:101F9000CDFFD42801D0D72827D1204620210022E8
:101FA000FFF7AEFF204620210F22FFF7A9FFA389EC
:101FB000B3F5FA7F0BD0B3F5FA6F0FD0FA2B16D129
:101FC000204623210022FFF79BFF012038BD204639
:101FD00023211022FFF794FF012038BD2046232142
:101FE0002022FFF78DFF012038BD002038BD0120E1
:101FF00038BD00BF3893FF1F2DE9F04F85B006466E
:102000000C462425084600212A4605F035F8002311
:10201000F380338173812560336963600423A36097
:10202000914DDFF860822B680393039B23618F4FF0
:1020300038466B21FFF720FB3B681B683846A82118
:1020400098473846FFF742FC0028ECD138466B2110
:102050000622FFF72FFC3846FFF790F982463846F4
:10206000FFF78CF983463846FFF788F90090384629
:10207000FFF784F981463846FFF780F9019038462A
:10208000FFF77CF907465FFA8BFB5FFA8AFA4AEAA8
:102090000B2A0FFA8AF004F047FA60615FFA89F9B7
:1020A000009AD3B243EA09290FFA89F004F03CFA06
:1020B000A061FFB2019AD3B243EA072738B204F015
:1020C00033FAE061A6F806A0A6F808907781337D80
:1020D000002B7ED06769D4F818B0E36900934FF005
:1020E000010A3846624904F01BFC08B94FF0000AA7
:1020F0004FF001093846414604F01CFC08B94FF086
:1021000000094AEA09094FF001075846414604F020
:1021100011FC08B94FF0000749EA07094FF0010721
:102120005846534904F0FCFB08B94FF0000749EA50
:1021300007074FF0010A0098414604F0FBFB08B97D
:102140004FF0000A47EA0A0717F0FF0F0BD14FF0D4
:1021500001070098464904F0E3FB08B94FF0000777
:10216000FFB2002F35D0B389FA2B1AD0B3F5FA7F1E
:102170002FD14FF4FA63B381304620210022FFF7BC
:10218000BFFE304620210F22FFF7BAFE3046232142
:102190002022FFF7B5FE304624218022FFF7B0FE53
:1021A00041E74FF4FA73B381304620210022FFF754
:1021B000A7FE304620210F22FFF7A2FE3046232142
:1021C0001022FFF79DFE304624218022FFF798FE63
:1021D00029E7B389B3F5FA7F14D0B3F5FA6F21D0AC
:1021E000FA2B2ED16069234904F0F2F96061A069ED
:1021F000204904F0EDF9A061E0691E4904F0E8F916
:10220000E0611EE060691C4904F0E2F96061A069C8
:10221000194904F0DDF9A061E069174904F0D8F923
:10222000E0610EE06069154904F0D2F96061A069CF
:10223000124904F0CDF9A061E069104904F0C8F931
:10224000E06160690E4904F0C3F96061A0690C495E
:1022500004F0BEF9A061E069094904F0B9F9E06150
:10226000012005B0BDE8F08F5493FF1F3893FF1F86
:1022700000F0FFC6295C0F3C295C8F3C295C8F3D38
:1022800035FA8E3C00F0FF46704700BF704700BF34
:1022900010B403684BB1064A1A441211054C0649A2
:1022A00041F8224000229A6002605DF8044B7047BA
:1022B000008FFCBF8D2200005488FF1F08B501224B
:1022C000024B1A60024B1B68984708BD0C71034013
:1022D0005488FF1F08B50122024B1A60024B5B684D
:1022E000984708BD1C7103405488FF1F08B50122A0
:1022F000024B1A60024B9B68984708BD2C71034043
:102300005488FF1F08B50122024B1A60024BDB689C
:10231000984708BD3C7103405488FF1F2DE9F043E6
:102320008BB0074688468C68C4B100252E464FF016
:102330002109404601A94A462B4600F081F9202C8C
:1023400034BF224620221544A41A3B685B683846F5
:1023500001A998470644002CEBD100E00026304646
:102360000BB0BDE8F08300BF00B583B0054B1B8800
:10237000ADF8043003685B6801A90222984703B0F6
:102380005DF804FB9899000070B582B004460C4BD0
:102390001B680093009E0A4D2368DB68204698471F
:1023A00000280ADA01F058FF2B680193019A921B6A
:1023B000A3689A42F0D34FF0FF3002B070BD00BF67
:1023C0005493FF1FF8B505460E461746002100F04E
:1023D00061F887B100243046FFF7D6FF011E02DA0C
:1023E0000123337307E031B12846C9B200F00EF97A
:1023F0000134BC42EFD12846F8BD00BF10B50446F9
:10240000006804F035FB204610BD00BF38B5044617
:102410000D460068013104F07DFE18B12060656052
:10242000012038BD002038BD10B5044643688B42FA
:102430000AD2FFF7EBFF034648B1A36833B923681C
:1024400000221A70012302E0012300E00123184654
:1024500010BD00BF70B504460E4615462AB9036884
:1024600003B11A700023A36012E01146FFF7DCFFEE
:1024700048B9206818B104F0FBFA00232360002358
:102480006360A36004E0A5602068314605F0BCF8F5
:10249000204670BD38B50446002303604360836066
:1024A00003730D4639B1084605F00CF90246204683
:1024B0002946FFF7CFFF204638BD00BF38B5054697
:1024C0000C46006868B16A688B689A4207D309684D
:1024D00005F09AF8A368AB600023A36038BD04F050
:1024E000C7FA23682B6063686B60A368AB60002346
:1024F00023606360A36038BD10B50446884201D0F4
:10250000FFF7DCFF204610BD38B504460D4641B14B
:10251000084605F0D7F8024620462946FFF79AFFFD
:1025200001E000238360204638BD00BF10B586B0AF
:10253000044600230360436083600373084601A9D7
:1025400000F0F4FB204601A9FFF7DEFF204606B0AD
:1025500010BD00BF10B58AB004460023036043607D
:1025600083600373084601A900F0E0FB204601A93F
:10257000FFF7CAFF20460AB010BD00BF10B58AB0F1
:102580000446002303604360836003730846911C84
:102590006B4600F0DBFB01462046FFF7B5FF204607
:1025A0000AB010BD2DE9F84304460D461646826870
:1025B00003688B4206D899188D4205D2C3EB0509F2
:1025C000012702E0002700E00027DEB106EB020849
:1025D00020464146FFF728FFA0B15FB12168A068FF
:1025E00008444944324600F081FA2368002203F887
:1025F000082005E02068A3681844294605F004F87F
:10260000C4F808802046BDE8F88300BF10B582B04A
:1026100004468DF8041000238DF8053001A901222D
:10262000FFF7C0FF204602B010BD00BF10B5044642
:102630000B4609689A68FFF7B5FF204610BD00BF3A
:1026400038B50C469AB191B18168994202D80023FD
:10265000237038BD551EC91A8D4228BF0D4601682A
:10266000204619442A4605F05DF80023635538BD1D
:1026700010B58368934207D90468A018096805F06B
:10268000D7F920B1001B10BD4FF0FF3010BD4FF047
:10269000FF3010BD08B50022FFF7EAFF08BD00BFFC
:1026A0002DE9F04104460E4615461F469A4201D9CF
:1026B0003D46174620460021FFF7ECFEB3689D42D9
:1026C0000FD89F4228BF1F46336813F807800022A7
:1026D000DA55316820462944FFF716FF336803F8BE
:1026E00007802046BDE8F08110B504468B68FFF7EF
:1026F000D7FF204610BD00BF08B5006810B104F038
:1027000069F908BD002008BD30B4394A3949136859
:1027100013F0800FFBD10B6813F0800FF7D172B666
:10272000354B1B78002B5FD0344B1C6804331D687D
:10273000043318680433196804331A6804331B68B7
:102740002C44204401440A441A44C2F34E0242F489
:1027500000422B4B1A602C331C6804331D68043371
:1027600018680433196804331A6804331B682C444E
:10277000204401440A441A44C2F34E0242F4004287
:10278000204B1A6003F108131C6804331D680433DE
:1027900018680433196804331A6804331B682C441E
:1027A000204401440A441A44C2F34E0242F4004257
:1027B000154B1A602C331C6804331D6804331868E9
:1027C0000433196804331A6804331B682C4420440A
:1027D00001440A441A44C2F34E0242F400420B4B35
:1027E0001A600022044B1A7062B630BC704700BFFA
:1027F00024B0034024B00B404E93FF1F38B0034079
:102800002CB0034030B003402CB00B4030B00B4034
:1028100060223A4B1A70E12201331A70384B1B7850
:10282000082B10D1012203F1804303F56C331A60A9
:10283000132334490B6001F5FF2101F2FC710A609A
:10284000314A13601FE00A2B0DD119222F4B1A6059
:1028500013232C490B6001F5FF2101F2FC710A6082
:10286000294A13600FE00C2B0CBF15223D22274B89
:102870001A60122323490B6001F5FF2101F2FC715C
:102880000A60214A1360224B1B7833B10123214A8D
:10289000136002F50022136005E000231D4A136057
:1028A00002F5002213601C4B1B78012B06D88023F5
:1028B0001A4A136002F5002213601AE0042B06D8AE
:1028C0008423164A136002F50022136011E0082BDE
:1028D00006D88523114A136002F50022136008E030
:1028E000102B94BF862387230C4A136002F5002225
:1028F000136001220A4B1A70704700BF0040074066
:102900006488FF1F0CB003400CB00B4008B00340BC
:102910005193FF1F20B003406588FF1F24B0034080
:102920004E93FF1F08B50C2804D9102828BF10208B
:10293000102307E00A2804D8092834BF08230A23F3
:1029400000E00C23DAB2101A094908700949097825
:1029500099420CD0074B1A70074B1B782BB1002300
:10296000064A136002F500221360FFF751FF08BD0D
:102970004D93FF1F6488FF1F4E93FF1F24B0034039
:102980002DE9F843282873D83C4B1E5CFF2E72D0EB
:102990003B4B1B780BB1FFF7B7FE16F0800F29D128
:1029A00072B6384C384D4FF0010726602F7062B672
:1029B00072B6236813F0800F04D12B7813F0FF0F49
:1029C0000FD1F2E7314B186800222F4B1A7062B614
:1029D0002F4B1B781841BDE8F8832B7813F0FF0FBD
:1029E000E3D062B601F038FC72B6236813F0800FB2
:1029F000F3D0E7E772B606F040095FFA89F9254F90
:102A0000254C06F03F06254D4FF00108B9F1000FA7
:102A100004D03B6823F010033B6003E03B6843F0C5
:102A200010033B60266085F8008062B672B62368AA
:102A300013F0800F04D12B7813F0FF0F0FD1E5E7CF
:102A4000174B18680022154B1A7062B6104B1B7892
:102A50001841BDE8F8832B7813F0FF0FD6D062B68B
:102A600001F0FAFB72B6236813F0800FF3D0E7E7AA
:102A70000020BDE8F8830020BDE8F8839C990000A1
:102A80004E93FF1F00B003405093FF1F10B0034050
:102A90004D93FF1F0CB00B4000B00B404F93FF1F36
:102AA00010B00B40094B1A6842F480521A60084B70
:102AB0001B781BB18022074B1A7002E0C022054B25
:102AC0001A7080F30C00044B188070472C8004406F
:102AD0005193FF1F21C00C4000C00C4008B5FDF70A
:102AE0004BFDFDF72FFE01F0B7FBFAE7844641EA04
:102AF000000313F003036DD1403A41D351F8043B76
:102B000040F8043B51F8043B40F8043B51F8043BC7
:102B100040F8043B51F8043B40F8043B51F8043BB7
:102B200040F8043B51F8043B40F8043B51F8043BA7
:102B300040F8043B51F8043B40F8043B51F8043B97
:102B400040F8043B51F8043B40F8043B51F8043B87
:102B500040F8043B51F8043B40F8043B51F8043B77
:102B600040F8043B51F8043B40F8043B51F8043B67
:102B700040F8043B51F8043B40F8043B403ABDD2D6
:102B8000303211D351F8043B40F8043B51F8043B78
:102B900040F8043B51F8043B40F8043B51F8043B37
:102BA00040F8043B103AEDD20C3205D351F8043B07
:102BB00040F8043B043AF9D2043208D0D2071CBFD3
:102BC00011F8013B00F8013B01D30B8803806046FC
:102BD000704700BF082A13D38B078DD010F0030372
:102BE0008AD0C3F10403D21ADB071CBF11F8013BE2
:102BF00000F8013B80D331F8023B20F8023B7BE731
:102C0000043AD9D3013A11F8013B00F8013BF9D25B
:102C10000B7803704B7843708B78837060467047F5
:102C2000024B1A6801321A60704700BF5493FF1FAD
:102C300008B50D4C236813F4802F01D000F076FD09
:102C4000236813F4806F01D002F012F8236813F4A4
:102C5000006F01D002F0BEFB236813F4805FE9D05F
:102C600002F076FEE6E700BF3480044008B5FFF7C7
:102C7000DFFF00BF1022014B1A8070470020054083
:102C8000704700BF024A1368184410601846704726
:102C90006888FF1FFEE700BFEFF31383ABB9EFF3C4
:102CA0001083ABB9EFF3058323B10F2B05D9094A84
:102CB000985C03E04FF4807000E00020EFF3118394
:102CC0003BB1834238BF184670474FF0FF30704722
:102CD00000207047F0E300E008B503F0C1FE08BD36
:102CE00008B503F0C5FE08BD30B40023B0FBF2F414
:102CF00002FB14041D46092C94BF30343734E4B26F
:102D0000CC54B0FBF2F008B10133EFE70D440022E0
:102D10006A70934207DD885CCC5C8C54C8540132E5
:102D2000013B9A42F7DB084630BC704710B50C46B1
:102D3000002802DBFFF7D8FF10BD2D2301F8013B6F
:102D40004042FFF7D1FF204610BD00BF2DE9F04300
:102D500083B005460F4691461C4681EAE178A8EB10
:102D6000E178014603F0FAFDB8B32846002103F0EC
:102D7000CDFD002814BF0426032646450BDAC6EB1A
:102D80000806002F0BDA56B12644202304F8013B35
:102D9000B442FBD101E0002601E0344600264FF0AA
:102DA0007E50002DB8BF7D48002103F0AFFD10B16B
:102DB0002D23237001344E22227041236370E31CC3
:102DC000A27036B19819202203F8012B8342FBD15F
:102DD00000E0184600230370DDE025F00046304691
:102DE0006F4903F0BBFD00283AD130466C4903F02F
:102DF00097FDA8BB2846002103F088FD002814BFDA
:102E00000426032646450BDAC6EB0806002F0BDA2C
:102E100056B12644202304F8013BB442FBD101E023
:102E2000002601E0344600262846002103F06EFD0E
:102E300010B12D2323700134492323704E23637076
:102E4000E21C4623A37036B19419202302F8013BFB
:102E5000A242FBD100E014460023237020469AE0F2
:102E60002846494601AA6B4603F0C2FD8046B9F1E7
:102E7000000F0DD1019B5BB990F80080494B4A4A85
:102E8000B8F1340F8CBF904698464FF0010C0BE020
:102E9000404604F017FC8446019B9842C8BF00F1ED
:102EA000010C0BB90CF1010C009909B10CF1010CEA
:102EB00004EB0C06CCEB0703002B08DD1E44234477
:102EC0002546202205F8012B9D42FBD100E0234638
:102ED00011B12D221A700133019AB2B9B9F1000F64
:102EE00008D01A46302102F8021B2E2159701346D1
:102EF00000E02B46B34233D25A1C98F800101970E8
:102F0000B24230D040462E2121E0002AF2DAB9F157
:102F1000000FEFD01D46302205F8022B2E225A70EA
:102F20000136019B002BE4DA2A46E81A302102F828
:102F3000011B8242FBD1EB1A00220192DAE7551CF9
:102F400010F8013F1370B5420CD013462A46019D7C
:102F5000013D01950DB99A1C5970B242EFD302E0C0
:102F60001A4600E02A46002F12DA6744F8437F42EF
:102F7000002F0DDD1346202503F8015BC3F101018D
:102F8000014411440029F7DC20EAE07301331A44BC
:102F900000231370204603B0BDE8F083000080BF1B
:102FA000FFFF7F7FCC990000C8990000704700BFE9
:102FB0001D4B03EBC000436803F14042A2F592228F
:102FC0007C2A18D903F14042A2F594227C2A14D914
:102FD00003F14042A2F596227C2A10D903F1404227
:102FE000A2F598227C2A0CD903F14042A2F59A223C
:102FF0007C2A08D970470D4906E00D4904E00D49C7
:1030000002E00D4900E00D4972B61A6822F087729D
:1030100022F4803242F080721A60C3F38403084ABB
:1030200041F8232062B67047D09900006C88FF1FDA
:10303000A488FF1FF488FF1F2489FF1F4489FF1FF6
:10304000AD2F0000044B00221A6004490A60044AB4
:10305000106010221A60704714D0034004D003405F
:1030600000D0034021281ED80F4B53F8303093F87E
:10307000802212F0FF0F08D019B1012283F88020BE
:103080007047012283F800217047074B03EBC00013
:10309000436821B11A6842F003021A6070471A6847
:1030A00022F002021A607047D0990000212806D849
:1030B000044B53F8303093F80002C0B27047002040
:1030C000704700BFD099000021283AD81D4B03EB70
:1030D000C0035B68012919D0042925D0194A52F888
:1030E0003020002082F8800219B94FF480721A60F3
:1030F0007047022903D140F203121A607047032976
:103100000CBF4FF4817200221A6070470D4A52F8CA
:103110003020012182F880124FF4A2721A601A68DE
:1031200022F020021A607047064A52F8302001212E
:1031300082F880124FF4A2721A601A6842F02002DC
:103140001A607047D099000070B50D46212861D8EB
:10315000042A5FD8DFE802F00709050B03000B2300
:1031600006E00A2304E0082302E00C2300E0092320
:103170001E04294B03EBC0035C68236813F4E06F63
:1031800002D10021FFF7A0FF244B254AC3F89C2160
:10319000244AC3F8A021244AC3F8A421234AC3F82F
:1031A000A821234AC3F8AC2104F14043A3F592239C
:1031B0007C2B18D904F14042A2F594227C2A14D920
:1031C00004F14043A3F596237C2B10D904F140432E
:1031D000A3F598237C2B0CD904F14043A3F59A2343
:1031E0007C2B08D970BD134906E0134904E013494C
:1031F00002E0134900E0134972B6236823F47023F8
:103200002360C4F3840241F8225043F080731E43CC
:10321000266062B670BD00BFD09900000082FF1F1B
:103220001188FF1FE587FF1FB987FF1F8D87FF1FCD
:103230006187FF1F6C88FF1FA488FF1FF488FF1F92
:103240002489FF1F4489FF1F10B5044628280FD189
:103250005D4B1B780B2B03D8C3F10C03994003E0A3
:103260000C2B84BF0C3B19410846FFF71BFC10BD1B
:10327000554B1B78012202FA03F0002908DC204696
:103280000021FFF7EFFE20460121FFF71DFF10BDD3
:103290000A46884208D820460121FFF7E3FE20466F
:1032A0000121FFF711FF10BDE01EC0B2012806D8B2
:1032B0004648006800FB011222FA03F310E0202CBC
:1032C00001D0192C06D14248006800FB022222FAE4
:1032D00003F305E03F48006800FB011222FA03F304
:1032E000E01E1D2864D8DFE800F0474E402B6363E2
:1032F0001D2463636363636363636332390F16631F
:103300005C63636363636355334A136040F2444212
:10331000324B1A6010BD324A136040F24442314BC6
:103320001A6010BD304A136040F244422F4B1A60BD
:1033300010BD2F4A136040F244422E4B1A6010BD5C
:103340002D4A136040F244422C4B1A6010BD2C4AA7
:10335000136040F244422B4B1A6010BD2A4A13609E
:1033600040F24442294B1A6010BD294A136040F2D2
:103370004442284B1A6010BD274A13604FF4517223
:10338000264B1A6010BD264A13604FF45172254B2C
:103390001A6010BD244A13604FF45172234B1A6017
:1033A00010BD234A13604FF45172224B1A6010BDB6
:1033B00020467F29D4BF00210121FFF753FE20467C
:1033C0000121FFF781FE10BD4C89FF1F08900340CB
:1033D00008800B40088003401080034004B0044084
:1033E0001880034008B00440208003400CB0044023
:1033F0002880034010B004403080034010C00440D7
:103400003880034014C004404080034018C004408A
:10341000488003401CC0044010900340309004409A
:10342000189003403490044010800B4048A00440A2
:1034300018800B404CA0044072B60D4B1B680D4A1F
:1034400012680D49096862B611F0806F02D0322B04
:1034500088BF0132C3F58C3303F23F130749A1FB48
:1034600003031B094FF47A7000FB0230704700BF62
:1034700018E000E05493FF1F04ED00E0398EE338BC
:1034800038B50546FFF7D8FF044625B938BD013DDC
:103490000AD004F57A74FFF7CFFF001BB0F57A7FEE
:1034A000F5D200F0D9FEF6E738BD00BF10B5264BC7
:1034B0004FF400021A604FF080721A604FF00072F1
:1034C0001A604FF080621A604FF000621A600020AC
:1034D0001E4B186048F6FF710433196028231C4AFC
:1034E0001360083213600832136008321360083228
:1034F0001360083213600832136008321360092227
:10350000144C226004F5805404342060043421609B
:103510000434236008342360143C226004F5FE2444
:10352000043420600C4801600C490B6008310B60CA
:103530000B4B1A60FFF76CF94FF4C870FFF7A0FF50
:1035400000F074FC10BD00BF08E100E004800340FF
:103550000C8003400080034008800B400C800B402F
:1035600000800B4030B40E4B1B7843F002020D4C30
:1035700004EBC20460600C48007800280CBF88246B
:10358000C82444EA0141074D45F8321080F001009B
:10359000054A107083F00103014A137030BC704774
:1035A000C093FF1F0080FF1F3994FF1F10B4431EFC
:1035B000032B11D872B60A4A52F8230050B1426860
:1035C000074941F82320074A32F813400188611A5D
:1035D00022F8131062B600E000205DF8044B70473B
:1035E000B093FF1F5496FF1F013803280DD872B601
:1035F000074B53F820302BB1002001305B68002BC3
:10360000FBD100E0002062B670470020704700BF89
:103610000494FF1F38B572B601231B491B4C5A187E
:1036200012F8012C12F0080F24D09A0054F83250EE
:103630006DB9164B03EBC20108304860144943F8DA
:103640003210144B1A78013A1A7062B638BD42F043
:10365000010254F832506DB90C4B03EBC201083033
:1036600048600D4943F832100A4B1A78013A1A7033
:1036700062B638BD0133052BD1D162B60022054BAD
:103680001A7000F067FC38BD289C00000080FF1F06
:10369000880040002E94FF1FC800400010B4431E55
:1036A000032B37D8400140F010001C4A104472B67A
:1036B0001B4AD25C032A09D8DFE802F019021B0575
:1036C0000830022216E00830042213E0154A52F8AE
:1036D00023201AB9134A42F8231003E0124A52F881
:1036E00023205160104A42F8231062B612E00322F0
:1036F00000E005220A4CE25401F10803436000F0A7
:103700000803002B0CBF8823C8230A8843EA02431E
:10371000036062B65DF8044B704700BF0080FF1F76
:103720006C93FF1F0494FF1F1494FF1F2DE9F84FA3
:10373000A34CDFF8E092DFF8E0A2DFF8E0B22578F2
:10374000EDB215F0040F1DD09E4B1B7813F0FF0F48
:1037500016D09D4B1B7803F0FF022BB1531EDBB23A
:10376000994A137003B900BE984B1B7803F0FF020F
:1037700033B1531EDBB2954A13700BB900F048FD0C
:103780000423237015F0080F00F0E48299F800304C
:10379000DBB21D0940F021828D4D9E0805EBC6036A
:1037A0005A6855F83630C3F38303013B0C2B00F203
:1037B0001082DFE813F0CB01CB010E020E020E02E5
:1037C0000E020E020E02E8010E020E020E020D00A3
:1037D000804913680B6052684A607F4A45F836207A
:1037E00000227E490A607A490A618A6101217C4A85
:1037F00011709BB240F28162934218D8B3F5D06F3A
:103800002ED2B3F5817F00F01E8106D8802B00F008
:10381000C980822B00F0CC8066E140F202329342F4
:1038200000F02681B3F5A06F00F062815CE142F206
:103830002102934200F0868107D8B3F5086F00F0AB
:10384000AB80B3F5106F11D04EE142F221229342CA
:1038500000F0418142F22132934200F0498143E17C
:10386000604B5D68002D40F0188130E1594B9A782B
:10387000544B1A70564D05F180062B6A13F0800FD9
:1038800003D0686A083800F065FB0835B542F4D10A
:10389000DFF88C8100263746534AB05828B1456876
:1038A00000F058FB0DB12846F9E700234E4973504C
:1038B0004E4AB3504E4BF05828B1456800F04AFBD1
:1038C0000DB12846F9E7002349497350494AB350DE
:1038D00028F8023F484BFB5C023B032B0AD8DFE889
:1038E00003F0020602060022434BDA5502E00122F1
:1038F000414BDA5501370436102ECDD100223F4B13
:103900001A7001253E4EDFF81C81314F05EB08038C
:1039100013F8013C06F8043B13F0080F2DD000F01B
:10392000F9FA48B1A90007EB451200F1080353600A
:10393000344A47F8312007E0AB00002247F8332033
:103940002E4B1A7801321A7000F0E4FA58B1AB002D
:1039500043F0010307EBC30100F108024A601E4A6D
:1039600047F8332009E0AB0043F00103002247F899
:103970003320224B1A7801321A70AA0042F0020159
:10398000002347F8313042F0030247F83230013566
:103990001D4B9E42BAD11EE20A4B1B781B4D2B7069
:1039A0000127AAE0194D00232B706B700227A4E0B9
:1039B000084B9B88042B37D90F22154B1A70C1E096
:1039C000802007403894FF1FC193FF1F4C94FF1FB6
:1039D0000080FF1F2494FF1FC80040005893FF1F62
:1039E0003994FF1F2C9C0000B093FF1F5C93FF1FB6
:1039F0000494FF1F1494FF1F6C93FF1F2E94FF1F4E
:103A0000C420074088004000D42007403094FF1FA6
:103A1000C02007409020074094200740982007408E
:103A20005296FF1F289C0000A04A0021117051707F
:103A30009F4A12F8233013F0020F5CD09B4D0123F4
:103A40002B70022759E09B4B9B8803F07F03042BCC
:103A500002DC984A52881AB10F22954B1A7071E015
:103A6000934A12F8231021F0020102F82310B2E168
:103A7000904B9B8803F07F03042B02DC8D4A528815
:103A80001AB10F228A4B1A705CE0894A12F823108F
:103A900041F0020102F823109DE1864B5E889F8869
:103AA000854BA3F10C02114633F80C0CB04209D13E
:103AB00033F80A0CB84205D1360A032E0CBF2F7812
:103AC00017891AE00D690C330C32002DEBD10F224F
:103AD000774B1A7036E0794B1A68794B1A60754B40
:103AE0009A78784B1A7076E10F22714B1A7029E0A0
:103AF00000273D4601E002276C4D6E4BDB889F425C
:103B000028BF1F46402F34BF3E4640262846314638
:103B1000FFF728FD3544BF1B03D13F2E00F2608123
:103B200010E0402F34BF3E46402628463146FFF77E
:103B300019FD3544BF1B01D13F2E03D9624B1D60D7
:103B4000624B1F8001238AF8003042E0594B1988EC
:103B500042F22103994212D15D4BD81D12F8011B8C
:103B600003F8011F8342F9D15A4B1B68862B02D1FF
:103B70000F22594B1A7000200146FFF7F3FC574BF8
:103B800045F8363025E0504B1E68BEB14F4FB7F8B0
:103B90000080B8F1400F34BF4546402530462946E5
:103BA000FFF7E0FCC5EB08039BB23B800BB9402D4F
:103BB00001D1354400E00025434B1D603D4B1B887F
:103BC000B3F5A06F05D13B4B00225A709B788BF860
:103BD000003001238AF80030B9E0414E9F0806EB1F
:103BE000C708D8F80420A2F10800013DEDB213F097
:103BF000080F47D000F0AEF93A4B53F825304BB3DD
:103C00005A68384941F8252003F10802C8F8042011
:103C1000354A525D032A12D8DFE802F002060A0E86
:103C20000321314A51550AE002212F4A515506E03D
:103C300005212D4A515502E004212B4A515518F017
:103C4000080F0CBF8822C8221B8842EA034346F8AB
:103C500037307CE0244B5B5D032B0BD8DFE803F0AF
:103C6000777702060022204B5A5570E001221E4B46
:103C70005A556CE018F0080F0CBF022203221A4BB1
:103C80005A5564E056F837301B0C22F8083C002BDC
:103C900055D0002322F8063C42F8043C134B53F85D
:103CA00025302BBB114B43F8250025E03094FF1F36
:103CB000C02007402494FF1F389C00005493FF1F2E
:103CC0006496FF1F5C94FF1F5893FF1F2C94FF1FE7
:103CD0005B96FF1F5C96FF1FC193FF1FC80040004B
:103CE0000080FF1F0494FF1F6C93FF1FB093FF1F02
:103CF0003F4B53F8253058603D4B43F825003D4B72
:103D000033F8151032F8082C0A4423F8152000F077
:103D100001F960B100F10803C8F8043018F0080F89
:103D2000354B364A08BF134646F837300FE00023BC
:103D300046F83730324B1A7801321A7007E018F023
:103D4000080F2D4B2D4A08BF134646F8373008237D
:103D50002370F4E415F0010F22D02A4902230B70DE
:103D60000022294B1A70294B24481860284C5C60AB
:103D700098602848D8601A619A610D20264B187007
:103D8000FF23264803700838037018300270244A55
:103D900013709F22234B1A7001230B70BDE8F88F1C
:103DA00015F0800F05D00D221B4B1A708022403B6E
:103DB0001A7015F0020F06D0184B1A78D2B21A708A
:103DC0000222083B1A7015F0100F0ED01022164B6D
:103DD0001A70BDE8F88F00200146FFF7C3FBB1E67B
:103DE00028460021FFF7BEFBACE6BDE8F88F00BF18
:103DF0005C93FF1F5496FF1FC800400088004000DE
:103E00002E94FF1F94200740C093FF1F0080FF1FC8
:103E10007093FF1FC493FF1FC020074088200740F6
:103E20008C200740842007408020074008B501F01F
:103E300003FE00231B491A465A50C8184260083333
:103E4000882BF9D1184B1A6842F480221A60154B5E
:103E5000C3F30721154A1170C3F3074114321170DF
:103E60001B0E04321370FF23343A137008321370A0
:103E7000783A137001238432137000216C32117070
:103E80007C3A137070220A4B1A704FF40072A3F23E
:103E900041331A60102203F1C04303F5C8231A709E
:103EA00008BD00BF0080FF1F348004409C200740F5
:103EB00049E400E008B500F0C3F808BD08B500F01B
:103EC00073F808BD08B500F09BF808BD08B500F010
:103ED0006DF908BD08B500F0C1F808BD08B5084681
:103EE00000F058F908BD00BF08B50846114600F0BB
:103EF000D1F808BD704700BF044B00221A714FF47F
:103F00007A7199601A73024A1A6070473C94FF1FD5
:103F1000E89A000072B60D4B1A68B2FA82F30B2BC6
:103F200002D962B6002070474FF00041D94022EA22
:103F3000010206490A6062B6054903EBC303DB00D0
:103F4000C8180022CA504260704700BF5089FF1F46
:103F50000084FF1F08B50F4BC31A0F4AA2FB0313BF
:103F60001B090B2B14D80D4A12783AB10C4A12785F
:103F700012F0FF0F02D0FFF74DFB08BD72B6094AE1
:103F80004FF0004121FA03F311681943116062B642
:103F900008BD00BF0084FF1F398EE3382E94FF1F39
:103FA0003894FF1F5089FF1F10B5134B1B6853B97E
:103FB000124B1B7813F0FF0F18D00320FFF7F6FA0F
:103FC0000D4B1860A8B10C4B186843885A1C034469
:103FD0001C7A03889A4206D3FFF7BCFF0022064BE7
:103FE0001A60204610BD4280204610BD4FF0FF30C1
:103FF00010BD4FF0FF3010BD5894FF1F3894FF1FC5
:1040000008B50D4B1B6883B90C4B1B7813F0FF0FE1
:1040100008D00320FFF7CAFA074B186028B94FF001
:10402000FF3008BD4FF0FF3008BD034B1B685A88B6
:104030001344187A08BD00BF5894FF1F3894FF1F1F
:10404000044B9888044B1B681BB11A885B88D31AF1
:10405000184470475496FF1F5894FF1F10B50B4B20
:104060001B7813F0FF0F0FD0094B186820B1FFF732
:1040700071FF0022064B1A6003242046FFF796FAD0
:1040800010B1FFF767FFF8E710BD00BF3894FF1FBE
:104090005894FF1F2DE9F84F04460122384B1A703F
:1040A0008B46002965D00E46DFF8E080DFF8E0900F
:1040B0009A46344FD8F8003083BB99F8003013F09B
:1040C000FF0F06D100222E4B1A704FF0FF30BDE8D3
:1040D000F88F48F601450420FFF786FA07280AD82A
:1040E00001238AF80030FFF715FFC8F80000A8B9CF
:1040F00000238AF80030013D01D03B7833B1012222
:10410000204B1A704FF0FF30BDE8F88F00F0A4F894
:1041100099F8003013F0FF0FDDD1D3E700233B7097
:10412000D8F800104A88C2F14005AE4238BF354683
:1041300002F108030B442A444A80761B3DB1254412
:1041400014F8012B03F8012BAC42F9D100E025460D
:104150004B883F2B07D940230B800420FFF79EFAA2
:104160000023C8F800300522074B1A700EB12C4608
:10417000A0E70022024B1A705846BDE8F88F00BF36
:104180004D94FF1F5494FF1F4C94FF1F5094FF1F2A
:104190003894FF1F00B583B002AB03F8010D184639
:1041A0000121FFF777FF03B05DF804FB10B5144B56
:1041B0001B7813F0FF0F21D00122124B1A70124B03
:1041C000196851B10024114B1C704B880B800420DE
:1041D000FFF764FA0C4B1C600DE0FFF79BFE0146F5
:1041E00030B10022094B1A700420FFF757FA02E0A1
:1041F0000122064B1A700022024B1A7010BD00BF3C
:104200003894FF1F4D94FF1F5094FF1F4C94FF1FC5
:1042100008B50E4B1B7813F0FF0F16D10C4B196825
:1042200041B14B880B800420FFF738FA0022084B7D
:104230001A6008BDFFF76EFE014618B10420FFF7B3
:104240002DFA08BD0122034B1A7008BD4D94FF1FC3
:104250005094FF1F4C94FF1F08B50F4B1B78CBB930
:1042600001220D4B1A70FFF7EBFE08B1FFF742FE7B
:1042700000F074FC08B100F0A3F801F021F808B1D7
:1042800000F040F901F0EEFA08B100F0DDF900228B
:10429000014B1A7008BD00BF5D94FF1F08B503688D
:1042A0001B68C9B2984708BD08B503681B68C9B246
:1042B000984708BD08B503681B68C9B2984708BD90
:1042C00008B503681B68C9B2984708BD08B504481B
:1042D00000EB5100B0FBF1F000F0C6F908BD00BFE3
:1042E0000044950810B51446054800EB5100B0FB9A
:1042F000F1F000F0B9F9204600F01EFA10BD00BF41
:104300000044950808B500F047FA08BD08B508460E
:1043100000F07CFA08BD00BF08B5084600F0D0FAEE
:1043200008BD00BF08B50846114600F08BFA08BD6D
:1043300008B5084600F0F0FA003018BF012008BDAB
:1043400008B5084600F00AFB003018BF012008BD80
:1043500008B500F003FC08BD08B500F049FC08BD35
:1043600008B500F00BFC08BD08B500F0D5FB08BD92
:1043700008B500F057FC08BD08B500F0DDFB08BD2E
:1043800008B5084600F016FB012008BD08B5084630
:1043900000F010FB012008BD10B514460846114678
:1043A00000F058FB204610BD38B50D46084603F016
:1043B00089F904462846214600F04CFB204638BDCA
:1043C000704700BF044B00221A714FF47A71996054
:1043D0001A73024A1A6070476094FF1F109B000016
:1043E00008B503681B68C9B2984708BD08B50368DB
:1043F0001B68C9B2984708BD08B503681B68C9B2F5
:10440000984708BD08B503681B68C9B2984708BD3E
:1044100008B5044800EB5100B0FBF1F000F0B8FC27
:1044200008BD00BF0044950810B51446054800EBD0
:104430005100B0FBF1F000F0ABFC204600F010FDA5
:1044400010BD00BF0044950808B500F039FD08BD57
:1044500008B5084600F094FD08BD00BF08B5084641
:1044600000F0E8FD08BD00BF08B50846114600F0A1
:10447000A3FD08BD08B5084600F00AFE003018BFCD
:10448000012008BD08B5084600F024FE003018BF22
:10449000012008BD08B500F013FF08BD08B500F005
:1044A00059FF08BD08B500F01BFF08BD08B500F0B6
:1044B000E5FE08BD08B500F067FF08BD08B500F0CF
:1044C000EDFE08BD08B5084600F026FE012008BD37
:1044D00008B5084600F020FE012008BD10B51446BE
:1044E0000846114600F068FE204610BD38B50D465E
:1044F000084603F0E7F804462846214600F05CFE33
:10450000204638BD704700BF044B00221A714FF49B
:104510007A7199601A73024A1A6070477094FF1F8B
:10452000709B000008B503681B68C9B2984708BDB6
:1045300008B503681B68C9B2984708BD08B5036889
:104540001B68C9B2984708BD08B503681B68C9B2A3
:10455000984708BD08B5044800EB5100B0FBF1F0E6
:1045600000F0C8FF08BD00BF00A24A0410B5144601
:10457000054800EB5100B0FBF1F000F0BBFF204616
:1045800000F0FAFF10BD00BF00A24A0408B501F018
:1045900023F808BD08B5084601F058F808BD00BF6B
:1045A00008B5084601F09AF808BD00BF08B50846EE
:1045B000114601F067F808BD08B5084601F090F80B
:1045C000003018BF012008BD08B5084601F0AAF860
:1045D000003018BF012008BD08B501F043F908BD3F
:1045E00008B501F089F908BD08B501F04BF908BD1F
:1045F00008B501F015F908BD08B501F097F908BD37
:1046000008B501F01DF908BD08B5084601F0ACF881
:10461000012008BD08B5084601F0A6F8012008BD34
:1046200010B514460846114601F0EEF8204610BDBC
:1046300038B50D46084603F045F80446284621469D
:1046400001F0E2F8204638BD704700BF044B00225D
:104650001A714FF47A7199601A73024A1A6070479E
:104660008094FF1FD09B0000254B1A6842F48062A3
:104670001A600023234A1370234A1370234A1370CD
:10468000234A1370234A1370234B1B7813B1152B45
:1046900005D008E040F21332204B1A6003E040F2EC
:1046A00013321F4B1A601F4B1B78012B02D0052BB6
:1046B00005D008E04FF451721B4B1A6003E04FF431
:1046C00051721A4B1A60C0F34432194B1A70C0F37E
:1046D00047125A7000F01F00987204229A7002214B
:1046E000D9745A7588221A743C22DA704022114B10
:1046F0001A704FF40052A3F229331A60704700BFBA
:10470000348004401C95FF1F9594FF1F2495FF1FC4
:104710001D95FF1F9494FF1FD894FF1F40A00440D5
:1047200018C004405489FF1F44A004401CC004402A
:1047300000A006402DE400E0164B9B7803F0EC034C
:1047400000F00302134310F0040F18BF43F01003EE
:10475000104A937000F00F03042B04D11346927992
:1047600042F040029A710B4B5A7902F0EF0210F0BE
:10477000100F18BF42F01002064B5A719B7903F0DC
:10478000EF0310F0200F18BF43F01003014A93719C
:10479000704700BF00A0064010B5144B1B6813F40F
:1047A000806F21D0124B1B7813F0FF0F06D0104CF6
:1047B000FFF752FD237813F0FF0FF9D14FF40052A9
:1047C0000C4B1A6000230C4AD37040F203120B49C1
:1047D0000A6004310A600A4A13700A4A13700A4BCD
:1047E0001B680BB101221A7010BD00BF3480044059
:1047F0009494FF1F84E100E000A0064040A0044024
:104800001C95FF1F9594FF1F9094FF1F10B5044641
:10481000094A137813F0FF0FFBD120460121FEF760
:1048200053FC20460021FEF71DFC044B53F83420B6
:10483000034B1A6010BD00BF9494FF1FD099000075
:104840002095FF1F10B40C4609B140F08000184BB2
:104850001B78984228D0174A126812F4806F21D032
:1048600003F07F03012B02D0052B04D006E00022C9
:10487000114B1A6002E00022104B1A60002C0CBF92
:104880004422602200F07F03012B02D0052B05D0CB
:1048900008E042F44072084B1A6003E042F44072B0
:1048A000064B1A60024B18705DF8044B704700BF4E
:1048B0005489FF1F3480044044A004401CC00440BD
:1048C000114B1B7898421ED0104A126812F4806F68
:1048D00017D013B1152B04D006E000220C4B1A6040
:1048E00002E000220B4B1A6010B1152805D008E039
:1048F00040F21332064B1A6003E040F21332054BCC
:104900001A60014B18707047D894FF1F3480044020
:1049100040A0044018C0044010B50D4B1B6813F4B0
:10492000806F12D021280CD80A4C0B4B53F8303032
:1049300023600121FEF7C8FB236800221A700120C2
:1049400010BD0020034B186010BD002010BD00BF3B
:10495000348004409094FF1FD0990000114B1B68D5
:1049600013F4806F1BD0122804D140F202320E4B98
:104970001A600DE0142804D140F202320B4B1A6089
:1049800006E00B4B5A7B02F0FE025A730020704780
:10499000074B5A7B42F001025A73012070470020F6
:1049A000704700BF348004400CA0044014C0044091
:1049B00000A006402DE9F04107461F4B1B6813F489
:1049C000806F37D01D4B1B680BB101221A701C4B36
:1049D0001C780134402C28BF00241A4D1A4EDFF8F1
:1049E0006C8017E0FEF758F940280FDC337913F09C
:1049F000800F0FD02B780133402B28BF002318F8ED
:104A00000320D2B2F271DBB22B7003E0FF2801DD8C
:104A1000FFF722FC2B78DBB29C42E3D0FFB20B4BBA
:104A20001F5501220A4B1A70E4B2054B1C70BC22C0
:104A3000054BDA70BDE8F081348004402095FF1FFB
:104A40002495FF1F1D95FF1F00A006409894FF1F8F
:104A50009494FF1F2DE9F84F0746284B1B6813F469
:104A6000806F49D0264B1B680BB101221A7007EBEF
:104A7000010B5F453DD2DFF89890224EDFF88C8025
:104A8000DFF890A099F800400134402C28BF0024A2
:104A90003578EDB2A54220D1BC2388F80330FEF76B
:104AA000FBF8402811DC98F8043013F0800F10D088
:104AB00033780133402B28BF00231AF80320D2B2E9
:104AC00088F80720DBB2337003E0FF2801DDFFF731
:104AD000C3FB3378DBB29D42E1D017F8013B0AF803
:104AE00004300122084B1A70E4B289F800405F4597
:104AF000C8D1BC22054BDA70BDE8F88F3480044081
:104B00002095FF1F1D95FF1F9494FF1F00A00640D6
:104B10002495FF1F9894FF1F10B5064B1B7813F0C8
:104B2000FF0F06D0034CFFF797FB237813F0FF0F1E
:104B3000F9D110BD9494FF1F064B1B78DBB2064AD7
:104B40001278D2B293422CBF3F3202F1FF32D01A18
:104B5000704700BF2495FF1F1D95FF1F054B187858
:104B6000C0B2054B1B78DBB2984238BF4030C01A48
:104B7000704700BF1C95FF1F9594FF1F10B4184B82
:104B80001A78D2B2174B1B78DBB29A4218D0013395
:104B90003F2B18D81449C85CC0B2DCB211490C7064
:104BA00012490968C9B19A4203D300E00023D31A1D
:104BB00001E04032D31A1A2B0FDC00230B700CE0FB
:104BC0004FF0FF3009E0084B1878C0B20021054BC8
:104BD0001970064B19680029E8D15DF8044B70473D
:104BE0001C95FF1F9594FF1FDC94FF1F9094FF1FDF
:104BF000094B1A78D2B2094B1B78DBB29A4207D024
:104C00000133402B28BF0023054AD05CC0B2704757
:104C10004FF0FF30704700BF1C95FF1F9594FF1F9A
:104C2000DC94FF1F0D4B1B6813F4806F14D00C4BEA
:104C3000DA7802F0CB02DA7040225A74DA7842F065
:104C40003402DA70074B1A78D2B2074B1A70074B4E
:104C50001B680BB100221A70704700BF34800440FB
:104C600000A006409594FF1F1C95FF1F9094FF1F06
:104C700070B43D4B1B7913F0300F33D072B63A4B02
:104C80009B7D03F0FF022BB9374BDA7940225A742F
:104C900062B627E062B6354B1978C9B2344B1C783E
:104CA000E4B2314D334EEB79D8B24B1C402B28BFC8
:104CB0000023A3421CBFF0541946531E13F0FF02F9
:104CC000F1D1CAB2294B1A702B4B1B6853B1A142C8
:104CD0002EBFC4EB0101C4F1400409192729C4BF48
:104CE00001221A70204BDA78D2B212F0800F27D04E
:104CF0001B7913F0800F23D0204B1C78E4B2204B9B
:104D00001B78DBB29C4210D017491E4D01E0A34234
:104D10000BD00133402B28BF00230879E85CC0B2D8
:104D2000C871087DC0B20728F1D9DBB214490B70F5
:104D30000D4B1B7913F0800F02D07C210A4BD970E8
:104D400012F0400F0ED0084B1B7913F0400F09D022
:104D500000220D4B1A700D4B1B6803B11A703C22D8
:104D6000014BDA7070BC704700A006401C95FF1F15
:104D70009594FF1FDC94FF1F9094FF1F2495FF1F45
:104D80001D95FF1F9894FF1F9494FF1F2095FF1FF0
:104D9000254B1A6842F400621A600023234A1370FC
:104DA000234A1370234A1370234A1370234A137043
:104DB000234B1B78092B02D01A2B05D008E040F2B8
:104DC0001332204B1A6003E040F213321E4B1A607C
:104DD0001E4B1B780A2B02D01F2B05D008E04FF486
:104DE00051721B4B1A6003E04FF45172194B1A6059
:104DF000C0F34432184B1A70C0F347125A7000F0D7
:104E00001F00987204229A700221D9745A75882260
:104E10001A743C22DA704022104B1A704FF4004290
:104E2000A3F22B331A607047348004409895FF1F1B
:104E30002D95FF1FA095FF1F9995FF1F2C95FF1F14
:104E40005589FF1F0CB0044004D004405689FF1F51
:104E500010B0044000D0044000B006402FE400E051
:104E6000164B9B7803F0EC0300F00302134310F0A1
:104E7000040F18BF43F01003104A937000F00F03A3
:104E8000042B04D11346927942F040029A710B4BE5
:104E90005A7902F0EF0210F0100F18BF42F0100222
:104EA000064B5A719B7903F0EF0310F0200F18BFE7
:104EB00043F01003014A9371704700BF00B00640F1
:104EC00010B5224B1B6813F4006F3ED0204B1B78AB
:104ED00013F0FF0F06D01E4CFFF7BEF9237813F036
:104EE000FF0FF9D14FF400421A4B1A6000221A4BFF
:104EF000DA701A4B1B78092B02D01A2B05D008E068
:104F000040F20312164B1A6003E040F20312154BF5
:104F10001A60154B1B7803F07F030A2B02D01F2B5E
:104F200005D008E040F20312104B1A6003E040F293
:104F300003120F4B1A6000230E4A13700E4A1370AF
:104F40000E4B1B680BB101221A7010BD3480044057
:104F50002C95FF1F84E100E000B006405589FF1F3B
:104F60000CB0044004D004405689FF1F10B0044028
:104F700000D004409895FF1F2D95FF1F2895FF1F17
:104F800010B50446094A137813F0FF0FFBD12046F1
:104F90000121FEF799F820460021FEF763F8044B43
:104FA00053F83420034B1A6010BD00BF2C95FF1F2F
:104FB000D09900009C95FF1F10B40C4609B140F039
:104FC0008000184B1B78984228D0174A126812F4B8
:104FD000006F21D003F07F030A2B02D01F2B04D0D7
:104FE00006E00022114B1A6002E00022104B1A600A
:104FF000002C0CBF4422602200F07F030A2B02D059
:105000001F2B05D008E042F44072084B1A6003E001
:1050100042F44072064B1A60024B18705DF8044B64
:10502000704700BF5689FF1F3480044010B0044011
:1050300000D00440124B1B78984220D0114A1268CD
:1050400012F4006F19D0092B02D01A2B04D006E0FD
:1050500000220D4B1A6002E000220C4B1A60092856
:1050600002D01A2805D008E040F21332064B1A602D
:1050700003E040F21332054B1A60014B1870704781
:105080005589FF1F348004400CB0044004D0044014
:1050900010B50D4B1B6813F4006F12D021280CD8EB
:1050A0000A4C0B4B53F8303023600121FEF70CF80B
:1050B000236800221A70012010BD0020034B1860E5
:1050C00010BD002010BD00BF348004402895FF1F94
:1050D000D09900000D4B1B6813F4006F13D01728F4
:1050E0000AD140F202320A4B1A600A4B5A7B42F054
:1050F00001025A7301207047064B5A7B02F0FE02F0
:105100005A73002070470020704700BF348004406D
:1051100008B0044000B006402DE9F04107461F4B9F
:105120001B6813F4006F37D01D4B1B680BB10122B5
:105130001A701C4B1C780134282C28BF00241A4DEF
:105140001A4EDFF86C8017E0FDF7A6FD40280FDC53
:10515000337913F0800F0FD02B780133282B28BF21
:10516000002318F80320D2B2F271DBB22B7003E0F7
:10517000FF2801DDFFF770F82B78DBB29C42E3D00B
:10518000FFB20B4B1F5501220A4B1A70E4B2054BBC
:105190001C70BC22054BDA70BDE8F08134800440FD
:1051A0009C95FF1FA095FF1F9995FF1F00B006401B
:1051B0003095FF1F2C95FF1F2DE9F84F0746284B10
:1051C0001B6813F4006F49D0264B1B680BB10122FA
:1051D0001A7007EB010B5F453DD2DFF89890224E25
:1051E000DFF88C80DFF890A099F800400134282C7B
:1051F00028BF00243578EDB2A54220D1BC2388F821
:105200000330FDF749FD402811DC98F8043013F015
:10521000800F10D033780133282B28BF00231AF8D1
:105220000320D2B288F80720DBB2337003E0FF28F6
:1052300001DDFFF711F83378DBB29D42E1D017F8BA
:10524000013B0AF804300122084B1A70E4B289F8D5
:1052500000405F45C8D1BC22054BDA70BDE8F88F2D
:10526000348004409C95FF1F9995FF1F2C95FF1FCC
:1052700000B00640A095FF1F3095FF1F10B5064BEC
:105280001B7813F0FF0F06D0034CFEF7E5FF2378E1
:1052900013F0FF0FF9D110BD2C95FF1F064B1B78A3
:1052A000DBB2064A1278D2B293422CBF273202F107
:1052B000FF32D01A704700BFA095FF1F9995FF1FBE
:1052C000054B1878C0B2054B1B78DBB2984238BF4B
:1052D0004030C01A704700BF9895FF1F2D95FF1FE3
:1052E00010B4184B1A78D2B2174B1B78DBB29A4223
:1052F00018D001333F2B18D81449C85CC0B2DCB2B7
:1053000011490C7012490968C9B19A4203D300E0EF
:105310000023D31A01E04032D31A1A2B0FDC0023EA
:105320000B700CE04FF0FF3009E0084B1878C0B26A
:105330000021054B1970064B19680029E8D15DF86A
:10534000044B70479895FF1F2D95FF1F5895FF1F21
:105350002895FF1F094B1A78D2B2094B1B78DBB294
:105360009A4207D00133402B28BF0023054AD05C66
:10537000C0B270474FF0FF30704700BF9895FF1FD5
:105380002D95FF1F5895FF1F0D4B1B6813F4006FE1
:1053900014D00C4BDA7802F0CB02DA7040225A7447
:1053A000DA7842F03402DA70074B1A78D2B2074B3F
:1053B0001A70074B1B680BB100221A70704700BFB0
:1053C0003480044000B006402D95FF1F9895FF1FC4
:1053D0002895FF1F70B43D4B1B7913F0300F33D06D
:1053E00072B63A4B9B7D03F0FF022BB9374BDA794B
:1053F00040225A7462B627E062B6354B1978C9B2BA
:10540000344B1C78E4B2314D334EEB79D8B24B1C9F
:10541000402B28BF0023A3421CBFF0541946531E43
:1054200013F0FF02F1D1CAB2294B1A702B4B1B6843
:1054300053B1A1422EBFC4EB0101C4F140040919CC
:105440002729C4BF01221A70204BDA78D2B212F099
:10545000800F27D01B7913F0800F23D0204B1C78AE
:10546000E4B2204B1B78DBB29C4210D017491E4D92
:1054700001E0A3420BD00133282B28BF0023087979
:10548000E85CC0B2C871087DC0B20728F1D9DBB2B0
:1054900014490B700D4B1B7913F0800F02D07C2147
:1054A0000A4BD97012F0400F0ED0084B1B7913F045
:1054B000400F09D000220D4B1A700D4B1B6803B131
:1054C0001A703C22014BDA7070BC704700B0064085
:1054D0009895FF1F2D95FF1F5895FF1F2895FF1FBB
:1054E000A095FF1F9995FF1F3095FF1F2C95FF1F5B
:1054F0009C95FF1F174B1A6842F480521A600023D4
:10550000154A1370154A1370154A1370154A137013
:10551000154A137040F21331144A11604FF451715F
:1055200004321160C0F34431114A1170C0F34711C5
:10553000517000F01F009072937013742C23D3707D
:1055400040220C4B1A704FF40032A3F22D331A6034
:10555000704700BF348004401496FF1FA995FF1FB9
:105560001C96FF1F1596FF1FA895FF1F08C004403B
:1055700000C0064031E400E0164B9B7803F0EC03DA
:1055800000F00302134310F0040F18BF43F01003A0
:10559000104A937000F00F03042B04D11346927944
:1055A00042F040029A710B4B5A7902F0EF0210F070
:1055B000100F18BF42F01002064B5A719B7903F08E
:1055C000EF0310F0200F18BF43F01003014A93714E
:1055D000704700BF00C0064010B5144B1B6813F4A1
:1055E000805F21D0124B1B7813F0FF0F06D0104CB8
:1055F000FEF732FE237813F0FF0FF9D14FF400329B
:105600000C4B1A6000230C4AD37040F203120B4972
:105610000A6004310A600A4A13700A4A13700A4B7E
:105620001B680BB101221A7010BD00BF348004400A
:10563000A895FF1F84E100E000C0064008C00440B8
:105640001496FF1FA995FF1FA495FF1F10B50446D0
:10565000094A137813F0FF0FFBD120460121FDF713
:1056600033FD20460021FDF7FDFC044B53F83420A8
:10567000034B1A6010BD00BFA895FF1FD099000012
:105680001896FF1F10B40C4609B140F08000104B73
:105690001B78984219D00F4A126812F4805F12D01A
:1056A00003F07F03082B02D100220B4B1A60002C61
:1056B0000CBF4422602200F07F03082B03D142F488
:1056C0004072054B1A60024B18705DF8044B70472E
:1056D0005789FF1F348004400CC00440704700BF4E
:1056E00010B50D4B1B6813F4805F12D021280CD825
:1056F0000A4C0B4B53F8303023600121FDF7E4FCDA
:10570000236800221A70012010BD0020034B18608E
:1057100010BD002010BD00BF34800440A495FF1FC1
:10572000D09900000D4B1B6813F4805F13D00E2836
:105730000AD140F202320A4B1A600A4B5A7B42F0FD
:1057400001025A7301207047064B5A7B02F0FE0299
:105750005A73002070470020704700BF3480044017
:1057600004C0044000C006402DE9F04107461F4B2D
:105770001B6813F4805F37D01D4B1B680BB10122EF
:105780001A701C4B1C780134282C28BF00241A4D99
:105790001A4EDFF86C8017E0FDF77EFA40280FDC28
:1057A000337913F0800F0FD02B780133282B28BFCB
:1057B000002318F80320D2B2F271DBB22B7003E0A1
:1057C000FF2801DDFEF748FD2B78DBB29C42E3D0D9
:1057D000FFB20B4B1F5501220A4B1A70E4B2054B66
:1057E0001C70AC22054BDA70BDE8F08134800440B7
:1057F0001896FF1F1C96FF1F1596FF1F00C006403E
:10580000AC95FF1FA895FF1F38B505460C4629B17A
:1058100015F8010BFFF7A8FF013CF9D138BD00BF17
:1058200010B5064B1B7813F0FF0F06D0034CFEF7A4
:1058300013FD237813F0FF0FF9D110BDA895FF1FBA
:10584000064B1B78DBB2064A1278D2B293422CBFC9
:10585000273202F1FF32D01A704700BF1C96FF1F9B
:105860001596FF1F054B1878C0B2054B1B78DBB2AD
:10587000984238BF4030C01A704700BF1496FF1FCF
:10588000A995FF1F10B4184B1A78D2B2174B1B788A
:10589000DBB29A4218D001333F2B18D81449C85CA8
:1058A000C0B2DCB211490C7012490968C9B19A4200
:1058B00003D300E00023D31A01E04032D31A1A2B9D
:1058C0000FDC00230B700CE04FF0FF3009E0084BB9
:1058D0001878C0B20021054B1970064B19680029D1
:1058E000E8D15DF8044B70471496FF1FA995FF1F80
:1058F000D495FF1FA495FF1F094B1A78D2B2094B0C
:105900001B78DBB29A4207D00133402B28BF00231B
:10591000054AD05CC0B270474FF0FF30704700BFFF
:105920001496FF1FA995FF1FD495FF1F054B1A78EA
:10593000D2B2054B1A70054B1B680BB100221A70CE
:10594000704700BFA995FF1F1496FF1FA495FF1F66
:105950002F4B1B7913F0200F23D02D4BDB79D9B2BD
:105960002C4B1B780133402B28BF00232A4A127886
:10597000D2B29A4204D0294AD154D9B2254A1170E0
:10598000274A116869B1274A1278D2B293422EBFD2
:10599000C2EB0303C2F140029B18272BC4BF0123B3
:1059A0000B701B4BDB78DBB213F0800F1CD0184A56
:1059B000127912F0800F17D01B4A1178C9B2194A18
:1059C0001278D2B2914203D16C21114AD1700BE00E
:1059D0000132282A28BF00221449885CC0B20C4931
:1059E000C871D2B20F490A7013F0400F0ED0084BA5
:1059F0001B7913F0400F09D000220D4B1A700D4B8C
:105A00001B6803B11A702C22014BDA70704700BF7B
:105A100000C006401496FF1FA995FF1FD495FF1FD5
:105A2000A495FF1F1596FF1F1C96FF1FAC95FF1F27
:105A3000A895FF1F1896FF1F00B585B072B61B4BC7
:105A400070221A7041211A4A11700F21013A117007
:105A500080221A701A46137813F0800FFBD0154B72
:105A6000186862B6144B98429CBF00EB800040005F
:105A700001A90A22FDF738F99DF804307BB908E046
:105A800001A9595C31B19180023201330A2BF7D15F
:105A900000E0002301335B00084A137003E0074A6B
:105AA00053800123ECE705B05DF804FB00000240E1
:105AB00007000240080002407F969800E489FF1F1B
:105AC00081F0004102E000BF83F0004330B54FEAAF
:105AD00041044FEA430594EA050F08BF90EA020F1C
