:1000000000800020BD0100005D2A0000212A0000C0
:10001000212A0000212A0000212A0000212A0000B4
:10002000212A0000212A0000212A00005D2A000068
:100030005D2A0000212A00005D2A0000112A00002C
:100040005D2A00005D2A00005D2A00005D2A000094
:100050005D2A00005D2A00005D2A00005D2A000084
:100060005D2A00005D2A00005D2A00005D2A000074
:100070005D2A00005D2A00005D2A00005D2A000064
:100080005D2A00005D2A00005D2A00005D2A000054
:100090005D2A00005D2A00005D2A00005D2A000044
:1000A000491500005D2A00005D2A00005D2A00005D
:1000B0005D2A00005D2A00005D2A00005D2A000024
:1000C0005D2A00005D2A00005D2A00005D2A000014
:1000D0005D2A00005D2A00005D2A00005D2A000004
:1000E0005D2A00005D2A00005D2A00005D2A0000F4
:1000F0005D2A0000E14700005D2A0000454F000036
:100100005D2A0000C15400005D2A00005D2A000045
:100110005D2A00005D2A00005D2A00005D2A0000C3
:100120005D2A00005D2A00005D2A00005D2A0000B3
:100130005D2A00005D2A00005D2A00005D2A0000A3
:100140005D2A00005D2A00005D2A00005D2A000093
:100150005D2A00005D2A00005D2A00005D2A000083
:100160005D2A00009D3200005D2A00005D2A00002B
:100170005D2A00005D2A00005D2A00005D2A000063
:100180005D2A00005D2A00005D2A00005D2A000053
:100190005D2A00005D2A00005D2A00005D2A000043
:1001A0005D2A00005D2A00005D2A00005D2A000033
:1001B0005D2A00005D2A00005D2A0000574B4CF2CA
:1001C000205210B51A804DF628121A8000BF00BFC9
:1001D00002F048FC524B4FF010621A60514A9A608C
:1001E000514ADA60A3F53043203B1A6812F480725A
:1001F00004D14E490A604FF4A8521A604C4B1A7849
:10020000110703D51A7842F008021A70494B4A4C7C
:100210004A482A221A704A4A00239918A14203D256
:10022000195899500433F8E7464B474900228B424E
:1002300002D243F8042BFAE74448454900235A58B0
:100240001A500433B3F5DE7FF9D1424B424A802184
:1002500003F8011B9342FBD1404B3C4A1A60404BD0
:100260008A221A70A3F5805324225A70A0221A7091
:100270009A799207FCD59A79D406FCD4394A9379B5
:1002800003F00C03082B374BF9D105221A714322D6
:100290005A719A799006FCD5324A9179314B4906C8
:1002A000FBD5314A4FF08171116005215160202248
:1002B0001A709A7902F00C020C2AFAD12B4B2C4AB4
:1002C0001A602C4B2C4A1A6000225A60072243F80D
:1002D000042C2A4AC3F80C2D62B602F09FFE134B81
:1002E0001B68DA0705D5264802F064FC254B264A30
:1002F0001A60264B1B785B0609D5224C224A2368DC
:10030000934204D11E4802F055FC0023236006F0FE
:1003100083F902F0ADFB02F0D9FAFEE70E200540AA
:1003200030800440823F04000100002B14D00340C1
:1003300002D0074000E007402C92FF1F0875000024
:100340006087FF1F2C92FF1F4C96FF1F0082FF1F2C
:100350000000000000E400E05FE400E008ED00E0E1
:1003600000500640004006404480044004800440A1
:10037000C010050014E000E03F190100000020203B
:100380002076CD581CE00340A5C3945A00F00740E6
:10039000FFFFFFFFFFFFFFFFFFFFFFFFFFFFFFFF6D
:1003A000FFFFFFFFFFFFFFFFFFFFFFFFFFFFFFFF5D
:1003B000FFFFFFFFFFFFFFFFFFFFFFFFFFFFFFFF4D
:1003C000FFFFFFFFFFFFFFFFFFFFFFFFFFFFFFFF3D
:1003D000FFFFFFFFFFFFFFFFFFFFFFFFFFFFFFFF2D
:1003E000FFFFFFFFFFFFFFFFFFFFFFFFFFFFFFFF1D
:1003F000FFFFFFFFFFFFFFFFFFFFFFFFFFFFFFFF0D
:10040000FFFFFFFFFFFFFFFFFFFFFFFFDEF9FFFF23
:1004100010B5054C237833B9044B13B10448AFF33E
:1004200000800123237010BD2C92FF1F00000000EC
:100430000875000008B5064B1BB106480649AFF326
:1004400000800648036813B1054B03B1984708BD07
:1004500000000000087500003092FF1F2C92FF1F63
:1004600000000000014B0360704700BFC070000037
:10047000704700BF014B0360704700BFC0700000B1
:10048000014B0360704700BFC0700000014B036068
:10049000704700BFC070000010B50446024B0360F7
:1004A00002F016FB204610BDC070000010B50446D7
:1004B000024B036002F00CFB204610BDC070000030
:1004C00010B50446024B036002F002FB204610BD4B
:1004D000C070000010B50446024B036002F0F8FA49
:1004E000204610BDC070000038B504460D460846D1
:1004F00006F0E6FB024623685B68204629469847DB
:100500000546204601F0BAFE284438BD10B5114812
:1005100001F0E8FA50B9104C23685B6820460F4997
:1005200030229847204601F0A9FEFEE70C4801F072
:100530000FFB20B908480949FFF7D6FFFEE7094835
:10054000FA2101F00FFD20B903480749FFF7CCFF5E
:10055000FEE710BD6C92FF1F1C94FF1FD8700000B7
:100560008492FF1F5092FF1F0C7100002DE9F04391
:100570008DB0082002F0CEF8FFF7C8FF0C2002F083
:10058000A3FA04460F211022112300F02DFD474B42
:100590001C60042002F098FA0646002500950C2302
:1005A000019302210322012300F010FE404C26603B
:1005B00000F02EFE542002F087FA074623683D4ED5
:1005C000009601951421152200F044FB3A4D2F604E
:1005D000542002F079FA0746236800960126019616
:1005E0001721162200F036FB344C2760286800F0F3
:1005F0005BFBDFF8E090DFF8E0804FF07C57286885
:10060000494642463B4600F04BFB206800F04CFB5D
:100610002068494642463B4600F042FB0D203146E9
:1006200002F00AFB0A240D260127642530463946CC
:1006300002F0D0FA284602F0DBFC3046002102F03E
:10064000C9FA284602F0D4FC013CEFD10D2001216B
:1006500002F0C0FA4FF47A7002F0CAFC14240025AC
:10066000174F0A26384603A901F0BEFC28460A990E
:1006700005F0CEFC0546304602F0BAFC013CF1D153
:100680002846104905F080FE0F4B18600D20002110
:1006900002F0A0FA0D4B1B680393039805F068FD68
:1006A0000B4B18600DB0BDE8F08300BF4C92FF1FEC
:1006B0009C92FF1F71BDC8427C92FF1F9892FF1F42
:1006C0005092FF1F0000A0416892FF1F3493FF1F4C
:1006D000A092FF1F00002041CDCC8C3F70B58AB0A6
:1006E0000D20012102F076FA0A2400250B4E304637
:1006F00001A901F079FC2846089905F089FC054616
:10070000013CF4D1064905F03FFE064B18600D2070
:10071000002102F05FFA0AB070BD00BF5092FF1FC7
:10072000000020416892FF1F70B500221F4B1A7015
:1007300060B11F4B18681F49462200F03BFC1E4B5E
:1007400018681E49462200F035FC0BE0184B18686B
:100750001A49462200F02EFC174B1868154946220C
:1007600000F028FC124E144D154C09E0214600F013
:100770000BFB2868214600F007FB0A2002F038FC3A
:100780003068037A002BF1D12B681B7A002BEDD156
:100790000122064B1A704FF4FA7002F029FCFFF7A1
:1007A0009DFF4FF4FA7002F023FC70BDA492FF1F6E
:1007B0007C92FF1F00805E449892FF1F00805EC401
:1007C00000008C4230B58BB005460C4801A901F001
:1007D0000BFC0B4C08980B4B196805F017FC0A49E9
:1007E00005F01EFD294605F01BFD084905F0CCFD6E
:1007F000216805F00DFC20600BB030BD5092FF1F4A
:100800004892FF1F6892FF1FE12E654200007A4464
:100810002DE9F04F87B00026A34B1E60A34B1B6849
:100820000393039805F0A4FC04464FF4FA7002F019
:10083000DFFBFFF753FF4FF4FA7002F0D9FB3546A8
:10084000B3469B4F8EE00A2002F0D2FB974B1B6809
:100850000493049805F08CFC8146214605F0D6FBF4
:100860008046FFF7AFFF904B1E683046914905F078
:1008700075FE20B93046904905F0C8FB06468F4CFE
:10088000304605F061F802460B46022100912046F1
:1008900001F042FD204601F0F1FC3046414605F0F2
:1008A000BFFC0146584605F0B3FB834630468449F9
:1008B00005F0B6FC04465846394605F0B1FC014641
:1008C000204605F0A5FB04463046294605F09EFB70
:1008D000414605F059FD394605F0A2FC0146204687
:1008E00005F096FB05F030F804460D4600224FF067
:1008F000804305F00DFB40B92046294600224FF009
:10090000404305F0E7FA20B906E000244FF08045A7
:1009100002E000244FF04045404605F047FE804687
:10092000684BD3F800A00020674922462B4604F00C
:10093000ABFE05F017FB01465046424600F01CFB9B
:10094000624BD3F800A02046294600225E4B04F0FB
:100950009DFE05F007FB01465046424600F00CFBA9
:1009600035464C465A4B186800F076FB4F287FF707
:100970006AAF574B186800F06FFB55283FF763AF1D
:10098000544EDFF858A1DFF828810A2002F030FB2E
:10099000464B1B680593059805F0EAFB8146214606
:1009A00005F034FB0746454C304604F0CDFF0246C7
:1009B0000B4602210091204601F0AEFC204601F0DA
:1009C0005DFC394B1E6830463A4905F0C7FD20B939
:1009D0003046394905F01AFB06463046394605F0DF
:1009E0001FFC0146584605F013FB83462846514636
:1009F00005F0AAFD40B93046294605F007FB394607
:100A000005F0C2FC054600E0002530462C4905F003
:100A100007FC04465846414605F002FC01462046C4
:100A200005F0F6FA04462846414605F0F9FB014672
:100A3000204605F0EDFA04F087FF04460D4600223B
:100A4000214B05F065FA38B9204629460022224B91
:100A500005F040FA28B102E000241B4D01E000241B
:100A60001D4D2046294605F07DFA0546384605F01D
:100A70009DFD044605F10041124B1868224600F026
:100A80007BFA124B18682946224600F075FA384660
:100A9000FFF798FE26F000404FF07C5105F07CFDFA
:100AA000F0B135464C4670E74892FF1F3493FF1F64
:100AB000ACC52737000034430000B4431C94FF1F2B
:100AC0000AD7A33B7C92FF1F0000F03F9892FF1FC4
:100AD0004C92FF1F000020410000F0BF00007AC4CC
:100AE00000250D4C0D4B18682946226800F044FA89
:100AF0000B4B18682946226800F03EFA4FF4FA7052
:100B000002F076FAFFF7EAFD4FF4FA7002F070FA9D
:100B100007B0BDE8F08F00BF4088FF1F7C92FF1F29
:100B20009892FF1F38B50446084905F021FD50B1E1
:100B30004FF001052046064905F024FD08B94FF0A5
:100B40000005E8B238BD002038BD00BF00002043DA
:100B50000000704208B5114B186800F059FA05F012
:100B60000BFBFFF7DFFF60B10C4B186800F062FA77
:100B700005F002FBFFF7D6FF00280CBF0220002083
:100B800008BD064B186800F055FA05F0F5FAFFF7B6
:100B9000C9FF00280CBF0320012008BD4C92FF1F95
:100BA00008B5FFF735FEFFF7D5FF012803D1002078
:100BB000FFF7BAFD08BD022803D10120FFF7B4FDFD
:100BC00008BD032808D106F049F880F0010000F0C4
:100BD0000100FFF7A9FD08BD20B9FFF7A5FD002022
:100BE000FFF7A2FD08BD00BF38B5124801F044FB75
:100BF000114D284647F25D6100F0AAFE0F4C2846D1
:100C00000F49224605F0F8FC0E4D284647F25E617A
:100C100000F0A8FE28460C49224605F0EDFC0B4DDD
:100C20002846142101F05CF928460949224605F0BE
:100C3000E3FC38BD8092FF1F6C92FF1F3C88FF1FB2
:100C4000750400008492FF1F810400005092FF1F72
:100C50008D04000070B50446049E002060600025ED
:100C6000257221616261A061E06120622563606399
:100C7000A063E06320646064A064E06484F8505082
:100C800084F8515084F852506662E360059AE2623B
:100C90001868314605F0C4FAA062204670BD00BF56
:100CA00041648264C364704710B50446007C01212E
:100CB00001F0C2FF207D012101F0BEFF207C002158
:100CC00001F088FF207D002101F084FF0023636094
:100CD00010BD00BF70B504460D46007C012101F037
:100CE000ABFF207D012101F0A7FF284605F05EFC47
:100CF00005F042FA0546206294F851300BB100F13C
:100D000000452846002105F047FCE0B194F8523038
:100D100063B1267C284605F049FC0146304602F0C6
:100D20004BF8207D012101F055FF70BD207C002192
:100D300001F050FF247D284605F038FC014620468E
:100D400002F03AF870BD94F852306BB1207C01216A
:100D500001F040FF247D05F1004005F027FC01462D
:100D6000204602F029F870BD267C05F1004005F010
:100D70001DFC0146304602F01FF8207D002101F0E5
:100D800029FF70BDFFFFFFFF2DE9F0478046894630
:100D9000037A002B79D1C06A00F092FA0746D8F89E
:100DA0003000381A05F0E8F9494605F0EDFA6A49CD
:100DB00005F036FAD8F8281005F0E6FA0646C8F825
:100DC0000000D8F804904846314605F01FF9054662
:100DD000D8F83840214605F019F9D8F8441005F044
:100DE0001FFA0146D8F8400005F010F9824628465F
:100DF000D8F8481005F014FA0146504605F006F9F7
:100E000082462046214605F003F90146284605F0B2
:100E1000FDF8D8F83C1005F0FBF8D8F84C1005F0B8
:100E2000FFF90146504605F0F1F804464846002116
:100E300005F08AFB48B13046484905F08FFB20B1E8
:100E40003046474905F0A8FB50B92046454905F012
:100E5000A3FB38B92046444905F080FB20B904E0E3
:100E6000002402E03F4C00E03F4C40462146FFF7A3
:100E700031FFC8F84040C8F83070D8F83830C8F8AA
:100E80003C30C8F83850BDE8F087C06A00F018FA66
:100E9000824605F071F9D8F81C1005F0B7F8054640
:100EA000002105F051FB10B1002388F808302846D6
:100EB0002E4905F0B5F9D8F8181005F0A9F8044640
:100EC000C8F8180028462A4905F0AAF90146204624
:100ED00005F09EF804F038FD04460D46D8F83000C1
:100EE000C0EB0A0004F01EFD19A3D3E9002304F0AF
:100EF0007FFD02460B462046294604F0C7FB064606
:100F00000F46484604F020FD04460D46304639465B
:100F100022462B4604F0FCFF70B909F1004004F0B2
:100F200013FD04460D463046394622462B4604F052
:100F3000D1FF08B934463D462046294605F012F84F
:100F400001464046FFF7C6FEC8F830A0BDE8F0876E
:100F5000000000A09999A93F00007A44CDCCCC3D77
:100F6000CDCCCCBD00004843000048C352491D3AD7
:100F70008FC2753DAFF30080F8B504460D461746A5
:100F8000002303720846616805F040F80646A06B2E
:100F9000314605F03BF8A063E06B314605F036F8CA
:100FA000E0636560384605F0E7F801462046FFF744
:100FB000EBFEF8BD70B504460E461546C06A00F05B
:100FC0007FF905F0D9F8314605F022F8E0610023F9
:100FD000A361012222726360284605F0CDF8014624
:100FE0002046FFF7D1FE70BD10B504460160426097
:100FF0008360C8B2002101F01FFE2079002101F0BA
:101000001BFE207A002101F017FE204610BD00BF14
:1010100070B5064606240025307901F0A9FB054489
:10102000013CF9D1024880FB0530A0EBE57070BDB2
:10103000ABAAAA2A70B5064606240025307A01F02C
:1010400097FB0544013CF9D1024880FB0530A0EB39
:10105000E57070BDABAAAA2A70B506460624002525
:10106000307801F085FB0544013CF9D1024880FB52
:101070000530A0EBE57070BDABAAAA2A08B5114BEC
:10108000187801F0CBFD01280ED10F4B187801F034
:10109000C5FD20B90D4B1A6801321A6008BD0B4B13
:1010A0001A68013A1A6008BD074B187801F0B6FDBE
:1010B0000128064B1A680CBF013202F1FF321A6098
:1010C00008BD00BFAC92FF1FB492FF1FB092FF1F7C
:1010D00008B5114B187801F0A1FD01280CD10F4B78
:1010E000187801F09BFD01280D4B1A680CBF0132E6
:1010F00002F1FF321A6008BD084B187801F08EFD2E
:1011000020B9074B1A6801321A6008BD044B1A68EF
:10111000013A1A6008BD00BFB492FF1FAC92FF1FD6
:10112000B092FF1F08B5114B187801F077FD012828
:101130000ED10F4B187801F071FD20B90D4B1A68D4
:1011400001321A6008BD0B4B1A68013A1A6008BDDB
:10115000074B187801F062FD0128064B1A680CBF96
:10116000013202F1FF321A6008BD00BFBC92FF1FBE
:10117000A892FF1FB892FF1F08B5114B187801F015
:101180004DFD01280CD10F4B187801F047FD0128C7
:101190000D4B1A680CBF013202F1FF321A6008BD14
:1011A000084B187801F03AFD20B9074B1A68013254
:1011B0001A6008BD044B1A68013A1A6008BD00BFE6
:1011C000A892FF1FBC92FF1FB892FF1F10B4094CDA
:1011D0000460094C216009490A60094A1360094A00
:1011E000019B13600023084A1360084A13605DF8EE
:1011F000044B704700004041AC92FF1FB492FF1FA8
:10120000BC92FF1FA892FF1FB092FF1FB892FF1F52
:10121000F8B5214F3878002101F00EFD1F4E3078CF
:10122000002101F009FD1E4D2878002101F004FD88
:101230001C4C2078002101F0FFFC3878012101F0DE
:10124000C9FC3078012101F0C5FC2878012101F0AA
:10125000C1FC2078012101F0BDFC3878124904223C
:1012600001F02AFD30781149042201F025FD28788B
:101270000F49042201F020FD20780E49042201F0DC
:101280001BFD0D4C23685B6820460C490B229847D8
:10129000204600F0F3FFF8BDAC92FF1FB492FF1F91
:1012A000BC92FF1FA892FF1F7D100000D11000000C
:1012B00025110000791100001C94FF1F40710000EF
:1012C000034610B9044B18687047012806BF034B4A
:1012D00018684FF0FF307047B092FF1FB892FF1FA1
:1012E000044BD878C0B2044B1B6898421CBF024B19
:1012F00018607047006006404888FF1F08B5FFF778
:10130000EFFF10F0020FFAD00222014BDA7008BD95
:10131000006006400B4B1B7813B90B4B1B7873B165
:101320000A4B1B78202B03D901230371002070473F
:10133000581C064A1070064AD154012070470020FC
:10134000704700BF2A93FF1FEC92FF1F2B93FF1FD4
:10135000C892FF1F704700BF024B1878024B1B78E2
:10136000C01A70472993FF1F2893FF1F074B1B7854
:10137000074A12789A4205D9591C044A1170054A45
:10138000D05C70474FF0FF30704700BF2893FF1FBD
:101390002993FF1FF092FF1F054B1B78054A127817
:1013A0009A4286BF044AD05C4FF0FF30704700BFBE
:1013B0002893FF1F2993FF1FF092FF1F08B5104BC2
:1013C000DB7813F0200F0CD1122001F0A9FB0D4B9C
:1013D0001B689BB100210C4A11700C4A1078984789
:1013E00008BD0B4A13780133DBB21370012B02D80E
:1013F000084B1B7813B9122001F092FB08BD00BF07
:1014000000600640C492FF1F2893FF1F2993FF1F0F
:101410001493FF1FEC92FF1F38B514460D4B1B7839
:1014200013B90D4B1B7893B10C4B1D78C5F12103FB
:10143000A34202D2012202711C46094828442246D6
:1014400001F04CFA2544054B1D70204638BD0020A4
:1014500038BD00BF2A93FF1FEC92FF1F2B93FF1F85
:10146000C892FF1F002202714FF47A7181600273EB
:10147000014A0260704700BF587100000B4B1B68A7
:1014800013F0400F10D00A4B994203D82822094B81
:101490005A7006E0084B994294BF19220A22054B64
:1014A0005A700322034B9A71704700BF3480044086
:1014B0007F1A0600006006403F420F0008B5002377
:1014C000174A1370174A116841F040011160164A1B
:1014D0009370164B1B78122B04D14FF41972144BD6
:1014E0001A6005E0112B03D14FF41972114B1A60E9
:1014F000114B1B78132B04D14FF419720F4B1A6048
:1015000005E0102B03D14FF419720D4B1A600D49F1
:10151000FFF7B4FF044B20225A7180229A7008BD55
:10152000EC92FF1F34800440006006404488FF1F97
:101530000CA0044004A004404C88FF1F08A00440F5
:1015400000A00440A086010008B53D4BDB78DBB26B
:1015500013F0100F06D01021394AD17013F0400F4C
:1015600003D108BD13F0400F2CD013F0040F1BD093
:101570000023344A1370344A1370344B1B681BB178
:101580009847314B1B782BB901222F4B1A70002240
:101590002F4B1A702A4BD0229A702D4A12781A714A
:1015A00001222C4B1A7009E00122264B1A700022EE
:1015B000294B1A70224BC0229A701B790222204BB1
:1015C000DA7008BD1E4A927812F0100F1CD013F08A
:1015D000010F14D11F4B1B781B4A12789A4207D96E
:1015E000591C1C4A11701A4AD25C154B1A7102E040
:1015F0000022134B1A71D022114B9A701BE0104B32
:10160000C0229A701B7916E00022144B1A70122027
:101610001349032201F050FB094B1B79DAB20E4B40
:101620001B781F2B07D80749097821B1581C0A4994
:1016300008700C49CA540222014BDA7008BD00BF81
:1016400000600640C092FF1F2B93FF1F1093FF1FE7
:10165000C892FF1F2C93FF1F2993FF1F1493FF1F96
:10166000BD130000F092FF1F4900044B19700123C5
:10167000034A1370034A1370704700BFC892FF1FDC
:101680002A93FF1F2B93FF1F2DE9F04182B088465C
:10169000374B1222DA709B7813F0200F03D0B4225C
:1016A000334B9A701DE0334B1B680093009D314C07
:1016B0000CE023680193019B5B1B0F2B06D92C4B7D
:1016C00000229A7080229A7004204EE0FFF708FEF4
:1016D00010F0200FEDD10022274B1A70B022244BBE
:1016E0009A70FFF7FDFD10F0200FFAD0234B1B7806
:1016F0007BB30024224E1E4D204F335D2B71FFF72C
:10170000EFFD10F0020F02D110F0200FF7D10223ED
:10171000EB70FFF7E5FD10F0100F04D08022144BA2
:101720009A70042018E010F0200F04D18022104B92
:101730009A70042010E010F0010F04D0002C0CBFB0
:10174000022003200BE00134E4B23B78A342D4D85A
:1017500001E0002000E00020B8F1000F02D080225C
:10176000034B9A700022074B1A7002B0BDE8F0815B
:10177000006006403493FF1FEC92FF1F2B93FF1F66
:10178000C892FF1F2A93FF1F2DE9F8430D46144608
:10179000984600233E4A13703E4A13703E4B122275
:1017A000DA709B7813F0200F03D0B4223A4B9A7072
:1017B0000AE0FFF795FD10F0200FFAD10022374B19
:1017C0001A70B022344B9A706D0045F00105EDB2ED
:1017D000314B1D71FFF792FDFFF782FD10F01100F4
:1017E00005D080222C4B9A700020BDE8F88344B9C4
:1017F000B8F1000F0CBFA0228022274B9A70BDE8E1
:10180000F883012C04D1244BA8229A701B7938E06C
:10181000214BA0229A701B79012C32D900251E4E33
:101820004FF0A8091E4FFFF769FD013CE4B2012CFF
:1018300008BF86F802901F2D04D86A1C33797B55A7
:10184000D5B200E03379012CEDD1FFF757FDB0227E
:10185000114B9A701F2D07D82B465D1CEDB20E4A16
:1018600011790F4AD15401E00B4B1B79B8F1000FED
:1018700002D08022084B9A70064B1D702846BDE8A6
:10188000F883FFF73BFDB022034B9A700023E4E797
:101890002893FF1F2993FF1F00600640EC92FF1F53
:1018A000F092FF1F08B50123FFF76EFF08BD00BFD0
:1018B00008B5C9B2FFF7D8FE08BD00BF08B50121C1
:1018C000FFF7E2FE08BD00BF08B50248FFF7CAFDFA
:1018D00008BD00BF1893FF1F4173704738B5054618
:1018E0000C4608460021282205F06AF920460849DE
:1018F0000B2205F015FA0023E3720122E260E96889
:101900002161626163620023A361E361236238BDE8
:101910009071000038B505460C4608460021282283
:1019200005F04EF9204609490B2205F0F9F900238C
:10193000E3720122E2602A6922610222626163622B
:101940000023A361E361236238BD00BF90710000F2
:10195000034A0260C1600022C28002814281704756
:10196000A0710000044A0260016100224273C2803B
:1019700002814281704700BF7871000070B5164641
:101980001D46084C2046FFF76FFE20463146FFF704
:10199000C1FC20462946FFF7BDFC2046FFF78EFF1D
:1019A00070BD00BF1893FF1F70B516461D46084C4A
:1019B0002046FFF759FE20463146FFF7ABFC204694
:1019C0002946FFF7A7FC2046FFF778FF70BD00BF50
:1019D0001893FF1F38B505460C461E2101222346E9
:1019E000FFF7E2FF2C73802C23D006D8402C12D0B6
:1019F000602C17D0202C37D106E0C02C27D0E02C4B
:101A00002CD0A02C30D11BE0184A194B1A60194A6F
:101A1000194B1A6038BD194A154B1A60184A164BF3
:101A20001A6038BD174A124B1A60174A124B1A60D7
:101A300038BD164A0E4B1A60154A0F4B1A6038BD56
:101A4000134A0B4B1A60134A0B4B1A6038BD124AEB
:101A5000074B1A60114A084B1A6038BD104A044BF4
:101A60001A60104A044B1A6038BD00BF00808944D8
:101A70005088FF1F000075445488FF1F00C0554464
:101A800000003E4400802744000016440000E1436B
:101A90000000C8430080B1430000A5430080934389
:101AA0000000664300004D4370B50D4616460C4CD1
:101AB0002046FFF7D9FD20463146FFF72BFC204694
:101AC000FFF7FCFE204629460122FFF7EBFE2046E9
:101AD000FFF74CFC05462046FFF7F0FEE8B270BD6C
:101AE0001893FF1F10B504460948FFF7E7FC20468E
:101AF000192120225723FFF741FF204619212022D8
:101B0000FFF7D2FF572814BF0020012010BD00BFEF
:101B10001893FF1F70B50D4616460C4C2046FFF774
:101B2000A3FD20463146FFF7F5FB2046FFF7C6FE32
:101B3000204629460122FFF7B5FE2046FFF716FC96
:101B400005462046FFF7BAFEE8B270BD1893FF1FA6
:101B500010B504460B48FFF7B1FC20461E210222B7
:101B60000023FFF721FF20461E210022FFF7D2FFAE
:101B7000102805D120462021FFF72CFF012010BDA1
:101B8000002010BD1893FF1F2DE9F0470546254C96
:101B900020461921FFF768FD23681B682046A8210D
:101BA00098472046FFF78AFE204619210622FFF7B4
:101BB00079FE2046FFF7D0FB0528FADD194C2046B8
:101BC000FFF7D4FB81462046FFF7D0FB8246204634
:101BD000FFF7CCFB07462046FFF7C8FB80462046B0
:101BE000FFF7C4FB06462046FFF7C0FB5FFA8AFA00
:101BF0005FFA89F949EA0A2949F30B19A5F8069011
:101C00005FFA88F8FFB247EA082747F30B172F81DE
:101C1000C0B2F6B246EA002646F30B166E81BDE866
:101C2000F08700BF1893FF1F70B582B005460C46C1
:101C3000242608460021324604F0C2FF2846FFF75A
:101C4000A3FF2660EB6863600126A660144B1B6847
:101C50000193019B2361B5F9060004F08DFA114947
:101C600004F0DEFA104904F0DBFA6061B5F908000F
:101C700004F082FA0B4904F0D3FA0B4904F0D0FACD
:101C8000A061B5F90A0004F077FA064904F0C8FA31
:101C9000054904F0C5FAE061304602B070BD00BFEE
:101CA0003493FF1F6F12833A0AE81C412DE9F04775
:101CB0000546224C20461E21FFF7D6FC23681B68F0
:101CC0002046032198472046FFF7F8FD20461E21B5
:101CD0000622FFF7E7FD2046FFF73EFB0528FADD69
:101CE000164C2046FFF742FB82462046FFF73EFB9C
:101CF00081462046FFF73AFB07462046FFF736FBB2
:101D000006462046FFF732FB80462046FFF72EFBB3
:101D10005FFA8AFA5FFA89F949EA0A29A5F8069072
:101D20005FFA88F8C0B240EA0828A5F80880FFB238
:101D3000F6B246EA07266E81BDE8F0871893FF1FCA
:101D40002DE9F04182B0044688460846002124224D
:101D500004F036FF1E27092640F6EE752046394668
:101D60003246FFF7D7FE10F0010F7DD02046FFF777
:101D70009DFF637B002B3FD0E28802F2F77292B2A4
:101D8000638903F2F7739BB2AB4298BFAA4205D8AE
:101D9000238903F2F7739BB2AB422DD9237B602BCF
:101DA0001BD004D8202B22D0402B1BD024E0A02B0A
:101DB00009D0C02B02D0802B1ED109E02046E021A3
:101DC000FFF708FECAE72046C021FFF703FEC5E77C
:101DD0002046A021FFF7FEFDC0E720468021FFF747
:101DE000F9FDBBE720466021FFF7F4FDB6E720468A
:101DF0004021FFF7EFFDB1E72423C8F80030236945
:101E0000C8F804300223C8F80830194B1B68019346
:101E1000019BC8F81030174B1D68B4F9060004F098
:101E2000ABF9294604F0B0FA134904F0F9F9C8F8FF
:101E30001400B4F9080004F09FF9294604F0A4FA4C
:101E40000D4904F0EDF9C8F81800B4F90A0004F0DF
:101E500093F90A4B196804F097FA074904F0E0F97E
:101E6000C8F81C00012000E0002002B0BDE8F081AD
:101E70003493FF1F5088FF1F0000C8425488FF1F83
:101E80000175704738B505460C46084600212822E2
:101E900004F096FE204610490B2204F041FF002377
:101EA000E3720122E2602A692261042262616362B4
:101EB000A88904F05DF9094904F0B2F9A061A88984
:101EC00004F05AF900F10040044904F0A9F9E06176
:101ED0000023236238BD00BFD871000035FA8E3C64
:101EE000024A02600161002202757047C071000061
:101EF00070B50E461546084C20466B21FFF7D8FCFE
:101F000020463146FFF706FA20462946FFF702FA37
:101F10002046FFF7D3FC70BD1893FF1F38B50D4660
:101F20000F4C20466B21FFF79FFB20462946FFF709
:101F3000F1F92046FFF7C2FC20466B210122FFF792
:101F4000B1FC2046FFF708FA0028FAD0044C2046DE
:101F5000FFF70CFA05462046FFF7B0FCE8B238BDA3
:101F60001893FF1F38B504460D461E48FFF7A6FA22
:101F7000A5810023E3802381638120460F21FFF7A1
:101F8000CDFFD42801D0D72827D1204620210022F8
:101F9000FFF7AEFF204620210F22FFF7A9FFA389FC
:101FA000B3F5FA7F0BD0B3F5FA6F0FD0FA2B16D139
:101FB000204623210022FFF79BFF012038BD204649
:101FC00023211022FFF794FF012038BD2046232152
:101FD0002022FFF78DFF012038BD002038BD0120F1
:101FE00038BD00BF1893FF1F2DE9F04F85B006469E
:101FF0000C462425084600212A4604F0E1FD002372
:10200000F380338173812560336963600423A360A7
:10201000914DDFF860822B680393039B23618F4F00
:1020200038466B21FFF720FB3B681B683846A82128
:1020300098473846FFF742FC0028ECD138466B2120
:102040000622FFF72FFC3846FFF790F98246384604
:10205000FFF78CF983463846FFF788F90090384639
:10206000FFF784F981463846FFF780F9019038463A
:10207000FFF77CF907465FFA8BFB5FFA8AFA4AEAB8
:102080000B2A0FFA8AF004F077F860615FFA89F999
:10209000009AD3B243EA09290FFA89F004F06CF8E8
:1020A000A061FFB2019AD3B243EA072738B204F025
:1020B00063F8E061A6F806A0A6F808907781337D62
:1020C000002B7ED06769D4F818B0E36900934FF015
:1020D000010A3846624904F04BFA08B94FF0000A89
:1020E0004FF001093846414604F04CFA08B94FF068
:1020F00000094AEA09094FF001075846414604F031
:1021000041FA08B94FF0000749EA07094FF0010703
:102110005846534904F02CFA08B94FF0000749EA31
:1021200007074FF0010A0098414604F02BFA08B95E
:102130004FF0000A47EA0A0717F0FF0F0BD14FF0E4
:1021400001070098464904F013FA08B94FF0000758
:10215000FFB2002F35D0B389FA2B1AD0B3F5FA7F2E
:102160002FD14FF4FA63B381304620210022FFF7CC
:10217000BFFE304620210F22FFF7BAFE3046232152
:102180002022FFF7B5FE304624218022FFF7B0FE63
:1021900041E74FF4FA73B381304620210022FFF764
:1021A000A7FE304620210F22FFF7A2FE3046232152
:1021B0001022FFF79DFE304624218022FFF798FE73
:1021C00029E7B389B3F5FA7F14D0B3F5FA6F21D0BC
:1021D000FA2B2ED16069234904F022F86061A069CE
:1021E000204904F01DF8A061E0691E4904F018F8C8
:1021F000E0611EE060691C4904F012F86061A069AA
:10220000194904F00DF8A061E069174904F008F8D5
:10221000E0610EE06069154904F002F86061A069B0
:10222000124903F0FDFFA061E069104903F0F8FFD7
:10223000E06160690E4903F0F3FF6061A0690C4939
:1022400003F0EEFFA061E069094903F0E9FFE061F6
:10225000012005B0BDE8F08F3493FF1F1893FF1FD6
:1022600000F0FFC6295C0F3C295C8F3C295C8F3D48
:1022700035FA8E3C00F0FF46704700BF00B583B0D2
:10228000054B1B88ADF8043003685B6801A9022286
:10229000984703B05DF804FBE0710000F0B58BB027
:1022A000164622B903681B68C9B298472FE0012A75
:1022B00008BF0A2621B930228DF82520212417E0F5
:1022C00021243746B1FBF6F506FB1515EDB2224683
:1022D000092D94BF30353735EDB20DF1280E72441B
:1022E00002F8245CB1FBF7F111B1013CE4B2E9E77B
:1022F00033B1013CE4B20AAB23442D2203F8242C71
:1023000003685B6801A92144C4F1220298470BB01D
:10231000F0BD00BFFFFFFFFF2DE9F04F85B0804605
:1023200014461D469DF838901046194603F080F972
:1023300040B9D8F800305B684046674903229847A7
:102340000746BEE02046294603F072F9012808D16D
:10235000D8F800305B68404660490322984707463A
:10236000AFE0204629464FF060425D4B03F0D0FDC0
:1023700040B1D8F800305B6840465A49032298477C
:1023800007469EE0204629464FF06042564B03F038
:10239000A1FD40B1D8F800305B68404651490322A6
:1023A000984707468DE0204629460022002303F087
:1023B00091FD28B105F100431D464FF0010A01E0EF
:1023C0004FF0000AB9F1000F6CD04FF0000B002263
:1023D000464B3FA7D7E900671046194632463B46B1
:1023E00003F006FB02460B460BF1010B5FFA8BF183
:1023F0008945F1D82CE04E462046294600223C4B28
:1024000003F0F6FA04460D4603F08CFDC0B206F167
:1024100001095FFA89F904AB1E4400F1300306F8A4
:10242000103C03F07FFA02460B462046294603F093
:102430002BF904460D46D145DDD101E04FF0010AEC
:10244000D8F800305B68404669465246984738E005
:102450002046294603F01AF904460D4603F062FDB2
:10246000064603F04FFA02460B462046294603F083
:102470000BF904460D46404631460A225346FFF703
:102480000DFF07462E238DF80030B9F10F0F34BF32
:102490004B460F23002BD1D003F1010A5FFA8AFAD1
:1024A0000126A9E7204629460022104B03F0EEF84A
:1024B00003F038FD014640460A225346FFF7EEFE80
:1024C0000746384605B0BDE8F08F00BFAFF3008087
:1024D000000000A09999B93FE4710000E871000084
:1024E000FFFFEF41EC710000FFFFEFC10000E03F94
:1024F00000002440AFF3008030B4394A39491368F2
:1025000013F0800FFBD10B6813F0800FF7D172B678
:10251000354B1B78002B5FD0344B1C6804331D688F
:10252000043318680433196804331A6804331B68C9
:102530002C44204401440A441A44C2F34E0242F49B
:1025400000422B4B1A602C331C6804331D68043383
:1025500018680433196804331A6804331B682C4460
:10256000204401440A441A44C2F34E0242F4004299
:10257000204B1A6003F108131C6804331D680433F0
:1025800018680433196804331A6804331B682C4430
:10259000204401440A441A44C2F34E0242F4004269
:1025A000154B1A602C331C6804331D6804331868FB
:1025B0000433196804331A6804331B682C4420441C
:1025C00001440A441A44C2F34E0242F400420B4B47
:1025D0001A600022044B1A7062B630BC704700BF0C
:1025E00024B0034024B00B402E93FF1F38B00340AB
:1025F0002CB0034030B003402CB00B4030B00B4047
:1026000060223A4B1A70E12201331A70384B1B7862
:10261000082B10D1012203F1804303F56C331A60BB
:10262000132334490B6001F5FF2101F2FC710A60AC
:10263000314A13601FE00A2B0DD119222F4B1A606B
:1026400013232C490B6001F5FF2101F2FC710A6094
:10265000294A13600FE00C2B0CBF15223D22274B9B
:102660001A60122323490B6001F5FF2101F2FC716E
:102670000A60214A1360224B1B7833B10123214A9F
:10268000136002F50022136005E000231D4A136069
:1026900002F5002213601C4B1B78012B06D8802307
:1026A0001A4A136002F5002213601AE0042B06D8C0
:1026B0008423164A136002F50022136011E0082BF0
:1026C00006D88523114A136002F50022136008E042
:1026D000102B94BF862387230C4A136002F5002237
:1026E000136001220A4B1A70704700BF0040074078
:1026F0005888FF1F0CB003400CB00B4008B00340DB
:102700003193FF1F20B003405988FF1F24B00340BE
:102710002E93FF1F08B50C2804D9102828BF1020BD
:10272000102307E00A2804D8092834BF08230A2305
:1027300000E00C23DAB2101A094908700949097837
:1027400099420CD0074B1A70074B1B782BB1002312
:10275000064A136002F500221360FFF751FF08BD1F
:102760002D93FF1F5888FF1F2E93FF1F24B0034097
:102770002DE9F843282873D83C4B1E5CFF2E72D0FD
:102780003B4B1B780BB1FFF7B7FE16F0800F29D13A
:1027900072B6384C384D4FF0010726602F7062B684
:1027A00072B6236813F0800F04D12B7813F0FF0F5B
:1027B0000FD1F2E7314B186800222F4B1A7062B626
:1027C0002F4B1B781841BDE8F8832B7813F0FF0FCF
:1027D000E3D062B601F0F8FA72B6236813F0800F06
:1027E000F3D0E7E772B606F040095FFA89F9254FA2
:1027F000254C06F03F06254D4FF00108B9F1000FBA
:1028000004D03B6823F010033B6003E03B6843F0D7
:1028100010033B60266085F8008062B672B62368BC
:1028200013F0800F04D12B7813F0FF0F0FD1E5E7E1
:10283000174B18680022154B1A7062B6104B1B78A4
:102840001841BDE8F8832B7813F0FF0FD6D062B69D
:1028500001F0BAFA72B6236813F0800FF3D0E7E7FD
:102860000020BDE8F8830020BDE8F883F071000087
:102870002E93FF1F00B003403093FF1F10B00340A2
:102880002D93FF1F0CB00B4000B00B402F93FF1F88
:1028900010B00B40094B1A6842F480521A60084B82
:1028A0001B781BB18022074B1A7002E0C022054B37
:1028B0001A7080F30C00044B188070472C80044081
:1028C0003193FF1F21C00C4000C00C4008B5FDF73C
:1028D0004DFEFEF765F901F077FAFAE7844641EA22
:1028E000000313F003036DD1403A41D351F8043B88
:1028F00040F8043B51F8043B40F8043B51F8043BDA
:1029000040F8043B51F8043B40F8043B51F8043BC9
:1029100040F8043B51F8043B40F8043B51F8043BB9
:1029200040F8043B51F8043B40F8043B51F8043BA9
:1029300040F8043B51F8043B40F8043B51F8043B99
:1029400040F8043B51F8043B40F8043B51F8043B89
:1029500040F8043B51F8043B40F8043B51F8043B79
:1029600040F8043B51F8043B40F8043B403ABDD2E8
:10297000303211D351F8043B40F8043B51F8043B8A
:1029800040F8043B51F8043B40F8043B51F8043B49
:1029900040F8043B103AEDD20C3205D351F8043B19
:1029A00040F8043B043AF9D2043208D0D2071CBFE5
:1029B00011F8013B00F8013B01D30B88038060460E
:1029C000704700BF082A13D38B078DD010F0030384
:1029D0008AD0C3F10403D21ADB071CBF11F8013BF4
:1029E00000F8013B80D331F8023B20F8023B7BE743
:1029F000043AD9D3013A11F8013B00F8013BF9D26E
:102A00000B7803704B7843708B7883706046704707
:102A1000024B1A6801321A60704700BF3493FF1FDF
:102A200008B50D4C236813F4802F01D000F036FC5C
:102A3000236813F4806F01D001F0D2FE236813F4F1
:102A4000006F01D002F07EFA236813F4805FE9D0B2
:102A500002F036FDE6E700BF3480044008B5FFF71A
:102A6000DFFF00BF1022014B1A8070470020054095
:102A7000704700BF024A1368184410601846704738
:102A80005C88FF1FFEE700BFEFF31383ABB9EFF3E2
:102A90001083ABB9EFF3058323B10F2B05D9094A96
:102AA000985C03E04FF4807000E00020EFF31183A6
:102AB0003BB1834238BF184670474FF0FF30704734
:102AC00000207047F0E300E008B503F0CDFD08BD3D
:102AD00008B503F0D1FD08BD30B40023B0FBF2F41B
:102AE00002FB14041D46092C94BF30343734E4B281
:102AF000CC54B0FBF2F008B10133EFE70D440022F3
:102B00006A70934207DD885CCC5C8C54C8540132F7
:102B1000013B9A42F7DB084630BC7047704700BF64
:102B20001D4B03EBC000436803F14042A2F5922223
:102B30007C2A18D903F14042A2F594227C2A14D9A8
:102B400003F14042A2F596227C2A10D903F14042BB
:102B5000A2F598227C2A0CD903F14042A2F59A22D0
:102B60007C2A08D970470D4906E00D4904E00D495B
:102B700002E00D4900E00D4972B61A6822F0877232
:102B800022F4803242F080721A60C3F38403084A50
:102B900041F8232062B670471C7200006088FF1F56
:102BA0009888FF1FE888FF1F1889FF1F3889FF1FBB
:102BB0001D2B0000044B00221A6004490A60044ADD
:102BC000106010221A60704714D0034004D00340F4
:102BD00000D0034021281ED80F4B53F8303093F813
:102BE000802212F0FF0F08D019B1012283F8802053
:102BF0007047012283F800217047074B03EBC000A8
:102C0000436821B11A6842F003021A6070471A68DB
:102C100022F002021A6070471C720000212806D8B8
:102C2000044B53F8303093F80002C0B270470020D4
:102C3000704700BF1C72000021283AD81D4B03EBDF
:102C4000C0035B68012919D0042925D0194A52F81C
:102C50003020002082F8800219B94FF480721A6087
:102C60007047022903D140F203121A60704703290A
:102C70000CBF4FF4817200221A6070470D4A52F85F
:102C80003020012182F880124FF4A2721A601A6873
:102C900022F020021A607047064A52F830200121C3
:102CA00082F880124FF4A2721A601A6842F0200271
:102CB0001A6070471C72000070B50D46212861D85B
:102CC000042A5FD8DFE802F00709050B03000B2395
:102CD00006E00A2304E0082302E00C2300E00923B5
:102CE0001E04294B03EBC0035C68236813F4E06FF8
:102CF00002D10021FFF7A0FF244B254AC3F89C21F5
:102D0000244AC3F8A021244AC3F8A421234AC3F8C3
:102D1000A821234AC3F8AC2104F14043A3F5922330
:102D20007C2B18D904F14042A2F594227C2A14D9B4
:102D300004F14043A3F596237C2B10D904F14043C2
:102D4000A3F598237C2B0CD904F14043A3F59A23D7
:102D50007C2B08D970BD134906E0134904E01349E0
:102D600002E0134900E0134972B6236823F470238C
:102D70002360C4F3840241F8225043F080731E4361
:102D8000266062B670BD00BF1C7200000082FF1F8B
:102D90001188FF1FE587FF1FB987FF1F8D87FF1F62
:102DA0006187FF1F6088FF1F9888FF1FE888FF1F4B
:102DB0001889FF1F3889FF1F10B5044628280FD136
:102DC0005D4B1B780B2B03D8C3F10C03994003E038
:102DD0000C2B84BF0C3B19410846FFF75BFD10BD6F
:102DE000554B1B78012202FA03F0002908DC20462B
:102DF0000021FFF7EFFE20460121FFF71DFF10BD68
:102E00000A46884208D820460121FFF7E3FE204603
:102E10000121FFF711FF10BDE01EC0B2012806D846
:102E20004648006800FB011222FA03F310E0202C50
:102E300001D0192C06D14248006800FB022222FA78
:102E400003F305E03F48006800FB011222FA03F398
:102E5000E01E1D2864D8DFE800F0474E402B636376
:102E60001D2463636363636363636332390F1663B3
:102E70005C63636363636355334A136040F24442A7
:102E8000324B1A6010BD324A136040F24442314B5B
:102E90001A6010BD304A136040F244422F4B1A6052
:102EA00010BD2F4A136040F244422E4B1A6010BDF1
:102EB0002D4A136040F244422C4B1A6010BD2C4A3C
:102EC000136040F244422B4B1A6010BD2A4A136033
:102ED00040F24442294B1A6010BD294A136040F267
:102EE0004442284B1A6010BD274A13604FF45172B8
:102EF000264B1A6010BD264A13604FF45172254BC1
:102F00001A6010BD244A13604FF45172234B1A60AB
:102F100010BD234A13604FF45172224B1A6010BD4A
:102F200020467F29D4BF00210121FFF753FE204610
:102F30000121FFF781FE10BD4089FF1F089003406B
:102F400008800B40088003401080034004B0044018
:102F50001880034008B00440208003400CB00440B7
:102F60002880034010B004403080034010C004406B
:102F70003880034014C004404080034018C004401F
:102F8000488003401CC0044010900340309004402F
:102F9000189003403490044010800B4048A0044037
:102FA00018800B404CA0044072B60D4B1B680D4AB4
:102FB00012680D49096862B611F0806F02D0322B99
:102FC00088BF0132C3F58C3303F23F130749A1FBDD
:102FD00003031B094FF47A7000FB0230704700BFF7
:102FE00018E000E03493FF1F04ED00E0398EE33871
:102FF00038B50546FFF7D8FF044625B938BD013D71
:103000000AD004F57A74FFF7CFFF001BB0F57A7F82
:10301000F5D200F0D9FEF6E738BD00BF10B5264B5B
:103020004FF400021A604FF080721A604FF0007285
:103030001A604FF080621A604FF000621A60002040
:103040001E4B186048F6FF710433196028231C4A90
:1030500013600832136008321360083213600832BC
:1030600013600832136008321360083213600922BB
:10307000144C226004F58054043420600434216030
:103080000434236008342360143C226004F5FE24D9
:10309000043420600C4801600C490B6008310B605F
:1030A0000B4B1A60FFF7ACFA4FF4C870FFF7A0FFA4
:1030B00000F074FC10BD00BF08E100E00480034094
:1030C0000C8003400080034008800B400C800B40C4
:1030D00000800B4030B40E4B1B7843F002020D4CC5
:1030E00004EBC20460600C48007800280CBF882400
:1030F000C82444EA0141074D45F8321080F0010030
:10310000054A107083F00103014A137030BC704708
:10311000A093FF1F0080FF1F1994FF1F10B4431ED0
:10312000032B11D872B60A4A52F8230050B14268F4
:10313000074941F82320074A32F813400188611AF1
:1031400022F8131062B600E000205DF8044B7047CF
:103150009093FF1F3496FF1F013803280DD872B6D5
:10316000074B53F820302BB1002001305B68002B57
:10317000FBD100E0002062B670470020704700BF1E
:10318000E493FF1F38B572B601231B491B4C5A1834
:1031900012F8012C12F0080F24D09A0054F8325083
:1031A0006DB9164B03EBC20108304860144943F86F
:1031B0003210144B1A78013A1A7062B638BD42F0D8
:1031C000010254F832506DB90C4B03EBC2010830C8
:1031D00048600D4943F832100A4B1A78013A1A70C8
:1031E00062B638BD0133052BD1D162B60022054B42
:1031F0001A7000F067FC38BD787400000080FF1F73
:10320000880040000E94FF1FC800400010B4431E09
:10321000032B37D8400140F010001C4A104472B60E
:103220001B4AD25C032A09D8DFE802F019021B0509
:103230000830022216E00830042213E0154A52F842
:1032400023201AB9134A42F8231003E0124A52F815
:1032500023205160104A42F8231062B612E0032284
:1032600000E005220A4CE25401F10803436000F03B
:103270000803002B0CBF8823C8230A8843EA0243B3
:10328000036062B65DF8044B704700BF0080FF1F0B
:103290004C93FF1FE493FF1FF493FF1F2DE9F84F9A
:1032A000A34CDFF8E092DFF8E0A2DFF8E0B2257887
:1032B000EDB215F0040F1DD09E4B1B7813F0FF0FDD
:1032C00016D09D4B1B7803F0FF022BB1531EDBB2CF
:1032D000994A137003B900BE984B1B7803F0FF02A4
:1032E00033B1531EDBB2954A13700BB900F048FDA1
:1032F0000423237015F0080F00F0E48299F80030E1
:10330000DBB21D0940F021828D4D9E0805EBC603FE
:103310005A6855F83630C3F38303013B0C2B00F297
:103320001082DFE813F0CB01CB010E020E020E0279
:103330000E020E020E02E8010E020E020E020D0037
:10334000804913680B6052684A607F4A45F836200E
:1033500000227E490A607A490A618A6101217C4A19
:1033600011709BB240F28162934218D8B3F5D06FCE
:103370002ED2B3F5817F00F01E8106D8802B00F09D
:10338000C980822B00F0CC8066E140F20232934289
:1033900000F02681B3F5A06F00F062815CE142F29B
:1033A0002102934200F0868107D8B3F5086F00F040
:1033B000AB80B3F5106F11D04EE142F2212293425F
:1033C00000F0418142F22132934200F0498143E111
:1033D000604B5D68002D40F0188130E1594B9A78C0
:1033E000544B1A70564D05F180062B6A13F0800F6E
:1033F00003D0686A083800F065FB0835B542F4D19F
:10340000DFF88C8100263746534AB05828B145680A
:1034100000F058FB0DB12846F9E700234E497350E0
:103420004E4AB3504E4BF05828B1456800F04AFB65
:103430000DB12846F9E7002349497350494AB35072
:1034400028F8023F484BFB5C023B032B0AD8DFE81D
:1034500003F0020602060022434BDA5502E0012285
:10346000414BDA5501370436102ECDD100223F4BA7
:103470001A7001253E4EDFF81C81314F05EB080321
:1034800013F8013C06F8043B13F0080F2DD000F0B0
:10349000F9FA48B1A90007EB451200F1080353609F
:1034A000344A47F8312007E0AB00002247F83320C8
:1034B0002E4B1A7801321A7000F0E4FA58B1AB00C2
:1034C00043F0010307EBC30100F108024A601E4A02
:1034D00047F8332009E0AB0043F00103002247F82E
:1034E0003320224B1A7801321A70AA0042F00201EE
:1034F000002347F8313042F0030247F832300135FB
:103500001D4B9E42BAD11EE20A4B1B781B4D2B70FD
:103510000127AAE0194D00232B706B700227A4E04D
:10352000084B9B88042B37D90F22154B1A70C1E02A
:10353000802007401894FF1FA193FF1F2C94FF1FAA
:103540000080FF1F0494FF1FC80040003893FF1F36
:103550001994FF1F7C7400009093FF1F3C93FF1F82
:10356000E493FF1FF493FF1F4C93FF1F0E94FF1F64
:10357000C420074088004000D42007401094FF1F5B
:10358000C020074090200740942007409820074023
:103590003296FF1F78740000A04A0021117051700C
:1035A0009F4A12F8233013F0020F5CD09B4D012389
:1035B0002B70022759E09B4B9B8803F07F03042B61
:1035C00002DC984A52881AB10F22954B1A7071E0AA
:1035D000934A12F8231021F0020102F82310B2E1FD
:1035E000904B9B8803F07F03042B02DC8D4A5288AA
:1035F0001AB10F228A4B1A705CE0894A12F8231024
:1036000041F0020102F823109DE1864B5E889F88FD
:10361000854BA3F10C02114633F80C0CB04209D1D2
:1036200033F80A0CB84205D1360A032E0CBF2F78A6
:1036300017891AE00D690C330C32002DEBD10F22E3
:10364000774B1A7036E0794B1A68794B1A60754BD4
:103650009A78784B1A7076E10F22714B1A7029E034
:1036600000273D4601E002276C4D6E4BDB889F42F0
:1036700028BF1F46402F34BF3E46402628463146CD
:10368000FFF728FD3544BF1B03D13F2E00F26081B8
:1036900010E0402F34BF3E46402628463146FFF713
:1036A00019FD3544BF1B01D13F2E03D9624B1D606C
:1036B000624B1F8001238AF8003042E0594B198881
:1036C00042F22103994212D15D4BD81D12F8011B21
:1036D00003F8011F8342F9D15A4B1B68862B02D194
:1036E0000F22594B1A7000200146FFF7F3FC574B8D
:1036F00045F8363025E0504B1E68BEB14F4FB7F845
:103700000080B8F1400F34BF454640253046294679
:10371000FFF7E0FCC5EB08039BB23B800BB9402DE3
:1037200001D1354400E00025434B1D603D4B1B8813
:10373000B3F5A06F05D13B4B00225A709B788BF8F4
:10374000003001238AF80030B9E0414E9F0806EBB3
:10375000C708D8F80420A2F10800013DEDB213F02B
:10376000080F47D000F0AEF93A4B53F825304BB371
:103770005A68384941F8252003F10802C8F80420A6
:10378000354A525D032A12D8DFE802F002060A0E1B
:103790000321314A51550AE002212F4A515506E0D2
:1037A00005212D4A515502E004212B4A515518F0AC
:1037B000080F0CBF8822C8221B8842EA034346F840
:1037C00037307CE0244B5B5D032B0BD8DFE803F044
:1037D000777702060022204B5A5570E001221E4BDB
:1037E0005A556CE018F0080F0CBF022203221A4B46
:1037F0005A5564E056F837301B0C22F8083C002B71
:1038000055D0002322F8063C42F8043C134B53F8F1
:1038100025302BBB114B43F8250025E01094FF1FEA
:10382000C02007400494FF1F887400003493FF1FDA
:103830004496FF1F3C94FF1F3893FF1F0C94FF1FFB
:103840003B96FF1F3C96FF1FA193FF1FC80040003F
:103850000080FF1FE493FF1F4C93FF1F9093FF1FF7
:103860003F4B53F8253058603D4B43F825003D4B06
:1038700033F8151032F8082C0A4423F8152000F00C
:1038800001F960B100F10803C8F8043018F0080F1E
:10389000354B364A08BF134646F837300FE0002351
:1038A00046F83730324B1A7801321A7007E018F0B8
:1038B000080F2D4B2D4A08BF134646F83730082312
:1038C0002370F4E415F0010F22D02A4902230B7073
:1038D0000022294B1A70294B24481860284C5C6040
:1038E00098602848D8601A619A610D20264B18709C
:1038F000FF23264803700838037018300270244AEA
:1039000013709F22234B1A7001230B70BDE8F88FB0
:1039100015F0800F05D00D221B4B1A708022403B02
:103920001A7015F0020F06D0184B1A78D2B21A701E
:103930000222083B1A7015F0100F0ED01022164B01
:103940001A70BDE8F88F00200146FFF7C3FBB1E60F
:1039500028460021FFF7BEFBACE6BDE8F88F00BFAC
:103960003C93FF1F3496FF1FC800400088004000B2
:103970000E94FF1F94200740A093FF1F0080FF1F9D
:103980005093FF1FA493FF1FC020074088200740CB
:103990008C200740842007408020074008B501F0B4
:1039A00003FE00231B491A465A50C81842600833C8
:1039B000882BF9D1184B1A6842F480221A60154BF3
:1039C000C3F30721154A1170C3F307411432117074
:1039D0001B0E04321370FF23343A13700832137035
:1039E000783A137001238432137000216C32117005
:1039F0007C3A137070220A4B1A704FF40072A3F2D3
:103A000041331A60102203F1C04303F5C8231A7032
:103A100008BD00BF0080FF1F348004409C20074089
:103A200049E400E008B500F0C3F808BD08B500F0AF
:103A300073F808BD08B500F09BF808BD08B500F0A4
:103A40006DF908BD08B500F0C1F808BD08B5084615
:103A500000F058F908BD00BF08B50846114600F04F
:103A6000D1F808BD704700BF044B00221A714FF413
:103A70007A7199601A73024A1A6070471C94FF1F8A
:103A80003873000072B60D4B1A68B2FA82F30B2B32
:103A900002D962B6002070474FF00041D94022EAB7
:103AA000010206490A6062B6054903EBC303DB0065
:103AB000C8180022CA504260704700BF4489FF1FE7
:103AC0000084FF1F08B50F4BC31A0F4AA2FB031354
:103AD0001B090B2B14D80D4A12783AB10C4A1278F4
:103AE00012F0FF0F02D0FFF74DFB08BD72B6094A76
:103AF0004FF0004121FA03F311681943116062B6D7
:103B000008BD00BF0084FF1F398EE3380E94FF1FED
:103B10001894FF1F4489FF1F10B5134B1B6853B93E
:103B2000124B1B7813F0FF0F18D00320FFF7F6FAA3
:103B30000D4B1860A8B10C4B186843885A1C0344FD
:103B40001C7A03889A4206D3FFF7BCFF0022064B7B
:103B50001A60204610BD4280204610BD4FF0FF3055
:103B600010BD4FF0FF3010BD3894FF1F1894FF1F99
:103B700008B50D4B1B6883B90C4B1B7813F0FF0F76
:103B800008D00320FFF7CAFA074B186028B94FF096
:103B9000FF3008BD4FF0FF3008BD034B1B685A884B
:103BA0001344187A08BD00BF3894FF1F1894FF1FF4
:103BB000044B9888044B1B681BB11A885B88D31A86
:103BC000184470473496FF1F3894FF1F10B50B4BF5
:103BD0001B7813F0FF0F0FD0094B186820B1FFF7C7
:103BE00071FF0022064B1A6003242046FFF796FA65
:103BF00010B1FFF767FFF8E710BD00BF1894FF1F73
:103C00003894FF1F2DE9F84F04460122384B1A70F3
:103C10008B46002965D00E46DFF8E080DFF8E090A3
:103C20009A46344FD8F8003083BB99F8003013F02F
:103C3000FF0F06D100222E4B1A704FF0FF30BDE867
:103C4000F88F48F601450420FFF786FA07280AD8BE
:103C500001238AF80030FFF715FFC8F80000A8B963
:103C600000238AF80030013D01D03B7833B10122B6
:103C7000204B1A704FF0FF30BDE8F88F00F0A4F829
:103C800099F8003013F0FF0FDDD1D3E700233B702C
:103C9000D8F800104A88C2F14005AE4238BF354618
:103CA00002F108030B442A444A80761B3DB12544A7
:103CB00014F8012B03F8012BAC42F9D100E02546A2
:103CC0004B883F2B07D940230B800420FFF79EFA37
:103CD0000023C8F800300522074B1A700EB12C469D
:103CE000A0E70022024B1A705846BDE8F88F00BFCB
:103CF0002D94FF1F3494FF1F2C94FF1F3094FF1F3F
:103D00001894FF1F00B583B002AB03F8010D1846ED
:103D10000121FFF777FF03B05DF804FB10B5144BEA
:103D20001B7813F0FF0F21D00122124B1A70124B97
:103D3000196851B10024114B1C704B880B80042072
:103D4000FFF764FA0C4B1C600DE0FFF79BFE014689
:103D500030B10022094B1A700420FFF757FA02E035
:103D60000122064B1A700022024B1A7010BD00BFD0
:103D70001894FF1F2D94FF1F3094FF1F2C94FF1FDA
:103D800008B50E4B1B7813F0FF0F16D10C4B1968BA
:103D900041B14B880B800420FFF738FA0022084B12
:103DA0001A6008BDFFF76EFE014618B10420FFF748
:103DB0002DFA08BD0122034B1A7008BD2D94FF1F78
:103DC0003094FF1F2C94FF1F08B50F4B1B78CBB905
:103DD00001220D4B1A70FFF7EBFE08B1FFF742FE10
:103DE00000F074FC08B100F0A3F801F021F808B16C
:103DF00000F040F901F0EEFA08B100F0DDF9002220
:103E0000014B1A7008BD00BF3D94FF1F08B5036841
:103E10001B68C9B2984708BD08B503681B68C9B2DA
:103E2000984708BD08B503681B68C9B2984708BD24
:103E300008B503681B68C9B2984708BD08B50448AF
:103E400000EB5100B0FBF1F000F0C6F908BD00BF77
:103E50000044950810B51446054800EB5100B0FB2E
:103E6000F1F000F0B9F9204600F01EFA10BD00BFD5
:103E70000044950808B500F047FA08BD08B50846A3
:103E800000F07CFA08BD00BF08B5084600F0D0FA83
:103E900008BD00BF08B50846114600F08BFA08BD02
:103EA00008B5084600F0F0FA003018BF012008BD40
:103EB00008B5084600F00AFB003018BF012008BD15
:103EC00008B500F003FC08BD08B500F049FC08BDCA
:103ED00008B500F00BFC08BD08B500F0D5FB08BD27
:103EE00008B500F057FC08BD08B500F0DDFB08BDC3
:103EF00008B5084600F016FB012008BD08B50846C5
:103F000000F010FB012008BD10B51446084611460C
:103F100000F058FB204610BD38B50D46084602F0AB
:103F2000CFFE04462846214600F04CFB204638BD13
:103F3000704700BF044B00221A714FF47A719960E8
:103F40001A73024A1A6070474094FF1F60730000A2
:103F500008B503681B68C9B2984708BD08B503686F
:103F60001B68C9B2984708BD08B503681B68C9B289
:103F7000984708BD08B503681B68C9B2984708BDD3
:103F800008B5044800EB5100B0FBF1F000F0B8FCBC
:103F900008BD00BF0044950810B51446054800EB65
:103FA0005100B0FBF1F000F0ABFC204600F010FD3A
:103FB00010BD00BF0044950808B500F039FD08BDEC
:103FC00008B5084600F094FD08BD00BF08B50846D6
:103FD00000F0E8FD08BD00BF08B50846114600F036
:103FE000A3FD08BD08B5084600F00AFE003018BF62
:103FF000012008BD08B5084600F024FE003018BFB7
:10400000012008BD08B500F013FF08BD08B500F099
:1040100059FF08BD08B500F01BFF08BD08B500F04A
:10402000E5FE08BD08B500F067FF08BD08B500F063
:10403000EDFE08BD08B5084600F026FE012008BDCB
:1040400008B5084600F020FE012008BD10B5144652
:104050000846114600F068FE204610BD38B50D46F2
:10406000084602F02DFE04462846214600F05CFE7C
:10407000204638BD704700BF044B00221A714FF430
:104080007A7199601A73024A1A6070475094FF1F40
:10409000C073000008B503681B68C9B2984708BD23
:1040A00008B503681B68C9B2984708BD08B503681E
:1040B0001B68C9B2984708BD08B503681B68C9B238
:1040C000984708BD08B5044800EB5100B0FBF1F07B
:1040D00000F0C8FF08BD00BF00A24A0410B5144696
:1040E000054800EB5100B0FBF1F000F0BBFF2046AB
:1040F00000F0FAFF10BD00BF00A24A0408B501F0AD
:1041000023F808BD08B5084601F058F808BD00BFFF
:1041100008B5084601F09AF808BD00BF08B5084682
:10412000114601F067F808BD08B5084601F090F89F
:10413000003018BF012008BD08B5084601F0AAF8F4
:10414000003018BF012008BD08B501F043F908BDD3
:1041500008B501F089F908BD08B501F04BF908BDB3
:1041600008B501F015F908BD08B501F097F908BDCB
:1041700008B501F01DF908BD08B5084601F0ACF816
:10418000012008BD08B5084601F0A6F8012008BDC9
:1041900010B514460846114601F0EEF8204610BD51
:1041A00038B50D46084602F08BFD044628462146E8
:1041B00001F0E2F8204638BD704700BF044B0022F2
:1041C0001A714FF47A7199601A73024A1A60704733
:1041D0006094FF1F20740000254B1A6842F480622F
:1041E0001A600023234A1370234A1370234A137062
:1041F000234A1370234A1370234B1B7813B1152BDA
:1042000005D008E040F21332204B1A6003E040F280
:1042100013321F4B1A601F4B1B78012B02D0052B4A
:1042200005D008E04FF451721B4B1A6003E04FF4C5
:1042300051721A4B1A60C0F34432194B1A70C0F312
:1042400047125A7000F01F00987204229A700221DF
:10425000D9745A7588221A743C22DA704022114BA4
:104260001A704FF40052A3F229331A60704700BF4E
:1042700034800440FC94FF1F7594FF1F0495FF1FBA
:10428000FD94FF1F7494FF1FB894FF1F40A00440CB
:1042900018C004404889FF1F44A004401CC00440CB
:1042A00000A006402DE400E0164B9B7803F0EC03E1
:1042B00000F00302134310F0040F18BF43F0100383
:1042C000104A937000F00F03042B04D11346927927
:1042D00042F040029A710B4B5A7902F0EF0210F053
:1042E000100F18BF42F01002064B5A719B7903F071
:1042F000EF0310F0200F18BF43F01003014A937131
:10430000704700BF00A0064010B5144B1B6813F4A3
:10431000806F21D0124B1B7813F0FF0F06D0104C8A
:10432000FFF752FD237813F0FF0FF9D14FF400523D
:104330000C4B1A6000230C4AD37040F203120B4955
:104340000A6004310A600A4A13700A4A13700A4B61
:104350001B680BB101221A7010BD00BF34800440ED
:104360007494FF1F84E100E000A0064040A00440D8
:10437000FC94FF1F7594FF1F7094FF1F10B5044637
:10438000094A137813F0FF0FFBD120460121FEF7F5
:1043900053FC20460021FEF71DFC044B53F834204B
:1043A000034B1A6010BD00BF7494FF1F1C72000005
:1043B0000095FF1F10B40C4609B140F08000184B67
:1043C0001B78984228D0174A126812F4806F21D0C7
:1043D00003F07F03012B02D0052B04D006E000225E
:1043E000114B1A6002E00022104B1A60002C0CBF27
:1043F0004422602200F07F03012B02D0052B05D060
:1044000008E042F44072084B1A6003E042F4407244
:10441000064B1A60024B18705DF8044B704700BFE2
:104420004889FF1F3480044044A004401CC004405D
:10443000114B1B7898421ED0104A126812F4806FFC
:1044400017D013B1152B04D006E000220C4B1A60D4
:1044500002E000220B4B1A6010B1152805D008E0CD
:1044600040F21332064B1A6003E040F21332054B60
:104470001A60014B18707047B894FF1F34800440D5
:1044800040A0044018C0044010B50D4B1B6813F445
:10449000806F12D021280CD80A4C0B4B53F83030C7
:1044A00023600121FEF7C8FB236800221A70012057
:1044B00010BD0020034B186010BD002010BD00BFD0
:1044C000348004407094FF1F1C720000114B1B6865
:1044D00013F4806F1BD0122804D140F202320E4B2D
:1044E0001A600DE0142804D140F202320B4B1A601E
:1044F00006E00B4B5A7B02F0FE025A730020704715
:10450000074B5A7B42F001025A730120704700208A
:10451000704700BF348004400CA0044014C0044025
:1045200000A006402DE9F04107461F4B1B6813F41D
:10453000806F37D01D4B1B680BB101221A701C4BCA
:104540001C780134402C28BF00241A4D1A4EDFF885
:104550006C8017E0FEF798FA40280FDC337913F0EF
:10456000800F0FD02B780133402B28BF002318F881
:104570000320D2B2F271DBB22B7003E0FF2801DD21
:10458000FFF722FC2B78DBB29C42E3D0FFB20B4B4F
:104590001F5501220A4B1A70E4B2054B1C70BC2255
:1045A000054BDA70BDE8F081348004400095FF1FB0
:1045B0000495FF1FFD94FF1F00A006407894FF1F85
:1045C0007494FF1F2DE9F84F0746284B1B6813F41E
:1045D000806F49D0264B1B680BB101221A7007EB84
:1045E000010B5F453DD2DFF89890224EDFF88C80BA
:1045F000DFF890A099F800400134402C28BF002437
:104600003578EDB2A54220D1BC2388F80330FEF7FF
:104610003BFA402811DC98F8043013F0800F10D0DA
:1046200033780133402B28BF00231AF80320D2B27D
:1046300088F80720DBB2337003E0FF2801DDFFF7C5
:10464000C3FB3378DBB29D42E1D017F8013B0AF897
:1046500004300122084B1A70E4B289F800405F452B
:10466000C8D1BC22054BDA70BDE8F88F3480044015
:104670000095FF1FFD94FF1F7494FF1F00A00640CC
:104680000495FF1F7894FF1F10B5064B1B7813F09D
:10469000FF0F06D0034CFFF797FB237813F0FF0FB3
:1046A000F9D110BD7494FF1F064B1B78DBB2064A8C
:1046B0001278D2B293422CBF3F3202F1FF32D01AAD
:1046C000704700BF0495FF1FFD94FF1F054B18782E
:1046D000C0B2054B1B78DBB2984238BF4030C01ADD
:1046E000704700BFFC94FF1F7594FF1F10B4184B58
:1046F0001A78D2B2174B1B78DBB29A4218D001332A
:104700003F2B18D81449C85CC0B2DCB211490C70F8
:1047100012490968C9B19A4203D300E00023D31AB1
:1047200001E04032D31A1A2B0FDC00230B700CE08F
:104730004FF0FF3009E0084B1878C0B20021054B5C
:104740001970064B19680029E8D15DF8044B7047D1
:10475000FC94FF1F7594FF1FBC94FF1F7094FF1FF4
:10476000094B1A78D2B2094B1B78DBB29A4207D0B8
:104770000133402B28BF0023054AD05CC0B27047EC
:104780004FF0FF30704700BFFC94FF1F7594FF1F70
:10479000BC94FF1F0D4B1B6813F4806F14D00C4B9F
:1047A000DA7802F0CB02DA7040225A74DA7842F0FA
:1047B0003402DA70074B1A78D2B2074B1A70074BE3
:1047C0001B680BB100221A70704700BF3480044090
:1047D00000A006407594FF1FFC94FF1F7094FF1FFC
:1047E00070B43D4B1B7913F0300F33D072B63A4B97
:1047F0009B7D03F0FF022BB9374BDA7940225A74C4
:1048000062B627E062B6354B1978C9B2344B1C78D2
:10481000E4B2314D334EEB79D8B24B1C402B28BF5C
:104820000023A3421CBFF0541946531E13F0FF028D
:10483000F1D1CAB2294B1A702B4B1B6853B1A1425C
:104840002EBFC4EB0101C4F1400409192729C4BFDC
:1048500001221A70204BDA78D2B212F0800F27D0E2
:104860001B7913F0800F23D0204B1C78E4B2204B2F
:104870001B78DBB29C4210D017491E4D01E0A342C9
:104880000BD00133402B28BF00230879E85CC0B26D
:10489000C871087DC0B20728F1D9DBB214490B708A
:1048A0000D4B1B7913F0800F02D07C210A4BD9707D
:1048B00012F0400F0ED0084B1B7913F0400F09D0B7
:1048C00000220D4B1A700D4B1B6803B11A703C226D
:1048D000014BDA7070BC704700A00640FC94FF1FCB
:1048E0007594FF1FBC94FF1F7094FF1F0495FF1F5A
:1048F000FD94FF1F7894FF1F7494FF1F0095FF1F06
:10490000254B1A6842F400621A600023234A137090
:10491000234A1370234A1370234A1370234A1370D7
:10492000234B1B78092B02D01A2B05D008E040F24C
:104930001332204B1A6003E040F213321E4B1A6010
:104940001E4B1B780A2B02D01F2B05D008E04FF41A
:1049500051721B4B1A6003E04FF45172194B1A60ED
:10496000C0F34432184B1A70C0F347125A7000F06B
:104970001F00987204229A700221D9745A758822F5
:104980001A743C22DA704022104B1A704FF4004225
:10499000A3F22B331A607047348004407895FF1FD0
:1049A0000D95FF1F8095FF1F7995FF1F0C95FF1F29
:1049B0004989FF1F0CB0044004D004404A89FF1FFE
:1049C00010B0044000D0044000B006402FE400E0E6
:1049D000164B9B7803F0EC0300F00302134310F036
:1049E000040F18BF43F01003104A937000F00F0338
:1049F000042B04D11346927942F040029A710B4B7A
:104A00005A7902F0EF0210F0100F18BF42F01002B6
:104A1000064B5A719B7903F0EF0310F0200F18BF7B
:104A200043F01003014A9371704700BF00B0064085
:104A300010B5224B1B6813F4006F3ED0204B1B783F
:104A400013F0FF0F06D01E4CFFF7BEF9237813F0CA
:104A5000FF0FF9D14FF400421A4B1A6000221A4B93
:104A6000DA701A4B1B78092B02D01A2B05D008E0FC
:104A700040F20312164B1A6003E040F20312154B8A
:104A80001A60154B1B7803F07F030A2B02D01F2BF3
:104A900005D008E040F20312104B1A6003E040F228
:104AA00003120F4B1A6000230E4A13700E4A137044
:104AB0000E4B1B680BB101221A7010BD34800440EC
:104AC0000C95FF1F84E100E000B006404989FF1FFC
:104AD0000CB0044004D004404A89FF1F10B00440C9
:104AE00000D004407895FF1F0D95FF1F0895FF1F0C
:104AF00010B50446094A137813F0FF0FFBD1204686
:104B00000121FEF799F820460021FEF763F8044BD7
:104B100053F83420034B1A6010BD00BF0C95FF1FE3
:104B20001C7200007C95FF1F10B40C4609B140F0C8
:104B30008000184B1B78984228D0174A126812F44C
:104B4000006F21D003F07F030A2B02D01F2B04D06B
:104B500006E00022114B1A6002E00022104B1A609E
:104B6000002C0CBF4422602200F07F030A2B02D0ED
:104B70001F2B05D008E042F44072084B1A6003E096
:104B800042F44072064B1A60024B18705DF8044BF9
:104B9000704700BF4A89FF1F3480044010B00440B2
:104BA00000D00440124B1B78984220D0114A126862
:104BB00012F4006F19D0092B02D01A2B04D006E092
:104BC00000220D4B1A6002E000220C4B1A600928EB
:104BD00002D01A2805D008E040F21332064B1A60C2
:104BE00003E040F21332054B1A60014B1870704716
:104BF0004989FF1F348004400CB0044004D00440B5
:104C000010B50D4B1B6813F4006F12D021280CD87F
:104C10000A4C0B4B53F8303023600121FEF70CF89F
:104C2000236800221A70012010BD0020034B186079
:104C300010BD002010BD00BF348004400895FF1F48
:104C40001C7200000D4B1B6813F4006F13D0172863
:104C50000AD140F202320A4B1A600A4B5A7B42F0E8
:104C600001025A7301207047064B5A7B02F0FE0284
:104C70005A73002070470020704700BF3480044002
:104C800008B0044000B006402DE9F04107461F4B34
:104C90001B6813F4006F37D01D4B1B680BB101224A
:104CA0001A701C4B1C780134282C28BF00241A4D84
:104CB0001A4EDFF86C8017E0FDF7E6FE40280FDCA7
:104CC000337913F0800F0FD02B780133282B28BFB6
:104CD000002318F80320D2B2F271DBB22B7003E08C
:104CE000FF2801DDFFF770F82B78DBB29C42E3D0A0
:104CF000FFB20B4B1F5501220A4B1A70E4B2054B51
:104D00001C70BC22054BDA70BDE8F0813480044091
:104D10007C95FF1F8095FF1F7995FF1F00B006400F
:104D20001095FF1F0C95FF1F2DE9F84F0746284BE4
:104D30001B6813F4006F49D0264B1B680BB101228E
:104D40001A7007EB010B5F453DD2DFF89890224EB9
:104D5000DFF88C80DFF890A099F800400134282C0F
:104D600028BF00243578EDB2A54220D1BC2388F8B5
:104D70000330FDF789FE402811DC98F8043013F069
:104D8000800F10D033780133282B28BF00231AF866
:104D90000320D2B288F80720DBB2337003E0FF288B
:104DA00001DDFFF711F83378DBB29D42E1D017F84F
:104DB000013B0AF804300122084B1A70E4B289F86A
:104DC00000405F45C8D1BC22054BDA70BDE8F88FC2
:104DD000348004407C95FF1F7995FF1F0C95FF1FC1
:104DE00000B006408095FF1F1095FF1F10B5064BC1
:104DF0001B7813F0FF0F06D0034CFEF7E5FF237876
:104E000013F0FF0FF9D110BD0C95FF1F064B1B7857
:104E1000DBB2064A1278D2B293422CBF273202F19B
:104E2000FF32D01A704700BF8095FF1F7995FF1F92
:104E3000054B1878C0B2054B1B78DBB2984238BFDF
:104E40004030C01A704700BF7895FF1F0D95FF1FB7
:104E500010B4184B1A78D2B2174B1B78DBB29A42B7
:104E600018D001333F2B18D81449C85CC0B2DCB24B
:104E700011490C7012490968C9B19A4203D300E084
:104E80000023D31A01E04032D31A1A2B0FDC00237F
:104E90000B700CE04FF0FF3009E0084B1878C0B2FF
:104EA0000021054B1970064B19680029E8D15DF8FF
:104EB000044B70477895FF1F0D95FF1F3895FF1F16
:104EC0000895FF1F094B1A78D2B2094B1B78DBB249
:104ED0009A4207D00133402B28BF0023054AD05CFB
:104EE000C0B270474FF0FF30704700BF7895FF1F8A
:104EF0000D95FF1F3895FF1F0D4B1B6813F4006FB6
:104F000014D00C4BDA7802F0CB02DA7040225A74DB
:104F1000DA7842F03402DA70074B1A78D2B2074BD3
:104F20001A70074B1B680BB100221A70704700BF44
:104F30003480044000B006400D95FF1F7895FF1F98
:104F40000895FF1F70B43D4B1B7913F0300F33D021
:104F500072B63A4B9B7D03F0FF022BB9374BDA79DF
:104F600040225A7462B627E062B6354B1978C9B24E
:104F7000344B1C78E4B2314D334EEB79D8B24B1C34
:104F8000402B28BF0023A3421CBFF0541946531ED8
:104F900013F0FF02F1D1CAB2294B1A702B4B1B68D8
:104FA00053B1A1422EBFC4EB0101C4F14004091961
:104FB0002729C4BF01221A70204BDA78D2B212F02E
:104FC000800F27D01B7913F0800F23D0204B1C7843
:104FD000E4B2204B1B78DBB29C4210D017491E4D27
:104FE00001E0A3420BD00133282B28BF002308790E
:104FF000E85CC0B2C871087DC0B20728F1D9DBB245
:1050000014490B700D4B1B7913F0800F02D07C21DB
:105010000A4BD97012F0400F0ED0084B1B7913F0D9
:10502000400F09D000220D4B1A700D4B1B6803B1C5
:105030001A703C22014BDA7070BC704700B0064019
:105040007895FF1F0D95FF1F3895FF1F0895FF1FCF
:105050008095FF1F7995FF1F1095FF1F0C95FF1F6F
:105060007C95FF1F174B1A6842F480521A60002388
:10507000154A1370154A1370154A1370154A1370A8
:10508000154A137040F21331144A11604FF45171F4
:1050900004321160C0F34431114A1170C0F347115A
:1050A000517000F01F009072937013742C23D37012
:1050B00040220C4B1A704FF40032A3F22D331A60C9
:1050C000704700BF34800440F495FF1F8995FF1F8F
:1050D000FC95FF1FF595FF1F8895FF1F08C0044032
:1050E00000C0064031E400E0164B9B7803F0EC036F
:1050F00000F00302134310F0040F18BF43F0100335
:10510000104A937000F00F03042B04D113469279D8
:1051100042F040029A710B4B5A7902F0EF0210F004
:10512000100F18BF42F01002064B5A719B7903F022
:10513000EF0310F0200F18BF43F01003014A9371E2
:10514000704700BF00C0064010B5144B1B6813F435
:10515000805F21D0124B1B7813F0FF0F06D0104C4C
:10516000FEF732FE237813F0FF0FF9D14FF400322F
:105170000C4B1A6000230C4AD37040F203120B4907
:105180000A6004310A600A4A13700A4A13700A4B13
:105190001B680BB101221A7010BD00BF348004409F
:1051A0008895FF1F84E100E000C0064008C004406D
:1051B000F495FF1F8995FF1F8495FF1F10B50446C6
:1051C000094A137813F0FF0FFBD120460121FDF7A8
:1051D00033FD20460021FDF7FDFC044B53F834203D
:1051E000034B1A6010BD00BF8895FF1F1C720000A2
:1051F000F895FF1F10B40C4609B140F08000104B29
:105200001B78984219D00F4A126812F4805F12D0AE
:1052100003F07F03082B02D100220B4B1A60002CF5
:105220000CBF4422602200F07F03082B03D142F41C
:105230004072054B1A60024B18705DF8044B7047C2
:105240004B89FF1F348004400CC00440704700BFEE
:1052500010B50D4B1B6813F4805F12D021280CD8B9
:105260000A4C0B4B53F8303023600121FDF7E4FC6E
:10527000236800221A70012010BD0020034B186023
:1052800010BD002010BD00BF348004408495FF1F76
:105290001C7200000D4B1B6813F4805F13D00E28A6
:1052A0000AD140F202320A4B1A600A4B5A7B42F092
:1052B00001025A7301207047064B5A7B02F0FE022E
:1052C0005A73002070470020704700BF34800440AC
:1052D00004C0044000C006402DE9F04107461F4BC2
:1052E0001B6813F4805F37D01D4B1B680BB1012284
:1052F0001A701C4B1C780134282C28BF00241A4D2E
:105300001A4EDFF86C8017E0FDF7BEFB40280FDC7B
:10531000337913F0800F0FD02B780133282B28BF5F
:10532000002318F80320D2B2F271DBB22B7003E035
:10533000FF2801DDFEF748FD2B78DBB29C42E3D06D
:10534000FFB20B4B1F5501220A4B1A70E4B2054BFA
:105350001C70AC22054BDA70BDE8F081348004404B
:10536000F895FF1FFC95FF1FF595FF1F00C0064035
:105370008C95FF1F8895FF1F38B505460C4629B14F
:1053800015F8010BFFF7A8FF013CF9D138BD00BFAC
:1053900010B5064B1B7813F0FF0F06D0034CFEF739
:1053A00013FD237813F0FF0FF9D110BD8895FF1F6F
:1053B000064B1B78DBB2064A1278D2B293422CBF5E
:1053C000273202F1FF32D01A704700BFFC95FF1F51
:1053D000F595FF1F054B1878C0B2054B1B78DBB263
:1053E000984238BF4030C01A704700BFF495FF1F85
:1053F0008995FF1F10B4184B1A78D2B2174B1B783F
:10540000DBB29A4218D001333F2B18D81449C85C3C
:10541000C0B2DCB211490C7012490968C9B19A4294
:1054200003D300E00023D31A01E04032D31A1A2B31
:105430000FDC00230B700CE04FF0FF3009E0084B4D
:105440001878C0B20021054B1970064B1968002965
:10545000E8D15DF8044B7047F495FF1F8995FF1F55
:10546000B495FF1F8495FF1F094B1A78D2B2094BE0
:105470001B78DBB29A4207D00133402B28BF0023B0
:10548000054AD05CC0B270474FF0FF30704700BF94
:10549000F495FF1F8995FF1FB495FF1F054B1A78E0
:1054A000D2B2054B1A70054B1B680BB100221A7063
:1054B000704700BF8995FF1FF495FF1F8495FF1F5C
:1054C0002F4B1B7913F0200F23D02D4BDB79D9B252
:1054D0002C4B1B780133402B28BF00232A4A12781B
:1054E000D2B29A4204D0294AD154D9B2254A117075
:1054F000274A116869B1274A1278D2B293422EBF67
:10550000C2EB0303C2F140029B18272BC4BF012347
:105510000B701B4BDB78DBB213F0800F1CD0184AEA
:10552000127912F0800F17D01B4A1178C9B2194AAC
:105530001278D2B2914203D16C21114AD1700BE0A2
:105540000132282A28BF00221449885CC0B20C49C5
:10555000C871D2B20F490A7013F0400F0ED0084B39
:105560001B7913F0400F09D000220D4B1A700D4B20
:105570001B6803B11A702C22014BDA70704700BF10
:1055800000C00640F495FF1F8995FF1FB495FF1FCB
:105590008495FF1FF595FF1FFC95FF1F8C95FF1F3E
:1055A0008895FF1FF895FF1F00B585B072B61B4B9D
:1055B00070221A7041211A4A11700F21013A11709C
:1055C00080221A701A46137813F0800FFBD0154B07
:1055D000186862B6144B98429CBF00EB80004000F4
:1055E00001A90A22FDF778FA9DF804307BB908E09A
:1055F00001A9595C31B19180023201330A2BF7D1F4
:1056000000E0002301335B00084A137003E0074AFF
:1056100053800123ECE705B05DF804FB0000024075
:1056200007000240080002407F969800D889FF1FBB
:1056300031F0004310B408D00F4AA3F5801494420F
:105640000AD804205DF8044B704700280CBF0220E4
:1056500003205DF8044B7047B3F5801F01D203208F
:10566000F7E7064A934201D00020F2E7D0F10100AB
:1056700038BF0020EDE700BFFFFFDF7F0000F07FB5
:1056800081F0004102E000BF83F0004330B54FEAF3
:1056900041044FEA430594EA050F08BF90EA020F60
:1056A0001FBF54EA000C55EA020C7FEA645C7FEAF3
:1056B000655C00F0E2804FEA5454D4EB5555B8BF16
:1056C0006D420CDD2C4480EA020281EA030382EA87
:1056D000000083EA010180EA020281EA0303362D19
:1056E00088BF30BD11F0004F4FEA01314FF4801CEC
:1056F0004CEA113102D0404261EB410113F0004FFE
:105700004FEA03334CEA133302D0524263EB4303B4
:1057100094EA050F00F0A780A4F10104D5F1200E52
:105720000DDB02FA0EFC22FA05F2801841F10001AD
:1057300003FA0EF2801843FA05F359410EE0A5F181
:1057400020050EF1200E012A03FA0EFC28BF4CF0B2
:10575000020C43FA05F3C01851EBE37101F0004568
:1057600007D54FF0000EDCF1000C7EEB00006EEB75
:105770000101B1F5801F1BD3B1F5001F0CD34908FF
:105780005FEA30004FEA3C0C04F101044FEA445256
:1057900012F5800F80F09A80BCF1004F08BF5FEADD
:1057A000500C50F1000041EB045141EA050130BDBD
:1057B0005FEA4C0C404141EB010111F4801FA4F160
:1057C0000104E9D191F0000F04BF01460020B1FAB5
:1057D00081F308BF2033A3F10B03B3F120020CDAED
:1057E0000C3208DD02F1140CC2F10C0201FA0CF0CB
:1057F00021FA02F10CE002F11402D8BFC2F1200C30
:1058000001FA02F120FA0CFCDCBF41EA0C019040E5
:10581000E41AA2BF01EB0451294330BD6FEA04042E
:105820001F3C1CDA0C340EDC04F11404C4F1200219
:1058300020FA04F001FA02F340EA030021FA04F32B
:1058400045EA030130BDC4F10C04C4F1200220FA82
:1058500002F001FA04F340EA0300294630BD21FAC0
:1058600004F0294630BD94F0000F83F4801306BF86
:1058700081F480110134013D4EE77FEA645C18BF7A
:105880007FEA655C29D094EA050F08BF90EA020F11
:1058900005D054EA000C04BF1946104630BD91EA09
:1058A000030F1EBF0021002030BD5FEA545C05D10C
:1058B0004000494128BF41F0004130BD14F580044B
:1058C0003CBF01F5801130BD01F0004545F0FE41BF
:1058D00041F470014FF0000030BD7FEA645C1ABFF4
:1058E000194610467FEA655C1CBF0B46024650EA2B
:1058F000013406BF52EA033591EA030F41F4002157
:1059000030BD00BF90F0000F04BF0021704730B5DC
:105910004FF4806404F132044FF000054FF00001B1
:1059200050E700BF90F0000F04BF0021704730B572
:105930004FF4806404F1320410F0004548BF404247
:105940004FF000013EE700BF42004FEAE2014FEA9C
:1059500031014FEA02701FBF12F07F4393F07F4F77
:1059600081F06051704792F0000F14BF93F07F4FA9
:10597000704730B54FF4607401F0004521F00041EC
:1059800020E700BF50EA010208BF704730B54FF072
:1059900000050AE050EA010208BF704730B511F077
:1059A000004502D5404261EB41014FF4806404F1AF
:1059B00032045FEA915C3FF4DCAE4FF003025FEA31
:1059C000DC0C18BF03325FEADC0C18BF033202EBB9
:1059D000DC02C2F1200300FA03FC20FA02F001FA13
:1059E00003FE40EA0E0021FA02F11444C1E600BFB2
:1059F00070B54FF0FF0C4CF4E06C1CEA11541DBF65
:105A00001CEA135594EA0C0F95EA0C0F00F0DEF82F
:105A10002C4481EA030621EA4C5123EA4C5350EA14
:105A2000013518BF52EA033541F4801143F4801365
:105A300038D0A0FB02CE4FF00005E1FB02E506F0F6
:105A40000042E0FB03E54FF00006E1FB03569CF04B
:105A5000000F18BF4EF0010EA4F1FF04B6F5007F51
:105A600064F5407404D25FEA4E0E6D4146EB0606C3
:105A700042EAC62141EA55514FEAC52040EA5E504C
:105A80004FEACE2EB4F1FD0C88BFBCF5E06F1ED8F6
:105A9000BEF1004F08BF5FEA500E50F1000041EB2D
:105AA000045170BD06F0004646EA010140EA0200DA
:105AB00081EA0301B4EB5C04C2BFD4EB0C0541EAFC
:105AC000045170BD41F480114FF0000E013C00F311
:105AD000AB8014F1360FDEBF002001F0004170BD35
