:1000000000800020BD0100007D2B0000412B00007E
:10001000412B0000412B0000412B0000412B000030
:10002000412B0000412B0000412B00007D2B0000E4
:100030007D2B0000412B00007D2B0000312B0000A8
:100040007D2B00007D2B00007D2B00007D2B000010
:100050007D2B00007D2B00007D2B00007D2B000000
:100060007D2B00007D2B00007D2B00007D2B0000F0
:100070007D2B00007D2B00007D2B00007D2B0000E0
:100080007D2B00007D2B00007D2B00007D2B0000D0
:100090007D2B00007D2B00007D2B00007D2B0000C0
:1000A000591400007D2B00007D2B00007D2B0000EB
:1000B0007D2B00007D2B00007D2B00007D2B0000A0
:1000C0007D2B00007D2B00007D2B00007D2B000090
:1000D0007D2B00007D2B00007D2B00007D2B000080
:1000E0007D2B00007D2B00007D2B00007D2B000070
:1000F0007D2B0000814B00007D2B0000E5520000AD
:100100007D2B0000615800007D2B00007D2B00003E
:100110007D2B00007D2B00007D2B00007D2B00003F
:100120007D2B00007D2B00007D2B00007D2B00002F
:100130007D2B00007D2B00007D2B00007D2B00001F
:100140007D2B00007D2B00007D2B00007D2B00000F
:100150007D2B00007D2B00007D2B00007D2B0000FF
:100160007D2B00003D3600007D2B00007D2B000024
:100170007D2B00007D2B00007D2B00007D2B0000DF
:100180007D2B00007D2B00007D2B00007D2B0000CF
:100190007D2B00007D2B00007D2B00007D2B0000BF
:1001A0007D2B00007D2B00007D2B00007D2B0000AF
:1001B0007D2B00007D2B00007D2B0000574B4CF267
:1001C000205210B51A804DF628121A8000BF00BFC9
:1001D00002F0D8FC524B4FF010621A60514A9A60FC
:1001E000514ADA60A3F53043203B1A6812F480725A
:1001F00004D14E490A604FF4A8521A604C4B1A7849
:10020000110703D51A7842F008021A70494B4A4C7C
:100210004A482A221A704A4A00239918A14203D256
:10022000195899500433F8E7464B474900228B424E
:1002300002D243F8042BFAE74448454900235A58B0
:100240001A500433B3F5DE7FF9D1424B424A802184
:1002500003F8011B9342FBD1404B3C4A1A60404BD0
:100260008A221A70A3F5805324225A70A0221A7091
:100270009A799207FCD59A79D406FCD4394A9379B5
:1002800003F00C03082B374BF9D105221A714322D6
:100290005A719A799006FCD5324A9179314B4906C8
:1002A000FBD5314A4FF08171116005215160202248
:1002B0001A709A7902F00C020C2AFAD12B4B2C4AB4
:1002C0001A602C4B2C4A1A6000225A60072243F80D
:1002D000042C2A4AC3F80C2D62B603F06FF8134BB6
:1002E0001B68DA0705D5264802F034FE254B264A5E
:1002F0001A60264B1B785B0609D5224C224A2368DC
:10030000934204D11E4802F025FE0023236006F02C
:10031000A5FB02F03DFC02F069FBFEE70E20054064
:1003200030800440823F04000100002B14D00340C1
:1003300002D0074000E007406892FF1FCCBA0000DF
:100340006087FF1F6892FF1F8496FF1F0082FF1FB8
:100350000000000000E400E05FE400E008ED00E0E1
:1003600000500640004006404480044004800440A1
:10037000C010050014E000E03F190100000020203B
:100380002076CD581CE00340A5C3945A00F00740E6
:10039000FFFFFFFFFFFFFFFFFFFFFFFFFFFFFFFF6D
:1003A000FFFFFFFFFFFFFFFFFFFFFFFFFFFFFFFF5D
:1003B000FFFFFFFFFFFFFFFFFFFFFFFFFFFFFFFF4D
:1003C000FFFFFFFFFFFFFFFFFFFFFFFFFFFFFFFF3D
:1003D000FFFFFFFFFFFFFFFFFFFFFFFFFFFFFFFF2D
:1003E000FFFFFFFFFFFFFFFFFFFFFFFFFFFFFFFF1D
:1003F000FFFFFFFFFFFFFFFFFFFFFFFFFFFFFFFF0D
:10040000FFFFFFFFFFFFFFFFFFFFFFFFDEF9FFFF23
:1004100010B5054C237833B9044B13B10448AFF33E
:1004200000800123237010BD6892FF1F00000000B0
:10043000CCBA000008B5064B1BB106480649AFF31D
:1004400000800648036813B1054B03B1984708BD07
:1004500000000000CCBA00006C92FF1F6892FF1FE2
:1004600000000000014B0360704700BFF0B20000C5
:10047000704700BF014B0360704700BFF0B200003F
:10048000014B0360704700BFF0B20000014B0360F6
:10049000704700BFF0B2000010B50446024B036085
:1004A00002F0A6FB204610BDF0B2000010B50446D5
:1004B000024B036002F09CFB204610BDF0B200002E
:1004C00010B50446024B036002F092FB204610BDBB
:1004D000F0B2000010B50446024B036002F088FB46
:1004E000204610BDF0B2000038B504460D4608465F
:1004F00007F00EF9024623685B68204629469847B4
:100500000546204601F068FE284438BD10B5114864
:1005100001F070FA50B9104C23685B6820460F490F
:1005200030229847204601F057FEFEE70C4801F0C4
:1005300097FA20B908480949FFF7D6FFFEE70948AE
:10054000FA2101F097FC20B903480749FFF7CCFFD7
:10055000FEE710BDA492FF1F5494FF1F08B30000D4
:10056000BC92FF1F8892FF1F3CB300002DE9F043AF
:100570008DB0082002F05EF9FFF7C8FF0C2002F0F2
:1005800033FB04460F211022112300F0B5FC434B2E
:100590001C60042002F028FB0646002500950C2371
:1005A000019302210322012300F098FD3C4C2660B8
:1005B00000F0B6FD502002F017FB07462368394EC5
:1005C000009601951421152200F0FEFA364D2F6099
:1005D000502002F009FB0746236800960126019689
:1005E0001721162200F0F0FA304C2760286800F03E
:1005F00015FBDFF8C890DFF8C8804FF07C572868FB
:10060000494642463B4600F005FB206800F006FBE9
:100610002068494642463B4600F0FCFA0D20314630
:1006200002F0DAFC0A240D260127642530463946FB
:1006300002F0A0FC284602F0ABFE3046002102F09A
:1006400099FC284602F0A4FE013CEFD10D200121C7
:1006500002F090FC4FF47A7002F09AFE1424002508
:10066000134F0A26384603A901F046FC28460A998A
:1006700005F0C6FE0546304602F08AFE013CF1D187
:1006800028460C4906F078F80B4B18600D20002125
:1006900002F070FC0DB0BDE8F08300BF8492FF1F34
:1006A000D492FF1F71BDC842B492FF1FD092FF1FAA
:1006B0008892FF1F0000A041A092FF1F0000204170
:1006C000CDCC8C3F70B58AB00D20012102F052FCD8
:1006D0000A2400250B4E304601A901F00DFC2846E6
:1006E000089905F08DFE0546013CF4D1064906F057
:1006F00043F8064B18600D20002102F03BFC0AB0C5
:1007000070BD00BF8892FF1F00002041A092FF1F14
:100710002DE9F047F0B003F01BFC002800F0C38186
:1007200003A8AE49782201F0CBFD1CA8AC4901F02A
:100730002FFE03A81CA901F02BFF421C18A803A937
:1007400001F050FF03A818A901F054FE18A801F009
:10075000D3FD1CA801F0D0FDA24C24A8214601F035
:1007600017FE03A824A901F013FF034620A803A93C
:10077000002201F013FF20A801F044FF814620A8C9
:1007800001F0BAFD24A801F0B7FD28A8214601F028
:10079000FFFD03A828A901F0FBFE421C07A803A93E
:1007A00001F020FF28A801F0A7FD30A8214601F0A4
:1007B000EFFD07A830A901F0EBFE03462CA807A91E
:1007C000002201F0EBFE2CA801F01CFF80462CA8B3
:1007D00001F092FD30A801F08FFD34A8214601F010
:1007E000D7FD07A834A901F0D3FE421C0BA807A926
:1007F00001F0F8FE34A801F07FFD3CA87A4901F031
:10080000C7FD0BA83CA901F0C3FE034638A80BA9FD
:10081000002201F0C3FE0BA838A901F0EBFD38A8B7
:1008200001F06AFD3CA801F067FD0BA801F0E2FEB3
:1008300082466E4B1B680093009805F091FE0646B9
:100840006B4C216805F0DAFD05466A480FA901F0F6
:1008500053FB694F1698694B196805F0CFFD68493D
:1008600005F0D6FE294605F0D3FE664905F084FF63
:10087000396805F0C5FD3860284606F0A5F805463C
:10088000614B186849462A4600F026FB5F4B186802
:1008900041462A4600F020FB2660BAF1010F0CD138
:1008A000FFF710FF0D20012102F064FB4F4B1B6886
:1008B0000193019805F054FE206040A8544901F0CE
:1008C00067FD544D286800F02BFB014644A80A221E
:1008D00001F0AAFD40A844A901F026FE01463F4CC4
:1008E000204601F053FC204601F076FC44A801F0BC
:1008F00003FD40A801F000FD48A8474901F048FD6C
:10090000286800F01FFB01464CA80A2201F08CFD6C
:1009100048A84CA901F008FE0146204601F036FC2B
:10092000204601F059FC4CA801F0E6FC48A801F073
:10093000E3FC50A8394901F02BFD286800F014FBB6
:10094000014654A80A2201F06FFD50A854A901F0F5
:10095000EBFD0146204601F019FC204601F03CFC6D
:1009600054A801F0C9FC50A801F0C6FC58A82C49B5
:1009700001F00EFD5CA8204B1968022201F07CFDFD
:1009800058A85CA901F0D0FD0146204601F0FEFB0D
:10099000204601F021FC5CA801F0AEFC58A801F053
:1009A000ABFC60A81F4901F0F3FC174B186800F07E
:1009B0004BF9014664A80A2201F04AFD60A864A927
:1009C00001F0B2FD0146204601F0E0FB204601F0B7
:1009D00003FC64A801F090FC60A825E05494FF1F7C
:1009E00070B3000074B3000078B300006C93FF1F75
:1009F000DC92FF1F8892FF1FD892FF1FA092FF1F5B
:100A0000E12E654200007A44B492FF1FD092FF1F8E
:100A10007CB300008492FF1F80B3000084B3000009
:100A200088B300008CB3000001F066FC68A8404960
:100A300001F0AEFC3F4B186800F006F901466CA8C7
:100A40000A2201F005FD68A86CA901F06DFD0146C0
:100A5000204601F09BFB204601F0BEFB6CA801F094
:100A60004BFC68A801F048FC0D20002102F082FA3E
:100A7000314B1B680293029805F072FD314605F078
:100A8000BDFC01462D4805F0B9FC05F09DFF02F0C4
:100A90007FFC0BA801F030FC07A801F02DFC03A897
:100AA00001F02AFC40E0244E33680793079805F0D4
:100AB00057FD0546224F396805F0A0FC0446214841
:100AC0000FA901F019FADFF8908016981E4B1968EB
:100AD00005F094FC1D4905F09BFD214605F098FDAD
:100AE0001B4905F049FED8F8001005F089FCC8F84C
:100AF0000000184B1868214600F006F90D4B1868E5
:100B0000214600F001F93D6033680B930B9805F026
:100B100027FD294605F072FC0146084805F06EFCE9
:100B200005F052FF02F034FC70B0BDE8F08700BF62
:100B300090B30000D092FF1F6C93FF1F0000204174
:100B4000DC92FF1F8892FF1FA092FF1FE12E6542DB
:100B500000007A44B492FF1FD892FF1F38B51248A4
:100B600001F012FB114D284647F25D6100F078FE5E
:100B70000F4C28460F49224605F04CFF0E4D2846E3
:100B800047F25E6100F076FE28460C49224605F0E9
:100B900041FF0B4D2846142101F02AF92846094946
:100BA000224605F037FF38BDB892FF1FA492FF1F01
:100BB0003C88FF1F75040000BC92FF1F81040000E9
:100BC0008892FF1F8D04000038B50446049D4160E3
:100BD00082600022C2600261426100202076E261F0
:100BE000E06222636263A263E26322646264A264DD
:100BF00084F84C0084F84D0084F84E002562236090
:100C0000059AA2621868294605F002FD6062204636
:100C100038BD00BF016442648364704710B5044668
:100C20000079012102F0D8F9207A012102F0D4F9EB
:100C30002079002102F09EF9207A002102F09AF931
:100C40000023E36010BD00BF08B5806A00F0C0FA61
:100C500008BD00BF70B504460D460079012102F0C1
:100C6000BBF9207A012102F0B7F9284605F0ACFE65
:100C700005F07AFC0546E06194F84D300BB100F1C7
:100C800000452846002105F07FFEE0B194F84E3083
:100C900063B12679284605F097FE0146304602F0FA
:100CA0005BFA207A012102F065F970BD20790021FC
:100CB00002F060F9247A284605F086FE01462046B7
:100CC00002F04AFA70BD94F84E306BB120790121E0
:100CD00002F050F9247A05F1004005F075FE014656
:100CE000204602F039FA70BD267905F1004005F082
:100CF0006BFE0146304602F02FFA207A002102F006
:100D000039F970BDFFFFFFFF2DE9F04706460C469D
:100D1000037E002B6AD1806A00F05AFA0746F06A17
:100D2000381A05F021FC214605F026FD604905F042
:100D30006FFC716A05F020FD8146D6F80C804046B4
:100D4000494605F05BFB0546746B214605F056FBF2
:100D5000316C05F05DFC0146F06B05F04FFB8246FF
:100D60002846716C05F054FC0146504605F046FBE0
:100D700082462046214605F043FB0146284605F001
:100D80003DFBB16B05F03CFBB16C05F041FC01464D
:100D9000504605F033FB04464046002105F0CCFDEB
:100DA00048B14846434905F0D1FD20B14846424983
:100DB00005F0EAFD50B92046404905F0E5FD38B997
:100DC00020463F4905F0C2FD20B904E0002402E0BE
:100DD0003A4C00E03A4C30462146FFF73BFFF463C3
:100DE000F762736BB3637563BDE8F087806A00F0E8
:100DF000EFF90746334C2046394601F039FA2046D0
:100E000001F0EAF9384605F0AFFB716905F0F6FA32
:100E10000546002105F090FD08B1002333762846F1
:100E2000294905F0F5FB316905F0EAFA044630611D
:100E30002846264905F0ECFB0146204605F0E0FA7D
:100E400004F052FF04460D46F06A381A04F03AFFE7
:100E500015A3D3E9002304F09BFF02460B4620466E
:100E6000294604F0E3FD04460D460022184B05F028
:100E70001FFA38B9204629460022164B05F0FAF928
:100E800018B904E00024124D01E00024114D204661
:100E9000294605F05FFA01463046FFF7DBFEF762B0
:100EA000BDE8F087AFF30080000000A09999A93F4A
:100EB00000007A44CDCCCC3DCDCCCCBD0000484325
:100EC000000048C35494FF1F52491D3A8FC2753D1C
:100ED00000805140008051C010B50446416100239C
:100EE000036101210176C360104605F03DFB014618
:100EF0002046FFF709FF10BD10B5044601604260AF
:100F00008360C8B2002102F067F82079002102F066
:100F100063F8207A002102F05FF8204610BD00BF80
:100F200070B5064606240025307901F0B1FC054471
:100F3000013CF9D1024880FB0530A0EBE57070BDA3
:100F4000ABAAAA2A70B5064606240025307A01F01D
:100F50009FFC0544013CF9D1024880FB0530A0EB21
:100F6000E57070BDABAAAA2A70B506460624002516
:100F7000307801F08DFC0544013CF9D1024880FB3A
:100F80000530A0EBE57070BDABAAAA2A08B5114BDD
:100F9000187802F013F801280ED10F4B187802F0E0
:100FA0000DF820B90D4B1A6801321A6008BD0B4BC1
:100FB0001A68013A1A6008BD074B187801F0FEFF65
:100FC0000128064B1A680CBF013202F1FF321A6089
:100FD00008BD00BFE492FF1FEC92FF1FE892FF1FC5
:100FE00008B5114B187801F0E9FF01280CD10F4B1F
:100FF000187801F0E3FF01280D4B1A680CBF01328D
:1010000002F1FF321A6008BD084B187801F0D6FFD4
:1010100020B9074B1A6801321A6008BD044B1A68E0
:10102000013A1A6008BD00BFEC92FF1FE492FF1F57
:10103000E892FF1F08B5114B187801F0BFFF012897
:101040000ED10F4B187801F0B9FF20B90D4B1A687B
:1010500001321A6008BD0B4B1A68013A1A6008BDCC
:10106000074B187801F0AAFF0128064B1A680CBF3D
:10107000013202F1FF321A6008BD00BFF492FF1F77
:10108000E092FF1FF092FF1F08B5114B187801F096
:1010900095FF01280CD10F4B187801F08FFF012824
:1010A0000D4B1A680CBF013202F1FF321A6008BD05
:1010B000084B187801F082FF20B9074B1A680132FB
:1010C0001A6008BD044B1A68013A1A6008BD00BFD7
:1010D000E092FF1FF492FF1FF092FF1F10B4094C23
:1010E0000460094C216009490A60094A1360094AF1
:1010F000019B13600023084A1360084A13605DF8DF
:10110000044B704700004041E492FF1FEC92FF1F28
:10111000F492FF1FE092FF1FE892FF1FF092FF1F63
:10112000F8B5214F3878002101F056FF1F4E307876
:10113000002101F051FF1E4D2878002101F04CFFE5
:101140001C4C2078002101F047FF3878012101F084
:1011500011FF3078012101F00DFF2878012101F005
:1011600009FF2078012101F005FF38781249042297
:1011700001F072FF30781149042201F06DFF2878E8
:101180000F49042201F068FF20780E49042201F083
:1011900063FF0D4C23685B6820460C490B2298477F
:1011A000204601F019F8F8BDE492FF1FEC92FF1FF2
:1011B000F492FF1FE092FF1F8D0F0000E10F00006F
:1011C00035100000891000005494FF1F94B30000F4
:1011D000034610B9044B18687047012806BF034B3B
:1011E00018684FF0FF307047E892FF1FF092FF1F22
:1011F000044BD878C0B2044B1B6898421CBF024B0A
:1012000018607047006006404488FF1F08B5FFF76C
:10121000EFFF10F0020FFAD00222014BDA7008BD86
:10122000006006400B4B1B7813B90B4B1B7873B156
:101230000A4B1B78202B03D9012303710020704730
:10124000581C064A1070064AD154012070470020ED
:10125000704700BF6293FF1F2493FF1F6393FF1F1C
:101260000093FF1F704700BF024B1878024B1B789A
:10127000C01A70476193FF1F6093FF1F074B1B78D5
:10128000074A12789A4205D9591C044A1170054A36
:10129000D05C70474FF0FF30704700BF6093FF1F76
:1012A0006193FF1F2893FF1F054B1B78054A127897
:1012B0009A4286BF044AD05C4FF0FF30704700BFAF
:1012C0006093FF1F6193FF1F2893FF1F08B5104B0A
:1012D000DB7813F0200F0CD1122001F0F1FD0D4B43
:1012E0001B689BB100210C4A11700C4A107898477A
:1012F00008BD0B4A13780133DBB21370012B02D8FF
:10130000084B1B7813B9122001F0DAFD08BD00BFAD
:1013100000600640FC92FF1F6093FF1F6193FF1F58
:101320004C93FF1F2493FF1F38B514460D4B1B78B9
:1013300013B90D4B1B7893B10C4B1D78C5F12103EC
:10134000A34202D2012202711C46094828442246C7
:1013500001F054FB2544054B1D70204638BD00208C
:1013600038BD00BF6293FF1F2493FF1F6393FF1FCD
:101370000093FF1F002202714FF47A7181600273A3
:10138000014A0260704700BFA8B300000B4B1B6806
:1013900013F0400F10D00A4B994203D82822094B72
:1013A0005A7006E0084B994294BF19220A22054B55
:1013B0005A700322034B9A71704700BF3480044077
:1013C0007F1A0600006006403F420F0008B5002368
:1013D000174A1370174A116841F040011160164A0C
:1013E0009370164B1B78122B04D14FF41972144BC7
:1013F0001A6005E0112B03D14FF41972114B1A60DA
:10140000114B1B78132B04D14FF419720F4B1A6038
:1014100005E0102B03D14FF419720D4B1A600D49E2
:10142000FFF7B4FF044B20225A7180229A7008BD46
:101430002493FF1F34800440006006404088FF1F53
:101440000CA0044004A004404888FF1F08A00440EA
:1014500000A00440A086010008B53D4BDB78DBB25C
:1014600013F0100F06D01021394AD17013F0400F3D
:1014700003D108BD13F0400F2CD013F0040F1BD084
:101480000023344A1370344A1370344B1B681BB169
:101490009847314B1B782BB901222F4B1A70002231
:1014A0002F4B1A702A4BD0229A702D4A12781A713B
:1014B00001222C4B1A7009E00122264B1A700022DF
:1014C000294B1A70224BC0229A701B790222204BA2
:1014D000DA7008BD1E4A927812F0100F1CD013F07B
:1014E000010F14D11F4B1B781B4A12789A4207D95F
:1014F000591C1C4A11701A4AD25C154B1A7102E031
:101500000022134B1A71D022114B9A701BE0104B22
:10151000C0229A701B7916E00022144B1A70122018
:101520001349032201F098FD094B1B79DAB20E4BE7
:101530001B781F2B07D80749097821B1581C0A4985
:1015400008700C49CA540222014BDA7008BD00BF72
:1015500000600640F892FF1F6393FF1F4893FF1F30
:101560000093FF1F6493FF1F6193FF1F4C93FF1FA6
:10157000CD1200002893FF1F4900044B197001236E
:10158000034A1370034A1370704700BF0093FF1F94
:101590006293FF1F6393FF1F2DE9F04182B08846DD
:1015A000374B1222DA709B7813F0200F03D0B4224D
:1015B000334B9A701DE0334B1B680093009D314CF8
:1015C0000CE023680193019B5B1B0F2B06D92C4B6E
:1015D00000229A7080229A7004204EE0FFF708FEE5
:1015E00010F0200FEDD10022274B1A70B022244BAF
:1015F0009A70FFF7FDFD10F0200FFAD0234B1B78F7
:101600007BB30024224E1E4D204F335D2B71FFF71C
:10161000EFFD10F0020F02D110F0200FF7D10223DE
:10162000EB70FFF7E5FD10F0100F04D08022144B93
:101630009A70042018E010F0200F04D18022104B83
:101640009A70042010E010F0010F04D0002C0CBFA1
:10165000022003200BE00134E4B23B78A342D4D84B
:1016600001E0002000E00020B8F1000F02D080224D
:10167000034B9A700022074B1A7002B0BDE8F0814C
:10168000006006406C93FF1F2493FF1F6393FF1FAE
:101690000093FF1F6293FF1F2DE9F8430D46144688
:1016A000984600233E4A13703E4A13703E4B122266
:1016B000DA709B7813F0200F03D0B4223A4B9A7063
:1016C0000AE0FFF795FD10F0200FFAD10022374B0A
:1016D0001A70B022344B9A706D0045F00105EDB2DE
:1016E000314B1D71FFF792FDFFF782FD10F01100E5
:1016F00005D080222C4B9A700020BDE8F88344B9B5
:10170000B8F1000F0CBFA0228022274B9A70BDE8D1
:10171000F883012C04D1244BA8229A701B7938E05D
:10172000214BA0229A701B79012C32D900251E4E24
:101730004FF0A8091E4FFFF769FD013CE4B2012CF0
:1017400008BF86F802901F2D04D86A1C33797B5598
:10175000D5B200E03379012CEDD1FFF757FDB0226F
:10176000114B9A701F2D07D82B465D1CEDB20E4A07
:1017700011790F4AD15401E00B4B1B79B8F1000FDE
:1017800002D08022084B9A70064B1D702846BDE897
:10179000F883FFF73BFDB022034B9A700023E4E788
:1017A0006093FF1F6193FF1F006006402493FF1F9B
:1017B0002893FF1F08B50123FFF76EFF08BD00BF88
:1017C00008B5C9B2FFF7D8FE08BD00BF08B50121B2
:1017D000FFF7E2FE08BD00BF08B50248FFF7CAFDEB
:1017E00008BD00BF5093FF1F4173704738B50546D1
:1017F0000C4608460021282205F064FC20460849D2
:101800000B2206F00FF80023E3720122E260E96880
:101810002161626163620023A361E361236238BDD9
:10182000E0B3000038B505460C46084600212822E2
:1018300005F048FC204609490B2205F0F3FF002380
:10184000E3720122E2602A6922610222626163621C
:101850000023A361E361236238BD00BFE0B3000051
:10186000034A0260C1600022C28002814281704747
:10187000F0B30000044A0260016100224273C2809A
:1018800002814281704700BFC8B3000070B51646A0
:101890001D46084C2046FFF76FFE20463146FFF7F5
:1018A000C1FC20462946FFF7BDFC2046FFF78EFF0E
:1018B00070BD00BF5093FF1F70B516461D46084C03
:1018C0002046FFF759FE20463146FFF7ABFC204685
:1018D0002946FFF7A7FC2046FFF778FF70BD00BF41
:1018E0005093FF1F38B505460C461E2101222346A2
:1018F000FFF7E2FF2C73802C23D006D8402C12D0A7
:10190000602C17D0202C37D106E0C02C27D0E02C3B
:101910002CD0A02C30D11BE0184A194B1A60194A60
:10192000194B1A6038BD194A154B1A60184A164BE4
:101930001A6038BD174A124B1A60174A124B1A60C8
:1019400038BD164A0E4B1A60154A0F4B1A6038BD47
:10195000134A0B4B1A60134A0B4B1A6038BD124ADC
:10196000074B1A60114A084B1A6038BD104A044BE5
:101970001A60104A044B1A6038BD00BF00808944C9
:101980004C88FF1F000075445088FF1F00C055445D
:1019900000003E4400802744000016440000E1435C
:1019A0000000C8430080B1430000A543008093437A
:1019B0000000664300004D4370B50D4616460C4CC2
:1019C0002046FFF7D9FD20463146FFF72BFC204685
:1019D000FFF7FCFE204629460122FFF7EBFE2046DA
:1019E000FFF74CFC05462046FFF7F0FEE8B270BD5D
:1019F0005093FF1F10B504460948FFF7E7FC204647
:101A0000192120225723FFF741FF204619212022C8
:101A1000FFF7D2FF572814BF0020012010BD00BFE0
:101A20005093FF1F70B50D4616460C4C2046FFF72D
:101A3000A3FD20463146FFF7F5FB2046FFF7C6FE23
:101A4000204629460122FFF7B5FE2046FFF716FC87
:101A500005462046FFF7BAFEE8B270BD5093FF1F5F
:101A600010B504460B48FFF7B1FC20461E210222A8
:101A70000023FFF721FF20461E210022FFF7D2FF9F
:101A8000102805D120462021FFF72CFF012010BD92
:101A9000002010BD5093FF1F2DE9F0470546254C4F
:101AA00020461921FFF768FD23681B682046A821FE
:101AB00098472046FFF78AFE204619210622FFF7A5
:101AC00079FE2046FFF7D0FB0528FADD194C2046A9
:101AD000FFF7D4FB81462046FFF7D0FB8246204625
:101AE000FFF7CCFB07462046FFF7C8FB80462046A1
:101AF000FFF7C4FB06462046FFF7C0FB5FFA8AFAF1
:101B00005FFA89F949EA0A2949F30B19A5F8069001
:101B10005FFA88F8FFB247EA082747F30B172F81CF
:101B2000C0B2F6B246EA002646F30B166E81BDE857
:101B3000F08700BF5093FF1F70B582B005460C467A
:101B4000242608460021324605F0BCFA2846FFF755
:101B5000A3FF2660EB6863600126A660144B1B6838
:101B60000193019B2361B5F9060004F0FDFC1149C6
:101B700004F04EFD104904F04BFD6061B5F908001A
:101B800004F0F2FC0B4904F043FD0B4904F040FD66
:101B9000A061B5F90A0004F0E7FC064904F038FD3D
:101BA000054904F035FDE061304602B070BD00BF6C
:101BB0006C93FF1F6F12833A0AE81C412DE9F0472E
:101BC0000546224C20461E21FFF7D6FC23681B68E1
:101BD0002046032198472046FFF7F8FD20461E21A6
:101BE0000622FFF7E7FD2046FFF73EFB0528FADD5A
:101BF000164C2046FFF742FB82462046FFF73EFB8D
:101C000081462046FFF73AFB07462046FFF736FBA2
:101C100006462046FFF732FB80462046FFF72EFBA4
:101C20005FFA8AFA5FFA89F949EA0A29A5F8069063
:101C30005FFA88F8C0B240EA0828A5F80880FFB229
:101C4000F6B246EA07266E81BDE8F0875093FF1F83
:101C50002DE9F04182B0044688460846002124223E
:101C600005F030FA1E27092640F6EE752046394663
:101C70003246FFF7D7FE10F0010F7DD02046FFF768
:101C80009DFF637B002B3FD0E28802F2F77292B295
:101C9000638903F2F7739BB2AB4298BFAA4205D89F
:101CA000238903F2F7739BB2AB422DD9237B602BC0
:101CB0001BD004D8202B22D0402B1BD024E0A02BFB
:101CC00009D0C02B02D0802B1ED109E02046E02194
:101CD000FFF708FECAE72046C021FFF703FEC5E76D
:101CE0002046A021FFF7FEFDC0E720468021FFF738
:101CF000F9FDBBE720466021FFF7F4FDB6E720467B
:101D00004021FFF7EFFDB1E72423C8F80030236935
:101D1000C8F804300223C8F80830194B1B68019337
:101D2000019BC8F81030174B1D68B4F9060004F089
:101D30001BFC294604F020FD134904F069FCC8F897
:101D40001400B4F9080004F00FFC294604F014FD57
:101D50000D4904F05DFCC8F81800B4F90A0004F05D
:101D600003FC0A4B196804F007FD074904F050FC16
:101D7000C8F81C00012000E0002002B0BDE8F0819E
:101D80006C93FF1F4C88FF1F0000C8425088FF1F44
:101D90000175704738B505460C46084600212822D3
:101DA00005F090F9204610490B2205F03BFD002379
:101DB000E3720122E2602A692261042262616362A5
:101DC000A88904F0CDFB094904F022FCA061A88990
:101DD00004F0CAFB00F10040044904F019FCE06182
:101DE0000023236238BD00BF28B4000035FA8E3CC2
:101DF000024A0260016100220275704710B40000BF
:101E000070B50E461546084C20466B21FFF7D8FCEE
:101E100020463146FFF706FA20462946FFF702FA28
:101E20002046FFF7D3FC70BD5093FF1F38B50D4619
:101E30000F4C20466B21FFF79FFB20462946FFF7FA
:101E4000F1F92046FFF7C2FC20466B210122FFF783
:101E5000B1FC2046FFF708FA0028FAD0044C2046CF
:101E6000FFF70CFA05462046FFF7B0FCE8B238BD94
:101E70005093FF1F38B504460D461E48FFF7A6FADB
:101E8000A5810023E3802381638120460F21FFF792
:101E9000CDFFD42801D0D72827D1204620210022E9
:101EA000FFF7AEFF204620210F22FFF7A9FFA389ED
:101EB000B3F5FA7F0BD0B3F5FA6F0FD0FA2B16D12A
:101EC000204623210022FFF79BFF012038BD20463A
:101ED00023211022FFF794FF012038BD2046232143
:101EE0002022FFF78DFF012038BD002038BD0120E2
:101EF00038BD00BF5093FF1F2DE9F04F85B0064657
:101F00000C462425084600212A4605F0DBF800236C
:101F1000F380338173812560336963600423A36098
:101F2000914DDFF860822B680393039B23618F4FF1
:101F300038466B21FFF720FB3B681B683846A82119
:101F400098473846FFF742FC0028ECD138466B2111
:101F50000622FFF72FFC3846FFF790F982463846F5
:101F6000FFF78CF983463846FFF788F9009038462A
:101F7000FFF784F981463846FFF780F9019038462B
:101F8000FFF77CF907465FFA8BFB5FFA8AFA4AEAA9
:101F90000B2A0FFA8AF004F0E7FA60615FFA89F918
:101FA000009AD3B243EA09290FFA89F004F0DCFA67
:101FB000A061FFB2019AD3B243EA072738B204F016
:101FC000D3FAE061A6F806A0A6F808907781337DE1
:101FD000002B7ED06769D4F818B0E36900934FF006
:101FE000010A3846624904F0BBFC08B94FF0000A08
:101FF0004FF001093846414604F0BCFC08B94FF0E7
:1020000000094AEA09094FF001075846414604F021
:10201000B1FC08B94FF0000749EA07094FF0010782
:102020005846534904F09CFC08B94FF0000749EAB0
:1020300007074FF0010A0098414604F09BFC08B9DD
:102040004FF0000A47EA0A0717F0FF0F0BD14FF0D5
:1020500001070098464904F083FC08B94FF00007D7
:10206000FFB2002F35D0B389FA2B1AD0B3F5FA7F1F
:102070002FD14FF4FA63B381304620210022FFF7BD
:10208000BFFE304620210F22FFF7BAFE3046232143
:102090002022FFF7B5FE304624218022FFF7B0FE54
:1020A00041E74FF4FA73B381304620210022FFF755
:1020B000A7FE304620210F22FFF7A2FE3046232143
:1020C0001022FFF79DFE304624218022FFF798FE64
:1020D00029E7B389B3F5FA7F14D0B3F5FA6F21D0AD
:1020E000FA2B2ED16069234904F092FA6061A0694D
:1020F000204904F08DFAA061E0691E4904F088FAD5
:10210000E0611EE060691C4904F082FA6061A06928
:10211000194904F07DFAA061E069174904F078FAE2
:10212000E0610EE06069154904F072FA6061A0692F
:10213000124904F06DFAA061E069104904F068FAF0
:10214000E06160690E4904F063FA6061A0690C49BE
:1021500004F05EFAA061E069094904F059FAE0610F
:10216000012005B0BDE8F08F6C93FF1F5093FF1F57
:1021700000F0FFC6295C0F3C295C8F3C295C8F3D39
:1021800035FA8E3C00F0FF46704700BF2DE9F04362
:102190008BB0074688468C68C4B100252E464FF0A8
:1021A0002109404601A94A462B4600F0C7F9202CD8
:1021B00034BF224620221544A41A3B685B68384687
:1021C00001A998470644002CEBD100E000263046D8
:1021D0000BB0BDE8F08300BF00B583B0054B1B8892
:1021E000ADF8043003685B6801A90222984703B088
:1021F0005DF804FB30B40000F0B58BB0164622B990
:1022000003681B68C9B298472FE0012A08BF0A2655
:1022100021B930228DF82520212417E021243746CA
:10222000B1FBF6F506FB1515EDB22246092D94BF5C
:1022300030353735EDB20DF1280E724402F8245CCA
:10224000B1FBF7F111B1013CE4B2E9E733B1013C74
:10225000E4B20AAB23442D2203F8242C03685B6804
:1022600001A92144C4F1220298470BB0F0BD00BF80
:1022700008B50029BABF49422D2300230A22FFF7DF
:10228000BBFF08BD70B582B004460C4B1B680093C1
:10229000009E0A4D2368DB682046984700280ADA2A
:1022A00001F062FF2B680193019A921BA3689A4286
:1022B000F0D34FF0FF3002B070BD00BF6C93FF1F32
:1022C000F8B505460E461746002100F061F887B1C3
:1022D00000243046FFF7D6FF011E02DA01233373D4
:1022E00007E031B12846C9B200F00EF90134BC4212
:1022F000EFD12846F8BD00BF10B50446006804F0D1
:10230000DDFB204610BD00BF38B504460D46006811
:10231000013104F025FF18B120606560012038BD4F
:10232000002038BD10B5044643688B420AD2FFF73F
:10233000EBFF034648B1A36833B9236800221A7043
:10234000012302E0012300E00123184610BD00BF75
:1023500070B504460E4615462AB9036803B11A70D3
:102360000023A36012E01146FFF7DCFF48B92068A4
:1023700018B104F0A3FB0023236000236360A36073
:1023800004E0A5602068314605F064F9204670BD80
:1023900038B50446002303604360836003730D4631
:1023A00039B1084605F0B4F9024620462946FFF740
:1023B000CFFF204638BD00BF38B505460C46006843
:1023C00068B16A688B689A4207D3096805F042F9D8
:1023D000A368AB600023A36038BD04F06FFB2368E3
:1023E0002B6063686B60A368AB600023236063604D
:1023F000A36038BD10B50446884201D0FFF7DCFF6A
:10240000204610BD38B504460D4641B1084605F0DA
:102410007FF9024620462946FFF79AFF01E0002394
:102420008360204638BD00BF10B586B00446002347
:102430000360436083600373084601A900F0FEFB5C
:10244000204601A9FFF7DEFF204606B010BD00BF01
:1024500010B58AB0044600230360436083600373B1
:10246000084601A900F0EAFB204601A9FFF7CAFFD0
:1024700020460AB010BD00BF10B58AB00446002344
:1024800003604360836003730846911C6B4600F051
:10249000E5FB01462046FFF7B5FF20460AB010BD18
:1024A0002DE9F84304460D461646826803688B42C0
:1024B00006D899188D4205D2C3EB0509012702E021
:1024C000002700E00027DEB106EB02082046414667
:1024D000FFF728FFA0B15FB12168A0680844494414
:1024E000324600F08BFA2368002203F8082005E04A
:1024F0002068A3681844294605F0ACF8C4F80880A1
:102500002046BDE8F88300BF10B582B004468DF8C0
:10251000041000238DF8053001A90122FFF7C0FF48
:10252000204602B010BD00BF10B504460B46096836
:102530009A68FFF7B5FF204610BD00BF38B50C46BE
:102540009AB191B18168994202D80023237038BDB5
:10255000551EC91A8D4228BF0D46016820461944F0
:102560002A4605F05FF90023635538BD10B583682E
:10257000934207D90468A018096805F0D9FA20B178
:10258000001B10BD4FF0FF3010BD4FF0FF3010BDED
:1025900008B50022FFF7EAFF08BD00BF2DE9F041B2
:1025A00004460E4615461F469A4201D93D46174637
:1025B00020460021FFF7ECFEB3689D420FD89F42F2
:1025C00028BF1F46336813F807800022DA553168A8
:1025D00020462944FFF716FF336803F8078020469A
:1025E000BDE8F08110B504468B68FFF7D7FF2046A1
:1025F00010BD00BF08B5006810B104F011FA08BDA5
:10260000002008BD08B5006818B1002106F050FB95
:1026100008BD002008BD00BF30B4394A39491368ED
:1026200013F0800FFBD10B6813F0800FF7D172B657
:10263000354B1B78002B5FD0344B1C6804331D686E
:10264000043318680433196804331A6804331B68A8
:102650002C44204401440A441A44C2F34E0242F47A
:1026600000422B4B1A602C331C6804331D68043362
:1026700018680433196804331A6804331B682C443F
:10268000204401440A441A44C2F34E0242F4004278
:10269000204B1A6003F108131C6804331D680433CF
:1026A00018680433196804331A6804331B682C440F
:1026B000204401440A441A44C2F34E0242F4004248
:1026C000154B1A602C331C6804331D6804331868DA
:1026D0000433196804331A6804331B682C442044FB
:1026E00001440A441A44C2F34E0242F400420B4B26
:1026F0001A600022044B1A7062B630BC704700BFEB
:1027000024B0034024B00B406693FF1F38B0034051
:102710002CB0034030B003402CB00B4030B00B4025
:1027200060223A4B1A70E12201331A70384B1B7841
:10273000082B10D1012203F1804303F56C331A609A
:10274000132334490B6001F5FF2101F2FC710A608B
:10275000314A13601FE00A2B0DD119222F4B1A604A
:1027600013232C490B6001F5FF2101F2FC710A6073
:10277000294A13600FE00C2B0CBF15223D22274B7A
:102780001A60122323490B6001F5FF2101F2FC714D
:102790000A60214A1360224B1B7833B10123214A7E
:1027A000136002F50022136005E000231D4A136048
:1027B00002F5002213601C4B1B78012B06D88023E6
:1027C0001A4A136002F5002213601AE0042B06D89F
:1027D0008423164A136002F50022136011E0082BCF
:1027E00006D88523114A136002F50022136008E021
:1027F000102B94BF862387230C4A136002F5002216
:10280000136001220A4B1A70704700BF0040074056
:102810005488FF1F0CB003400CB00B4008B00340BD
:102820006993FF1F20B003405588FF1F24B0034069
:102830006693FF1F08B50C2804D9102828BF102064
:10284000102307E00A2804D8092834BF08230A23E4
:1028500000E00C23DAB2101A094908700949097816
:1028600099420CD0074B1A70074B1B782BB10023F1
:10287000064A136002F500221360FFF751FF08BDFE
:102880006593FF1F5488FF1F6693FF1F24B003400A
:102890002DE9F843282873D83C4B1E5CFF2E72D0DC
:1028A0003B4B1B780BB1FFF7B7FE16F0800F29D119
:1028B00072B6384C384D4FF0010726602F7062B663
:1028C00072B6236813F0800F04D12B7813F0FF0F3A
:1028D0000FD1F2E7314B186800222F4B1A7062B605
:1028E0002F4B1B781841BDE8F8832B7813F0FF0FAE
:1028F000E3D062B601F038FC72B6236813F0800FA3
:10290000F3D0E7E772B606F040095FFA89F9254F80
:10291000254C06F03F06254D4FF00108B9F1000F98
:1029200004D03B6823F010033B6003E03B6843F0B6
:1029300010033B60266085F8008062B672B623689B
:1029400013F0800F04D12B7813F0FF0F0FD1E5E7C0
:10295000174B18680022154B1A7062B6104B1B7883
:102960001841BDE8F8832B7813F0FF0FD6D062B67C
:1029700001F0FAFB72B6236813F0800FF3D0E7E79B
:102980000020BDE8F8830020BDE8F88334B40000DF
:102990006693FF1F00B003406893FF1F10B0034011
:1029A0006593FF1F0CB00B4000B00B406793FF1FF7
:1029B00010B00B40094B1A6842F480521A60084B61
:1029C0001B781BB18022074B1A7002E0C022054B16
:1029D0001A7080F30C00044B188070472C80044060
:1029E0006993FF1F21C00C4000C00C4008B5FDF7E3
:1029F000BDFDFDF78DFE01F0B7FBFAE7844641EA25
:102A0000000313F003036DD1403A41D351F8043B66
:102A100040F8043B51F8043B40F8043B51F8043BB8
:102A200040F8043B51F8043B40F8043B51F8043BA8
:102A300040F8043B51F8043B40F8043B51F8043B98
:102A400040F8043B51F8043B40F8043B51F8043B88
:102A500040F8043B51F8043B40F8043B51F8043B78
:102A600040F8043B51F8043B40F8043B51F8043B68
:102A700040F8043B51F8043B40F8043B51F8043B58
:102A800040F8043B51F8043B40F8043B403ABDD2C7
:102A9000303211D351F8043B40F8043B51F8043B69
:102AA00040F8043B51F8043B40F8043B51F8043B28
:102AB00040F8043B103AEDD20C3205D351F8043BF8
:102AC00040F8043B043AF9D2043208D0D2071CBFC4
:102AD00011F8013B00F8013B01D30B8803806046ED
:102AE000704700BF082A13D38B078DD010F0030363
:102AF0008AD0C3F10403D21ADB071CBF11F8013BD3
:102B000000F8013B80D331F8023B20F8023B7BE721
:102B1000043AD9D3013A11F8013B00F8013BF9D24C
:102B20000B7803704B7843708B78837060467047E6
:102B3000024B1A6801321A60704700BF6C93FF1F86
:102B400008B50D4C236813F4802F01D000F076FDFA
:102B5000236813F4806F01D002F012F8236813F495
:102B6000006F01D002F0BEFB236813F4805FE9D050
:102B700002F076FEE6E700BF3480044008B5FFF7B8
:102B8000DFFF00BF1022014B1A8070470020054074
:102B9000704700BF024A1368184410601846704717
:102BA0005888FF1FFEE700BFEFF31383ABB9EFF3C5
:102BB0001083ABB9EFF3058323B10F2B05D9094A75
:102BC000985C03E04FF4807000E00020EFF3118385
:102BD0003BB1834238BF184670474FF0FF30704713
:102BE00000207047F0E300E008B503F05FFF08BD88
:102BF00008B503F063FF08BD30B40023B0FBF2F466
:102C000002FB14041D46092C94BF30343734E4B25F
:102C1000CC54B0FBF2F008B10133EFE70D440022D1
:102C20006A70934207DD885CCC5C8C54C8540132D6
:102C3000013B9A42F7DB084630BC704710B50C46A2
:102C4000002802DBFFF7D8FF10BD2D2301F8013B60
:102C50004042FFF7D1FF204610BD00BF2DE9F043F1
:102C600083B005460F4691461C4681EAE178A8EB01
:102C7000E178014603F092FEB8B32846002103F044
:102C800065FE002814BF0426032646450BDAC6EB72
:102C90000806002F0BDA56B12644202304F8013B26
:102CA000B442FBD101E0002601E0344600264FF09B
:102CB0007E50002DB8BF7D48002103F047FE10B1C3
:102CC0002D23237001344E22227041236370E31CB4
:102CD000A27036B19819202203F8012B8342FBD150
:102CE00000E0184600230370DDE025F00046304682
:102CF0006F4903F053FE00283AD130466C4903F087
:102D00002FFEA8BB2846002103F020FE002814BF98
:102D10000426032646450BDAC6EB0806002F0BDA1D
:102D200056B12644202304F8013BB442FBD101E014
:102D3000002601E0344600262846002103F006FE66
:102D400010B12D2323700134492323704E23637067
:102D5000E21C4623A37036B19419202302F8013BEC
:102D6000A242FBD100E014460023237020469AE0E3
:102D70002846494601AA6B4603F060FE8046B9F139
:102D8000000F0DD1019B5BB990F80080494B4A4A76
:102D9000B8F1340F8CBF904698464FF0010C0BE011
:102DA000404604F0B5FC8446019B9842C8BF00F140
:102DB000010C0BB90CF1010C009909B10CF1010CDB
:102DC00004EB0C06CCEB0703002B08DD1E44234468
:102DD0002546202205F8012B9D42FBD100E0234629
:102DE00011B12D221A700133019AB2B9B9F1000F55
:102DF00008D01A46302102F8021B2E2159701346C2
:102E000000E02B46B34233D25A1C98F800101970D8
:102E1000B24230D040462E2121E0002AF2DAB9F148
:102E2000000FEFD01D46302205F8022B2E225A70DB
:102E30000136019B002BE4DA2A46E81A302102F819
:102E4000011B8242FBD1EB1A00220192DAE7551CEA
:102E500010F8013F1370B5420CD013462A46019D6D
:102E6000013D01950DB99A1C5970B242EFD302E0B1
:102E70001A4600E02A46002F12DA6744F8437F42E0
:102E8000002F0DDD1346202503F8015BC3F101017E
:102E9000014411440029F7DC20EAE07301331A44AD
:102EA00000231370204603B0BDE8F083000080BF0C
:102EB000FFFF7F7F64B4000060B40000704700BF74
:102EC0001D4B03EBC000436803F14042A2F5922280
:102ED0007C2A18D903F14042A2F594227C2A14D905
:102EE00003F14042A2F596227C2A10D903F1404218
:102EF000A2F598227C2A0CD903F14042A2F59A222D
:102F00007C2A08D970470D4906E00D4904E00D49B7
:102F100002E00D4900E00D4972B61A6822F087728E
:102F200022F4803242F080721A60C3F38403084AAC
:102F300041F8232062B6704768B400005C88FF1F28
:102F40009488FF1FE488FF1F1489FF1F3489FF1F27
:102F5000BD2E0000044B00221A6004490A60044A96
:102F6000106010221A60704714D0034004D0034050
:102F700000D0034021281ED80F4B53F8303093F86F
:102F8000802212F0FF0F08D019B1012283F88020AF
:102F90007047012283F800217047074B03EBC00004
:102FA000436821B11A6842F003021A6070471A6838
:102FB00022F002021A60704768B40000212806D887
:102FC000044B53F8303093F80002C0B27047002031
:102FD000704700BF68B4000021283AD81D4B03EBAE
:102FE000C0035B68012919D0042925D0194A52F879
:102FF0003020002082F8800219B94FF480721A60E4
:103000007047022903D140F203121A607047032966
:103010000CBF4FF4817200221A6070470D4A52F8BB
:103020003020012182F880124FF4A2721A601A68CF
:1030300022F020021A607047064A52F8302001211F
:1030400082F880124FF4A2721A601A6842F02002CD
:103050001A60704768B4000070B50D46212861D829
:10306000042A5FD8DFE802F00709050B03000B23F1
:1030700006E00A2304E0082302E00C2300E0092311
:103080001E04294B03EBC0035C68236813F4E06F54
:1030900002D10021FFF7A0FF244B254AC3F89C2151
:1030A000244AC3F8A021244AC3F8A421234AC3F820
:1030B000A821234AC3F8AC2104F14043A3F592238D
:1030C0007C2B18D904F14042A2F594227C2A14D911
:1030D00004F14043A3F596237C2B10D904F140431F
:1030E000A3F598237C2B0CD904F14043A3F59A2334
:1030F0007C2B08D970BD134906E0134904E013493D
:1031000002E0134900E0134972B6236823F47023E8
:103110002360C4F3840241F8225043F080731E43BD
:10312000266062B670BD00BF68B400000082FF1F59
:103130001188FF1FE587FF1FB987FF1F8D87FF1FBE
:103140006187FF1F5C88FF1F9488FF1FE488FF1FB3
:103150001489FF1F3489FF1F10B5044628280FD19A
:103160005D4B1B780B2B03D8C3F10C03994003E094
:103170000C2B84BF0C3B19410846FFF71BFC10BD0C
:10318000554B1B78012202FA03F0002908DC204687
:103190000021FFF7EFFE20460121FFF71DFF10BDC4
:1031A0000A46884208D820460121FFF7E3FE204660
:1031B0000121FFF711FF10BDE01EC0B2012806D8A3
:1031C0004648006800FB011222FA03F310E0202CAD
:1031D00001D0192C06D14248006800FB022222FAD5
:1031E00003F305E03F48006800FB011222FA03F3F5
:1031F000E01E1D2864D8DFE800F0474E402B6363D3
:103200001D2463636363636363636332390F16630F
:103210005C63636363636355334A136040F2444203
:10322000324B1A6010BD324A136040F24442314BB7
:103230001A6010BD304A136040F244422F4B1A60AE
:1032400010BD2F4A136040F244422E4B1A6010BD4D
:103250002D4A136040F244422C4B1A6010BD2C4A98
:10326000136040F244422B4B1A6010BD2A4A13608F
:1032700040F24442294B1A6010BD294A136040F2C3
:103280004442284B1A6010BD274A13604FF4517214
:10329000264B1A6010BD264A13604FF45172254B1D
:1032A0001A6010BD244A13604FF45172234B1A6008
:1032B00010BD234A13604FF45172224B1A6010BDA7
:1032C00020467F29D4BF00210121FFF753FE20466D
:1032D0000121FFF781FE10BD3C89FF1F08900340CC
:1032E00008800B40088003401080034004B0044075
:1032F0001880034008B00440208003400CB0044014
:103300002880034010B004403080034010C00440C7
:103310003880034014C004404080034018C004407B
:10332000488003401CC0044010900340309004408B
:10333000189003403490044010800B4048A0044093
:1033400018800B404CA0044072B60D4B1B680D4A10
:1033500012680D49096862B611F0806F02D0322BF5
:1033600088BF0132C3F58C3303F23F130749A1FB39
:1033700003031B094FF47A7000FB0230704700BF53
:1033800018E000E06C93FF1F04ED00E0398EE33895
:1033900038B50546FFF7D8FF044625B938BD013DCD
:1033A0000AD004F57A74FFF7CFFF001BB0F57A7FDF
:1033B000F5D200F0D9FEF6E738BD00BF10B5264BB8
:1033C0004FF400021A604FF080721A604FF00072E2
:1033D0001A604FF080621A604FF000621A6000209D
:1033E0001E4B186048F6FF710433196028231C4AED
:1033F0001360083213600832136008321360083219
:103400001360083213600832136008321360092217
:10341000144C226004F5805404342060043421608C
:103420000434236008342360143C226004F5FE2435
:10343000043420600C4801600C490B6008310B60BB
:103440000B4B1A60FFF76CF94FF4C870FFF7A0FF41
:1034500000F074FC10BD00BF08E100E004800340F0
:103460000C8003400080034008800B400C800B4020
:1034700000800B4030B40E4B1B7843F002020D4C21
:1034800004EBC20460600C48007800280CBF88245C
:10349000C82444EA0141074D45F8321080F001008C
:1034A000054A107083F00103014A137030BC704765
:1034B000D893FF1F0080FF1F5194FF1F10B4431EBD
:1034C000032B11D872B60A4A52F8230050B1426851
:1034D000074941F82320074A32F813400188611A4E
:1034E00022F8131062B600E000205DF8044B70472C
:1034F000C893FF1F6C96FF1F013803280DD872B6C2
:10350000074B53F820302BB1002001305B68002BB3
:10351000FBD100E0002062B670470020704700BF7A
:103520001C94FF1F38B572B601231B491B4C5A1857
:1035300012F8012C12F0080F24D09A0054F83250DF
:103540006DB9164B03EBC20108304860144943F8CB
:103550003210144B1A78013A1A7062B638BD42F034
:10356000010254F832506DB90C4B03EBC201083024
:1035700048600D4943F832100A4B1A78013A1A7024
:1035800062B638BD0133052BD1D162B60022054B9E
:103590001A7000F067FC38BDC0B600000080FF1F45
:1035A000880040004694FF1FC800400010B4431E2E
:1035B000032B37D8400140F010001C4A104472B66B
:1035C0001B4AD25C032A09D8DFE802F019021B0566
:1035D0000830022216E00830042213E0154A52F89F
:1035E00023201AB9134A42F8231003E0124A52F872
:1035F00023205160104A42F8231062B612E00322E1
:1036000000E005220A4CE25401F10803436000F097
:103610000803002B0CBF8823C8230A8843EA02430F
:10362000036062B65DF8044B704700BF0080FF1F67
:103630008493FF1F1C94FF1F2C94FF1F2DE9F84F4C
:10364000A34CDFF8E092DFF8E0A2DFF8E0B22578E3
:10365000EDB215F0040F1DD09E4B1B7813F0FF0F39
:1036600016D09D4B1B7803F0FF022BB1531EDBB22B
:10367000994A137003B900BE984B1B7803F0FF0200
:1036800033B1531EDBB2954A13700BB900F048FDFD
:103690000423237015F0080F00F0E48299F800303D
:1036A000DBB21D0940F021828D4D9E0805EBC6035B
:1036B0005A6855F83630C3F38303013B0C2B00F2F4
:1036C0001082DFE813F0CB01CB010E020E020E02D6
:1036D0000E020E020E02E8010E020E020E020D0094
:1036E000804913680B6052684A607F4A45F836206B
:1036F00000227E490A607A490A618A6101217C4A76
:1037000011709BB240F28162934218D8B3F5D06F2A
:103710002ED2B3F5817F00F01E8106D8802B00F0F9
:10372000C980822B00F0CC8066E140F202329342E5
:1037300000F02681B3F5A06F00F062815CE142F2F7
:103740002102934200F0868107D8B3F5086F00F09C
:10375000AB80B3F5106F11D04EE142F221229342BB
:1037600000F0418142F22132934200F0498143E16D
:10377000604B5D68002D40F0188130E1594B9A781C
:10378000544B1A70564D05F180062B6A13F0800FCA
:1037900003D0686A083800F065FB0835B542F4D1FB
:1037A000DFF88C8100263746534AB05828B1456867
:1037B00000F058FB0DB12846F9E700234E4973503D
:1037C0004E4AB3504E4BF05828B1456800F04AFBC2
:1037D0000DB12846F9E7002349497350494AB350CF
:1037E00028F8023F484BFB5C023B032B0AD8DFE87A
:1037F00003F0020602060022434BDA5502E00122E2
:10380000414BDA5501370436102ECDD100223F4B03
:103810001A7001253E4EDFF81C81314F05EB08037D
:1038200013F8013C06F8043B13F0080F2DD000F00C
:10383000F9FA48B1A90007EB451200F108035360FB
:10384000344A47F8312007E0AB00002247F8332024
:103850002E4B1A7801321A7000F0E4FA58B1AB001E
:1038600043F0010307EBC30100F108024A601E4A5E
:1038700047F8332009E0AB0043F00103002247F88A
:103880003320224B1A7801321A70AA0042F002014A
:10389000002347F8313042F0030247F83230013557
:1038A0001D4B9E42BAD11EE20A4B1B781B4D2B705A
:1038B0000127AAE0194D00232B706B700227A4E0AA
:1038C000084B9B88042B37D90F22154B1A70C1E087
:1038D000802007405094FF1FD993FF1F6494FF1F5F
:1038E0000080FF1F3C94FF1FC80040007093FF1F23
:1038F0005194FF1FC4B60000C893FF1F7493FF1FAD
:103900001C94FF1F2C94FF1F8493FF1F4694FF1FDE
:10391000C420074088004000D42007404894FF1F7F
:10392000C02007409020074094200740982007407F
:103930006A96FF1FC0B60000A04A002111705170A6
:103940009F4A12F8233013F0020F5CD09B4D0123E5
:103950002B70022759E09B4B9B8803F07F03042BBD
:1039600002DC984A52881AB10F22954B1A7071E006
:10397000934A12F8231021F0020102F82310B2E159
:10398000904B9B8803F07F03042B02DC8D4A528806
:103990001AB10F228A4B1A705CE0894A12F8231080
:1039A00041F0020102F823109DE1864B5E889F885A
:1039B000854BA3F10C02114633F80C0CB04209D12F
:1039C00033F80A0CB84205D1360A032E0CBF2F7803
:1039D00017891AE00D690C330C32002DEBD10F2240
:1039E000774B1A7036E0794B1A68794B1A60754B31
:1039F0009A78784B1A7076E10F22714B1A7029E091
:103A000000273D4601E002276C4D6E4BDB889F424C
:103A100028BF1F46402F34BF3E4640262846314629
:103A2000FFF728FD3544BF1B03D13F2E00F2608114
:103A300010E0402F34BF3E46402628463146FFF76F
:103A400019FD3544BF1B01D13F2E03D9624B1D60C8
:103A5000624B1F8001238AF8003042E0594B1988DD
:103A600042F22103994212D15D4BD81D12F8011B7D
:103A700003F8011F8342F9D15A4B1B68862B02D1F0
:103A80000F22594B1A7000200146FFF7F3FC574BE9
:103A900045F8363025E0504B1E68BEB14F4FB7F8A1
:103AA0000080B8F1400F34BF4546402530462946D6
:103AB000FFF7E0FCC5EB08039BB23B800BB9402D40
:103AC00001D1354400E00025434B1D603D4B1B8870
:103AD000B3F5A06F05D13B4B00225A709B788BF851
:103AE000003001238AF80030B9E0414E9F0806EB10
:103AF000C708D8F80420A2F10800013DEDB213F088
:103B0000080F47D000F0AEF93A4B53F825304BB3CD
:103B10005A68384941F8252003F10802C8F8042002
:103B2000354A525D032A12D8DFE802F002060A0E77
:103B30000321314A51550AE002212F4A515506E02E
:103B400005212D4A515502E004212B4A515518F008
:103B5000080F0CBF8822C8221B8842EA034346F89C
:103B600037307CE0244B5B5D032B0BD8DFE803F0A0
:103B7000777702060022204B5A5570E001221E4B37
:103B80005A556CE018F0080F0CBF022203221A4BA2
:103B90005A5564E056F837301B0C22F8083C002BCD
:103BA00055D0002322F8063C42F8043C134B53F84E
:103BB00025302BBB114B43F8250025E04894FF1F0F
:103BC000C02007403C94FF1FD0B600006C93FF1F3D
:103BD0007C96FF1F7494FF1F7093FF1F4494FF1F78
:103BE0007396FF1F7496FF1FD993FF1FC8004000F4
:103BF0000080FF1F1C94FF1F8493FF1FC893FF1FAB
:103C00003F4B53F8253058603D4B43F825003D4B62
:103C100033F8151032F8082C0A4423F8152000F068
:103C200001F960B100F10803C8F8043018F0080F7A
:103C3000354B364A08BF134646F837300FE00023AD
:103C400046F83730324B1A7801321A7007E018F014
:103C5000080F2D4B2D4A08BF134646F8373008236E
:103C60002370F4E415F0010F22D02A4902230B70CF
:103C70000022294B1A70294B24481860284C5C609C
:103C800098602848D8601A619A610D20264B1870F8
:103C9000FF23264803700838037018300270244A46
:103CA00013709F22234B1A7001230B70BDE8F88F0D
:103CB00015F0800F05D00D221B4B1A708022403B5F
:103CC0001A7015F0020F06D0184B1A78D2B21A707B
:103CD0000222083B1A7015F0100F0ED01022164B5E
:103CE0001A70BDE8F88F00200146FFF7C3FBB1E66C
:103CF00028460021FFF7BEFBACE6BDE8F88F00BF09
:103D00007493FF1F6C96FF1FC8004000880040009E
:103D10004694FF1F94200740D893FF1F0080FF1F89
:103D20008893FF1FDC93FF1FC020074088200740B7
:103D30008C200740842007408020074008B501F010
:103D400003FE00231B491A465A50C8184260083324
:103D5000882BF9D1184B1A6842F480221A60154B4F
:103D6000C3F30721154A1170C3F3074114321170D0
:103D70001B0E04321370FF23343A13700832137091
:103D8000783A137001238432137000216C32117061
:103D90007C3A137070220A4B1A704FF40072A3F22F
:103DA00041331A60102203F1C04303F5C8231A708F
:103DB00008BD00BF0080FF1F348004409C200740E6
:103DC00049E400E008B500F0C3F808BD08B500F00C
:103DD00073F808BD08B500F09BF808BD08B500F001
:103DE0006DF908BD08B500F0C1F808BD08B5084672
:103DF00000F058F908BD00BF08B50846114600F0AC
:103E0000D1F808BD704700BF044B00221A714FF46F
:103E10007A7199601A73024A1A6070475494FF1FAE
:103E200080B5000072B60D4B1A68B2FA82F30B2B04
:103E300002D962B6002070474FF00041D94022EA13
:103E4000010206490A6062B6054903EBC303DB00C1
:103E5000C8180022CA504260704700BF4089FF1F47
:103E60000084FF1F08B50F4BC31A0F4AA2FB0313B0
:103E70001B090B2B14D80D4A12783AB10C4A127850
:103E800012F0FF0F02D0FFF74DFB08BD72B6094AD2
:103E90004FF0004121FA03F311681943116062B633
:103EA00008BD00BF0084FF1F398EE3384694FF1F12
:103EB0005094FF1F4089FF1F10B5134B1B6853B967
:103EC000124B1B7813F0FF0F18D00320FFF7F6FA00
:103ED0000D4B1860A8B10C4B186843885A1C03445A
:103EE0001C7A03889A4206D3FFF7BCFF0022064BD8
:103EF0001A60204610BD4280204610BD4FF0FF30B2
:103F000010BD4FF0FF3010BD7094FF1F5094FF1F85
:103F100008B50D4B1B6883B90C4B1B7813F0FF0FD2
:103F200008D00320FFF7CAFA074B186028B94FF0F2
:103F3000FF3008BD4FF0FF3008BD034B1B685A88A7
:103F40001344187A08BD00BF7094FF1F5094FF1FE0
:103F5000044B9888044B1B681BB11A885B88D31AE2
:103F6000184470476C96FF1F7094FF1F10B50B4BE1
:103F70001B7813F0FF0F0FD0094B186820B1FFF723
:103F800071FF0022064B1A6003242046FFF796FAC1
:103F900010B1FFF767FFF8E710BD00BF5094FF1F97
:103FA0007094FF1F2DE9F84F04460122384B1A7018
:103FB0008B46002965D00E46DFF8E080DFF8E09000
:103FC0009A46344FD8F8003083BB99F8003013F08C
:103FD000FF0F06D100222E4B1A704FF0FF30BDE8C4
:103FE000F88F48F601450420FFF786FA07280AD81B
:103FF00001238AF80030FFF715FFC8F80000A8B9C0
:1040000000238AF80030013D01D03B7833B1012212
:10401000204B1A704FF0FF30BDE8F88F00F0A4F885
:1040200099F8003013F0FF0FDDD1D3E700233B7088
:10403000D8F800104A88C2F14005AE4238BF354674
:1040400002F108030B442A444A80761B3DB1254403
:1040500014F8012B03F8012BAC42F9D100E02546FE
:104060004B883F2B07D940230B800420FFF79EFA93
:104070000023C8F800300522074B1A700EB12C46F9
:10408000A0E70022024B1A705846BDE8F88F00BF27
:104090006594FF1F6C94FF1F6494FF1F6894FF1FBB
:1040A0005094FF1F00B583B002AB03F8010D184612
:1040B0000121FFF777FF03B05DF804FB10B5144B47
:1040C0001B7813F0FF0F21D00122124B1A70124BF4
:1040D000196851B10024114B1C704B880B800420CF
:1040E000FFF764FA0C4B1C600DE0FFF79BFE0146E6
:1040F00030B10022094B1A700420FFF757FA02E092
:104100000122064B1A700022024B1A7010BD00BF2C
:104110005094FF1F6594FF1F6894FF1F6494FF1F56
:1041200008B50E4B1B7813F0FF0F16D10C4B196816
:1041300041B14B880B800420FFF738FA0022084B6E
:104140001A6008BDFFF76EFE014618B10420FFF7A4
:104150002DFA08BD0122034B1A7008BD6594FF1F9C
:104160006894FF1F6494FF1F08B50F4B1B78CBB9F1
:1041700001220D4B1A70FFF7EBFE08B1FFF742FE6C
:1041800000F074FC08B100F0A3F801F021F808B1C8
:1041900000F040F901F0EEFA08B100F0DDF900227C
:1041A000014B1A7008BD00BF7594FF1F08B5036866
:1041B0001B68C9B2984708BD08B503681B68C9B237
:1041C000984708BD08B503681B68C9B2984708BD81
:1041D00008B503681B68C9B2984708BD08B504480C
:1041E00000EB5100B0FBF1F000F0C6F908BD00BFD4
:1041F0000044950810B51446054800EB5100B0FB8B
:10420000F1F000F0B9F9204600F01EFA10BD00BF31
:104210000044950808B500F047FA08BD08B50846FF
:1042200000F07CFA08BD00BF08B5084600F0D0FADF
:1042300008BD00BF08B50846114600F08BFA08BD5E
:1042400008B5084600F0F0FA003018BF012008BD9C
:1042500008B5084600F00AFB003018BF012008BD71
:1042600008B500F003FC08BD08B500F049FC08BD26
:1042700008B500F00BFC08BD08B500F0D5FB08BD83
:1042800008B500F057FC08BD08B500F0DDFB08BD1F
:1042900008B5084600F016FB012008BD08B5084621
:1042A00000F010FB012008BD10B514460846114669
:1042B00000F058FB204610BD38B50D46084603F007
:1042C00027FA04462846214600F04CFB204638BD1C
:1042D000704700BF044B00221A714FF47A71996045
:1042E0001A73024A1A6070477894FF1FA8B500003D
:1042F00008B503681B68C9B2984708BD08B50368CC
:104300001B68C9B2984708BD08B503681B68C9B2E5
:10431000984708BD08B503681B68C9B2984708BD2F
:1043200008B5044800EB5100B0FBF1F000F0B8FC18
:1043300008BD00BF0044950810B51446054800EBC1
:104340005100B0FBF1F000F0ABFC204600F010FD96
:1043500010BD00BF0044950808B500F039FD08BD48
:1043600008B5084600F094FD08BD00BF08B5084632
:1043700000F0E8FD08BD00BF08B50846114600F092
:10438000A3FD08BD08B5084600F00AFE003018BFBE
:10439000012008BD08B5084600F024FE003018BF13
:1043A000012008BD08B500F013FF08BD08B500F0F6
:1043B00059FF08BD08B500F01BFF08BD08B500F0A7
:1043C000E5FE08BD08B500F067FF08BD08B500F0C0
:1043D000EDFE08BD08B5084600F026FE012008BD28
:1043E00008B5084600F020FE012008BD10B51446AF
:1043F0000846114600F068FE204610BD38B50D464F
:10440000084603F085F904462846214600F05CFE84
:10441000204638BD704700BF044B00221A714FF48C
:104420007A7199601A73024A1A6070478894FF1F64
:1044300008B6000008B503681B68C9B2984708BDF4
:1044400008B503681B68C9B2984708BD08B503687A
:104450001B68C9B2984708BD08B503681B68C9B294
:10446000984708BD08B5044800EB5100B0FBF1F0D7
:1044700000F0C8FF08BD00BF00A24A0410B51446F2
:10448000054800EB5100B0FBF1F000F0BBFF204607
:1044900000F0FAFF10BD00BF00A24A0408B501F009
:1044A00023F808BD08B5084601F058F808BD00BF5C
:1044B00008B5084601F09AF808BD00BF08B50846DF
:1044C000114601F067F808BD08B5084601F090F8FC
:1044D000003018BF012008BD08B5084601F0AAF851
:1044E000003018BF012008BD08B501F043F908BD30
:1044F00008B501F089F908BD08B501F04BF908BD10
:1045000008B501F015F908BD08B501F097F908BD27
:1045100008B501F01DF908BD08B5084601F0ACF872
:10452000012008BD08B5084601F0A6F8012008BD25
:1045300010B514460846114601F0EEF8204610BDAD
:1045400038B50D46084603F0E3F8044628462146F0
:1045500001F0E2F8204638BD704700BF044B00224E
:104560001A714FF47A7199601A73024A1A6070478F
:104570009894FF1F68B60000254B1A6842F48062C9
:104580001A600023234A1370234A1370234A1370BE
:10459000234A1370234A1370234B1B7813B1152B36
:1045A00005D008E040F21332204B1A6003E040F2DD
:1045B00013321F4B1A601F4B1B78012B02D0052BA7
:1045C00005D008E04FF451721B4B1A6003E04FF422
:1045D00051721A4B1A60C0F34432194B1A70C0F36F
:1045E00047125A7000F01F00987204229A7002213C
:1045F000D9745A7588221A743C22DA704022114B01
:104600001A704FF40052A3F229331A60704700BFAA
:10461000348004403495FF1FAD94FF1F3C95FF1F6D
:104620003595FF1FAC94FF1FF094FF1F40A004407E
:1046300018C004404489FF1F44A004401CC004402B
:1046400000A006402DE400E0164B9B7803F0EC033D
:1046500000F00302134310F0040F18BF43F01003DF
:10466000104A937000F00F03042B04D11346927983
:1046700042F040029A710B4B5A7902F0EF0210F0AF
:10468000100F18BF42F01002064B5A719B7903F0CD
:10469000EF0310F0200F18BF43F01003014A93718D
:1046A000704700BF00A0064010B5144B1B6813F400
:1046B000806F21D0124B1B7813F0FF0F06D0104CE7
:1046C000FFF752FD237813F0FF0FF9D14FF400529A
:1046D0000C4B1A6000230C4AD37040F203120B49B2
:1046E0000A6004310A600A4A13700A4A13700A4BBE
:1046F0001B680BB101221A7010BD00BF348004404A
:10470000AC94FF1F84E100E000A0064040A00440FC
:104710003495FF1FAD94FF1FA894FF1F10B50446EA
:10472000094A137813F0FF0FFBD120460121FEF751
:1047300053FC20460021FEF71DFC044B53F83420A7
:10474000034B1A6010BD00BFAC94FF1F68B400009B
:104750003895FF1F10B40C4609B140F08000184B8B
:104760001B78984228D0174A126812F4806F21D023
:1047700003F07F03012B02D0052B04D006E00022BA
:10478000114B1A6002E00022104B1A60002C0CBF83
:104790004422602200F07F03012B02D0052B05D0BC
:1047A00008E042F44072084B1A6003E042F44072A1
:1047B000064B1A60024B18705DF8044B704700BF3F
:1047C0004489FF1F3480044044A004401CC00440BE
:1047D000114B1B7898421ED0104A126812F4806F59
:1047E00017D013B1152B04D006E000220C4B1A6031
:1047F00002E000220B4B1A6010B1152805D008E02A
:1048000040F21332064B1A6003E040F21332054BBC
:104810001A60014B18707047F094FF1F34800440F9
:1048200040A0044018C0044010B50D4B1B6813F4A1
:10483000806F12D021280CD80A4C0B4B53F8303023
:1048400023600121FEF7C8FB236800221A700120B3
:1048500010BD0020034B186010BD002010BD00BF2C
:1048600034800440A894FF1F68B40000114B1B68FB
:1048700013F4806F1BD0122804D140F202320E4B89
:104880001A600DE0142804D140F202320B4B1A607A
:1048900006E00B4B5A7B02F0FE025A730020704771
:1048A000074B5A7B42F001025A73012070470020E7
:1048B000704700BF348004400CA0044014C0044082
:1048C00000A006402DE9F04107461F4B1B6813F47A
:1048D000806F37D01D4B1B680BB101221A701C4B27
:1048E0001C780134402C28BF00241A4D1A4EDFF8E2
:1048F0006C8017E0FEF758F940280FDC337913F08D
:10490000800F0FD02B780133402B28BF002318F8DD
:104910000320D2B2F271DBB22B7003E0FF2801DD7D
:10492000FFF722FC2B78DBB29C42E3D0FFB20B4BAB
:104930001F5501220A4B1A70E4B2054B1C70BC22B1
:10494000054BDA70BDE8F081348004403895FF1FD4
:104950003C95FF1F3595FF1F00A00640B094FF1F38
:10496000AC94FF1F2DE9F84F0746284B1B6813F442
:10497000806F49D0264B1B680BB101221A7007EBE0
:10498000010B5F453DD2DFF89890224EDFF88C8016
:10499000DFF890A099F800400134402C28BF002493
:1049A0003578EDB2A54220D1BC2388F80330FEF75C
:1049B000FBF8402811DC98F8043013F0800F10D079
:1049C00033780133402B28BF00231AF80320D2B2DA
:1049D00088F80720DBB2337003E0FF2801DDFFF722
:1049E000C3FB3378DBB29D42E1D017F8013B0AF8F4
:1049F00004300122084B1A70E4B289F800405F4588
:104A0000C8D1BC22054BDA70BDE8F88F3480044071
:104A10003895FF1F3595FF1FAC94FF1F00A006407F
:104A20003C95FF1FB094FF1F10B5064B1B7813F089
:104A3000FF0F06D0034CFFF797FB237813F0FF0F0F
:104A4000F9D110BDAC94FF1F064B1B78DBB2064AB0
:104A50001278D2B293422CBF3F3202F1FF32D01A09
:104A6000704700BF3C95FF1F3595FF1F054B187819
:104A7000C0B2054B1B78DBB2984238BF4030C01A39
:104A8000704700BF3495FF1FAD94FF1F10B4184B43
:104A90001A78D2B2174B1B78DBB29A4218D0013386
:104AA0003F2B18D81449C85CC0B2DCB211490C7055
:104AB00012490968C9B19A4203D300E00023D31A0E
:104AC00001E04032D31A1A2B0FDC00230B700CE0EC
:104AD0004FF0FF3009E0084B1878C0B20021054BB9
:104AE0001970064B19680029E8D15DF8044B70472E
:104AF0003495FF1FAD94FF1FF494FF1FA894FF1F70
:104B0000094B1A78D2B2094B1B78DBB29A4207D014
:104B10000133402B28BF0023054AD05CC0B2704748
:104B20004FF0FF30704700BF3495FF1FAD94FF1F5B
:104B3000F494FF1F0D4B1B6813F4806F14D00C4BC3
:104B4000DA7802F0CB02DA7040225A74DA7842F056
:104B50003402DA70074B1A78D2B2074B1A70074B3F
:104B60001B680BB100221A70704700BF34800440EC
:104B700000A00640AD94FF1F3495FF1FA894FF1FAF
:104B800070B43D4B1B7913F0300F33D072B63A4BF3
:104B90009B7D03F0FF022BB9374BDA7940225A7420
:104BA00062B627E062B6354B1978C9B2344B1C782F
:104BB000E4B2314D334EEB79D8B24B1C402B28BFB9
:104BC0000023A3421CBFF0541946531E13F0FF02EA
:104BD000F1D1CAB2294B1A702B4B1B6853B1A142B9
:104BE0002EBFC4EB0101C4F1400409192729C4BF39
:104BF00001221A70204BDA78D2B212F0800F27D03F
:104C00001B7913F0800F23D0204B1C78E4B2204B8B
:104C10001B78DBB29C4210D017491E4D01E0A34225
:104C20000BD00133402B28BF00230879E85CC0B2C9
:104C3000C871087DC0B20728F1D9DBB214490B70E6
:104C40000D4B1B7913F0800F02D07C210A4BD970D9
:104C500012F0400F0ED0084B1B7913F0400F09D013
:104C600000220D4B1A700D4B1B6803B11A703C22C9
:104C7000014BDA7070BC704700A006403495FF1FEE
:104C8000AD94FF1FF494FF1FA894FF1F3C95FF1FD6
:104C90003595FF1FB094FF1FAC94FF1F3895FF1F81
:104CA000254B1A6842F400621A600023234A1370ED
:104CB000234A1370234A1370234A1370234A137034
:104CC000234B1B78092B02D01A2B05D008E040F2A9
:104CD0001332204B1A6003E040F213321E4B1A606D
:104CE0001E4B1B780A2B02D01F2B05D008E04FF477
:104CF00051721B4B1A6003E04FF45172194B1A604A
:104D0000C0F34432184B1A70C0F347125A7000F0C7
:104D10001F00987204229A700221D9745A75882251
:104D20001A743C22DA704022104B1A704FF4004281
:104D3000A3F22B331A60704734800440B095FF1FF4
:104D40004595FF1FB895FF1FB195FF1F4495FF1FA5
:104D50004589FF1F0CB0044004D004404689FF1F62
:104D600010B0044000D0044000B006402FE400E042
:104D7000164B9B7803F0EC0300F00302134310F092
:104D8000040F18BF43F01003104A937000F00F0394
:104D9000042B04D11346927942F040029A710B4BD6
:104DA0005A7902F0EF0210F0100F18BF42F0100213
:104DB000064B5A719B7903F0EF0310F0200F18BFD8
:104DC00043F01003014A9371704700BF00B00640E2
:104DD00010B5224B1B6813F4006F3ED0204B1B789C
:104DE00013F0FF0F06D01E4CFFF7BEF9237813F027
:104DF000FF0FF9D14FF400421A4B1A6000221A4BF0
:104E0000DA701A4B1B78092B02D01A2B05D008E058
:104E100040F20312164B1A6003E040F20312154BE6
:104E20001A60154B1B7803F07F030A2B02D01F2B4F
:104E300005D008E040F20312104B1A6003E040F284
:104E400003120F4B1A6000230E4A13700E4A1370A0
:104E50000E4B1B680BB101221A7010BD3480044048
:104E60004495FF1F84E100E000B006404589FF1F24
:104E70000CB0044004D004404689FF1F10B0044029
:104E800000D00440B095FF1F4595FF1F4095FF1FC0
:104E900010B50446094A137813F0FF0FFBD12046E2
:104EA0000121FEF799F820460021FEF763F8044B34
:104EB00053F83420034B1A6010BD00BF4495FF1F08
:104EC00068B40000B495FF1F10B40C4609B140F05F
:104ED0008000184B1B78984228D0174A126812F4A9
:104EE000006F21D003F07F030A2B02D01F2B04D0C8
:104EF00006E00022114B1A6002E00022104B1A60FB
:104F0000002C0CBF4422602200F07F030A2B02D049
:104F10001F2B05D008E042F44072084B1A6003E0F2
:104F200042F44072064B1A60024B18705DF8044B55
:104F3000704700BF4689FF1F3480044010B0044012
:104F400000D00440124B1B78984220D0114A1268BE
:104F500012F4006F19D0092B02D01A2B04D006E0EE
:104F600000220D4B1A6002E000220C4B1A60092847
:104F700002D01A2805D008E040F21332064B1A601E
:104F800003E040F21332054B1A60014B1870704772
:104F90004589FF1F348004400CB0044004D0044015
:104FA00010B50D4B1B6813F4006F12D021280CD8DC
:104FB0000A4C0B4B53F8303023600121FEF70CF8FC
:104FC000236800221A70012010BD0020034B1860D6
:104FD00010BD002010BD00BF348004404095FF1F6D
:104FE00068B400000D4B1B6813F4006F13D0172832
:104FF0000AD140F202320A4B1A600A4B5A7B42F045
:1050000001025A7301207047064B5A7B02F0FE02E0
:105010005A73002070470020704700BF348004405E
:1050200008B0044000B006402DE9F04107461F4B90
:105030001B6813F4006F37D01D4B1B680BB10122A6
:105040001A701C4B1C780134282C28BF00241A4DE0
:105050001A4EDFF86C8017E0FDF7A6FD40280FDC44
:10506000337913F0800F0FD02B780133282B28BF12
:10507000002318F80320D2B2F271DBB22B7003E0E8
:10508000FF2801DDFFF770F82B78DBB29C42E3D0FC
:10509000FFB20B4B1F5501220A4B1A70E4B2054BAD
:1050A0001C70BC22054BDA70BDE8F08134800440EE
:1050B000B495FF1FB895FF1FB195FF1F00B00640C4
:1050C0004895FF1F4495FF1F2DE9F84F0746284BD1
:1050D0001B6813F4006F49D0264B1B680BB10122EB
:1050E0001A7007EB010B5F453DD2DFF89890224E16
:1050F000DFF88C80DFF890A099F800400134282C6C
:1051000028BF00243578EDB2A54220D1BC2388F811
:105110000330FDF749FD402811DC98F8043013F006
:10512000800F10D033780133282B28BF00231AF8C2
:105130000320D2B288F80720DBB2337003E0FF28E7
:1051400001DDFFF711F83378DBB29D42E1D017F8AB
:10515000013B0AF804300122084B1A70E4B289F8C6
:1051600000405F45C8D1BC22054BDA70BDE8F88F1E
:1051700034800440B495FF1FB195FF1F4495FF1F75
:1051800000B00640B895FF1F4895FF1F10B5064BAD
:105190001B7813F0FF0F06D0034CFEF7E5FF2378D2
:1051A00013F0FF0FF9D110BD4495FF1F064B1B787C
:1051B000DBB2064A1278D2B293422CBF273202F1F8
:1051C000FF32D01A704700BFB895FF1FB195FF1F7F
:1051D000054B1878C0B2054B1B78DBB2984238BF3C
:1051E0004030C01A704700BFB095FF1F4595FF1FA4
:1051F00010B4184B1A78D2B2174B1B78DBB29A4214
:1052000018D001333F2B18D81449C85CC0B2DCB2A7
:1052100011490C7012490968C9B19A4203D300E0E0
:105220000023D31A01E04032D31A1A2B0FDC0023DB
:105230000B700CE04FF0FF3009E0084B1878C0B25B
:105240000021054B1970064B19680029E8D15DF85B
:10525000044B7047B095FF1F4595FF1F7095FF1FCA
:105260004095FF1F094B1A78D2B2094B1B78DBB26D
:105270009A4207D00133402B28BF0023054AD05C57
:10528000C0B270474FF0FF30704700BFB095FF1FAE
:105290004595FF1F7095FF1F0D4B1B6813F4006FA2
:1052A00014D00C4BDA7802F0CB02DA7040225A7438
:1052B000DA7842F03402DA70074B1A78D2B2074B30
:1052C0001A70074B1B680BB100221A70704700BFA1
:1052D0003480044000B006404595FF1FB095FF1F85
:1052E0004095FF1F70B43D4B1B7913F0300F33D046
:1052F00072B63A4B9B7D03F0FF022BB9374BDA793C
:1053000040225A7462B627E062B6354B1978C9B2AA
:10531000344B1C78E4B2314D334EEB79D8B24B1C90
:10532000402B28BF0023A3421CBFF0541946531E34
:1053300013F0FF02F1D1CAB2294B1A702B4B1B6834
:1053400053B1A1422EBFC4EB0101C4F140040919BD
:105350002729C4BF01221A70204BDA78D2B212F08A
:10536000800F27D01B7913F0800F23D0204B1C789F
:10537000E4B2204B1B78DBB29C4210D017491E4D83
:1053800001E0A3420BD00133282B28BF002308796A
:10539000E85CC0B2C871087DC0B20728F1D9DBB2A1
:1053A00014490B700D4B1B7913F0800F02D07C2138
:1053B0000A4BD97012F0400F0ED0084B1B7913F036
:1053C000400F09D000220D4B1A700D4B1B6803B122
:1053D0001A703C22014BDA7070BC704700B0064076
:1053E000B095FF1F4595FF1F7095FF1F4095FF1F4C
:1053F000B895FF1FB195FF1F4895FF1F4495FF1FEC
:10540000B495FF1F174B1A6842F480521A600023AC
:10541000154A1370154A1370154A1370154A137004
:10542000154A137040F21331144A11604FF4517150
:1054300004321160C0F34431114A1170C0F34711B6
:10544000517000F01F009072937013742C23D3706E
:1054500040220C4B1A704FF40032A3F22D331A6025
:10546000704700BF348004402C96FF1FC195FF1F7A
:105470003496FF1F2D96FF1FC095FF1F08C00440E4
:1054800000C0064031E400E0164B9B7803F0EC03CB
:1054900000F00302134310F0040F18BF43F0100391
:1054A000104A937000F00F03042B04D11346927935
:1054B00042F040029A710B4B5A7902F0EF0210F061
:1054C000100F18BF42F01002064B5A719B7903F07F
:1054D000EF0310F0200F18BF43F01003014A93713F
:1054E000704700BF00C0064010B5144B1B6813F492
:1054F000805F21D0124B1B7813F0FF0F06D0104CA9
:10550000FEF732FE237813F0FF0FF9D14FF400328B
:105510000C4B1A6000230C4AD37040F203120B4963
:105520000A6004310A600A4A13700A4A13700A4B6F
:105530001B680BB101221A7010BD00BF34800440FB
:10554000C095FF1F84E100E000C0064008C0044091
:105550002C96FF1FC195FF1FBC95FF1F10B5044679
:10556000094A137813F0FF0FFBD120460121FDF704
:1055700033FD20460021FDF7FDFC044B53F8342099
:10558000034B1A6010BD00BFC095FF1F68B4000038
:105590003096FF1F10B40C4609B140F08000104B4C
:1055A0001B78984219D00F4A126812F4805F12D00B
:1055B00003F07F03082B02D100220B4B1A60002C52
:1055C0000CBF4422602200F07F03082B03D142F479
:1055D0004072054B1A60024B18705DF8044B70471F
:1055E0004789FF1F348004400CC00440704700BF4F
:1055F00010B50D4B1B6813F4805F12D021280CD816
:105600000A4C0B4B53F8303023600121FDF7E4FCCA
:10561000236800221A70012010BD0020034B18607F
:1056200010BD002010BD00BF34800440BC95FF1F9A
:1056300068B400000D4B1B6813F4805F13D00E2874
:105640000AD140F202320A4B1A600A4B5A7B42F0EE
:1056500001025A7301207047064B5A7B02F0FE028A
:105660005A73002070470020704700BF3480044008
:1056700004C0044000C006402DE9F04107461F4B1E
:105680001B6813F4805F37D01D4B1B680BB10122E0
:105690001A701C4B1C780134282C28BF00241A4D8A
:1056A0001A4EDFF86C8017E0FDF77EFA40280FDC19
:1056B000337913F0800F0FD02B780133282B28BFBC
:1056C000002318F80320D2B2F271DBB22B7003E092
:1056D000FF2801DDFEF748FD2B78DBB29C42E3D0CA
:1056E000FFB20B4B1F5501220A4B1A70E4B2054B57
:1056F0001C70AC22054BDA70BDE8F08134800440A8
:105700003096FF1F3496FF1F2D96FF1F00C00640E6
:10571000C495FF1FC095FF1F38B505460C4629B13B
:1057200015F8010BFFF7A8FF013CF9D138BD00BF08
:1057300010B5064B1B7813F0FF0F06D0034CFEF795
:1057400013FD237813F0FF0FF9D110BDC095FF1F93
:10575000064B1B78DBB2064A1278D2B293422CBFBA
:10576000273202F1FF32D01A704700BF3496FF1F74
:105770002D96FF1F054B1878C0B2054B1B78DBB286
:10578000984238BF4030C01A704700BF2C96FF1FA8
:10579000C195FF1F10B4184B1A78D2B2174B1B7863
:1057A000DBB29A4218D001333F2B18D81449C85C99
:1057B000C0B2DCB211490C7012490968C9B19A42F1
:1057C00003D300E00023D31A01E04032D31A1A2B8E
:1057D0000FDC00230B700CE04FF0FF3009E0084BAA
:1057E0001878C0B20021054B1970064B19680029C2
:1057F000E8D15DF8044B70472C96FF1FC195FF1F41
:10580000EC95FF1FBC95FF1F094B1A78D2B2094BCC
:105810001B78DBB29A4207D00133402B28BF00230C
:10582000054AD05CC0B270474FF0FF30704700BFF0
:105830002C96FF1FC195FF1FEC95FF1F054B1A7893
:10584000D2B2054B1A70054B1B680BB100221A70BF
:10585000704700BFC195FF1F2C96FF1FBC95FF1F0F
:105860002F4B1B7913F0200F23D02D4BDB79D9B2AE
:105870002C4B1B780133402B28BF00232A4A127877
:10588000D2B29A4204D0294AD154D9B2254A1170D1
:10589000274A116869B1274A1278D2B293422EBFC3
:1058A000C2EB0303C2F140029B18272BC4BF0123A4
:1058B0000B701B4BDB78DBB213F0800F1CD0184A47
:1058C000127912F0800F17D01B4A1178C9B2194A09
:1058D0001278D2B2914203D16C21114AD1700BE0FF
:1058E0000132282A28BF00221449885CC0B20C4922
:1058F000C871D2B20F490A7013F0400F0ED0084B96
:105900001B7913F0400F09D000220D4B1A700D4B7C
:105910001B6803B11A702C22014BDA70704700BF6C
:1059200000C006402C96FF1FC195FF1FEC95FF1F7E
:10593000BC95FF1F2D96FF1F3496FF1FC495FF1FB8
:10594000C095FF1F3096FF1F00B585B072B61B4B88
:1059500070221A7041211A4A11700F21013A1170F8
:1059600080221A701A46137813F0800FFBD0154B63
:10597000186862B6144B98429CBF00EB8000400050
:1059800001A90A22FDF738F99DF804307BB908E037
:1059900001A9595C31B19180023201330A2BF7D150
:1059A00000E0002301335B00084A137003E0074A5C
:1059B00053800123ECE705B05DF804FB00000240D2
:1059C00007000240080002407F969800D489FF1F1C
:1059D00031F0004310B408D00F4AA3F5801494426C
:1059E0000AD804205DF8044B704700280CBF022041
:1059F00003205DF8044B7047B3F5801F01D20320EC
:105A0000F7E7064A934201D00020F2E7D0F1010007
:105A100038BF0020EDE700BFFFFFDF7F0000F07F11
:105A200081F0004102E000BF83F0004330B54FEA4F
:105A300041044FEA430594EA050F08BF90EA020FBC
:105A40001FBF54EA000C55EA020C7FEA645C7FEA4F
:105A5000655C00F0E2804FEA5454D4EB5555B8BF72
:105A60006D420CDD2C4480EA020281EA030382EAE3
:105A7000000083EA010180EA020281EA0303362D75
:105A800088BF30BD11F0004F4FEA01314FF4801C48
:105A90004CEA113102D0404261EB410113F0004F5A
:105AA0004FEA03334CEA133302D0524263EB430311
:105AB00094EA050F00F0A780A4F10104D5F1200EAF
:105AC0000DDB02FA0EFC22FA05F2801841F100010A
:105AD00003FA0EF2801843FA05F359410EE0A5F1DE
