:1000000000800020BD010000212A0000E529000039
:10001000E5290000E5290000E5290000E5290000A8
:10002000E5290000E5290000E5290000212A00005B
:10003000212A0000E5290000212A0000D52900001E
:10004000212A0000212A0000212A0000212A000084
:10005000212A0000212A0000212A0000212A000074
:10006000212A0000212A0000212A0000212A000064
:10007000212A0000212A0000212A0000212A000054
:10008000212A0000212A0000212A0000212A000044
:10009000212A0000212A0000212A0000212A000034
:1000A00089130000212A0000212A0000212A0000D3
:1000B000212A0000212A0000212A0000212A000014
:1000C000212A0000212A0000212A0000212A000004
:1000D000212A0000212A0000212A0000212A0000F4
:1000E000212A0000212A0000212A0000212A0000E4
:1000F000212A0000254A0000212A00008951000021
:10010000212A000005570000212A0000212A0000B2
:10011000212A0000212A0000212A0000212A0000B3
:10012000212A0000212A0000212A0000212A0000A3
:10013000212A0000212A0000212A0000212A000093
:10014000212A0000212A0000212A0000212A000083
:10015000212A0000212A0000212A0000212A000073
:10016000212A0000E1340000212A0000212A000099
:10017000212A0000212A0000212A0000212A000053
:10018000212A0000212A0000212A0000212A000043
:10019000212A0000212A0000212A0000212A000033
:1001A000212A0000212A0000212A0000212A000023
:1001B000212A0000212A0000212A0000574B4CF27E
:1001C000205210B51A804DF628121A8000BF00BFC9
:1001D00002F02AFC524B4FF010621A60514A9A60AA
:1001E000514ADA60A3F53043203B1A6812F480725A
:1001F00004D14E490A604FF4A8521A604C4B1A7849
:10020000110703D51A7842F008021A70494B4A4C7C
:100210004A482A221A704A4A00239918A14203D256
:10022000195899500433F8E7464B474900228B424E
:1002300002D243F8042BFAE74448454900235A58B0
:100240001A500433B3F5DE7FF9D1424B424A802184
:1002500003F8011B9342FBD1404B3C4A1A60404BD0
:100260008A221A70A3F5805324225A70A0221A7091
:100270009A799207FCD59A79D406FCD4394A9379B5
:1002800003F00C03082B374BF9D105221A714322D6
:100290005A719A799006FCD5324A9179314B4906C8
:1002A000FBD5314A4FF08171116005215160202248
:1002B0001A709A7902F00C020C2AFAD12B4B2C4AB4
:1002C0001A602C4B2C4A1A6000225A60072243F80D
:1002D000042C2A4AC3F80C2D62B602F0C1FF134B5E
:1002E0001B68DA0705D5264802F086FD254B264A0D
:1002F0001A60264B1B785B0609D5224C224A2368DC
:10030000934204D11E4802F077FD0023236006F0DB
:10031000F7FA02F08FFB02F0BBFAFEE70E20054071
:1003200030800440823F04000100002B14D00340C1
:1003300002D0074000E007406892FF1F74B9000038
:100340006087FF1F6892FF1F8496FF1F0082FF1FB8
:100350000000000000E400E05FE400E008ED00E0E1
:1003600000500640004006404480044004800440A1
:10037000C010050014E000E03F190100000020203B
:100380002076CD581CE00340A5C3945A00F00740E6
:10039000FFFFFFFFFFFFFFFFFFFFFFFFFFFFFFFF6D
:1003A000FFFFFFFFFFFFFFFFFFFFFFFFFFFFFFFF5D
:1003B000FFFFFFFFFFFFFFFFFFFFFFFFFFFFFFFF4D
:1003C000FFFFFFFFFFFFFFFFFFFFFFFFFFFFFFFF3D
:1003D000FFFFFFFFFFFFFFFFFFFFFFFFFFFFFFFF2D
:1003E000FFFFFFFFFFFFFFFFFFFFFFFFFFFFFFFF1D
:1003F000FFFFFFFFFFFFFFFFFFFFFFFFFFFFFFFF0D
:10040000FFFFFFFFFFFFFFFFFFFFFFFFDEF9FFFF23
:1004100010B5054C237833B9044B13B10448AFF33E
:1004200000800123237010BD6892FF1F00000000B0
:1004300074B9000008B5064B1BB106480649AFF376
:1004400000800648036813B1054B03B1984708BD07
:100450000000000074B900006C92FF1F6892FF1F3B
:1004600000000000014B0360704700BF98B100001E
:10047000704700BF014B0360704700BF98B1000098
:10048000014B0360704700BF98B10000014B03604F
:10049000704700BF98B1000010B50446024B0360DE
:1004A00002F0F8FA204610BD98B1000010B50446DD
:1004B000024B036002F0EEFA204610BD98B1000036
:1004C00010B50446024B036002F0E4FA204610BD6A
:1004D00098B1000010B50446024B036002F0DAFA4E
:1004E000204610BD98B1000038B504460D460846B8
:1004F00007F060F8024623685B6820462946984763
:100500000546204601F000FE284438BD10B51148CC
:1005100001F008FA50B9104C23685B6820460F4977
:1005200030229847204601F0EFFDFEE70C4801F02D
:100530002FFA20B908480949FFF7D6FFFEE7094816
:10054000FA2101F02FFC20B903480749FFF7CCFF3F
:10055000FEE710BDA492FF1F5494FF1FB0B100002E
:10056000BC92FF1F8892FF1FE4B100002DE9F04309
:100570008DB0082002F0B0F8FFF7C8FF0C2002F0A1
:1005800085FA04460F211022112300F04DFC434B45
:100590001C60042002F07AFA0646002500950C2320
:1005A000019302210322012300F030FD3C4C266020
:1005B00000F04EFD442002F069FA07462368394EE8
:1005C000009601951421152200F0FEFA364D2F6099
:1005D000442002F05BFA0746236800960126019644
:1005E0001721162200F0F0FA304C2760286800F03E
:1005F00011FBDFF8C890DFF8C8804FF07C572868FF
:10060000494642463B4600F001FB206800F002FBF1
:100610002068494642463B4600F0F8FA0D20314634
:1006200002F02CFC0A240D260127642530463946A9
:1006300002F0F2FB284602F0FDFD3046002102F0F8
:10064000EBFB284602F0F6FD013CEFD10D20012125
:1006500002F0E2FB4FF47A7002F0ECFD1424002566
:10066000134F0A26384603A901F0DEFB28460A99F3
:1006700005F018FE0546304602F0DCFD013CF1D1E4
:1006800028460C4905F0CAFF0B4B18600D200021CD
:1006900002F0C2FB0DB0BDE8F08300BF8492FF1FE3
:1006A000D492FF1F71BDC842B492FF1FD092FF1FAA
:1006B0008892FF1F0000A041A092FF1F0000204170
:1006C000CDCC8C3F70B58AB00D20012102F0A4FB87
:1006D0000A2400250B4E304601A901F0A5FB28464F
:1006E000089905F0DFFD0546013CF4D1064905F007
:1006F00095FF064B18600D20002102F08DFB0AB01B
:1007000070BD00BF8892FF1F00002041A092FF1F14
:100710002DE9F047F0B003F06DFB002800F0C38135
:1007200003A8AE49782201F01DFD1CA8AC4901F0D8
:1007300081FD03A81CA901F07DFE421C18A803A995
:1007400001F0A2FE03A818A901F0A6FD18A801F067
:1007500025FD1CA801F022FDA24C24A8214601F091
:1007600069FD03A824A901F065FE034620A803A99A
:10077000002201F065FE20A801F096FE814620A827
:1007800001F00CFD24A801F009FD28A8214601F084
:1007900051FD03A828A901F04DFE421C07A803A99A
:1007A00001F072FE28A801F0F9FC30A8214601F002
:1007B00041FD07A830A901F03DFE03462CA807A97A
:1007C000002201F03DFE2CA801F06EFE80462CA810
:1007D00001F0E4FC30A801F0E1FC34A8214601F06E
:1007E00029FD07A834A901F025FE421C0BA807A982
:1007F00001F04AFE34A801F0D1FC3CA87A4901F08E
:1008000019FD0BA83CA901F015FE034638A80BA959
:10081000002201F015FE0BA838A901F03DFD38A813
:1008200001F0BCFC3CA801F0B9FC0BA801F034FEBF
:1008300082466E4B1B680093009805F0E3FD064668
:100840006B4C216805F02CFD05466A480FA901F0A4
:10085000EBFA694F1698694B196805F021FD684954
:1008600005F028FE294605F025FE664905F0D6FE6E
:10087000396805F017FD3860284605F0F7FF054692
:10088000614B186849462A4600F0B2FA5F4B186877
:1008900041462A4600F0ACFA2660BAF1010F0CD1AD
:1008A000FFF710FF0D20012102F0B6FA4F4B1B6835
:1008B0000193019805F0A6FD206040A8544901F07D
:1008C000B9FC544D286800F0C3FA014644A80A2236
:1008D00001F0FCFC40A844A901F078FD01463F4C22
:1008E000204601F0EBFB204601F00EFC44A801F08D
:1008F00055FC40A801F052FC48A8474901F09AFC79
:10090000286800F0B7FA01464CA80A2201F0DEFC84
:1009100048A84CA901F05AFD0146204601F0CEFB43
:10092000204601F0F1FB4CA801F038FC48A801F08A
:1009300035FC50A8394901F07DFC286800F0ACFA7C
:10094000014654A80A2201F0C1FC50A854A901F0A4
:100950003DFD0146204601F0B1FB204601F0D4FBED
:1009600054A801F01BFC50A801F018FC58A82C4911
:1009700001F060FC5CA8204B1968022201F0CEFC5B
:1009800058A85CA901F022FD0146204601F096FB23
:10099000204601F0B9FB5CA801F000FC58A801F06A
:1009A000FDFB60A81F4901F045FC174B186800F0DB
:1009B00047F9014664A80A2201F09CFC60A864A9DA
:1009C00001F004FD0146204601F078FB204601F0CD
:1009D0009BFB64A801F0E2FB60A825E05494FF1F94
:1009E00018B200001CB2000020B200006C93FF1F80
:1009F000DC92FF1F8892FF1FD892FF1FA092FF1F5B
:100A0000E12E654200007A44B492FF1FD092FF1F8E
:100A100024B200008492FF1F28B200002CB2000014
:100A200030B2000034B2000001F0B8FB68A84049C1
:100A300001F000FC3F4B186800F002F901466CA879
:100A40000A2201F057FC68A86CA901F0BFFC01461E
:100A5000204601F033FB204601F056FB6CA801F064
:100A60009DFB68A801F09AFB0D20002102F0D4F94B
:100A7000314B1B680293029805F0C4FC314605F027
:100A80000FFC01462D4805F00BFC05F0EFFE02F0CF
:100A9000D1FB0BA801F082FB07A801F07FFB03A8A4
:100AA00001F07CFB40E0244E33680793079805F083
:100AB000A9FC0546224F396805F0F2FB044621489F
:100AC0000FA901F0B1F9DFF8908016981E4B196854
:100AD00005F0E6FB1D4905F0EDFC214605F0EAFCBA
:100AE0001B4905F09BFDD8F8001005F0DBFBC8F8AA
:100AF0000000184B1868214600F000F90D4B1868EB
:100B0000214600F0FBF83D6033680B930B9805F02D
:100B100079FC294605F0C4FB0146084805F0C0FBF6
:100B200005F0A4FE02F086FB70B0BDE8F08700BFC0
:100B300038B20000D092FF1F6C93FF1F00002041CD
:100B4000DC92FF1F8892FF1FA092FF1FE12E6542DB
:100B500000007A44B492FF1FD892FF1F38B51248A4
:100B600001F0AAFA114D284647F25D6100F010FE2F
:100B70000F4C28460F49224605F09EFE0E4D284692
:100B800047F25E6100F00EFE28460C49224605F051
:100B900093FE0B4D2846142101F0C2F8284609495E
:100BA000224605F089FE38BDB892FF1FA492FF1FB0
:100BB0003C88FF1F75040000BC92FF1F81040000E9
:100BC0008892FF1F8D04000038B50446049D4160E3
:100BD00082600022C2600261002020626262A26222
:100BE000E26222636263A263E26384F8400084F8F5
:100BF000410084F8420065612360059AE26118684B
:100C0000294605F057FCA061204638BD4163826348
:100C1000C363704710B504460079012102F02EF934
:100C2000207A012102F02AF92079002102F0F4F85B
:100C3000207A002102F0F0F80023E36010BD00BF2D
:100C400008B5C06900F05CFA08BD00BF70B5044685
:100C50000D460079012102F011F9207A012102F0FC
:100C60000DF9284605F002FE05F0D0FB054620618F
:100C700094F841300BB100F100452846002105F001
:100C8000D5FDE0B194F8423063B12679284605F0ED
:100C9000EDFD0146304602F0B1F9207A012102F063
:100CA000BBF870BD2079002102F0B6F8247A2846FE
:100CB00005F0DCFD0146204602F0A0F970BD94F875
:100CC00042306BB12079012102F0A6F8247A05F1B7
:100CD000004005F0CBFD0146204602F08FF970BDC3
:100CE000267905F1004005F0C1FD0146304602F0CD
:100CF00085F9207A002102F08FF870BD2DE9F047C8
:100D000004460D46C06900F0FBF90746206A381A10
:100D100005F07CFB294605F081FC304905F0CAFB53
:100D2000A16905F07BFC8146D4F80C804046494619
:100D300005F0B6FA0646A56A294605F0B1FA616BD8
:100D400005F0B8FB0146206B05F0AAFA8246304652
:100D5000A16B05F0AFFB0146504605F0A1FA8246B3
:100D60002846294605F09EFA0146304605F098FAD5
:100D7000E16A05F097FAE16B05F09CFB01465046ED
:100D800005F08EFA05464046002105F027FD48B1E2
:100D90004846134905F02CFD20B14846114905F09D
:100DA00045FD50B92846104905F040FD38B92846A0
:100DB0000E4905F01DFD20B904E0002502E00A4DB2
:100DC00000E00A4D20462946FFF740FF25632762D1
:100DD000A36AE362A662BDE8F08700BF00007A4420
:100DE000CDCCCC3DCDCCCCBD00004843000048C3A9
:100DF000F8B504460D4617460846E16805F050FA76
:100E00000646A06A314605F04BFAA062E06A314618
:100E100005F046FAE062E560384605F0F7FA01466B
:100E20002046FFF76BFFF8BD10B504460160426035
:100E30008360C8B2002102F021F82079002102F07D
:100E40001DF8207A002102F019F8204610BD00BFDD
:100E500070B5064606240025307901F06BFC054488
:100E6000013CF9D1024880FB0530A0EBE57070BD74
:100E7000ABAAAA2A70B5064606240025307A01F0EE
:100E800059FC0544013CF9D1024880FB0530A0EB38
:100E9000E57070BDABAAAA2A70B5064606240025E7
:100EA000307801F047FC0544013CF9D1024880FB51
:100EB0000530A0EBE57070BDABAAAA2A08B5114BAE
:100EC000187801F0CDFF01280ED10F4B187801F0F2
:100ED000C7FF20B90D4B1A6801321A6008BD0B4BD1
:100EE0001A68013A1A6008BD074B187801F0B8FF7C
:100EF0000128064B1A680CBF013202F1FF321A605A
:100F000008BD00BFE492FF1FEC92FF1FE892FF1F95
:100F100008B5114B187801F0A3FF01280CD10F4B35
:100F2000187801F09DFF01280D4B1A680CBF0132A3
:100F300002F1FF321A6008BD084B187801F090FFEB
:100F400020B9074B1A6801321A6008BD044B1A68B1
:100F5000013A1A6008BD00BFEC92FF1FE492FF1F28
:100F6000E892FF1F08B5114B187801F079FF0128AE
:100F70000ED10F4B187801F073FF20B90D4B1A6892
:100F800001321A6008BD0B4B1A68013A1A6008BD9D
:100F9000074B187801F064FF0128064B1A680CBF54
:100FA000013202F1FF321A6008BD00BFF492FF1F48
:100FB000E092FF1FF092FF1F08B5114B187801F067
:100FC0004FFF01280CD10F4B187801F049FF012881
:100FD0000D4B1A680CBF013202F1FF321A6008BDD6
:100FE000084B187801F03CFF20B9074B1A68013212
:100FF0001A6008BD044B1A68013A1A6008BD00BFA8
:10100000E092FF1FF492FF1FF092FF1F10B4094CF3
:101010000460094C216009490A60094A1360094AC1
:10102000019B13600023084A1360084A13605DF8AF
:10103000044B704700004041E492FF1FEC92FF1FF9
:10104000F492FF1FE092FF1FE892FF1FF092FF1F34
:10105000F8B5214F3878002101F010FF1F4E30788D
:10106000002101F00BFF1E4D2878002101F006FF42
:101070001C4C2078002101F001FF3878012101F09B
:10108000CBFE3078012101F0C7FE2878012101F064
:10109000C3FE2078012101F0BFFE387812490422F6
:1010A00001F02CFF30781149042201F027FF287845
:1010B0000F49042201F022FF20780E49042201F09A
:1010C0001DFF0D4C23685B6820460C490B22984796
:1010D000204601F019F8F8BDE492FF1FEC92FF1FC3
:1010E000F492FF1FE092FF1FBD0E0000110F0000E1
:1010F000650F0000B90F00005494FF1F3CB20000C0
:10110000034610B9044B18687047012806BF034B0B
:1011100018684FF0FF307047E892FF1FF092FF1FF2
:10112000044BD878C0B2044B1B6898421CBF024BDA
:1011300018607047006006404488FF1F08B5FFF73D
:10114000EFFF10F0020FFAD00222014BDA7008BD57
:10115000006006400B4B1B7813B90B4B1B7873B127
:101160000A4B1B78202B03D9012303710020704701
:10117000581C064A1070064AD154012070470020BE
:10118000704700BF6293FF1F2493FF1F6393FF1FED
:101190000093FF1F704700BF024B1878024B1B786B
:1011A000C01A70476193FF1F6093FF1F074B1B78A6
:1011B000074A12789A4205D9591C044A1170054A07
:1011C000D05C70474FF0FF30704700BF6093FF1F47
:1011D0006193FF1F2893FF1F054B1B78054A127868
:1011E0009A4286BF044AD05C4FF0FF30704700BF80
:1011F0006093FF1F6193FF1F2893FF1F08B5104BDB
:10120000DB7813F0200F0CD1122001F0ABFD0D4B59
:101210001B689BB100210C4A11700C4A107898474A
:1012200008BD0B4A13780133DBB21370012B02D8CF
:10123000084B1B7813B9122001F094FD08BD00BFC4
:1012400000600640FC92FF1F6093FF1F6193FF1F29
:101250004C93FF1F2493FF1F38B514460D4B1B788A
:1012600013B90D4B1B7893B10C4B1D78C5F12103BD
:10127000A34202D2012202711C4609482844224698
:1012800001F00EFB2544054B1D70204638BD0020A3
:1012900038BD00BF6293FF1F2493FF1F6393FF1F9E
:1012A0000093FF1F002202714FF47A718160027374
:1012B000014A0260704700BF50B200000B4B1B6830
:1012C00013F0400F10D00A4B994203D82822094B43
:1012D0005A7006E0084B994294BF19220A22054B26
:1012E0005A700322034B9A71704700BF3480044048
:1012F0007F1A0600006006403F420F0008B5002339
:10130000174A1370174A116841F040011160164ADC
:101310009370164B1B78122B04D14FF41972144B97
:101320001A6005E0112B03D14FF41972114B1A60AA
:10133000114B1B78132B04D14FF419720F4B1A6009
:1013400005E0102B03D14FF419720D4B1A600D49B3
:10135000FFF7B4FF044B20225A7180229A7008BD17
:101360002493FF1F34800440006006404088FF1F24
:101370000CA0044004A004404888FF1F08A00440BB
:1013800000A00440A086010008B53D4BDB78DBB22D
:1013900013F0100F06D01021394AD17013F0400F0E
:1013A00003D108BD13F0400F2CD013F0040F1BD055
:1013B0000023344A1370344A1370344B1B681BB13A
:1013C0009847314B1B782BB901222F4B1A70002202
:1013D0002F4B1A702A4BD0229A702D4A12781A710C
:1013E00001222C4B1A7009E00122264B1A700022B0
:1013F000294B1A70224BC0229A701B790222204B73
:10140000DA7008BD1E4A927812F0100F1CD013F04B
:10141000010F14D11F4B1B781B4A12789A4207D92F
:10142000591C1C4A11701A4AD25C154B1A7102E001
:101430000022134B1A71D022114B9A701BE0104BF3
:10144000C0229A701B7916E00022144B1A701220E9
:101450001349032201F052FD094B1B79DAB20E4BFE
:101460001B781F2B07D80749097821B1581C0A4956
:1014700008700C49CA540222014BDA7008BD00BF43
:1014800000600640F892FF1F6393FF1F4893FF1F01
:101490000093FF1F6493FF1F6193FF1F4C93FF1F77
:1014A000FD1100002893FF1F4900044B1970012310
:1014B000034A1370034A1370704700BF0093FF1F65
:1014C0006293FF1F6393FF1F2DE9F04182B08846AE
:1014D000374B1222DA709B7813F0200F03D0B4221E
:1014E000334B9A701DE0334B1B680093009D314CC9
:1014F0000CE023680193019B5B1B0F2B06D92C4B3F
:1015000000229A7080229A7004204EE0FFF708FEB5
:1015100010F0200FEDD10022274B1A70B022244B7F
:101520009A70FFF7FDFD10F0200FFAD0234B1B78C7
:101530007BB30024224E1E4D204F335D2B71FFF7ED
:10154000EFFD10F0020F02D110F0200FF7D10223AF
:10155000EB70FFF7E5FD10F0100F04D08022144B64
:101560009A70042018E010F0200F04D18022104B54
:101570009A70042010E010F0010F04D0002C0CBF72
:10158000022003200BE00134E4B23B78A342D4D81C
:1015900001E0002000E00020B8F1000F02D080221E
:1015A000034B9A700022074B1A7002B0BDE8F0811D
:1015B000006006406C93FF1F2493FF1F6393FF1F7F
:1015C0000093FF1F6293FF1F2DE9F8430D46144659
:1015D000984600233E4A13703E4A13703E4B122237
:1015E000DA709B7813F0200F03D0B4223A4B9A7034
:1015F0000AE0FFF795FD10F0200FFAD10022374BDB
:101600001A70B022344B9A706D0045F00105EDB2AE
:10161000314B1D71FFF792FDFFF782FD10F01100B5
:1016200005D080222C4B9A700020BDE8F88344B985
:10163000B8F1000F0CBFA0228022274B9A70BDE8A2
:10164000F883012C04D1244BA8229A701B7938E02E
:10165000214BA0229A701B79012C32D900251E4EF5
:101660004FF0A8091E4FFFF769FD013CE4B2012CC1
:1016700008BF86F802901F2D04D86A1C33797B5569
:10168000D5B200E03379012CEDD1FFF757FDB02240
:10169000114B9A701F2D07D82B465D1CEDB20E4AD8
:1016A00011790F4AD15401E00B4B1B79B8F1000FAF
:1016B00002D08022084B9A70064B1D702846BDE868
:1016C000F883FFF73BFDB022034B9A700023E4E759
:1016D0006093FF1F6193FF1F006006402493FF1F6C
:1016E0002893FF1F08B50123FFF76EFF08BD00BF59
:1016F00008B5C9B2FFF7D8FE08BD00BF08B5012183
:10170000FFF7E2FE08BD00BF08B50248FFF7CAFDBB
:1017100008BD00BF5093FF1F4173704738B50546A1
:101720000C4608460021282205F01EFC20460849E8
:101730000B2205F0C9FF0023E3720122E260E96891
:101740002161626163620023A361E361236238BDAA
:1017500088B2000038B505460C460846002128220C
:1017600005F002FC204609490B2205F0ADFF0023DD
:10177000E3720122E2602A692261022262616362ED
:101780000023A361E361236238BD00BF88B200007B
:10179000034A0260C1600022C28002814281704718
:1017A00098B20000044A0260016100224273C280C4
:1017B00002814281704700BF70B2000070B51646CA
:1017C0001D46084C2046FFF76FFE20463146FFF7C6
:1017D000C1FC20462946FFF7BDFC2046FFF78EFFDF
:1017E00070BD00BF5093FF1F70B516461D46084CD4
:1017F0002046FFF759FE20463146FFF7ABFC204656
:101800002946FFF7A7FC2046FFF778FF70BD00BF11
:101810005093FF1F38B505460C461E210122234672
:10182000FFF7E2FF2C73802C23D006D8402C12D077
:10183000602C17D0202C37D106E0C02C27D0E02C0C
:101840002CD0A02C30D11BE0184A194B1A60194A31
:10185000194B1A6038BD194A154B1A60184A164BB5
:101860001A6038BD174A124B1A60174A124B1A6099
:1018700038BD164A0E4B1A60154A0F4B1A6038BD18
:10188000134A0B4B1A60134A0B4B1A6038BD124AAD
:10189000074B1A60114A084B1A6038BD104A044BB6
:1018A0001A60104A044B1A6038BD00BF008089449A
:1018B0004C88FF1F000075445088FF1F00C055442E
:1018C00000003E4400802744000016440000E1432D
:1018D0000000C8430080B1430000A543008093434B
:1018E0000000664300004D4370B50D4616460C4C93
:1018F0002046FFF7D9FD20463146FFF72BFC204656
:10190000FFF7FCFE204629460122FFF7EBFE2046AA
:10191000FFF74CFC05462046FFF7F0FEE8B270BD2D
:101920005093FF1F10B504460948FFF7E7FC204617
:10193000192120225723FFF741FF20461921202299
:10194000FFF7D2FF572814BF0020012010BD00BFB1
:101950005093FF1F70B50D4616460C4C2046FFF7FE
:10196000A3FD20463146FFF7F5FB2046FFF7C6FEF4
:10197000204629460122FFF7B5FE2046FFF716FC58
:1019800005462046FFF7BAFEE8B270BD5093FF1F30
:1019900010B504460B48FFF7B1FC20461E21022279
:1019A0000023FFF721FF20461E210022FFF7D2FF70
:1019B000102805D120462021FFF72CFF012010BD63
:1019C000002010BD5093FF1F2DE9F0470546254C20
:1019D00020461921FFF768FD23681B682046A821CF
:1019E00098472046FFF78AFE204619210622FFF776
:1019F00079FE2046FFF7D0FB0528FADD194C20467A
:101A0000FFF7D4FB81462046FFF7D0FB82462046F5
:101A1000FFF7CCFB07462046FFF7C8FB8046204671
:101A2000FFF7C4FB06462046FFF7C0FB5FFA8AFAC1
:101A30005FFA89F949EA0A2949F30B19A5F80690D2
:101A40005FFA88F8FFB247EA082747F30B172F81A0
:101A5000C0B2F6B246EA002646F30B166E81BDE828
:101A6000F08700BF5093FF1F70B582B005460C464B
:101A7000242608460021324605F076FA2846FFF76C
:101A8000A3FF2660EB6863600126A660144B1B6809
:101A90000193019B2361B5F9060004F0B7FC1149DD
:101AA00004F008FD104904F005FD6061B5F9080077
:101AB00004F0ACFC0B4904F0FDFC0B4904F0FAFC0B
:101AC000A061B5F90A0004F0A1FC064904F0F2FC9B
:101AD000054904F0EFFCE061304602B070BD00BF84
:101AE0006C93FF1F6F12833A0AE81C412DE9F047FF
:101AF0000546224C20461E21FFF7D6FC23681B68B2
:101B00002046032198472046FFF7F8FD20461E2176
:101B10000622FFF7E7FD2046FFF73EFB0528FADD2A
:101B2000164C2046FFF742FB82462046FFF73EFB5D
:101B300081462046FFF73AFB07462046FFF736FB73
:101B400006462046FFF732FB80462046FFF72EFB75
:101B50005FFA8AFA5FFA89F949EA0A29A5F8069034
:101B60005FFA88F8C0B240EA0828A5F80880FFB2FA
:101B7000F6B246EA07266E81BDE8F0875093FF1F54
:101B80002DE9F04182B0044688460846002124220F
:101B900005F0EAF91E27092640F6EE75204639467B
:101BA0003246FFF7D7FE10F0010F7DD02046FFF739
:101BB0009DFF637B002B3FD0E28802F2F77292B266
:101BC000638903F2F7739BB2AB4298BFAA4205D870
:101BD000238903F2F7739BB2AB422DD9237B602B91
:101BE0001BD004D8202B22D0402B1BD024E0A02BCC
:101BF00009D0C02B02D0802B1ED109E02046E02165
:101C0000FFF708FECAE72046C021FFF703FEC5E73D
:101C10002046A021FFF7FEFDC0E720468021FFF708
:101C2000F9FDBBE720466021FFF7F4FDB6E720464B
:101C30004021FFF7EFFDB1E72423C8F80030236906
:101C4000C8F804300223C8F80830194B1B68019308
:101C5000019BC8F81030174B1D68B4F9060004F05A
:101C6000D5FB294604F0DAFC134904F023FCC8F83C
:101C70001400B4F9080004F0C9FB294604F0CEFCB6
:101C80000D4904F017FCC8F81800B4F90A0004F074
:101C9000BDFB0A4B196804F0C1FC074904F00AFCBB
:101CA000C8F81C00012000E0002002B0BDE8F0816F
:101CB0006C93FF1F4C88FF1F0000C8425088FF1F15
:101CC0000175704738B505460C46084600212822A4
:101CD00005F04AF9204610490B2205F0F5FC0023D7
:101CE000E3720122E2602A69226104226261636276
:101CF000A88904F087FB094904F0DCFBA061A889EE
:101D000004F084FB00F10040044904F0D3FBE061DF
:101D10000023236238BD00BFD0B2000035FA8E3CEC
:101D2000024A02600161002202757047B8B20000E9
:101D300070B50E461546084C20466B21FFF7D8FCBF
:101D400020463146FFF706FA20462946FFF702FAF9
:101D50002046FFF7D3FC70BD5093FF1F38B50D46EA
:101D60000F4C20466B21FFF79FFB20462946FFF7CB
:101D7000F1F92046FFF7C2FC20466B210122FFF754
:101D8000B1FC2046FFF708FA0028FAD0044C2046A0
:101D9000FFF70CFA05462046FFF7B0FCE8B238BD65
:101DA0005093FF1F38B504460D461E48FFF7A6FAAC
:101DB000A5810023E3802381638120460F21FFF763
:101DC000CDFFD42801D0D72827D1204620210022BA
:101DD000FFF7AEFF204620210F22FFF7A9FFA389BE
:101DE000B3F5FA7F0BD0B3F5FA6F0FD0FA2B16D1FB
:101DF000204623210022FFF79BFF012038BD20460B
:101E000023211022FFF794FF012038BD2046232113
:101E10002022FFF78DFF012038BD002038BD0120B2
:101E200038BD00BF5093FF1F2DE9F04F85B0064627
:101E30000C462425084600212A4605F095F8002383
:101E4000F380338173812560336963600423A36069
:101E5000914DDFF860822B680393039B23618F4FC2
:101E600038466B21FFF720FB3B681B683846A821EA
:101E700098473846FFF742FC0028ECD138466B21E2
:101E80000622FFF72FFC3846FFF790F982463846C6
:101E9000FFF78CF983463846FFF788F900903846FB
:101EA000FFF784F981463846FFF780F901903846FC
:101EB000FFF77CF907465FFA8BFB5FFA8AFA4AEA7A
:101EC0000B2A0FFA8AF004F0A1FA60615FFA89F92F
:101ED000009AD3B243EA09290FFA89F004F096FA7E
:101EE000A061FFB2019AD3B243EA072738B204F0E7
:101EF0008DFAE061A6F806A0A6F808907781337DF8
:101F0000002B7ED06769D4F818B0E36900934FF0D6
:101F1000010A3846624904F075FC08B94FF0000A1E
:101F20004FF001093846414604F076FC08B94FF0FD
:101F300000094AEA09094FF001075846414604F0F2
:101F40006BFC08B94FF0000749EA07094FF0010799
:101F50005846534904F056FC08B94FF0000749EAC7
:101F600007074FF0010A0098414604F055FC08B9F4
:101F70004FF0000A47EA0A0717F0FF0F0BD14FF0A6
:101F800001070098464904F03DFC08B94FF00007EE
:101F9000FFB2002F35D0B389FA2B1AD0B3F5FA7FF0
:101FA0002FD14FF4FA63B381304620210022FFF78E
:101FB000BFFE304620210F22FFF7BAFE3046232114
:101FC0002022FFF7B5FE304624218022FFF7B0FE25
:101FD00041E74FF4FA73B381304620210022FFF726
:101FE000A7FE304620210F22FFF7A2FE3046232114
:101FF0001022FFF79DFE304624218022FFF798FE35
:1020000029E7B389B3F5FA7F14D0B3F5FA6F21D07D
:10201000FA2B2ED16069234904F04CFA6061A06963
:10202000204904F047FAA061E0691E4904F042FA31
:10203000E0611EE060691C4904F03CFA6061A0693F
:10204000194904F037FAA061E069174904F032FA3F
:10205000E0610EE06069154904F02CFA6061A06946
:10206000124904F027FAA061E069104904F022FA4D
:10207000E06160690E4904F01DFA6061A0690C49D5
:1020800004F018FAA061E069094904F013FAE0616C
:10209000012005B0BDE8F08F6C93FF1F5093FF1F28
:1020A00000F0FFC6295C0F3C295C8F3C295C8F3D0A
:1020B00035FA8E3C00F0FF46704700BF2DE9F04333
:1020C0008BB0074688468C68C4B100252E464FF079
:1020D0002109404601A94A462B4600F081F9202CEF
:1020E00034BF224620221544A41A3B685B68384658
:1020F00001A998470644002CEBD100E000263046A9
:102100000BB0BDE8F08300BF00B583B0054B1B8862
:10211000ADF8043003685B6801A90222984703B058
:102120005DF804FBD8B2000070B582B004460C4BD9
:102130001B680093009E0A4D2368DB682046984781
:1021400000280ADA01F062FF2B680193019A921BC2
:10215000A3689A42F0D34FF0FF3002B070BD00BFC9
:102160006C93FF1FF8B505460E461746002100F098
:1021700061F887B100243046FFF7D6FF011E02DA6E
:102180000123337307E031B12846C9B200F00EF9DC
:102190000134BC42EFD12846F8BD00BF10B504465B
:1021A000006804F0DDFB204610BD00BF38B50446D2
:1021B0000D460068013104F025FF18B1206065600C
:1021C000012038BD002038BD10B5044643688B425D
:1021D0000AD2FFF7EBFF034648B1A36833B923687F
:1021E00000221A70012302E0012300E001231846B7
:1021F00010BD00BF70B504460E4615462AB90368E7
:1022000003B11A700023A36012E01146FFF7DCFF50
:1022100048B9206818B104F0A3FB00232360002311
:102220006360A36004E0A5602068314605F064F9AE
:10223000204670BD38B504460023036043608360C8
:1022400003730D4639B1084605F0B4F9024620463D
:102250002946FFF7CFFF204638BD00BF38B50546F9
:102260000C46006868B16A688B689A4207D30968AF
:1022700005F042F9A368AB600023A36038BD04F009
:102280006FFB23682B6063686B60A368AB600023FF
:1022900023606360A36038BD10B50446884201D056
:1022A000FFF7DCFF204610BD38B504460D4641B1AE
:1022B000084605F07FF9024620462946FFF79AFFB7
:1022C00001E000238360204638BD00BF10B586B012
:1022D000044600230360436083600373084601A93A
:1022E00000F0FEFB204601A9FFF7DEFF204606B006
:1022F00010BD00BF10B58AB00446002303604360E0
:1023000083600373084601A900F0EAFB204601A997
:10231000FFF7CAFF20460AB010BD00BF10B58AB053
:102320000446002303604360836003730846911CE6
:102330006B4600F0E5FB01462046FFF7B5FF20465F
:102340000AB010BD2DE9F84304460D4616468268D2
:1023500003688B4206D899188D4205D2C3EB050954
:10236000012702E0002700E00027DEB106EB0208AB
:1023700020464146FFF728FFA0B15FB12168A06861
:1023800008444944324600F08BFA2368002203F8DF
:10239000082005E02068A3681844294605F0ACF839
:1023A000C4F808802046BDE8F88300BF10B582B0AD
:1023B00004468DF8041000238DF8053001A9012290
:1023C000FFF7C0FF204602B010BD00BF10B50446A5
:1023D0000B4609689A68FFF7B5FF204610BD00BF9D
:1023E00038B50C469AB191B18168994202D8002360
:1023F000237038BD551EC91A8D4228BF0D4601688D
:10240000204619442A4605F05FF90023635538BD7C
:1024100010B58368934207D90468A018096805F0CD
:10242000D9FA20B1001B10BD4FF0FF3010BD4FF0A6
:10243000FF3010BD08B50022FFF7EAFF08BD00BF5E
:102440002DE9F04104460E4615461F469A4201D931
:102450003D46174620460021FFF7ECFEB3689D423B
:102460000FD89F4228BF1F46336813F80780002209
:10247000DA55316820462944FFF716FF336803F820
:1024800007802046BDE8F08110B504468B68FFF751
:10249000D7FF204610BD00BF08B5006810B104F09A
:1024A00011FA08BD002008BD08B5006818B1002168
:1024B00006F052FB08BD002008BD00BF30B4394A09
:1024C0003949136813F0800FFBD10B6813F0800FAC
:1024D000F7D172B6354B1B78002B5FD0344B1C689C
:1024E00004331D68043318680433196804331A6808
:1024F00004331B682C44204401440A441A44C2F3A8
:102500004E0242F400422B4B1A602C331C680433F9
:102510001D68043318680433196804331A680433D7
:102520001B682C44204401440A441A44C2F34E025E
:1025300042F40042204B1A6003F108131C68043374
:102540001D68043318680433196804331A680433A7
:102550001B682C44204401440A441A44C2F34E022E
:1025600042F40042154B1A602C331C6804331D687A
:10257000043318680433196804331A6804331B6879
:102580002C44204401440A441A44C2F34E0242F44B
:1025900000420B4B1A600022044B1A7062B630BC2A
:1025A000704700BF24B0034024B00B406693FF1F68
:1025B00038B003402CB0034030B003402CB00B4087
:1025C00030B00B4060223A4B1A70E12201331A708E
:1025D000384B1B78082B10D1012203F1804303F5FF
:1025E0006C331A60132334490B6001F5FF2101F2AB
:1025F000FC710A60314A13601FE00A2B0DD11922C9
:102600002F4B1A6013232C490B6001F5FF2101F2B7
:10261000FC710A60294A13600FE00C2B0CBF1522D5
:102620003D22274B1A60122323490B6001F5FF213D
:1026300001F2FC710A60214A1360224B1B7833B10E
:102640000123214A136002F50022136005E00023F4
:102650001D4A136002F5002213601C4B1B78012BEE
:1026600006D880231A4A136002F5002213601AE08C
:10267000042B06D88423164A136002F50022136047
:1026800011E0082B06D88523114A136002F50022B9
:10269000136008E0102B94BF862387230C4A136035
:1026A00002F50022136001220A4B1A70704700BF26
:1026B000004007405488FF1F0CB003400CB00B4093
:1026C00008B003406993FF1F20B003405588FF1FE7
:1026D00024B003406693FF1F08B50C2804D91028C6
:1026E00028BF1020102307E00A2804D8092834BF87
:1026F00008230A2300E00C23DAB2101A09490870F3
:102700000949097899420CD0074B1A70074B1B787E
:102710002BB10023064A136002F500221360FFF775
:1027200051FF08BD6593FF1F5488FF1F6693FF1F6D
:1027300024B003402DE9F843282873D83C4B1E5C95
:10274000FF2E72D03B4B1B780BB1FFF7B7FE16F094
:10275000800F29D172B6384C384D4FF001072660F2
:102760002F7062B672B6236813F0800F04D12B78F5
:1027700013F0FF0F0FD1F2E7314B186800222F4BF7
:102780001A7062B62F4B1B781841BDE8F8832B787E
:1027900013F0FF0FE3D062B601F038FC72B6236885
:1027A00013F0800FF3D0E7E772B606F040095FFA46
:1027B00089F9254F254C06F03F06254D4FF00108BD
:1027C000B9F1000F04D03B6823F010033B6003E035
:1027D0003B6843F010033B60266085F8008062B6DA
:1027E00072B6236813F0800F04D12B7813F0FF0F1B
:1027F0000FD1E5E7174B18680022154B1A7062B627
:10280000104B1B781841BDE8F8832B7813F0FF0FAD
:10281000D6D062B601F0FAFB72B6236813F0800FCF
:10282000F3D0E7E70020BDE8F8830020BDE8F88397
:10283000DCB200006693FF1F00B003406893FF1FE7
:1028400010B003406593FF1F0CB00B4000B00B406D
:102850006793FF1F10B00B40094B1A6842F4805277
:102860001A60084B1B781BB18022074B1A7002E0DC
:10287000C022054B1A7080F30C00044B188070477F
:102880002C8004406993FF1F21C00C4000C00C4005
:1028900008B5FDF76BFEFDF73BFF01F0B7FBFAE76C
:1028A000844641EA000313F003036DD1403A41D35B
:1028B00051F8043B40F8043B51F8043B40F8043B1A
:1028C00051F8043B40F8043B51F8043B40F8043B0A
:1028D00051F8043B40F8043B51F8043B40F8043BFA
:1028E00051F8043B40F8043B51F8043B40F8043BEA
:1028F00051F8043B40F8043B51F8043B40F8043BDA
:1029000051F8043B40F8043B51F8043B40F8043BC9
:1029100051F8043B40F8043B51F8043B40F8043BB9
:1029200051F8043B40F8043B51F8043B40F8043BA9
:10293000403ABDD2303211D351F8043B40F8043B49
:1029400051F8043B40F8043B51F8043B40F8043B89
:1029500051F8043B40F8043B103AEDD20C3205D359
:1029600051F8043B40F8043B043AF9D2043208D051
:10297000D2071CBF11F8013B00F8013B01D30B88C3
:1029800003806046704700BF082A13D38B078DD0A1
:1029900010F003038AD0C3F10403D21ADB071CBF73
:1029A00011F8013B00F8013B80D331F8023B20F8DD
:1029B000023B7BE7043AD9D3013A11F8013B00F816
:1029C000013BF9D20B7803704B7843708B7883709E
:1029D00060467047024B1A6801321A60704700BFA8
:1029E0006C93FF1F08B50D4C236813F4802F01D0A2
:1029F00000F076FD236813F4806F01D002F012F826
:102A0000236813F4006F01D002F0BEFB236813F4B7
:102A1000805FE9D002F076FEE6E700BF3480044034
:102A200008B5FFF7DFFF00BF1022014B1A80704787
:102A300000200540704700BF024A13681844106028
:102A4000184670475888FF1FFEE700BFEFF3138357
:102A5000ABB9EFF31083ABB9EFF3058323B10F2BC1
:102A600005D9094A985C03E04FF4807000E000202B
:102A7000EFF311833BB1834238BF184670474FF0E4
:102A8000FF30704700207047F0E300E008B503F026
:102A90005FFF08BD08B503F063FF08BD30B4002335
:102AA000B0FBF2F402FB14041D46092C94BF303431
:102AB0003734E4B2CC54B0FBF2F008B10133EFE7A5
:102AC0000D4400226A70934207DD885CCC5C8C5414
:102AD000C8540132013B9A42F7DB084630BC7047CC
:102AE00010B50C46002802DBFFF7D8FF10BD2D23E0
:102AF00001F8013B4042FFF7D1FF204610BD00BF67
:102B00002DE9F04383B005460F4691461C4681EA05
:102B1000E178A8EBE178014603F092FEB8B32846CD
:102B2000002103F065FE002814BF04260326464555
:102B30000BDAC6EB0806002F0BDA56B12644202329
:102B400004F8013BB442FBD101E0002601E0344629
:102B500000264FF07E50002DB8BF7D48002103F0C5
:102B600047FE10B12D23237001344E2222704123E1
:102B70006370E31CA27036B19819202203F8012B70
:102B80008342FBD100E0184600230370DDE025F00E
:102B9000004630466F4903F053FE00283AD13046D4
:102BA0006C4903F02FFEA8BB2846002103F020FE4D
:102BB000002814BF0426032646450BDAC6EB080698
:102BC000002F0BDA56B12644202304F8013BB4420F
:102BD000FBD101E0002601E0344600262846002112
:102BE00003F006FE10B12D23237001344923237016
:102BF0004E236370E21C4623A37036B19419202340
:102C000002F8013BA242FBD100E0144600232370EE
:102C100020469AE02846494601AA6B4603F060FE2A
:102C20008046B9F1000F0DD1019B5BB990F800808F
:102C3000494B4A4AB8F1340F8CBF904698464FF042
:102C4000010C0BE0404604F0B5FC8446019B984221
:102C5000C8BF00F1010C0BB90CF1010C009909B1CE
:102C60000CF1010C04EB0C06CCEB0703002B08DD88
:102C70001E4423442546202205F8012B9D42FBD10A
:102C800000E0234611B12D221A700133019AB2B926
:102C9000B9F1000F08D01A46302102F8021B2E218C
:102CA0005970134600E02B46B34233D25A1C98F8B1
:102CB00000101970B24230D040462E2121E0002A87
:102CC000F2DAB9F1000FEFD01D46302205F8022BE1
:102CD0002E225A700136019B002BE4DA2A46E81AAC
:102CE000302102F8011B8242FBD1EB1A0022019233
:102CF000DAE7551C10F8013F1370B5420CD01346AB
:102D00002A46019D013D01950DB99A1C5970B242A8
:102D1000EFD302E01A4600E02A46002F12DA674499
:102D2000F8437F42002F0DDD1346202503F8015B99
:102D3000C3F10101014411440029F7DC20EAE073EA
:102D400001331A4400231370204603B0BDE8F0831A
:102D5000000080BFFFFF7F7F0CB3000008B30000BE
:102D6000704700BF1D4B03EBC000436803F14042B6
:102D7000A2F592227C2A18D903F14042A2F59422AE
:102D80007C2A14D903F14042A2F596227C2A10D95C
:102D900003F14042A2F598227C2A0CD903F140426B
:102DA000A2F59A227C2A08D970470D4906E00D4900
:102DB00004E00D4902E00D4900E00D4972B61A68C1
:102DC00022F0877222F4803242F080721A60C3F3DC
:102DD0008403084A41F8232062B6704710B300000C
:102DE0005C88FF1F9488FF1FE488FF1F1489FF1F62
:102DF0003489FF1F612D0000044B00221A60044932
:102E00000A60044A106010221A60704714D0034010
:102E100004D0034000D0034021281ED80F4B53F8A4
:102E2000303093F8802212F0FF0F08D019B1012240
:102E300083F880207047012283F800217047074BF8
:102E400003EBC000436821B11A6842F003021A6024
:102E500070471A6822F002021A60704710B300002F
:102E6000212806D8044B53F8303093F80002C0B242
:102E700070470020704700BF10B3000021283AD8E7
:102E80001D4B03EBC0035B68012919D0042925D031
:102E9000194A52F83020002082F8800219B94FF404
:102EA00080721A607047022903D140F203121A603F
:102EB000704703290CBF4FF4817200221A607047DB
:102EC0000D4A52F83020012182F880124FF4A2728C
:102ED0001A601A6822F020021A607047064A52F8F7
:102EE0003020012182F880124FF4A2721A601A6811
:102EF00042F020021A60704710B3000070B50D4612
:102F0000212861D8042A5FD8DFE802F00709050B01
:102F100003000B2306E00A2304E0082302E00C234D
:102F200000E009231E04294B03EBC0035C682368FF
:102F300013F4E06F02D10021FFF7A0FF244B254AD4
:102F4000C3F89C21244AC3F8A021244AC3F8A42131
:102F5000234AC3F8A821234AC3F8AC2104F1404313
:102F6000A3F592237C2B18D904F14042A2F59422B8
:102F70007C2A14D904F14043A3F596237C2B10D965
:102F800004F14043A3F598237C2B0CD904F1404372
:102F9000A3F59A237C2B08D970BD134906E0134989
:102FA00004E0134902E0134900E0134972B62368B4
:102FB00023F470232360C4F3840241F8225043F0C9
:102FC00080731E43266062B670BD00BF10B3000060
:102FD0000082FF1F1188FF1FE587FF1FB987FF1FB2
:102FE0008D87FF1F6187FF1F5C88FF1F9488FF1F6D
:102FF000E488FF1F1489FF1F3489FF1F10B50446A2
:1030000028280FD15D4B1B780B2B03D8C3F10C0381
:10301000994003E00C2B84BF0C3B19410846FFF795
:103020001BFC10BD554B1B78012202FA03F000294E
:1030300008DC20460021FFF7EFFE20460121FFF7C4
:103040001DFF10BD0A46884208D820460121FFF71F
:10305000E3FE20460121FFF711FF10BDE01EC0B2C4
:10306000012806D84648006800FB011222FA03F343
:1030700010E0202C01D0192C06D14248006800FB3A
:10308000022222FA03F305E03F48006800FB011228
:1030900022FA03F3E01E1D2864D8DFE800F0474E53
:1030A000402B63631D246363636363636363633201
:1030B000390F16635C63636363636355334A13605C
:1030C00040F24442324B1A6010BD324A136040F263
:1030D0004442314B1A6010BD304A136040F2444202
:1030E0002F4B1A6010BD2F4A136040F244422E4B02
:1030F0001A6010BD2D4A136040F244422C4B1A60F6
:1031000010BD2C4A136040F244422B4B1A6010BD94
:103110002A4A136040F24442294B1A6010BD294AE2
:10312000136040F24442284B1A6010BD274A1360D6
:103130004FF45172264B1A6010BD264A13604FF4AB
:103140005172254B1A6010BD244A13604FF451721E
:10315000234B1A6010BD234A13604FF45172224B67
:103160001A6010BD20467F29D4BF00210121FFF73E
:1031700053FE20460121FFF781FE10BD3C89FF1F51
:103180000890034008800B400880034010800340F3
:1031900004B004401880034008B00440208003407D
:1031A0000CB004402880034010B00440308003403D
:1031B00010C004403880034014C0044040800340E5
:1031C00018C00440488003401CC0044010900340D5
:1031D00030900440189003403490044010800B401D
:1031E00048A0044018800B404CA0044072B60D4B20
:1031F0001B680D4A12680D49096862B611F0806FAC
:1032000002D0322B88BF0132C3F58C3303F23F1357
:103210000749A1FB03031B094FF47A7000FB02303E
:10322000704700BF18E000E06C93FF1F04ED00E062
:10323000398EE33838B50546FFF7D8FF044625B97F
:1032400038BD013D0AD004F57A74FFF7CFFF001BAB
:10325000B0F57A7FF5D200F0D9FEF6E738BD00BFB1
:1032600010B5264B4FF400021A604FF080721A60BE
:103270004FF000721A604FF080621A604FF00062E7
:103280001A6000201E4B186048F6FF710433196065
:1032900028231C4A13600832136008321360083276
:1032A000136008321360083213600832136008326A
:1032B00013600922144C226004F580540434206009
:1032C000043421600434236008342360143C2260F9
:1032D00004F5FE24043420600C4801600C490B60A6
:1032E00008310B600B4B1A60FFF76CF94FF4C87094
:1032F000FFF7A0FF00F074FC10BD00BF08E100E084
:10330000048003400C8003400080034008800B4091
:103310000C800B4000800B4030B40E4B1B7843F008
:1033200002020D4C04EBC20460600C4800780028D7
:103330000CBF8824C82444EA0141074D45F83210E7
:1033400080F00100054A107083F00103014A1370F8
:1033500030BC7047D893FF1F0080FF1F5194FF1FA0
:1033600010B4431E032B11D872B60A4A52F8230038
:1033700050B14268074941F82320074A32F8134008
:103380000188611A22F8131062B600E000205DF88F
:10339000044B7047C893FF1F6C96FF1F013803282A
:1033A0000DD872B6074B53F820302BB100200130F6
:1033B0005B68002BFBD100E0002062B67047002064
:1033C000704700BF1C94FF1F38B572B601231B491C
:1033D0001B4C5A1812F8012C12F0080F24D09A0036
:1033E00054F832506DB9164B03EBC20108304860F7
:1033F000144943F83210144B1A78013A1A7062B625
:1034000038BD42F0010254F832506DB90C4B03EB59
:10341000C201083048600D4943F832100A4B1A784F
:10342000013A1A7062B638BD0133052BD1D162B6AC
:103430000022054B1A7000F067FC38BD68B500002B
:103440000080FF1F880040004694FF1FC800400016
:1034500010B4431E032B37D8400140F010001C4A23
:10346000104472B61B4AD25C032A09D8DFE802F086
:1034700019021B050830022216E00830042213E06E
:10348000154A52F823201AB9134A42F8231003E0D0
:10349000124A52F823205160104A42F8231062B6B3
:1034A00012E0032200E005220A4CE25401F1080375
:1034B000436000F00803002B0CBF8823C8230A8850
:1034C00043EA0243036062B65DF8044B704700BFF5
:1034D0000080FF1F8493FF1F1C94FF1F2C94FF1F6D
:1034E0002DE9F84FA34CDFF8E092DFF8E0A2DFF817
:1034F000E0B22578EDB215F0040F1DD09E4B1B787D
:1035000013F0FF0F16D09D4B1B7803F0FF022BB179
:10351000531EDBB2994A137003B900BE984B1B7857
:1035200003F0FF0233B1531EDBB2954A13700BB99F
:1035300000F048FD0423237015F0080F00F0E4822A
:1035400099F80030DBB21D0940F021828D4D9E08B4
:1035500005EBC6035A6855F83630C3F38303013BC5
:103560000C2B00F21082DFE813F0CB01CB010E022E
:103570000E020E020E020E020E02E8010E020E02F2
:103580000E020D00804913680B6052684A607F4A42
:1035900045F8362000227E490A607A490A618A612C
:1035A00001217C4A11709BB240F28162934218D88B
:1035B000B3F5D06F2ED2B3F5817F00F01E8106D80F
:1035C000802B00F0C980822B00F0CC8066E140F2B5
:1035D0000232934200F02681B3F5A06F00F06281C1
:1035E0005CE142F22102934200F0868107D8B3F5F4
:1035F000086F00F0AB80B3F5106F11D04EE142F2CE
:103600002122934200F0418142F22132934200F0A4
:10361000498143E1604B5D68002D40F0188130E145
:10362000594B9A78544B1A70564D05F180062B6A07
:1036300013F0800F03D0686A083800F065FB083586
:10364000B542F4D1DFF88C8100263746534AB05892
:1036500028B1456800F058FB0DB12846F9E7002372
:103660004E4973504E4AB3504E4BF05828B14568FE
:1036700000F04AFB0DB12846F9E700234949735091
:10368000494AB35028F8023F484BFB5C023B032BEE
:103690000AD8DFE803F0020602060022434BDA559F
:1036A00002E00122414BDA5501370436102ECDD10C
:1036B00000223F4B1A7001253E4EDFF81C81314F2E
:1036C00005EB080313F8013C06F8043B13F0080F60
:1036D0002DD000F0F9FA48B1A90007EB451200F12E
:1036E00008035360344A47F8312007E0AB0000225A
:1036F00047F833202E4B1A7801321A7000F0E4FAA2
:1037000058B1AB0043F0010307EBC30100F108021D
:103710004A601E4A47F8332009E0AB0043F001033A
:10372000002247F83320224B1A7801321A70AA007F
:1037300042F00201002347F8313042F0030247F81B
:10374000323001351D4B9E42BAD11EE20A4B1B7826
:103750001B4D2B700127AAE0194D00232B706B70B5
:103760000227A4E0084B9B88042B37D90F22154B66
:103770001A70C1E0802007405094FF1FD993FF1FAB
:103780006494FF1F0080FF1F3C94FF1FC80040008F
:103790007093FF1F5194FF1F6CB50000C893FF1F6B
:1037A0007493FF1F1C94FF1F2C94FF1F8493FF1F13
:1037B0004694FF1FC420074088004000D4200740E3
:1037C0004894FF1FC02007409020074094200740E6
:1037D000982007406A96FF1F68B50000A04A0021A4
:1037E000117051709F4A12F8233013F0020F5CD011
:1037F0009B4D01232B70022759E09B4B9B8803F0C4
:103800007F03042B02DC984A52881AB10F22954B91
:103810001A7071E0934A12F8231021F0020102F8A5
:103820002310B2E1904B9B8803F07F03042B02DC52
:103830008D4A52881AB10F228A4B1A705CE0894A6D
:1038400012F8231041F0020102F823109DE1864B8B
:103850005E889F88854BA3F10C02114633F80C0C4F
:10386000B04209D133F80A0CB84205D1360A032E0A
:103870000CBF2F7817891AE00D690C330C32002D1C
:10388000EBD10F22774B1A7036E0794B1A68794BDF
:103890001A60754B9A78784B1A7076E10F22714B4B
:1038A0001A7029E000273D4601E002276C4D6E4B5F
:1038B000DB889F4228BF1F46402F34BF3E4640262C
:1038C00028463146FFF728FD3544BF1B03D13F2E64
:1038D00000F2608110E0402F34BF3E46402628466B
:1038E0003146FFF719FD3544BF1B01D13F2E03D9E7
:1038F000624B1D60624B1F8001238AF8003042E05A
:10390000594B198842F22103994212D15D4BD81DBF
:1039100012F8011B03F8011F8342F9D15A4B1B68AF
:10392000862B02D10F22594B1A7000200146FFF757
:10393000F3FC574B45F8363025E0504B1E68BEB1BE
:103940004F4FB7F80080B8F1400F34BF45464025CF
:1039500030462946FFF7E0FCC5EB08039BB23B80ED
:103960000BB9402D01D1354400E00025434B1D60CB
:103970003D4B1B88B3F5A06F05D13B4B00225A701D
:103980009B788BF8003001238AF80030B9E0414E73
:103990009F0806EBC708D8F80420A2F10800013DF3
:1039A000EDB213F0080F47D000F0AEF93A4B53F8E0
:1039B00025304BB35A68384941F8252003F10802F5
:1039C000C8F80420354A525D032A12D8DFE802F015
:1039D00002060A0E0321314A51550AE002212F4AFC
:1039E000515506E005212D4A515502E004212B4A8C
:1039F000515518F0080F0CBF8822C8221B8842EAD4
:103A0000034346F837307CE0244B5B5D032B0BD837
:103A1000DFE803F0777702060022204B5A5570E06A
:103A200001221E4B5A556CE018F0080F0CBF022201
:103A300003221A4B5A5564E056F837301B0C22F813
:103A4000083C002B55D0002322F8063C42F8043CE9
:103A5000134B53F825302BBB114B43F8250025E0C1
:103A60004894FF1FC02007403C94FF1F78B500001A
:103A70006C93FF1F7C96FF1F7494FF1F7093FF1FB2
:103A80004494FF1F7396FF1F7496FF1FD993FF1F67
:103A9000C80040000080FF1F1C94FF1F8493FF1F7D
:103AA000C893FF1F3F4B53F8253058603D4B43F8F8
:103AB00025003D4B33F8151032F8082C0A4423F842
:103AC000152000F001F960B100F10803C8F80430D6
:103AD00018F0080F354B364A08BF134646F8373002
:103AE0000FE0002346F83730324B1A7801321A7053
:103AF00007E018F0080F2D4B2D4A08BF134646F873
:103B0000373008232370F4E415F0010F22D02A493E
:103B100002230B700022294B1A70294B244818608D
:103B2000284C5C6098602848D8601A619A610D2022
:103B3000264B1870FF23264803700838037018308E
:103B40000270244A13709F22234B1A7001230B70BA
:103B5000BDE8F88F15F0800F05D00D221B4B1A70B1
:103B60008022403B1A7015F0020F06D0184B1A78CD
:103B7000D2B21A700222083B1A7015F0100F0ED044
:103B80001022164B1A70BDE8F88F00200146FFF78F
:103B9000C3FBB1E628460021FFF7BEFBACE6BDE85B
:103BA000F88F00BF7493FF1F6C96FF1FC800400082
:103BB000880040004694FF1F94200740D893FF1FC1
:103BC0000080FF1F8893FF1FDC93FF1FC02007406A
:103BD000882007408C200740842007408020074031
:103BE00008B501F003FE00231B491A465A50C818B5
:103BF00042600833882BF9D1184B1A6842F48022AE
:103C00001A60154BC3F30721154A1170C3F307411E
:103C1000143211701B0E04321370FF23343A1370E8
:103C200008321370783A1370012384321370002124
:103C30006C3211707C3A137070220A4B1A704FF478
:103C40000072A3F241331A60102203F1C04303F55E
:103C5000C8231A7008BD00BF0080FF1F34800440D5
:103C60009C20074049E400E008B500F0C3F808BD17
:103C700008B500F073F808BD08B500F09BF808BD62
:103C800008B500F06DF908BD08B500F0C1F808BD31
:103C900008B5084600F058F908BD00BF08B5084649
:103CA000114600F0D1F808BD704700BF044B002258
:103CB0001A714FF47A7199601A73024A1A60704748
:103CC0005494FF1F28B4000072B60D4B1A68B2FA64
:103CD00082F30B2B02D962B6002070474FF00041EF
:103CE000D94022EA010206490A6062B6054903EB9F
:103CF000C303DB00C8180022CA504260704700BFEF
:103D00004089FF1F0084FF1F08B50F4BC31A0F4ADD
:103D1000A2FB03131B090B2B14D80D4A12783AB1DE
:103D20000C4A127812F0FF0F02D0FFF74DFB08BDCE
:103D300072B6094A4FF0004121FA03F311681943A2
:103D4000116062B608BD00BF0084FF1F398EE338E2
:103D50004694FF1F5094FF1F4089FF1F10B5134B5F
:103D60001B6853B9124B1B7813F0FF0F18D00320B8
:103D7000FFF7F6FA0D4B1860A8B10C4B1868438892
:103D80005A1C03441C7A03889A4206D3FFF7BCFFEF
:103D90000022064B1A60204610BD4280204610BD0E
:103DA0004FF0FF3010BD4FF0FF3010BD7094FF1F7B
:103DB0005094FF1F08B50D4B1B6883B90C4B1B7843
:103DC00013F0FF0F08D00320FFF7CAFA074B186063
:103DD00028B94FF0FF3008BD4FF0FF3008BD034B4E
:103DE0001B685A881344187A08BD00BF7094FF1FDF
:103DF0005094FF1F044B9888044B1B681BB11A8812
:103E00005B88D31A184470476C96FF1F7094FF1F8D
:103E100010B50B4B1B7813F0FF0F0FD0094B186830
:103E200020B1FFF771FF0022064B1A6003242046E1
:103E3000FFF796FA10B1FFF767FFF8E710BD00BF74
:103E40005094FF1F7094FF1F2DE9F84F0446012284
:103E5000384B1A708B46002965D00E46DFF8E0809B
:103E6000DFF8E0909A46344FD8F8003083BB99F8D9
:103E7000003013F0FF0F06D100222E4B1A704FF0C6
:103E8000FF30BDE8F88F48F601450420FFF786FAB9
:103E900007280AD801238AF80030FFF715FFC8F871
:103EA0000000A8B900238AF80030013D01D03B781A
:103EB00033B10122204B1A704FF0FF30BDE8F88F6C
:103EC00000F0A4F899F8003013F0FF0FDDD1D3E72C
:103ED00000233B70D8F800104A88C2F14005AE427A
:103EE00038BF354602F108030B442A444A80761B4A
:103EF0003DB1254414F8012B03F8012BAC42F9D154
:103F000000E025464B883F2B07D940230B80042037
:103F1000FFF79EFA0023C8F800300522074B1A70FD
:103F20000EB12C46A0E70022024B1A705846BDE89D
:103F3000F88F00BF6594FF1F6C94FF1F6494FF1FF0
:103F40006894FF1F5094FF1F00B583B002AB03F8C5
:103F5000010D18460121FFF777FF03B05DF804FB60
:103F600010B5144B1B7813F0FF0F21D00122124B18
:103F70001A70124B196851B10024114B1C704B88F8
:103F80000B800420FFF764FA0C4B1C600DE0FFF778
:103F90009BFE014630B10022094B1A700420FFF746
:103FA00057FA02E00122064B1A700022024B1A70E7
:103FB00010BD00BF5094FF1F6594FF1F6894FF1F42
:103FC0006494FF1F08B50E4B1B7813F0FF0F16D13A
:103FD0000C4B196841B14B880B800420FFF738FA6D
:103FE0000022084B1A6008BDFFF76EFE014618B1AB
:103FF0000420FFF72DFA08BD0122034B1A7008BDFB
:104000006594FF1F6894FF1F6494FF1F08B50F4B52
:104010001B78CBB901220D4B1A70FFF7EBFE08B1EC
:10402000FFF742FE00F074FC08B100F0A3F801F0C5
:1040300021F808B100F040F901F0EEFA08B100F003
:10404000DDF90022014B1A7008BD00BF7594FF1FF7
:1040500008B503681B68C9B2984708BD08B503686E
:104060001B68C9B2984708BD08B503681B68C9B288
:10407000984708BD08B503681B68C9B2984708BDD2
:1040800008B5044800EB5100B0FBF1F000F0C6F9B0
:1040900008BD00BF0044950810B51446054800EB64
:1040A0005100B0FBF1F000F0B9F9204600F01EFA23
:1040B00010BD00BF0044950808B500F047FA08BDE0
:1040C00008B5084600F07CFA08BD00BF08B50846F0
:1040D00000F0D0FA08BD00BF08B50846114600F050
:1040E0008BFA08BD08B5084600F0F0FA003018BF9A
:1040F000012008BD08B5084600F00AFB003018BFD3
:10410000012008BD08B500F003FC08BD08B500F0AB
:1041100049FC08BD08B500F00BFC08BD08B500F06F
:10412000D5FB08BD08B500F057FC08BD08B500F088
:10413000DDFB08BD08B5084600F016FB012008BDF0
:1041400008B5084600F010FB012008BD10B5144664
:104150000846114600F058FB204610BD38B50D4604
:10416000084603F027FA04462846214600F04CFB97
:10417000204638BD704700BF044B00221A714FF42F
:104180007A7199601A73024A1A6070477894FF1F17
:1041900050B4000008B503681B68C9B2984708BD51
:1041A00008B503681B68C9B2984708BD08B503681D
:1041B0001B68C9B2984708BD08B503681B68C9B237
:1041C000984708BD08B5044800EB5100B0FBF1F07A
:1041D00000F0B8FC08BD00BF0044950810B51446B7
:1041E000054800EB5100B0FBF1F000F0ABFC2046BD
:1041F00000F010FD10BD00BF0044950808B500F0A8
:1042000039FD08BD08B5084600F094FD08BD00BFA3
:1042100008B5084600F0E8FD08BD00BF08B508462F
:10422000114600F0A3FD08BD08B5084600F00AFEDF
:10423000003018BF012008BD08B5084600F024FE74
:10424000003018BF012008BD08B500F013FF08BDFD
:1042500008B500F059FF08BD08B500F01BFF08BD08
:1042600008B500F0E5FE08BD08B500F067FF08BD21
:1042700008B500F0EDFE08BD08B5084600F026FEC2
:10428000012008BD08B5084600F020FE012008BD49
:1042900010B514460846114600F068FE204610BDD1
:1042A00038B50D46084603F085F9044628462146F0
:1042B00000F05CFE204638BD704700BF044B002272
:1042C0001A714FF47A7199601A73024A1A60704732
:1042D0008894FF1FB0B4000008B503681B68C9B21A
:1042E000984708BD08B503681B68C9B2984708BD60
:1042F00008B503681B68C9B2984708BD08B50368CC
:104300001B68C9B2984708BD08B5044800EB5100C6
:10431000B0FBF1F000F0C8FF08BD00BF00A24A04E6
:1043200010B51446054800EB5100B0FBF1F000F069
:10433000BBFF204600F0FAFF10BD00BF00A24A04F8
:1043400008B501F023F808BD08B5084601F058F893
:1043500008BD00BF08B5084601F09AF808BD00BFC7
:1043600008B50846114601F067F808BD08B50846CB
:1043700001F090F8003018BF012008BD08B50846CC
:1043800001F0AAF8003018BF012008BD08B501F0FF
:1043900043F908BD08B501F089F908BD08B501F079
:1043A0004BF908BD08B501F015F908BD08B501F0D5
:1043B00097F908BD08B501F01DF908BD08B5084614
:1043C00001F0ACF8012008BD08B5084601F0A6F8D8
:1043D000012008BD10B514460846114601F0EEF85C
:1043E000204610BD38B50D46084603F0E3F80446F4
:1043F0002846214601F0E2F8204638BD704700BF4C
:10440000044B00221A714FF47A7199601A73024AB0
:104410001A6070479894FF1F10B50000254B1A686A
:1044200042F480621A600023234A1370234A1370F7
:10443000234A1370234A1370234A1370234B1B78AB
:1044400013B1152B05D008E040F21332204B1A604F
:1044500003E040F213321F4B1A601F4B1B78012BF5
:1044600002D0052B05D008E04FF451721B4B1A60A7
:1044700003E04FF451721A4B1A60C0F34432194BE7
:104480001A70C0F347125A7000F01F00987204228D
:104490009A700221D9745A7588221A743C22DA70F3
:1044A0004022114B1A704FF40052A3F229331A60C4
:1044B000704700BF348004403495FF1FAD94FF1F48
:1044C0003C95FF1F3595FF1FAC94FF1FF094FF1F15
:1044D00040A0044018C004404489FF1F44A0044089
:1044E0001CC0044000A006402DE400E0164B9B7861
:1044F00003F0EC0300F00302134310F0040F18BFA5
:1045000043F01003104A937000F00F03042B04D102
:104510001346927942F040029A710B4B5A7902F09D
:10452000EF0210F0100F18BF42F01002064B5A7144
:104530009B7903F0EF0310F0200F18BF43F0100336
:10454000014A9371704700BF00A0064010B5144B9C
:104550001B6813F4806F21D0124B1B7813F0FF0FF0
:1045600006D0104CFFF752FD237813F0FF0FF9D15E
:104570004FF400520C4B1A6000230C4AD37040F2E7
:1045800003120B490A6004310A600A4A13700A4A8E
:1045900013700A4B1B680BB101221A7010BD00BFCB
:1045A00034800440AC94FF1F84E100E000A006408A
:1045B00040A004403495FF1FAD94FF1FA894FF1F37
:1045C00010B50446094A137813F0FF0FFBD12046BB
:1045D0000121FEF753FC20460021FEF71DFC044B91
:1045E00053F83420034B1A6010BD00BFAC94FF1F7A
:1045F00010B300003895FF1F10B40C4609B140F00D
:104600008000184B1B78984228D0174A126812F481
:10461000806F21D003F07F03012B02D0052B04D043
:1046200006E00022114B1A6002E00022104B1A60D3
:10463000002C0CBF4422602200F07F03012B02D02B
:10464000052B05D008E042F44072084B1A6003E0E5
:1046500042F44072064B1A60024B18705DF8044B2E
:10466000704700BF4489FF1F3480044044A00440C9
:104670001CC00440114B1B7898421ED0104A12688F
:1046800012F4806F17D013B1152B04D006E000226E
:104690000C4B1A6002E000220B4B1A6010B1152877
:1046A00005D008E040F21332064B1A6003E040F2F6
:1046B0001332054B1A60014B18707047F094FF1FBE
:1046C0003480044040A0044018C0044010B50D4B95
:1046D0001B6813F4806F12D021280CD80A4C0B4BA6
:1046E00053F8303023600121FEF7C8FB2368002215
:1046F0001A70012010BD0020034B186010BD00206F
:1047000010BD00BF34800440A894FF1F10B3000008
:10471000114B1B6813F4806F1BD0122804D140F298
:1047200002320E4B1A600DE0142804D140F202321E
:104730000B4B1A6006E00B4B5A7B02F0FE025A73D9
:1047400000207047074B5A7B42F001025A73012048
:1047500070470020704700BF348004400CA0044024
:1047600014C0044000A006402DE9F04107461F4B4D
:104770001B6813F4806F37D01D4B1B680BB10122EF
:104780001A701C4B1C780134402C28BF00241A4D91
:104790001A4EDFF86C8017E0FEF758F940280FDC5E
:1047A000337913F0800F0FD02B780133402B28BFC3
:1047B000002318F80320D2B2F271DBB22B7003E0B1
:1047C000FF2801DDFFF722FC2B78DBB29C42E3D00F
:1047D000FFB20B4B1F5501220A4B1A70E4B2054B76
:1047E0001C70BC22054BDA70BDE8F08134800440B7
:1047F0003895FF1F3C95FF1F3595FF1F00A0064011
:10480000B094FF1FAC94FF1F2DE9F84F0746284BCB
:104810001B6813F4806F49D0264B1B680BB1012233
:104820001A7007EB010B5F453DD2DFF89890224EDE
:10483000DFF88C80DFF890A099F800400134402C1C
:1048400028BF00243578EDB2A54220D1BC2388F8DA
:104850000330FEF7FBF8402811DC98F8043013F021
:10486000800F10D033780133402B28BF00231AF873
:104870000320D2B288F80720DBB2337003E0FF28B0
:1048800001DDFFF7C3FB3378DBB29D42E1D017F8BF
:10489000013B0AF804300122084B1A70E4B289F88F
:1048A00000405F45C8D1BC22054BDA70BDE8F88FE7
:1048B000348004403895FF1F3595FF1FAC94FF1FCF
:1048C00000A006403C95FF1FB094FF1F10B5064B9B
:1048D0001B7813F0FF0F06D0034CFFF797FB2378EC
:1048E00013F0FF0FF9D110BDAC94FF1F064B1B78DE
:1048F000DBB2064A1278D2B293422CBF3F3202F1A9
:10490000FF32D01A704700BF3C95FF1F3595FF1F3F
:10491000054B1878C0B2054B1B78DBB2984238BF04
:104920004030C01A704700BF3495FF1FAD94FF1F81
:1049300010B4184B1A78D2B2174B1B78DBB29A42DC
:1049400018D001333F2B18D81449C85CC0B2DCB270
:1049500011490C7012490968C9B19A4203D300E0A9
:104960000023D31A01E04032D31A1A2B0FDC0023A4
:104970000B700CE04FF0FF3009E0084B1878C0B224
:104980000021054B1970064B19680029E8D15DF824
:10499000044B70473495FF1FAD94FF1FF494FF1F25
:1049A000A894FF1F094B1A78D2B2094B1B78DBB2CF
:1049B0009A4207D00133402B28BF0023054AD05C20
:1049C000C0B270474FF0FF30704700BF3495FF1FF3
:1049D000AD94FF1FF494FF1F0D4B1B6813F4806F01
:1049E00014D00C4BDA7802F0CB02DA7040225A7401
:1049F000DA7842F03402DA70074B1A78D2B2074BF9
:104A00001A70074B1B680BB100221A70704700BF69
:104A10003480044000A00640AD94FF1F3495FF1F72
:104A2000A894FF1F70B43D4B1B7913F0300F33D0A7
:104A300072B63A4B9B7D03F0FF022BB9374BDA7904
:104A400040225A7462B627E062B6354B1978C9B273
:104A5000344B1C78E4B2314D334EEB79D8B24B1C59
:104A6000402B28BF0023A3421CBFF0541946531EFD
:104A700013F0FF02F1D1CAB2294B1A702B4B1B68FD
:104A800053B1A1422EBFC4EB0101C4F14004091986
:104A90002729C4BF01221A70204BDA78D2B212F053
:104AA000800F27D01B7913F0800F23D0204B1C7868
:104AB000E4B2204B1B78DBB29C4210D017491E4D4C
:104AC00001E0A3420BD00133402B28BF002308791B
:104AD000E85CC0B2C871087DC0B20728F1D9DBB26A
:104AE00014490B700D4B1B7913F0800F02D07C2101
:104AF0000A4BD97012F0400F0ED0084B1B7913F0FF
:104B0000400F09D000220D4B1A700D4B1B6803B1EA
:104B10001A703C22014BDA7070BC704700A006404E
:104B20003495FF1FAD94FF1FF494FF1FA894FF1F3F
:104B30003C95FF1F3595FF1FB094FF1FAC94FF1FDE
:104B40003895FF1F254B1A6842F400621A60002353
:104B5000234A1370234A1370234A1370234A137095
:104B6000234A1370234B1B78092B02D01A2B05D034
:104B700008E040F21332204B1A6003E040F2133297
:104B80001E4B1A601E4B1B780A2B02D01F2B05D020
:104B900008E04FF451721B4B1A6003E04FF451725E
:104BA000194B1A60C0F34432184B1A70C0F3471205
:104BB0005A7000F01F00987204229A700221D97472
:104BC0005A7588221A743C22DA704022104B1A70EF
:104BD0004FF40042A3F22B331A6070473480044034
:104BE000B095FF1F4595FF1FB895FF1FB195FF1F9B
:104BF0004495FF1F4589FF1F0CB0044004D00440BA
:104C00004689FF1F10B0044000D0044000B00640A9
:104C10002FE400E0164B9B7803F0EC0300F0030256
:104C2000134310F0040F18BF43F01003104A9370A1
:104C300000F00F03042B04D11346927942F0400296
:104C40009A710B4B5A7902F0EF0210F0100F18BF57
:104C500042F01002064B5A719B7903F0EF0310F0FB
:104C6000200F18BF43F01003014A9371704700BF33
:104C700000B0064010B5224B1B6813F4006F3ED005
:104C8000204B1B7813F0FF0F06D01E4CFFF7BEF928
:104C9000237813F0FF0FF9D14FF400421A4B1A603A
:104CA00000221A4BDA701A4B1B78092B02D01A2BF0
:104CB00005D008E040F20312164B1A6003E040F200
:104CC0000312154B1A60154B1B7803F07F030A2B58
:104CD00002D01F2B05D008E040F20312104B1A60DF
:104CE00003E040F203120F4B1A6000230E4A1370C8
:104CF0000E4A13700E4B1B680BB101221A7010BDC7
:104D0000348004404495FF1F84E100E000B0064079
:104D10004589FF1F0CB0044004D004404689FF1FA2
:104D200010B0044000D00440B095FF1F4595FF1F10
:104D30004095FF1F10B50446094A137813F0FF0F82
:104D4000FBD120460121FEF799F820460021FEF70D
:104D500063F8044B53F83420034B1A6010BD00BFB6
:104D60004495FF1F10B30000B495FF1F10B40C460C
:104D700009B140F08000184B1B78984228D0174AA0
:104D8000126812F4006F21D003F07F030A2B02D0C7
:104D90001F2B04D006E00022114B1A6002E0002213
:104DA000104B1A60002C0CBF4422602200F07F03DD
:104DB0000A2B02D01F2B05D008E042F44072084BAA
:104DC0001A6003E042F44072064B1A60024B1870FE
:104DD0005DF8044B704700BF4689FF1F34800440D4
:104DE00010B0044000D00440124B1B78984220D0F1
:104DF000114A126812F4006F19D0092B02D01A2B35
:104E000004D006E000220D4B1A6002E000220C4B99
:104E10001A60092802D01A2805D008E040F213329F
:104E2000064B1A6003E040F21332054B1A60014B47
:104E3000187070474589FF1F348004400CB004404F
:104E400004D0044010B50D4B1B6813F4006F12D052
:104E500021280CD80A4C0B4B53F830302360012129
:104E6000FEF70CF8236800221A70012010BD002004
:104E7000034B186010BD002010BD00BF34800440FB
:104E80004095FF1F10B300000D4B1B6813F4006F1B
:104E900013D017280AD140F202320A4B1A600A4B8B
:104EA0005A7B42F001025A7301207047064B5A7B2D
:104EB00002F0FE025A73002070470020704700BFC6
:104EC0003480044008B0044000B006402DE9F041B1
:104ED00007461F4B1B6813F4006F37D01D4B1B6830
:104EE0000BB101221A701C4B1C780134282C28BFEE
:104EF00000241A4D1A4EDFF86C8017E0FDF7A6FD6E
:104F000040280FDC337913F0800F0FD02B7801335A
:104F1000282B28BF002318F80320D2B2F271DBB28D
:104F20002B7003E0FF2801DDFFF770F82B78DBB270
:104F30009C42E3D0FFB20B4B1F5501220A4B1A7063
:104F4000E4B2054B1C70BC22054BDA70BDE8F08161
:104F500034800440B495FF1FB895FF1FB195FF1F23
:104F600000B006404895FF1F4495FF1F2DE9F84FFC
:104F70000746284B1B6813F4006F49D0264B1B686B
:104F80000BB101221A7007EB010B5F453DD2DFF830
:104F90009890224EDFF88C80DFF890A099F80040BE
:104FA0000134282C28BF00243578EDB2A54220D149
:104FB000BC2388F80330FDF749FD402811DC98F840
:104FC000043013F0800F10D033780133282B28BF22
:104FD00000231AF80320D2B288F80720DBB233701E
:104FE00003E0FF2801DDFFF711F83378DBB29D42C3
:104FF000E1D017F8013B0AF804300122084B1A707F
:10500000E4B289F800405F45C8D1BC22054BDA7094
:10501000BDE8F88F34800440B495FF1FB195FF1FA1
:105020004495FF1F00B00640B895FF1F4895FF1F2D
:1050300010B5064B1B7813F0FF0F06D0034CFEF79C
:10504000E5FF237813F0FF0FF9D110BD4495FF1F42
:10505000064B1B78DBB2064A1278D2B293422CBFC1
:10506000273202F1FF32D01A704700BFB895FF1FF8
:10507000B195FF1F054B1878C0B2054B1B78DBB20A
:10508000984238BF4030C01A704700BFB095FF1F2C
:105090004595FF1F10B4184B1A78D2B2174B1B78E6
:1050A000DBB29A4218D001333F2B18D81449C85CA0
:1050B000C0B2DCB211490C7012490968C9B19A42F8
:1050C00003D300E00023D31A01E04032D31A1A2B95
:1050D0000FDC00230B700CE04FF0FF3009E0084BB1
:1050E0001878C0B20021054B1970064B19680029C9
:1050F000E8D15DF8044B7047B095FF1F4595FF1F41
:105100007095FF1F4095FF1F094B1A78D2B2094BCB
:105110001B78DBB29A4207D00133402B28BF002313
:10512000054AD05CC0B270474FF0FF30704700BFF7
:10513000B095FF1F4595FF1F7095FF1F0D4B1B6816
:1051400013F4006F14D00C4BDA7802F0CB02DA7053
:1051500040225A74DA7842F03402DA70074B1A7837
:10516000D2B2074B1A70074B1B680BB100221A70A2
:10517000704700BF3480044000B006404595FF1FD3
:10518000B095FF1F4095FF1F70B43D4B1B7913F086
:10519000300F33D072B63A4B9B7D03F0FF022BB930
:1051A000374BDA7940225A7462B627E062B6354B43
:1051B0001978C9B2344B1C78E4B2314D334EEB79D7
:1051C000D8B24B1C402B28BF0023A3421CBFF05475
:1051D0001946531E13F0FF02F1D1CAB2294B1A70BF
:1051E0002B4B1B6853B1A1422EBFC4EB0101C4F18C
:1051F000400409192729C4BF01221A70204BDA780C
:10520000D2B212F0800F27D01B7913F0800F23D079
:10521000204B1C78E4B2204B1B78DBB29C4210D0B0
:1052200017491E4D01E0A3420BD00133282B28BFA4
:1052300000230879E85CC0B2C871087DC0B20728B5
:10524000F1D9DBB214490B700D4B1B7913F0800FB1
:1052500002D07C210A4BD97012F0400F0ED0084BBF
:105260001B7913F0400F09D000220D4B1A700D4B23
:105270001B6803B11A703C22014BDA7070BC704796
:1052800000B00640B095FF1F4595FF1F7095FF1FAA
:105290004095FF1FB895FF1FB195FF1F4895FF1F51
:1052A0004495FF1FB495FF1F174B1A6842F48052B4
:1052B0001A600023154A1370154A1370154A1370AB
:1052C000154A1370154A137040F21331144A1160D5
:1052D0004FF4517104321160C0F34431114A11701E
:1052E000C0F34711517000F01F0090729370137457
:1052F0002C23D37040220C4B1A704FF40032A3F2CF
:105300002D331A60704700BF348004402C96FF1F75
:10531000C195FF1F3496FF1F2D96FF1FC095FF1FDD
:1053200008C0044000C0064031E400E0164B9B7802
:1053300003F0EC0300F00302134310F0040F18BF56
:1053400043F01003104A937000F00F03042B04D1B4
:105350001346927942F040029A710B4B5A7902F04F
:10536000EF0210F0100F18BF42F01002064B5A71F6
:105370009B7903F0EF0310F0200F18BF43F01003E8
:10538000014A9371704700BF00C0064010B5144B2E
:105390001B6813F4805F21D0124B1B7813F0FF0FB2
:1053A00006D0104CFEF732FE237813F0FF0FF9D130
:1053B0004FF400320C4B1A6000230C4AD37040F2B9
:1053C00003120B490A6004310A600A4A13700A4A40
:1053D00013700A4B1B680BB101221A7010BD00BF7D
:1053E00034800440C095FF1F84E100E000C0064007
:1053F00008C004402C96FF1FC195FF1FBC95FF1FDE
:1054000010B50446094A137813F0FF0FFBD120466C
:105410000121FDF733FD20460021FDF7FDFC044B83
:1054200053F83420034B1A6010BD00BFC095FF1F16
:1054300010B300003096FF1F10B40C4609B140F0C5
:105440008000104B1B78984219D00F4A126812F452
:10545000805F12D003F07F03082B02D100220B4B98
:105460001A60002C0CBF4422602200F07F03082B3E
:1054700003D142F44072054B1A60024B18705DF87C
:10548000044B70474789FF1F348004400CC0044020
:10549000704700BF10B50D4B1B6813F4805F12D02E
:1054A00021280CD80A4C0B4B53F8303023600121D3
:1054B000FDF7E4FC236800221A70012010BD0020D3
:1054C000034B186010BD002010BD00BF34800440A5
:1054D000BC95FF1F10B300000D4B1B6813F4805FD9
:1054E00013D00E280AD140F202320A4B1A600A4B3E
:1054F0005A7B42F001025A7301207047064B5A7BD7
:1055000002F0FE025A73002070470020704700BF6F
:105510003480044004C0044000C006402DE9F0413E
:1055200007461F4B1B6813F4805F37D01D4B1B6869
:105530000BB101221A701C4B1C780134282C28BF97
:1055400000241A4D1A4EDFF86C8017E0FDF77EFA42
:1055500040280FDC337913F0800F0FD02B78013304
:10556000282B28BF002318F80320D2B2F271DBB237
:105570002B7003E0FF2801DDFEF748FD2B78DBB23E
:105580009C42E3D0FFB20B4B1F5501220A4B1A700D
:10559000E4B2054B1C70AC22054BDA70BDE8F0811B
:1055A000348004403096FF1F3496FF1F2D96FF1F56
:1055B00000C00640C495FF1FC095FF1F38B50546C3
:1055C0000C4629B115F8010BFFF7A8FF013CF9D1F2
:1055D00038BD00BF10B5064B1B7813F0FF0F06D087
:1055E000034CFEF713FD237813F0FF0FF9D110BD24
:1055F000C095FF1F064B1B78DBB2064A1278D2B269
:1056000093422CBF273202F1FF32D01A704700BFFD
:105610003496FF1F2D96FF1F054B1878C0B2054B1F
:105620001B78DBB2984238BF4030C01A704700BFC9
:105630002C96FF1FC195FF1F10B4184B1A78D2B2D9
:10564000174B1B78DBB29A4218D001333F2B18D886
:105650001449C85CC0B2DCB211490C701249096827
:10566000C9B19A4203D300E00023D31A01E04032CB
:10567000D31A1A2B0FDC00230B700CE04FF0FF3015
:1056800009E0084B1878C0B20021054B1970064B91
:1056900019680029E8D15DF8044B70472C96FF1F6C
:1056A000C195FF1FEC95FF1FBC95FF1F094B1A7892
:1056B000D2B2094B1B78DBB29A4207D00133402BA0
:1056C00028BF0023054AD05CC0B270474FF0FF30BE
:1056D000704700BF2C96FF1FC195FF1FEC95FF1F61
:1056E000054B1A78D2B2054B1A70054B1B680BB1EB
:1056F00000221A70704700BFC195FF1F2C96FF1F34
:10570000BC95FF1F2F4B1B7913F0200F23D02D4B7F
:10571000DB79D9B22C4B1B780133402B28BF0023F7
:105720002A4A1278D2B29A4204D0294AD154D9B224
:10573000254A1170274A116869B1274A1278D2B2F6
:1057400093422EBFC2EB0303C2F140029B18272BEA
:10575000C4BF01230B701B4BDB78DBB213F0800F4F
:105760001CD0184A127912F0800F17D01B4A1178FA
:10577000C9B2194A1278D2B2914203D16C21114AAE
:10578000D1700BE00132282A28BF00221449885C1E
:10579000C0B20C49C871D2B20F490A7013F0400F61
:1057A0000ED0084B1B7913F0400F09D000220D4B8F
:1057B0001A700D4B1B6803B11A702C22014BDA7062
:1057C000704700BF00C006402C96FF1FC195FF1F09
:1057D000EC95FF1FBC95FF1F2D96FF1F3496FF1FF2
:1057E000C495FF1FC095FF1F3096FF1F00B585B001
:1057F00072B61B4B70221A7041211A4A11700F2188
:10580000013A117080221A701A46137813F0800F33
:10581000FBD0154B186862B6144B98429CBF00EB46
:105820008000400001A90A22FDF738F99DF80430F4
:105830007BB908E001A9595C31B191800232013392
:105840000A2BF7D100E0002301335B00084A1370F4
:1058500003E0074A53800123ECE705B05DF804FB41
:105860000000024007000240080002407F969800B6
:10587000D489FF1F31F0004310B408D00F4AA3F5BC
:10588000801494420AD804205DF8044B7047002825
:105890000CBF022003205DF8044B7047B3F5801F56
:1058A00001D20320F7E7064A934201D00020F2E735
:1058B000D0F1010038BF0020EDE700BFFFFFDF7F20
:1058C0000000F07F81F0004102E000BF83F0004360
:1058D00030B54FEA41044FEA430594EA050F08BF8B
:1058E00090EA020F1FBF54EA000C55EA020C7FEA4F
:1058F000645C7FEA655C00F0E2804FEA5454D4EBCC
:105900005555B8BF6D420CDD2C4480EA020281EA95
:10591000030382EA000083EA010180EA020281EACD
:105920000303362D88BF30BD11F0004F4FEA01311F
:105930004FF4801C4CEA113102D0404261EB41012E
:1059400013F0004F4FEA03334CEA133302D05242B4
:1059500063EB430394EA050F00F0A780A4F1010470
:10596000D5F1200E0DDB02FA0EFC22FA05F28018AA
:1059700041F1000103FA0EF2801843FA05F3594190
:105980000EE0A5F120050EF1200E012A03FA0EFC0F
:1059900028BF4CF0020C43FA05F3C01851EBE37139
:1059A00001F0004507D54FF0000EDCF1000C7EEB56
:1059B00000006EEB0101B1F5801F1BD3B1F5001F94
:1059C0000CD349085FEA30004FEA3C0C04F10104B3
:1059D0004FEA445212F5800F80F09A80BCF1004FDC
:1059E00008BF5FEA500C50F1000041EB045141EA5E
:1059F000050130BD5FEA4C0C404141EB010111F45F
:105A0000801FA4F10104E9D191F0000F04BF014609
:105A10000020B1FA81F308BF2033A3F10B03B3F1E7
:105A200020020CDA0C3208DD02F1140CC2F10C0277
:105A300001FA0CF021FA02F10CE002F11402D8BFD5
:105A4000C2F1200C01FA02F120FA0CFCDCBF41EAA1
:105A50000C019040E41AA2BF01EB0451294330BD70
:105A60006FEA04041F3C1CDA0C340EDC04F114044D
:105A7000C4F1200220FA04F001FA02F340EA030024
:105A800021FA04F345EA030130BDC4F10C04C4F16A
:105A9000200220FA02F001FA04F340EA030029464A
:105AA00030BD21FA04F0294630BD94F0000F83F494
:105AB000801306BF81F480110134013D4EE77FEA77
:105AC000645C18BF7FEA655C29D094EA050F08BFC3
:105AD00090EA020F05D054EA000C04BF19461046A4
