:1000000000800020BD010000152E0000D92D000049
:10001000D92D0000D92D0000D92D0000D92D0000C8
:10002000D92D0000D92D0000D92D0000152E00007B
:10003000152E0000D92D0000152E0000C92D00003E
:10004000152E0000152E0000152E0000152E0000A4
:10005000152E0000152E0000152E0000152E000094
:10006000152E0000152E0000152E0000152E000084
:10007000152E0000152E0000152E0000152E000074
:10008000152E0000152E0000152E0000152E000064
:10009000152E0000152E0000152E0000152E000054
:1000A00045160000152E0000152E0000152E00002C
:1000B000152E0000152E0000152E0000152E000034
:1000C000152E0000152E0000152E0000152E000024
:1000D000152E0000152E0000152E0000152E000014
:1000E000152E0000152E0000152E0000152E000004
:1000F000152E0000194E0000152E00007D55000041
:10010000152E0000F95A0000152E0000152E0000D3
:10011000152E0000152E0000152E0000152E0000D3
:10012000152E0000152E0000152E0000152E0000C3
:10013000152E0000152E0000152E0000152E0000B3
:10014000152E0000152E0000152E0000152E0000A3
:100150000D220000252200003D2200005522000053
:10016000152E0000D5380000152E0000152E0000B9
:10017000152E0000152E0000152E0000152E000073
:10018000152E0000152E0000152E0000152E000063
:10019000152E0000152E0000152E0000152E000053
:1001A000152E0000152E0000152E0000152E000043
:1001B000152E0000152E0000152E0000574B4CF296
:1001C000205210B51A804DF628121A8000BF00BFC9
:1001D00002F024FE524B4FF010621A60514A9A60AE
:1001E000514ADA60A3F53043203B1A6812F480725A
:1001F00004D14E490A604FF4A8521A604C4B1A7849
:10020000110703D51A7842F008021A70494B4A4C7C
:100210004A482A221A704A4A00239918A14203D256
:10022000195899500433F8E7464B474900228B424E
:1002300002D243F8042BFAE74448454900235A58B0
:100240001A500433B3F5DE7FF9D1424B424A802184
:1002500003F8011B9342FBD1404B3C4A1A60404BD0
:100260008A221A70A3F5805324225A70A0221A7091
:100270009A799207FCD59A79D406FCD4394A9379B5
:1002800003F00C03082B374BF9D105221A714322D6
:100290005A719A799006FCD5324A9179314B4906C8
:1002A000FBD5314A4FF08171116005215160202248
:1002B0001A709A7902F00C020C2AFAD12B4B2C4AB4
:1002C0001A602C4B2C4A1A6000225A60072243F80D
:1002D000042C2A4AC3F80C2D62B603F0BBF9134B69
:1002E0001B68DA0705D5264802F080FF254B264A11
:1002F0001A60264B1B785B0609D5224C224A2368DC
:10030000934204D11E4802F071FF0023236006F0DF
:10031000C1FC02F089FD02F0B5FCFEE70E200540AD
:1003200030800440823F04000100002B14D00340C1
:1003300002D0074000E007403892FF1F6CA1000088
:100340006087FF1F3892FF1F6496FF1F0082FF1F08
:100350000000000000E400E05FE400E008ED00E0E1
:1003600000500640004006404480044004800440A1
:10037000C010050014E000E03F190100000020203B
:100380002076CD581CE00340A5C3945A00F00740E6
:10039000FFFFFFFFFFFFFFFFFFFFFFFFFFFFFFFF6D
:1003A000FFFFFFFFFFFFFFFFFFFFFFFFFFFFFFFF5D
:1003B000FFFFFFFFFFFFFFFFFFFFFFFFFFFFFFFF4D
:1003C000FFFFFFFFFFFFFFFFFFFFFFFFFFFFFFFF3D
:1003D000FFFFFFFFFFFFFFFFFFFFFFFFFFFFFFFF2D
:1003E000FFFFFFFFFFFFFFFFFFFFFFFFFFFFFFFF1D
:1003F000FFFFFFFFFFFFFFFFFFFFFFFFFFFFFFFF0D
:10040000FFFFFFFFFFFFFFFFFFFFFFFFDEF9FFFF23
:1004100010B5054C237833B9044B13B10448AFF33E
:1004200000800123237010BD3892FF1F00000000E0
:100430006CA1000008B5064B1BB106480649AFF396
:1004400000800648036813B1054B03B1984708BD07
:10045000000000006CA100003C92FF1F3892FF1FBB
:1004600000000000014B0360704700BFD09A0000FD
:10047000704700BF014B0360704700BFD09A000077
:10048000014B0360704700BFD09A0000014B03602E
:10049000704700BFD09A000010B50446024B0360BD
:1004A00002F0F2FC204610BDD09A000010B50446C0
:1004B000024B036002F0E8FC204610BDD09A000019
:1004C00010B50446024B036002F0DEFC204610BD6E
:1004D000D09A000010B50446024B036002F0D4FC31
:1004E000204610BDD09A000010B5044601F078FEF9
:1004F000204610BDFFFFFFFF2DE9F04F8FB0082011
:1005000002F0E4FA0C2002F0BBFC04460F2110229A
:10051000112300F0E9FC524B1C60012002F0B0FCFA
:1005200004464FF0010ACDF800A00C2301930321EB
:100530000222002300F032FF4A4F3C6000F04CFFE3
:10054000782002F09DFC80463B680024464DCDE9B2
:100550000045002202921521142200F0EDFA434ECC
:10056000C6F80080782002F08BFC80463B68CDE91D
:100570000045CDF808A01621172200F0DDFADFF8BB
:1005800000B1CBF80080306800F01CFB306800241C
:10059000374D4FF00008DFF8EC90CDE900892EA729
:1005A000D7E90067CDE9026722462B4600F0FEFA44
:1005B000DBF8000000F006FBDBF80000CDE9008965
:1005C000CDE9026722462B4600F0F0FA0D20514695
:1005D00002F04EFE0A240D26574664253046394661
:1005E00002F014FE284603F01FF83046002102F006
:1005F0000DFE284603F018F8013CEFD10D20012133
:1006000002F004FE4FF47A7003F00EF81424002573
:10061000184F6426384605A901F096FC28460C9927
:1006200005F0EAFF0546304602F0FEFF013CF1D13D
:100630002846114906F09CF9104B18600D20002146
:1006400002F0E4FD4FF47A7002F0EEFF0FB0BDE867
:10065000F08F00BFAFF30080000000403333D33F82
:100660005492FF1FB492FF1F000059408492FF1F55
:1006700000003E405892FF1F0000A0417092FF1FF3
:10068000A892FF1F0000F03FF0B58BB00D200121B4
:1006900002F0BCFD0A2400250D4F0F26384601A9A3
:1006A00001F052FC2846089905F0A6FF05463046A1
:1006B00002F0BAFF013CF1D12846064906F058F98C
:1006C000054B18600D20002102F0A0FD0BB0F0BD1D
:1006D0005892FF1F000020417092FF1F2DE9F0414A
:1006E000EEB0AE480DA901F02FFCAD4B1B68009396
:1006F000009806F031F80546AA4E316805F07AFFF9
:1007000004463560A84E1498A84B196805F072FF8E
:10071000A74906F079F8214606F076F8A54906F0D3
:1007200027F9316805F068FF3060204606F048FA86
:100730000446A14B1868214600F002FB9F4B186845
:10074000214600F0FDFA03F04FFD002800F08981FA
:1007500001A89B49782201F009FF1AA8994901F0E4
:100760006DFF01A81AA902F069F8421C16A801A998
:1007700002F08EF801A816A901F092FF16A801F068
:1007800011FF1AA801F00EFF8F4C22A8214601F09C
:1007900055FF01A822A902F051F803461EA801A99D
:1007A000002202F051F81EA802F07AF880461EA836
:1007B00001F0F8FE22A801F0F5FE26A8214601F07E
:1007C0003DFF01A826A902F039F8421C05A801A99D
:1007D00002F05EF826A801F0E5FE2EA8214601F001
:1007E0002DFF05A82EA902F029F803462AA805A97D
:1007F000002202F029F82AA802F052F807462AA897
:1008000001F0D0FE2EA801F0CDFE32A8214601F065
:1008100015FF05A832A902F011F8421C09A805A984
:1008200002F036F832A801F0BDFE3AA8674901F09F
:1008300005FF09A83AA902F001F8034636A809A95C
:10084000002202F001F809A836A901F029FF36A814
:1008500001F0A8FE3AA801F0A5FE09A802F020F8D0
:100860000446554B1E68404605F078FB02460B4691
:10087000304600F037FA514B1E68384605F06EFBE3
:1008800002460B46304600F02DFA0D20E1B202F090
:10089000BDFC012C05D1FFF7F7FE0D20002102F071
:1008A000B5FC3EA84A4901F0C9FE4A4E306800F046
:1008B000AFFC014642A80A2201F00CFF3EA842A963
:1008C00001F088FF01463E4C204601F0CFFC204657
:1008D00001F0F2FC42A801F065FE3EA801F062FEC4
:1008E00046A83D4901F0AAFE306800F055FC0146DB
:1008F0004AA80A2201F0EEFE46A84AA901F06AFFC2
:100900000146204601F0B2FC204601F0D5FC4AA881
:1009100001F048FE46A801F045FE4EA82F4901F01F
:100920008DFE306800F056FC014652A80A2201F004
:10093000D1FE4EA852A901F04DFF0146204601F01C
:1009400095FC204601F0B8FC52A801F02BFE4EA801
:1009500001F028FE56A8224901F070FE5AA8124B59
:100960001968022201F0DEFE56A85AA901F032FFF2
:100970000146204601F07AFC204601F09DFC5AA871
:1009800001F010FE56A801F00DFE5EA8154901F019
:1009900055FE094B186800F03BF925E05892FF1FFF
:1009A0004C93FF1FBC92FF1FB892FF1F7092FF1F56
:1009B000E12E654200007A448492FF1FA892FF1F37
:1009C0003494FF1F509B0000549B0000589B000074
:1009D0005C9B00005492FF1F609B0000649B000022
:1009E000689B00006C9B0000014662A80A2201F08F
:1009F00085FE5EA862A901F0EDFE0146204601F0E9
:100A000035FC204601F058FC62A801F0CBFD5EA841
:100A100001F0C8FD66A81D4901F010FE1C4B1868C6
:100A200000F0F6F801466AA80A2201F067FE66A8FF
:100A30006AA901F0CFFE0146204601F017FC2046CE
:100A400001F03AFC6AA801F0ADFD66A801F0AAFD2C
:100A500009A801F0A7FD05A801F0A4FD01A801F077
:100A6000A1FD0C4B1B680993099805F075FE2946FA
:100A700005F0C0FD0146084805F0BCFD06F0C6F8CB
:100A800002F0D2FD6EB0BDE8F08100BF709B0000A7
:100A9000A892FF1F4C93FF1F0000A040F8B51B4811
:100AA00001F09AFB1A4D284647F25D6100F0CEFF37
:100AB000184C28461849224606F0C8F8174D284613
:100AC00047F25E6100F0CCFF28461549224606F049
:100AD000BDF8144D2846142101F018FA2846124991
:100AE000224606F0B3F811480027076080260671F9
:100AF0000F4D2946224606F0A9F80E4807600671F8
:100B00002946224606F0A2F8F8BD00BF8892FF1FD2
:100B10007492FF1F3C88FF1F750400008C92FF1F1A
:100B2000810400005892FF1F8D040000AC92FF1F4B
:100B3000E9040000A092FF1F2DE9F0418046DDE9A5
:100B400006674160826000240025C0E90445C0E9D1
:100B5000064500224263C0E90E45C0E91045C0E9E0
:100B60001245C0E91445C0E91645C0E91845C0E979
:100B70001A4580F8702080F8712080F87220C0E952
:100B800008670360089B0363C0E90445C0E90645A4
:100B9000304639460022044B05F046FAC8E90A01FE
:100BA0004046BDE8F08100BF00002840C0E91623A0
:100BB000DDE90023C0E91823DDE90223C0E91A2397
:100BC000704700BF38B504460079012102F050FBA0
:100BD000207A012102F04CFB2079002102F016FB63
:100BE000207A002102F012FB074D2B685B68284633
:100BF000064909229847284601F05EFB002200239F
:100C0000C4E9042338BD00BF3494FF1F749B000067
:100C100008B5006B00F038FC08BD00BFF8B506460B
:100C200014461D460079012102F022FB307A012191
:100C300002F01EFB2046294605F090FC05F08EF9D7
:100C400004460D46C6E9064596F871301BB101F120
:100C5000004304461D46204629460022002305F095
:100C600073FCF0B196F872306BB1377920462946A3
:100C700005F074FC0146384602F0BAFB307A0121D7
:100C800002F0C4FAF8BD3079002102F0BFFA367ADA
:100C90002046294605F062FC0146304602F0A8FBDA
:100CA000F8BD96F8723073B13079012102F0AEFAD6
:100CB000367A204605F1004105F050FC01463046E9
:100CC00002F096FBF8BD3779204605F1004105F0AA
:100CD00045FC0146384602F08BFB307A002102F0D9
:100CE00095FAF8BD2DE9F041804616461F4610469C
:100CF00019460022002305F0FFFB80B100220023EB
:100D0000C8E91023C8E91223C8E91423C8E90E234F
:100D1000C8E904234046FFF781FFBDE8F0810024C5
:100D20000025C8E91245C8E91445C8E91045C8E9D5
:100D30000E45C8E90467BDE8F08100BFFFFFFFFF73
:100D40002DE9F04F8BB006468846006B00F09CFB07
:100D50004742736BFB1A93FBF8F34FF47A7000FB76
:100D600003F005F0FBF8D6E90A2305F087FACDE990
:100D70000201D6E90401DDE9022304F0A1FF824665
:100D80008B46D6E91445CDE90845D6E91023D6E9C6
:100D90001045CDE90445D6E91245CDE9064504F0F4
:100DA0008FFFD6E9162305F03FF902460B46DDE931
:100DB000080104F087FFCDE9080150465946D6E9FD
:100DC000182305F031F904460D46404605F0C6F8F3
:100DD00002460B462046294605F050FA02460B46CD
:100DE000DDE9080104F06EFF04460D46DDE904016B
:100DF00002460B4604F066FF02460B465046594633
:100E000004F05EFFDDE9062304F05CFFD6E91A2357
:100E100005F00AF902460B462046294604F052FF27
:100E200004460D462AA3D3E9002305F08DFB40B903
:100E30002046294628A3D3E9002305F067FB20B903
:100E400006E023A5D5E9004502E023A5D5E9004544
:100E5000304622462B46FFF7E1FEDFF88880D8F8BF
:100E600000305B6840461E4905229847404601F025
:100E700023FA4FF00209CDF80090404652465B46F7
:100E800001F066FA404601F017FACDF800904046AE
:100E9000DDE9022301F05CFA404601F00DFACDF8DD
:100EA0000090404622462B4601F052FA404601F09F
:100EB00003FA7763C6E91445D6E91023C6E912237D
:100EC000C6E910AB0BB0BDE8F08F00BFAFF30080F8
:100ED0000000000000E06F400000000000E06FC074
:100EE000809B00003494FF1F10B5044601604260EF
:100EF0008360C8B2002102F0BBF92079002102F022
:100F0000B7F9207A002102F0B3F9204610BD00BFE6
:100F100010B4024652F8044950F8043C9C4207DAE7
:100F20001146036052F8043D9C4202DA0846F7E796
:100F300001460C605DF8044B704700BF2DE9F0419D
:100F400006460F4688421BD0041DA14218D06FF000
:100F50000308C0EB0808204654F8045B33689D4240
:100F60000ADA08EB0402921004D09200A01A31466B
:100F700006F064F9356001E0FFF7CAFFA742EAD145
:100F8000BDE8F08138B50D460B1A432B0DDD00F19D
:100F900040042146FFF7D2FFA54208D02046FFF7C4
:100FA000B7FF0434A542F9D138BDFFF7C7FF38BDFC
:100FB0002DE9F00102F1FF3C0CEBDC7C4FEA6C0CFC
:100FC000614516DA0D466FF040486C1C640004EB76
:100FD000080750F8246050F82770BE42B8BF04F1EB
:100FE000FF3450F8246040F82560644502DA254655
:100FF000EBE70C4612F0010F0FD1023A02EBD2726E
:10100000B4EB620F09D1651C6D0005F18042013A15
:1010100050F8222040F824206C1E621E02EBD2728F
:1010200052108C4212DD50F82250AB4210DD40F8D5
:101030002450541E04EBD4746610914209DA50F81F
:101040002650AB4205DD14463246F0E7224600E06A
:10105000224640F82230BDE8F00170472DE9F84300
:101060000746904681460B1A432B00F38A80BDE861
:10107000F883B8F1000F28D100E00E46072B40F3AB
:1010800083804FEAA308A8F1020404EBD47464102F
:10109000651C07EB850538462146424655F8043D58
:1010A000FFF786FF002C6FD0013CF4E756F8043CB4
:1010B0003A6846F8042DF41B38462946A210FFF77B
:1010C00077FF072CF2DCBDE8F883314608F1FF38E2
:1010D0009B1003EBD37358103E1D7A6857F82030ED
:1010E0009A4211DA51F8044CA34204DA3A683B60A0
:1010F00047F820201BE0A2423B68B9BF3C6041F8A2
:10110000043C3A607B6012E051F8044CA24203DADE
:101110003B683A607B600AE0A34204DA3B683C60CB
:1011200041F8043C03E03A683B6047F82020084659
:1011300035683C68A54205DA331D1E4653F8045B4A
:10114000A542FADB031F50F8042CA24207DDA0F1F0
:101150000803184653F80429A242FADC00E01846B6
:1011600086420AD330464246FFF778FFC9EB0603B2
:10117000432B3FF77EAFBDE8F88346F8042B0560AC
:10118000D6E7002AA2D178E7F31B072B01DD002563
:101190008CE7BDE8F88300BF70B586B00646ADF1B8
:1011A000040405AD307A01F0BFFC44F8040FAC42F2
:1011B000F8D1684606A90422FFF750FF684606A941
:1011C000FFF7E0FE039B0298184400EBD07040103C
:1011D00006B070BD70B586B00646ADF1040405AD2D
:1011E000307801F0A1FC44F8040FAC42F8D1684615
:1011F00006A90422FFF732FF684606A9FFF7C2FEE0
:10120000039B0298184400EBD070401006B070BDEC
:1012100070B586B00646ADF1040405AD307901F035
:1012200083FC44F8040FAC42F8D1684606A90422B6
:10123000FFF714FF684606A9FFF7A4FE039B029878
:10124000184400EBD070401006B070BD08B5114BCB
:10125000187801F0FFFF01280ED10F4B187801F02C
:10126000F9FF20B90D4B1A6801321A6008BD0B4B0B
:101270001A68013A1A6008BD074B187801F0EAFFB6
:101280000128064B1A680CBF013202F1FF321A60C6
:1012900008BD00BFC492FF1FCC92FF1FC892FF1F62
:1012A00008B5114B187801F0D5FF01280CD10F4B70
:1012B000187801F0CFFF01280D4B1A680CBF0132DE
:1012C00002F1FF321A6008BD084B187801F0C2FF26
:1012D00020B9074B1A6801321A6008BD044B1A681E
:1012E000013A1A6008BD00BFCC92FF1FC492FF1FD5
:1012F000C892FF1F08B5114B187801F0ABFF012809
:101300000ED10F4B187801F0A5FF20B90D4B1A68CC
:1013100001321A6008BD0B4B1A68013A1A6008BD09
:10132000074B187801F096FF0128064B1A680CBF8E
:10133000013202F1FF321A6008BD00BFD492FF1FD4
:10134000C092FF1FD092FF1F08B5114B187801F013
:1013500081FF01280CD10F4B187801F07BFF012889
:101360000D4B1A680CBF013202F1FF321A6008BD42
:10137000084B187801F06EFF20B9074B1A6801324C
:101380001A6008BD044B1A68013A1A6008BD00BF14
:10139000C092FF1FD492FF1FD092FF1F10B4084CC1
:1013A000216008490A60084A1360084A019B1360DB
:1013B0000023074A1360074A13605DF8044B704727
:1013C000C492FF1FCC92FF1FD492FF1FC092FF1F39
:1013D000C892FF1FD092FF1FF8B5214F3878002127
:1013E00001F046FF1F4E3078002101F041FF1E4DF5
:1013F0002878002101F03CFF1C4C2078002101F0EE
:1014000037FF3878012101F001FF3078012101F028
:10141000FDFE2878012101F0F9FE2078012101F07C
:10142000F5FE38781249042201F062FF3078114944
:10143000042201F05DFF28780F49042201F058FFD3
:1014400020780E49042201F053FF0D4C23685B689D
:1014500020460C490B229847204600F02DFFF8BD8E
:10146000C492FF1FCC92FF1FD492FF1FC092FF1F98
:101470004D120000A1120000F512000049130000F7
:101480003494FF1F889B0000034610B9044B186872
:101490007047012806BF034B18684FF0FF307047B4
:1014A000C892FF1FD092FF1F044BD878C0B2044BE4
:1014B0001B6898421CBF024B1860704700600640D2
:1014C0004088FF1F08B5FFF7EFFF10F0020FFAD0BA
:1014D0000222014BDA7008BD006006400B4B1B78FE
:1014E00013B90B4B1B7873B10A4B1B78202B03D914
:1014F0000123037100207047581C064A1070064AE9
:10150000D154012070470020704700BF4293FF1F55
:101510000493FF1F4393FF1FE092FF1F704700BF1C
:10152000024B1878024B1B78C01A70474193FF1F7B
:101530004093FF1F074B1B78074A12789A4205D940
:10154000591C044A1170054AD05C70474FF0FF30B7
:10155000704700BF4093FF1F4193FF1F0893FF1F79
:10156000054B1B78054A12789A4286BF044AD05C24
:101570004FF0FF30704700BF4093FF1F4193FF1FA4
:101580000893FF1F08B5104BDB7813F0200F0CD128
:10159000122001F0E1FD0D4B1B689BB100210C4AAC
:1015A00011700C4A1078984708BD0B4A1378013324
:1015B000DBB21370012B02D8084B1B7813B9122031
:1015C00001F0CAFD08BD00BF00600640DC92FF1FAD
:1015D0004093FF1F4193FF1F2C93FF1F0493FF1F96
:1015E00038B514460D4B1B7813B90D4B1B7893B1CE
:1015F0000C4B1D78C5F12103A34202D201220271D6
:101600001C4609482844224601F044FB2544054B6A
:101610001D70204638BD002038BD00BF4293FF1F1B
:101620000493FF1F4393FF1FE092FF1F00220271EC
:101630004FF47A7181600273014A0260704700BF03
:10164000A09B000008B53D4BDB78DBB213F0100F18
:1016500006D01021394AD17013F0400F03D108BDD4
:1016600013F0400F2CD013F0040F1BD00023344A8A
:101670001370344A1370344B1B681BB19847314BBD
:101680001B782BB901222F4B1A7000222F4B1A7096
:101690002A4BD0229A702D4A12781A7101222C4BB3
:1016A0001A7009E00122264B1A700022294B1A7089
:1016B000224BC0229A701B790222204BDA7008BD9F
:1016C0001E4A927812F0100F1CD013F0010F14D1A3
:1016D0001F4B1B781B4A12789A4207D9591C1C4A87
:1016E00011701A4AD25C154B1A7102E00022134B9A
:1016F0001A71D022114B9A701BE0104BC0229A70C5
:101700001B7916E00022144B1A7012201349032291
:1017100001F0EEFD094B1B79DAB20E4B1B781F2B43
:1017200007D80749097821B1581C0A4908700C49A3
:10173000CA540222014BDA7008BD00BF00600640A7
:10174000D892FF1F4393FF1F2893FF1FE092FF1FB4
:101750004493FF1F4193FF1F2C93FF1F851500002B
:101760000893FF1F4900044B19700123034A1370AB
:10177000034A1370704700BFE092FF1F4293FF1FA0
:101780004393FF1F2DE9F04182B08846374B122268
:10179000DA709B7813F0200F03D0B422334B9A7089
:1017A0001DE0334B1B680093009D314C0CE0236817
:1017B0000193019B5B1B0F2B06D92C4B00229A70C7
:1017C00080229A7004204EE0FFF76EFE10F0200F8A
:1017D000EDD10022274B1A70B022244B9A70FFF7EC
:1017E00063FE10F0200FFAD0234B1B787BB300244C
:1017F000224E1E4D204F335D2B71FFF755FE10F02A
:10180000020F02D110F0200FF7D10223EB70FFF787
:101810004BFE10F0100F04D08022144B9A7004205D
:1018200018E010F0200F04D18022104B9A70042091
:1018300010E010F0010F04D0002C0CBF0220032098
:101840000BE00134E4B23B78A342D4D801E000209D
:1018500000E00020B8F1000F02D08022034B9A7004
:101860000022074B1A7002B0BDE8F081006006400C
:101870004C93FF1F0493FF1F4393FF1FE092FF1F32
:101880004293FF1F2DE9F8430D4614469846002366
:101890003E4A13703E4A13703E4B1222DA709B7818
:1018A00013F0200F03D0B4223A4B9A700AE0FFF7EE
:1018B000FBFD10F0200FFAD10022374B1A70B02236
:1018C000344B9A706D0045F00105EDB2314B1D713E
:1018D000FFF7F8FDFFF7E8FD10F0110005D08022BA
:1018E0002C4B9A700020BDE8F88344B9B8F1000F82
:1018F0000CBFA0228022274B9A70BDE8F883012CF0
:1019000004D1244BA8229A701B7938E0214BA022E5
:101910009A701B79012C32D900251E4E4FF0A80970
:101920001E4FFFF7CFFD013CE4B2012C08BF86F843
:1019300002901F2D04D86A1C33797B55D5B200E084
:101940003379012CEDD1FFF7BDFDB022114B9A7018
:101950001F2D07D82B465D1CEDB20E4A11790F4A98
:10196000D15401E00B4B1B79B8F1000F02D080225B
:10197000084B9A70064B1D702846BDE8F883FFF7A8
:10198000A1FDB022034B9A700023E4E74093FF1FB0
:101990004193FF1F006006400493FF1F0893FF1F41
:1019A00008B50123FFF76EFF08BD00BF08B5C9B237
:1019B000FFF7D8FE08BD00BF08B50121FFF7E2FE22
:1019C00008BD00BF08B50248FFF730FE08BD00BFE4
:1019D0003093FF1F4173704738B505460C460846E3
:1019E0000021282205F08AFC204608490B2205F038
:1019F000DBFF0023E3720122E260E968216162619A
:101A000063620023A361E361236238BDD89B0000B9
:101A100038B505460C4608460021282205F06EFC24
:101A2000204609490B2205F0BFFF0023E372012283
:101A3000E2602A6922610222626163620023A3617B
:101A4000E361236238BD00BFD89B0000034A0260F7
:101A5000C1600022C280028142817047E89B000081
:101A6000044A0260016100224273C2800281428105
:101A7000704700BFC09B000070B516461D46084C5D
:101A80002046FFF76FFE20463146FFF727FD204630
:101A90002946FFF723FD2046FFF78EFF70BD00BFEC
:101AA0003093FF1F38B505460C461E210122234600
:101AB000FFF7E2FF2C73802C23D006D8402C12D0E5
:101AC000602C17D0202C37D106E0C02C27D0E02C7A
:101AD0002CD0A02C30D11BE0184A194B1A60194A9F
:101AE000194B1A6038BD194A154B1A60184A164B23
:101AF0001A6038BD174A124B1A60174A124B1A6007
:101B000038BD164A0E4B1A60154A0F4B1A6038BD85
:101B1000134A0B4B1A60134A0B4B1A6038BD124A1A
:101B2000074B1A60114A084B1A6038BD104A044B23
:101B30001A60104A044B1A6038BD00BF0080894407
:101B40004488FF1F000075444888FF1F00C05544AB
:101B500000003E4400802744000016440000E1439A
:101B60000000C8430080B1430000A54300809343B8
:101B70000000664300004D4370B50D4616460C4C00
:101B80002046FFF7EFFD20463146FFF7A7FC204631
:101B9000FFF712FF204629460122FFF701FF2046EA
:101BA000FFF7C8FC05462046FFF706FFE8B270BD08
:101BB0003093FF1F2DE9F0470546254C204619219B
:101BC000FFF7D0FD23681B682046A82198472046D0
:101BD000FFF7F2FE204619210622FFF7E1FE20461C
:101BE000FFF79EFC0528FADD194C2046FFF7A2FC02
:101BF00081462046FFF79EFC82462046FFF79AFC6E
:101C000007462046FFF796FC80462046FFF792FCE9
:101C100006462046FFF78EFC5FFA8AFA5FFA89F9DA
:101C200049EA0A2949F30B19A5F806905FFA88F8E2
:101C3000FFB247EA082747F30B172F81C0B2F6B26D
:101C400046EA002646F30B166E81BDE8F08700BF1A
:101C50003093FF1F70B582B005460C462426084617
:101C60000021324605F04AFB2846FFF7A3FF266015
:101C7000EB6863600126A660144B1B680193019B0F
:101C80002361B5F9060004F06BFD114904F0BCFDB9
:101C9000104904F0B9FD6061B5F9080004F060FD79
:101CA0000B4904F0B1FD0B4904F0AEFDA061B5F99C
:101CB0000A0004F055FD064904F0A6FD054904F0AC
:101CC000A3FDE061304602B070BD00BF4C93FF1F22
:101CD0006F12833A0AE81C412DE9F0470546224C71
:101CE00020461E21FFF73EFD23681B682046032186
:101CF00098472046FFF760FE20461E210622FFF788
:101D00004FFE2046FFF70CFC0528FADD164C204656
:101D1000FFF710FC82462046FFF70CFC8146204668
:101D2000FFF708FC07462046FFF704FC064620465E
:101D3000FFF700FC80462046FFF7FCFB5FFA8AFABB
:101D40005FFA89F949EA0A29A5F806905FFA88F846
:101D5000C0B240EA0828A5F80880FFB2F6B246EA09
:101D600007266E81BDE8F0873093FF1F2DE9F04113
:101D700082B00446884608460021242205F0BEFAB7
:101D80001E27092640F6EE75204639463246FFF7F3
:101D9000F3FE10F0010F7DD02046FFF79DFF637B1F
:101DA000002B3FD0E28802F2F77292B2638903F20D
:101DB000F7739BB2AB4298BFAA4205D8238903F2BE
:101DC000F7739BB2AB422DD9237B602B1BD004D879
:101DD000202B22D0402B1BD024E0A02B09D0C02BDD
:101DE00002D0802B1ED109E02046E021FFF75AFEE9
:101DF000CAE72046C021FFF755FEC5E72046A021CF
:101E0000FFF750FEC0E720468021FFF74BFEBBE7FF
:101E100020466021FFF746FEB6E720464021FFF747
:101E200041FEB1E72423C8F800302369C8F8043024
:101E30000223C8F80830194B1B680193019BC8F8AE
:101E40001030174B1D68B4F9060004F089FC2946D0
:101E500004F08EFD134904F0D7FCC8F81400B4F95F
:101E6000080004F07DFC294604F082FD0D4904F0D1
:101E7000CBFCC8F81800B4F90A0004F071FC0A4B56
:101E8000196804F075FD074904F0BEFCC8F81C0091
:101E9000012000E0002002B0BDE8F0814C93FF1F5C
:101EA0004488FF1F0000C8424888FF1F0175704723
:101EB00038B505460C4608460021282205F01EFAD2
:101EC000204610490B2205F06FFD0023E37201222A
:101ED000E2602A692261042262616362A88904F0D7
:101EE0003BFC094904F090FCA061A88904F038FC8F
:101EF00000F10040044904F087FCE0610023236204
:101F000038BD00BF209C000035FA8E3C024A0260BA
:101F10000161002202757047089C000070B50E46F2
:101F20001546084C20466B21FFF740FD2046314600
:101F3000FFF7D4FA20462946FFF7D0FA2046FFF7EC
:101F40003BFD70BD3093FF1F2DE9F04F85B0064675
:101F50000C462425084600212A4605F0CFF9002327
:101F6000F380338173812560336963600423A36048
:101F7000914DDFF860822B680393039B23618F4FA1
:101F800038466B21FFF7EEFB3B681B683846A821FB
:101F900098473846FFF710FD0028ECD138466B21F2
:101FA0000622FFF7FDFC3846FFF7C4FA82463846A2
:101FB000FFF7C0FA83463846FFF7BCFA0090384670
:101FC000FFF7B8FA81463846FFF7B4FA0190384671
:101FD000FFF7B0FA07465FFA8BFB5FFA8AFA4AEA24
:101FE0000B2A0FFA8AF004F0BBFB60615FFA89F9F3
:101FF000009AD3B243EA09290FFA89F004F0B0FB42
:10200000A061FFB2019AD3B243EA072738B204F0C5
:10201000A7FBE061A6F806A0A6F808907781337DBB
:10202000002B7ED06769D4F818B0E36900934FF0B5
:10203000010A3846624904F08FFD08B94FF0000AE2
:102040004FF001093846414604F090FD08B94FF0C1
:1020500000094AEA09094FF001075846414604F0D1
:1020600085FD08B94FF0000749EA07094FF001075D
:102070005846534904F070FD08B94FF0000749EA8B
:1020800007074FF0010A0098414604F06FFD08B9B8
:102090004FF0000A47EA0A0717F0FF0F0BD14FF085
:1020A00001070098464904F057FD08B94FF00007B2
:1020B000FFB2002F35D0B389FA2B1AD0B3F5FA7FCF
:1020C0002FD14FF4FA63B381304620210022FFF76D
:1020D00025FF304620210F22FFF720FF3046232125
:1020E0002022FFF71BFF304624218022FFF716FF36
:1020F00041E74FF4FA73B381304620210022FFF705
:102100000DFF304620210F22FFF708FF3046232124
:102110001022FFF703FF304624218022FFF7FEFE46
:1021200029E7B389B3F5FA7F14D0B3F5FA6F21D05C
:10213000FA2B2ED16069234904F066FB6061A06927
:10214000204904F061FBA061E0691E4904F05CFBDA
:10215000E0611EE060691C4904F056FB6061A06903
:10216000194904F051FBA061E069174904F04CFBE8
:10217000E0610EE06069154904F046FB6061A0690A
:10218000124904F041FBA061E069104904F03CFBF6
:10219000E06160690E4904F037FB6061A0690C4999
:1021A00004F032FBA061E069094904F02DFBE06115
:1021B000012005B0BDE8F08F4C93FF1F3093FF1F47
:1021C00000F0FFC6295C0F3C295C8F3C295C8F3DE9
:1021D00035FA8E3C00F0FF46704700BF704700BFE5
:1021E00010B403684BB1064A1A441211054C064953
:1021F00041F8224000229A6002605DF8044B70476B
:10220000008FFCBFDD2100004C88FF1F08B50122B4
:10221000024B1A60024B1B68984708BD0C710340C3
:102220004C88FF1F08B50122024B1A60024B5B6805
:10223000984708BD1C7103404C88FF1F08B5012258
:10224000024B1A60024B9B68984708BD2C710340F3
:102250004C88FF1F08B50122024B1A60024BDB6855
:10226000984708BD3C7103404C88FF1F2DE9F0439F
:102270008BB0074688468C68C4B100252E464FF0C7
:102280002109404601A94A462B4600F0ADFA202C10
:1022900034BF224620221544A41A3B685B683846A6
:1022A00001A998470644002CEBD100E000263046F7
:1022B0000BB0BDE8F08300BF00B583B0054B1B88B1
:1022C000ADF8043003685B6801A90222984703B0A7
:1022D0005DF804FB289C0000F0B58BB0164622B9CF
:1022E00003681B68C9B298472FE0012A08BF0A2675
:1022F00021B930228DF82520212417E021243746EA
:10230000B1FBF6F506FB1515EDB22246092D94BF7B
:1023100030353735EDB20DF1280E724402F8245CE9
:10232000B1FBF7F111B1013CE4B2E9E733B1013C93
:10233000E4B20AAB23442D2203F8242C03685B6823
:1023400001A92144C4F1220298470BB0F0BD00BF9F
:102350002DE9F04F85B0804614461D469DF8389013
:102360001046194603F080FC40B9D8F800305B688D
:1023700040466749032298470746BEE02046294663
:1023800003F072FC012808D1D8F800305B684046A1
:102390006049032298470746AFE0204629464FF0A0
:1023A00060425D4B04F0D0F840B1D8F800305B6873
:1023B00040465A490322984707469EE02046294650
:1023C0004FF06042564B04F0A1F840B1D8F800300D
:1023D0005B68404651490322984707468DE02046F6
:1023E00029460022002304F091F828B105F10043AA
:1023F0001D464FF0010A01E04FF0000AB9F1000F4D
:102400006CD04FF0000B0022464B3FA7D7E9006786
:102410001046194632463B4603F006FE02460B467E
:102420000BF1010B5FFA8BF18945F1D82CE04E4698
:102430002046294600223C4B03F0F6FD04460D469B
:1024400004F0B4F8C0B206F101095FFA89F904ABEF
:102450001E4400F1300306F8103C03F07FFD0246F5
:102460000B462046294603F02BFC04460D46D14579
:10247000DDD101E04FF0010AD8F800305B6840463A
:1024800069465246984738E02046294603F01AFC30
:1024900004460D4604F08AF8064603F04FFD024656
:1024A0000B462046294603F00BFC04460D464046E9
:1024B00031460A225346FFF70FFF07462E238DF8B9
:1024C0000030B9F10F0F34BF4B460F23002BD1D092
:1024D00003F1010A5FFA8AFA0126A9E72046294694
:1024E0000022104B03F0EEFB04F060F8014640467A
:1024F0000A225346FFF7F0FE0746384605B0BDE80E
:10250000F08F00BFAFF30080000000A09999B93FA1
:102510002C9C0000309C0000FFFFEF41349C000029
:10252000FFFFEFC10000E03F00002440AFF3008058
:1025300070B582B004460C4B1B680093009E0A4D98
:102540002368DB682046984700280ADA01F058FF24
:102550002B680193019A921BA3689A42F0D34FF023
:10256000FF3002B070BD00BF4C93FF1FF8B50546A9
:102570000E461746002100F061F887B1002430466E
:10258000FFF7D6FF011E02DA0123337307E031B1F2
:102590002846C9B200F00EF90134BC42EFD12846FA
:1025A000F8BD00BF10B50446006804F0A3FB204648
:1025B00010BD00BF38B504460D460068013104F077
:1025C000EBFE18B120606560012038BD002038BDE9
:1025D00010B5044643688B420AD2FFF7EBFF03466F
:1025E00048B1A36833B9236800221A70012302E0BE
:1025F000012300E00123184610BD00BF70B504465A
:102600000E4615462AB9036803B11A700023A36069
:1026100012E01146FFF7DCFF48B9206818B104F05A
:1026200069FB0023236000236360A36004E0A560CE
:102630002068314605F02AF9204670BD38B50446B9
:10264000002303604360836003730D4639B108467D
:1026500005F07AF9024620462946FFF7CFFF2046CB
:1026600038BD00BF38B505460C46006868B16A68D9
:102670008B689A4207D3096805F008F9A368AB6034
:102680000023A36038BD04F035FB23682B6063682A
:102690006B60A368AB60002323606360A36038BDF8
:1026A00010B50446884201D0FFF7DCFF204610BD7C
:1026B00038B504460D4641B1084605F045F90246D5
:1026C00020462946FFF79AFF01E000238360204659
:1026D00038BD00BF10B586B00446002303604360D8
:1026E00083600373084601A900F0F4FB204601A9AA
:1026F000FFF7DEFF204606B010BD00BF10B58AB060
:10270000044600230360436083600373084601A905
:1027100000F0E0FB204601A9FFF7CAFF20460AB0FF
:1027200010BD00BF10B58AB00446002303604360AB
:10273000836003730846911C6B4600F0DBFB014687
:102740002046FFF7B5FF20460AB010BD2DE9F8433B
:1027500004460D461646826803688B4206D89918CF
:102760008D4205D2C3EB0509012702E0002700E0F6
:102770000027DEB106EB020820464146FFF728FF9E
:10278000A0B15FB12168A06808444944324600F016
:1027900081FA2368002203F8082005E02068A36876
:1027A0001844294605F072F8C4F808802046BDE8B0
:1027B000F88300BF10B582B004468DF804100023E2
:1027C0008DF8053001A90122FFF7C0FF204602B0B5
:1027D00010BD00BF10B504460B4609689A68FFF7A4
:1027E000B5FF204610BD00BF38B50C469AB191B177
:1027F0008168994202D80023237038BD551EC91A3A
:102800008D4228BF0D460168204619442A4605F02E
:10281000CBF80023635538BD10B58368934207D9C0
:102820000468A018096805F045FA20B1001B10BD26
:102830004FF0FF3010BD4FF0FF3010BD08B5002243
:10284000FFF7EAFF08BD00BF2DE9F04104460E4640
:1028500015461F469A4201D93D461746204600219B
:10286000FFF7ECFEB3689D420FD89F4228BF1F467A
:10287000336813F807800022DA553168204629446E
:10288000FFF716FF336803F807802046BDE8F081A4
:1028900010B504468B68FFF7D7FF204610BD00BF78
:1028A00008B5006810B104F0D7F908BD002008BDD4
:1028B00030B4394A3949136813F0800FFBD10B68E3
:1028C00013F0800FF7D172B6354B1B78002B5FD019
:1028D000344B1C6804331D680433186804331968CA
:1028E00004331A6804331B682C44204401440A440E
:1028F0001A44C2F34E0242F400422B4B1A602C33AE
:102900001C6804331D6804331868043319680433E1
:102910001A6804331B682C44204401440A441A44B6
:10292000C2F34E0242F40042204B1A6003F1081336
:102930001C6804331D6804331868043319680433B1
:102940001A6804331B682C44204401440A441A4486
:10295000C2F34E0242F40042154B1A602C331C683D
:1029600004331D68043318680433196804331A6883
:1029700004331B682C44204401440A441A44C2F323
:102980004E0242F400420B4B1A600022044B1A70B4
:1029900062B630BC704700BF24B0034024B00B4087
:1029A0004693FF1F38B003402CB0034030B00340C3
:1029B0002CB00B4030B00B4060223A4B1A70E12231
:1029C00001331A70384B1B78082B10D1012203F108
:1029D000804303F56C331A60132334490B6001F50F
:1029E000FF2101F2FC710A60314A13601FE00A2BDB
:1029F0000DD119222F4B1A6013232C490B6001F5BE
:102A0000FF2101F2FC710A60294A13600FE00C2BD0
:102A10000CBF15223D22274B1A60122323490B605D
:102A200001F5FF2101F2FC710A60214A1360224B7B
:102A30001B7833B10123214A136002F50022136091
:102A400005E000231D4A136002F5002213601C4BB1
:102A50001B78012B06D880231A4A136002F5002246
:102A600013601AE0042B06D88423164A136002F57B
:102A70000022136011E0082B06D88523114A136049
:102A800002F50022136008E0102B94BF86238723F1
:102A90000C4A136002F50022136001220A4B1A70DF
:102AA000704700BF004007405C88FF1F0CB0034028
:102AB0000CB00B4008B003404993FF1F20B0034007
:102AC0005D88FF1F24B003404693FF1F08B50C2804
:102AD00004D9102828BF1020102307E00A2804D8A2
:102AE000092834BF08230A2300E00C23DAB2101AA5
:102AF000094908700949097899420CD0074B1A70A6
:102B0000074B1B782BB10023064A136002F5002205
:102B10001360FFF751FF08BD4593FF1F5C88FF1F3F
:102B20004693FF1F24B003402DE9F843282873D8AB
:102B30003C4B1E5CFF2E72D03B4B1B780BB1FFF75A
:102B4000B7FE16F0800F29D172B6384C384D4FF0D1
:102B5000010726602F7062B672B6236813F0800FEB
:102B600004D12B7813F0FF0F0FD1F2E7314B186827
:102B700000222F4B1A7062B62F4B1B781841BDE80C
:102B8000F8832B7813F0FF0FE3D062B601F038FC26
:102B900072B6236813F0800FF3D0E7E772B606F041
:102BA00040095FFA89F9254F254C06F03F06254D6F
:102BB0004FF00108B9F1000F04D03B6823F0100377
:102BC0003B6003E03B6843F010033B60266085F800
:102BD000008062B672B6236813F0800F04D12B78A0
:102BE00013F0FF0F0FD1E5E7174B18680022154BC4
:102BF0001A7062B6104B1B781841BDE8F8832B7829
:102C000013F0FF0FD6D062B601F0FAFB72B623685C
:102C100013F0800FF3D0E7E70020BDE8F883002031
:102C2000BDE8F883389C00004693FF1F00B00340C6
:102C30004893FF1F10B003404593FF1F0CB00B409B
:102C400000B00B404793FF1F10B00B40094B1A68B0
:102C500042F480521A60084B1B781BB18022074B4C
:102C60001A7002E0C022054B1A7080F30C00044B6E
:102C7000188070472C8004404993FF1F21C00C40EE
:102C800000C00C4008B5FDF737FCFDF727FD01F04B
:102C9000B7FBFAE7844641EA000313F003036DD162
:102CA000403A41D351F8043B40F8043B51F8043B0F
:102CB00040F8043B51F8043B40F8043B51F8043B16
:102CC00040F8043B51F8043B40F8043B51F8043B06
:102CD00040F8043B51F8043B40F8043B51F8043BF6
:102CE00040F8043B51F8043B40F8043B51F8043BE6
:102CF00040F8043B51F8043B40F8043B51F8043BD6
:102D000040F8043B51F8043B40F8043B51F8043BC5
:102D100040F8043B51F8043B40F8043B51F8043BB5
:102D200040F8043B403ABDD2303211D351F8043B55
:102D300040F8043B51F8043B40F8043B51F8043B95
:102D400040F8043B51F8043B40F8043B103AEDD204
:102D50000C3205D351F8043B40F8043B043AF9D255
:102D6000043208D0D2071CBF11F8013B00F8013B28
:102D700001D30B8803806046704700BF082A13D335
:102D80008B078DD010F003038AD0C3F10403D21A4D
:102D9000DB071CBF11F8013B00F8013B80D331F881
:102DA000023B20F8023B7BE7043AD9D3013A11F801
:102DB000013B00F8013BF9D20B7803704B7843706C
:102DC0008B78837060467047024B1A6801321A6034
:102DD000704700BF4C93FF1F08B50D4C236813F4D8
:102DE000802F01D000F076FD236813F4806F01D0AE
:102DF00002F012F8236813F4006F01D002F0BEFB5A
:102E0000236813F4805FE9D002F076FEE6E700BFA6
:102E10003480044008B5FFF7DFFF00BF1022014BEC
:102E20001A80704700200540704700BF024A1368AF
:102E300018441060184670476088FF1FFEE700BF07
:102E4000EFF31383ABB9EFF31083ABB9EFF3058363
:102E500023B10F2B05D9094A985C03E04FF4807029
:102E600000E00020EFF311833BB1834238BF1846E6
:102E700070474FF0FF30704700207047F0E300E0EC
:102E800008B503F02FFF08BD08B503F033FF08BDF8
:102E900030B40023B0FBF2F402FB14041D46092CED
:102EA00094BF30343734E4B2CC54B0FBF2F008B104
:102EB0000133EFE70D4400226A70934207DD885C1E
:102EC000CC5C8C54C8540132013B9A42F7DB084673
:102ED00030BC704710B50C46002802DBFFF7D8FF66
:102EE00010BD2D2301F8013B4042FFF7D1FF2046E2
:102EF00010BD00BF2DE9F04383B005460F46914653
:102F00001C4681EAE178A8EBE178014603F042FE35
:102F1000B8B32846002103F015FE002814BF04268C
:102F2000032646450BDAC6EB0806002F0BDA56B12E
:102F30002644202304F8013BB442FBD101E00026E3
:102F400001E0344600264FF07E50002DB8BF7D488A
:102F5000002103F0F7FD10B12D23237001344E2220
:102F6000227041236370E31CA27036B198192022AD
:102F700003F8012B8342FBD100E0184600230370C5
:102F8000DDE025F0004630466F4903F003FE0028DF
:102F90003AD130466C4903F0DFFDA8BB284600213A
:102FA00003F0D0FD002814BF0426032646450BDAA3
:102FB000C6EB0806002F0BDA56B12644202304F88E
:102FC000013BB442FBD101E0002601E0344600267B
:102FD0002846002103F0B6FD10B12D2323700134E3
:102FE000492323704E236370E21C4623A37036B13D
:102FF0009419202302F8013BA242FBD100E01446C1
:103000000023237020469AE02846494601AA6B46D1
:1030100003F030FE8046B9F1000F0DD1019B5BB982
:1030200090F80080494B4A4AB8F1340F8CBF904663
:1030300098464FF0010C0BE0404604F085FC8446B6
:10304000019B9842C8BF00F1010C0BB90CF1010CB7
:10305000009909B10CF1010C04EB0C06CCEB070351
:10306000002B08DD1E4423442546202205F8012BB1
:103070009D42FBD100E0234611B12D221A7001338D
:10308000019AB2B9B9F1000F08D01A46302102F8FE
:10309000021B2E215970134600E02B46B34233D257
:1030A0005A1C98F800101970B24230D040462E21B8
:1030B00021E0002AF2DAB9F1000FEFD01D463022EC
:1030C00005F8022B2E225A700136019B002BE4DA00
:1030D0002A46E81A302102F8011B8242FBD1EB1A82
:1030E00000220192DAE7551C10F8013F1370B54237
:1030F0000CD013462A46019D013D01950DB99A1C3D
:103100005970B242EFD302E01A4600E02A46002F7F
:1031100012DA6744F8437F42002F0DDD1346202565
:1031200003F8015BC3F10101014411440029F7DCFC
:1031300020EAE07301331A4400231370204603B0E1
:10314000BDE8F083000080BFFFFF7F7F689C000028
:10315000649C0000704700BF1D4B03EBC000436838
:1031600003F14042A2F592227C2A18D903F1404291
:10317000A2F594227C2A14D903F14042A2F59622AA
:103180007C2A10D903F14042A2F598227C2A0CD95E
:1031900003F14042A2F59A227C2A08D970470D49D2
:1031A00006E00D4904E00D4902E00D4900E00D493B
:1031B00072B61A6822F0877222F4803242F080726E
:1031C0001A60C3F38403084A41F8232062B67047AB
:1031D0006C9C00006488FF1F9C88FF1FEC88FF1F09
:1031E0001C89FF1F3C89FF1F55310000044B002242
:1031F0001A6004490A60044A106010221A6070477D
:1032000014D0034004D0034000D0034021281ED82E
:103210000F4B53F8303093F8802212F0FF0F08D094
:1032200019B1012283F880207047012283F8002120
:103230007047074B03EBC000436821B11A6842F0A6
:1032400003021A6070471A6822F002021A6070477F
:103250006C9C0000212806D8044B53F8303093F8BA
:103260000002C0B270470020704700BF6C9C000095
:1032700021283AD81D4B03EBC0035B68012919D004
:10328000042925D0194A52F83020002082F8800203
:1032900019B94FF480721A607047022903D140F2C5
:1032A00003121A60704703290CBF4FF48172002289
:1032B0001A6070470D4A52F83020012182F88012BE
:1032C0004FF4A2721A601A6822F020021A60704746
:1032D000064A52F83020012182F880124FF4A2727F
:1032E0001A601A6842F020021A6070476C9C000055
:1032F00070B50D46212861D8042A5FD8DFE802F0B6
:103300000709050B03000B2306E00A2304E008234A
:1033100002E00C2300E009231E04294B03EBC00349
:103320005C68236813F4E06F02D10021FFF7A0FF6F
:10333000244B254AC3F89C21244AC3F8A021244ADF
:10334000C3F8A421234AC3F8A821234AC3F8AC2117
:1033500004F14043A3F592237C2B18D904F1404299
:10336000A2F594227C2A14D904F14043A3F59623B4
:103370007C2B10D904F14043A3F598237C2B0CD966
:1033800004F14043A3F59A237C2B08D970BD13495F
:1033900006E0134904E0134902E0134900E0134931
:1033A00072B6236823F470232360C4F3840241F8C7
:1033B000225043F080731E43266062B670BD00BF8A
:1033C0006C9C00000082FF1F1188FF1FE587FF1F14
:1033D000B987FF1F8D87FF1F6187FF1F6488FF1F4D
:1033E0009C88FF1FEC88FF1F1C89FF1F3C89FF1F63
:1033F00010B5044628280FD15D4B1B780B2B03D842
:10340000C3F10C03994003E00C2B84BF0C3B194122
:103410000846FFF71BFC10BD554B1B78012202FA32
:1034200003F0002908DC20460021FFF7EFFE2046CC
:103430000121FFF71DFF10BD0A46884208D820462B
:103440000121FFF7E3FE20460121FFF711FF10BD28
:10345000E01EC0B2012806D84648006800FB0112F1
:1034600022FA03F310E0202C01D0192C06D1424897
:10347000006800FB022222FA03F305E03F480068DF
:1034800000FB011222FA03F3E01E1D2864D8DFE8D6
:1034900000F0474E402B63631D24636363636363E3
:1034A00063636332390F16635C63636363636355FD
:1034B000334A136040F24442324B1A6010BD324A24
:1034C000136040F24442314B1A6010BD304A136021
:1034D00040F244422F4B1A6010BD2F4A136040F255
:1034E00044422E4B1A6010BD2D4A136040F24442F4
:1034F0002C4B1A6010BD2C4A136040F244422B4BF7
:103500001A6010BD2A4A136040F24442294B1A60E7
:1035100010BD294A136040F24442284B1A6010BD86
:10352000274A13604FF45172264B1A6010BD264A89
:1035300013604FF45172254B1A6010BD244A13607A
:103540004FF45172234B1A6010BD234A13604FF49D
:103550005172224B1A6010BD20467F29D4BF002132
:103560000121FFF753FE20460121FFF781FE10BD28
:103570004489FF1F0890034008800B4008800340E7
:103580001080034004B004401880034008B0044099
:10359000208003400CB004402880034010B0044059
:1035A0003080034010C004403880034014C0044001
:1035B0004080034018C00440488003401CC00440C1
:1035C0001090034030900440189003403490044021
:1035D00010800B4048A0044018800B404CA00440D1
:1035E00072B60D4B1B680D4A12680D49096862B628
:1035F00011F0806F02D0322B88BF0132C3F58C33BB
:1036000003F23F130749A1FB03031B094FF47A7030
:1036100000FB0230704700BF18E000E04C93FF1F32
:1036200004ED00E0398EE33838B50546FFF7D8FFE2
:10363000044625B938BD013D0AD004F57A74FFF778
:10364000CFFF001BB0F57A7FF5D200F0D9FEF6E788
:1036500038BD00BF10B5264B4FF400021A604FF082
:1036600080721A604FF000721A604FF080621A6028
:103670004FF000621A6000201E4B186048F6FF7180
:103680000433196028231C4A13600832136008327F
:103690001360083213600832136008321360083276
:1036A0001360083213600922144C226004F5805420
:1036B000043420600434216004342360083423601F
:1036C000143C226004F5FE24043420600C480160A0
:1036D0000C490B6008310B600B4B1A60FFF76CF95B
:1036E0004FF4C870FFF7A0FF00F074FC10BD00BFDE
:1036F00008E100E0048003400C80034000800340A8
:1037000008800B400C800B4000800B4030B40E4B07
:103710001B7843F002020D4C04EBC20460600C48BD
:10372000007800280CBF8824C82444EA0141074DD2
:1037300045F8321080F00100054A107083F0010353
:10374000014A137030BC7047B893FF1F0080FF1F01
:103750003194FF1F10B4431E032B11D872B60A4ACE
:1037600052F8230050B14268074941F82320074A24
:1037700032F813400188611A22F8131062B600E093
:1037800000205DF8044B7047A893FF1F4C96FF1F65
:10379000013803280DD872B6074B53F820302BB1EF
:1037A000002001305B68002BFBD100E0002062B6F6
:1037B00070470020704700BFFC93FF1F38B572B6FA
:1037C00001231B491B4C5A1812F8012C12F0080F48
:1037D00024D09A0054F832506DB9164B03EBC20155
:1037E00008304860144943F83210144B1A78013AF3
:1037F0001A7062B638BD42F0010254F832506DB909
:103800000C4B03EBC201083048600D4943F83210FD
:103810000A4B1A78013A1A7062B638BD0133052B8B
:10382000D1D162B60022054B1A7000F067FC38BD9A
:10383000C89E00000080FF1F880040002694FF1FE4
:10384000C800400010B4431E032B37D8400140F09D
:1038500010001C4A104472B61B4AD25C032A09D8D5
:10386000DFE802F019021B050830022216E00830DA
:10387000042213E0154A52F823201AB9134A42F8D9
:10388000231003E0124A52F823205160104A42F8F4
:10389000231062B612E0032200E005220A4CE25433
:1038A00001F10803436000F00803002B0CBF8823DC
:1038B000C8230A8843EA0243036062B65DF8044BFA
:1038C000704700BF0080FF1F6493FF1FFC93FF1F22
:1038D0000C94FF1F2DE9F84FA34CDFF8E092DFF8BE
:1038E000E0A2DFF8E0B22578EDB215F0040F1DD0AC
:1038F0009E4B1B7813F0FF0F16D09D4B1B7803F0E7
:10390000FF022BB1531EDBB2994A137003B900BEFC
:10391000984B1B7803F0FF0233B1531EDBB2954A7C
:1039200013700BB900F048FD0423237015F0080F45
:1039300000F0E48299F80030DBB21D0940F02182EA
:103940008D4D9E0805EBC6035A6855F83630C3F313
:103950008303013B0C2B00F21082DFE813F0CB0154
:10396000CB010E020E020E020E020E020E02E80142
:103970000E020E020E020D00804913680B605268A1
:103980004A607F4A45F8362000227E490A607A491B
:103990000A618A6101217C4A11709BB240F2816206
:1039A000934218D8B3F5D06F2ED2B3F5817F00F0D3
:1039B0001E8106D8802B00F0C980822B00F0CC80BD
:1039C00066E140F20232934200F02681B3F5A06F27
:1039D00000F062815CE142F22102934200F08681B4
:1039E00007D8B3F5086F00F0AB80B3F5106F11D0B6
:1039F0004EE142F22122934200F0418142F2213213
:103A0000934200F0498143E1604B5D68002D40F036
:103A1000188130E1594B9A78544B1A70564D05F184
:103A200080062B6A13F0800F03D0686A083800F014
:103A300065FB0835B542F4D1DFF88C8100263746A6
:103A4000534AB05828B1456800F058FB0DB12846DC
:103A5000F9E700234E4973504E4AB3504E4BF0588D
:103A600028B1456800F04AFB0DB12846F9E700236C
:103A700049497350494AB35028F8023F484BFB5C10
:103A8000023B032B0AD8DFE803F0020602060022FD
:103A9000434BDA5502E00122414BDA550137043637
:103AA000102ECDD100223F4B1A7001253E4EDFF87B
:103AB0001C81314F05EB080313F8013C06F8043B69
:103AC00013F0080F2DD000F0F9FA48B1A90007EB68
:103AD000451200F108035360344A47F8312007E0EB
:103AE000AB00002247F833202E4B1A7801321A70AF
:103AF00000F0E4FA58B1AB0043F0010307EBC30157
:103B000000F108024A601E4A47F8332009E0AB0082
:103B100043F00103002247F83320224B1A78013288
:103B20001A70AA0042F00201002347F8313042F037
:103B3000030247F8323001351D4B9E42BAD11EE2D6
:103B40000A4B1B781B4D2B700127AAE0194D00234F
:103B50002B706B700227A4E0084B9B88042B37D98D
:103B60000F22154B1A70C1E0802007403094FF1FD0
:103B7000B993FF1F4494FF1F0080FF1F1C94FF1F79
:103B8000C80040005093FF1F3194FF1FCC9E0000DF
:103B9000A893FF1F5493FF1FFC93FF1F0C94FF1F5C
:103BA0006493FF1F2694FF1FC42007408800400035
:103BB000D42007402894FF1FC020074090200740D2
:103BC00094200740982007404A96FF1FC89E000097
:103BD000A04A0021117051709F4A12F8233013F04F
:103BE000020F5CD09B4D01232B70022759E09B4BA9
:103BF0009B8803F07F03042B02DC984A52881AB199
:103C00000F22954B1A7071E0934A12F8231021F09D
:103C1000020102F82310B2E1904B9B8803F07F036E
:103C2000042B02DC8D4A52881AB10F228A4B1A707B
:103C30005CE0894A12F8231041F0020102F82310D7
:103C40009DE1864B5E889F88854BA3F10C0211464F
:103C500033F80C0CB04209D133F80A0CB84205D144
:103C6000360A032E0CBF2F7817891AE00D690C3322
:103C70000C32002DEBD10F22774B1A7036E0794BC6
:103C80001A68794B1A60754B9A78784B1A7076E1FE
:103C90000F22714B1A7029E000273D4601E00227F0
:103CA0006C4D6E4BDB889F4228BF1F46402F34BFB0
:103CB0003E46402628463146FFF728FD3544BF1BC7
:103CC00003D13F2E00F2608110E0402F34BF3E460A
:103CD000402628463146FFF719FD3544BF1B01D168
:103CE0003F2E03D9624B1D60624B1F8001238AF86F
:103CF000003042E0594B198842F22103994212D117
:103D00005D4BD81D12F8011B03F8011F8342F9D146
:103D10005A4B1B68862B02D10F22594B1A70002078
:103D20000146FFF7F3FC574B45F8363025E0504B82
:103D30001E68BEB14F4FB7F80080B8F1400F34BFD6
:103D40004546402530462946FFF7E0FCC5EB080311
:103D50009BB23B800BB9402D01D1354400E00025DA
:103D6000434B1D603D4B1B88B3F5A06F05D13B4B0A
:103D700000225A709B788BF8003001238AF80030BB
:103D8000B9E0414E9F0806EBC708D8F80420A2F11D
:103D90000800013DEDB213F0080F47D000F0AEF976
:103DA0003A4B53F825304BB35A68384941F825202F
:103DB00003F10802C8F80420354A525D032A12D8DC
:103DC000DFE802F002060A0E0321314A51550AE0EB
:103DD00002212F4A515506E005212D4A515502E096
:103DE00004212B4A515518F0080F0CBF8822C82215
:103DF0001B8842EA034346F837307CE0244B5B5D86
:103E0000032B0BD8DFE803F0777702060022204B64
:103E10005A5570E001221E4B5A556CE018F0080FFD
:103E20000CBF022203221A4B5A5564E056F8373071
:103E30001B0C22F8083C002B55D0002322F8063C2E
:103E400042F8043C134B53F825302BBB114B43F87D
:103E5000250025E02894FF1FC02007401C94FF1F69
:103E6000D89E00004C93FF1F5C96FF1F5494FF1FC9
:103E70005093FF1F2494FF1F5396FF1F5496FF1F5C
:103E8000B993FF1FC80040000080FF1FFC93FF1F75
:103E90006493FF1FA893FF1F3F4B53F825305860D2
:103EA0003D4B43F825003D4B33F8151032F8082CF4
:103EB0000A4423F8152000F001F960B100F108036D
:103EC000C8F8043018F0080F354B364A08BF1346BF
:103ED00046F837300FE0002346F83730324B1A7877
:103EE00001321A7007E018F0080F2D4B2D4A08BF59
:103EF000134646F8373008232370F4E415F0010F19
:103F000022D02A4902230B700022294B1A70294B18
:103F100024481860284C5C6098602848D8601A6172
:103F20009A610D20264B1870FF232648037008382D
:103F3000037018300270244A13709F22234B1A70AA
:103F400001230B70BDE8F88F15F0800F05D00D220E
:103F50001B4B1A708022403B1A7015F0020F06D0DE
:103F6000184B1A78D2B21A700222083B1A7015F058
:103F7000100F0ED01022164B1A70BDE8F88F0020DB
:103F80000146FFF7C3FBB1E628460021FFF7BEFB61
:103F9000ACE6BDE8F88F00BF5493FF1F4C96FF1F9F
:103FA000C8004000880040002694FF1F942007406E
:103FB000B893FF1F0080FF1F6893FF1FBC93FF1F74
:103FC000C0200740882007408C20074084200740FD
:103FD0008020074008B501F003FE00231B491A4664
:103FE0005A50C81842600833882BF9D1184B1A6808
:103FF00042F480221A60154BC3F30721154A117051
:10400000C3F30741143211701B0E04321370FF23E7
:10401000343A137008321370783A137001238432E3
:10402000137000216C3211707C3A137070220A4BAD
:104030001A704FF40072A3F241331A60102203F198
:10404000C04303F5C8231A7008BD00BF0080FF1FDE
:10405000348004409C20074049E400E008B500F0AB
:10406000C3F808BD08B500F073F808BD08B500F046
:104070009BF808BD08B500F06DF908BD08B500F063
:10408000C1F808BD08B5084600F058F908BD00BFE2
:1040900008B50846114600F0D1F808BD704700BFCA
:1040A000044B00221A714FF47A7199601A73024A14
:1040B0001A6070473494FF1F889D000072B60D4B44
:1040C0001A68B2FA82F30B2B02D962B6002070474D
:1040D0004FF00041D94022EA010206490A6062B667
:1040E000054903EBC303DB00C8180022CA50426035
:1040F000704700BF4889FF1F0084FF1F08B50F4BA2
:10410000C31A0F4AA2FB03131B090B2B14D80D4A29
:1041100012783AB10C4A127812F0FF0F02D0FFF772
:104120004DFB08BD72B6094A4FF0004121FA03F376
:1041300011681943116062B608BD00BF0084FF1FFB
:10414000398EE3382694FF1F3094FF1F4889FF1FE4
:1041500010B5134B1B6853B9124B1B7813F0FF0FAC
:1041600018D00320FFF7F6FA0D4B1860A8B10C4BDE
:10417000186843885A1C03441C7A03889A4206D361
:10418000FFF7BCFF0022064B1A60204610BD42809C
:10419000204610BD4FF0FF3010BD4FF0FF3010BD76
:1041A0005094FF1F3094FF1F08B50D4B1B6883B957
:1041B0000C4B1B7813F0FF0F08D00320FFF7CAFA4F
:1041C000074B186028B94FF0FF3008BD4FF0FF30A3
:1041D00008BD034B1B685A881344187A08BD00BFFA
:1041E0005094FF1F3094FF1F044B9888044B1B68AA
:1041F0001BB11A885B88D31A184470474C96FF1F6E
:104200005094FF1F10B50B4B1B7813F0FF0F0FD00E
:10421000094B186820B1FFF771FF0022064B1A60A6
:1042200003242046FFF796FA10B1FFF767FFF8E77F
:1042300010BD00BF3094FF1F5094FF1F2DE9F84FB1
:1042400004460122384B1A708B46002965D00E4671
:10425000DFF8E080DFF8E0909A46344FD8F800307D
:1042600083BB99F8003013F0FF0F06D100222E4BCC
:104270001A704FF0FF30BDE8F88F48F60145042072
:10428000FFF786FA07280AD801238AF80030FFF7DB
:1042900015FFC8F80000A8B900238AF80030013DD6
:1042A00001D03B7833B10122204B1A704FF0FF3020
:1042B000BDE8F88F00F0A4F899F8003013F0FF0F74
:1042C000DDD1D3E700233B70D8F800104A88C2F153
:1042D0004005AE4238BF354602F108030B442A447C
:1042E0004A80761B3DB1254414F8012B03F8012BBD
:1042F000AC42F9D100E025464B883F2B07D940233B
:104300000B800420FFF79EFA0023C8F80030052236
:10431000074B1A700EB12C46A0E70022024B1A7010
:104320005846BDE8F88F00BF4594FF1F4C94FF1F0F
:104330004494FF1F4894FF1F3094FF1F00B583B0C3
:1043400002AB03F8010D18460121FFF777FF03B018
:104350005DF804FB10B5144B1B7813F0FF0F21D050
:104360000122124B1A70124B196851B10024114BE3
:104370001C704B880B800420FFF764FA0C4B1C6008
:104380000DE0FFF79BFE014630B10022094B1A7089
:104390000420FFF757FA02E00122064B1A700022B0
:1043A000024B1A7010BD00BF3094FF1F4594FF1FD1
:1043B0004894FF1F4494FF1F08B50E4B1B7813F061
:1043C000FF0F16D10C4B196841B14B880B800420AC
:1043D000FFF738FA0022084B1A6008BDFFF76EFE9F
:1043E000014618B10420FFF72DFA08BD0122034B46
:1043F0001A7008BD4594FF1F4894FF1F4494FF1F87
:1044000008B50F4B1B78CBB901220D4B1A70FFF783
:10441000EBFE08B1FFF742FE00F074FC08B100F0BB
:10442000A3F801F021F808B100F040F901F0EEFA2C
:1044300008B100F0DDF90022014B1A7008BD00BF81
:104440005594FF1F08B503681B68C9B2984708BD9B
:1044500008B503681B68C9B2984708BD08B503686A
:104460001B68C9B2984708BD08B503681B68C9B284
:10447000984708BD08B5044800EB5100B0FBF1F0C7
:1044800000F0C6F908BD00BF0044950810B51446F9
:10449000054800EB5100B0FBF1F000F0B9F92046FF
:1044A00000F01EFA10BD00BF0044950808B500F0EA
:1044B00047FA08BD08B5084600F07CFA08BD00BF01
:1044C00008B5084600F0D0FA08BD00BF08B5084698
:1044D000114600F08BFA08BD08B5084600F0F0FA66
:1044E000003018BF012008BD08B5084600F00AFBDF
:1044F000003018BF012008BD08B500F003FC08BD5E
:1045000008B500F049FC08BD08B500F00BFC08BD7B
:1045100008B500F0D5FB08BD08B500F057FC08BD94
:1045200008B500F0DDFB08BD08B5084600F016FB35
:10453000012008BD08B5084600F010FB012008BDA9
:1045400010B514460846114600F058FB204610BD31
:1045500038B50D46084603F0F7F9044628462146CB
:1045600000F04CFB204638BD704700BF044B0022D2
:104570001A714FF47A7199601A73024A1A6070477F
:104580005894FF1FB09D000008B503681B68C9B2AE
:10459000984708BD08B503681B68C9B2984708BDAD
:1045A00008B503681B68C9B2984708BD08B5036819
:1045B0001B68C9B2984708BD08B5044800EB510014
:1045C000B0FBF1F000F0B8FC08BD00BF0044950856
:1045D00010B51446054800EB5100B0FBF1F000F0B7
:1045E000ABFC204600F010FD10BD00BF0044950854
:1045F00008B500F039FD08BD08B5084600F094FD87
:1046000008BD00BF08B5084600F0E8FD08BD00BFC2
:1046100008B50846114600F0A3FD08BD08B50846D8
:1046200000F00AFE003018BF012008BD08B508469A
:1046300000F024FE003018BF012008BD08B500F0CE
:1046400013FF08BD08B500F059FF08BD08B500F01C
:104650001BFF08BD08B500F0E5FE08BD08B500F079
:1046600067FF08BD08B500F0EDFE08BD08B50846B7
:1046700000F026FE012008BD08B5084600F020FE27
:10468000012008BD10B514460846114600F068FE2A
:10469000204610BD38B50D46084603F055F90446CE
:1046A0002846214600F05CFE204638BD704700BF1A
:1046B000044B00221A714FF47A7199601A73024AFE
:1046C0001A6070476894FF1F109E000008B50368C9
:1046D0001B68C9B2984708BD08B503681B68C9B212
:1046E000984708BD08B503681B68C9B2984708BD5C
:1046F00008B503681B68C9B2984708BD08B50448E7
:1047000000EB5100B0FBF1F000F0C8FF08BD00BFA6
:1047100000A24A0410B51446054800EB5100B0FB56
:10472000F1F000F0BBFF204600F0FAFF10BD00BF23
:1047300000A24A0408B501F023F808BD08B50846F0
:1047400001F058F808BD00BF08B5084601F09AF816
:1047500008BD00BF08B50846114601F067F808BD5E
:1047600008B5084601F090F8003018BF012008BDD8
:1047700008B5084601F0AAF8003018BF012008BDAE
:1047800008B501F043F908BD08B501F089F908BD85
:1047900008B501F04BF908BD08B501F015F908BDE1
:1047A00008B501F097F908BD08B501F01DF908BD7D
:1047B00008B5084601F0ACF8012008BD08B5084668
:1047C00001F0A6F8012008BD10B5144608461146B0
:1047D00001F0EEF8204610BD38B50D46084603F04E
:1047E000B3F804462846214601F0E2F8204638BDD9
:1047F000704700BF044B00221A714FF47A71996020
:104800001A73024A1A6070477894FF1F709E000066
:10481000254B1A6842F480621A600023234A137001
:10482000234A1370234A1370234A1370234A1370C8
:10483000234B1B7813B1152B05D008E040F213323F
:10484000204B1A6003E040F213321F4B1A601F4BDB
:104850001B78012B02D0052B05D008E04FF45172D4
:104860001B4B1A6003E04FF451721A4B1A60C0F3ED
:104870004432194B1A70C0F347125A7000F01F00EF
:10488000987204229A700221D9745A7588221A7477
:104890003C22DA704022114B1A704FF40052A3F2FE
:1048A00029331A60704700BF348004401495FF1FFD
:1048B0008D94FF1F1C95FF1F1595FF1F8C94FF1FE4
:1048C000D094FF1F40A0044018C004404C89FF1F33
:1048D00044A004401CC0044000A006402DE400E0B9
:1048E000164B9B7803F0EC0300F00302134310F027
:1048F000040F18BF43F01003104A937000F00F0329
:10490000042B04D11346927942F040029A710B4B6A
:104910005A7902F0EF0210F0100F18BF42F01002A7
:10492000064B5A719B7903F0EF0310F0200F18BF6C
:1049300043F01003014A9371704700BF00A0064086
:1049400010B5144B1B6813F4806F21D0124B1B78E9
:1049500013F0FF0F06D0104CFFF752FD237813F031
:10496000FF0FF9D14FF400520C4B1A6000230C4A90
:10497000D37040F203120B490A6004310A600A4AFC
:1049800013700A4A13700A4B1B680BB101221A708C
:1049900010BD00BF348004408C94FF1F84E100E010
:1049A00000A0064040A004401495FF1F8D94FF1FF7
:1049B0008894FF1F10B50446094A137813F0FF0FBF
:1049C000FBD120460121FEF753FC20460021FEF7D3
:1049D0001DFC044B53F83420034B1A6010BD00BF7C
:1049E0008C94FF1F6C9C00001895FF1F10B40C46A0
:1049F00009B140F08000184B1B78984228D0174A24
:104A0000126812F4806F21D003F07F03012B02D0D3
:104A1000052B04D006E00022114B1A6002E00022B0
:104A2000104B1A60002C0CBF4422602200F07F0360
:104A3000012B02D0052B05D008E042F44072084B50
:104A40001A6003E042F44072064B1A60024B187081
:104A50005DF8044B704700BF4C89FF1F3480044051
:104A600044A004401CC00440114B1B7898421ED047
:104A7000104A126812F4806F17D013B1152B04D0AE
:104A800006E000220C4B1A6002E000220B4B1A6079
:104A900010B1152805D008E040F21332064B1A6019
:104AA00003E040F21332054B1A60014B1870704757
:104AB000D094FF1F3480044040A0044018C004403C
:104AC00010B50D4B1B6813F4806F12D021280CD841
:104AD0000A4C0B4B53F8303023600121FEF7C8FB22
:104AE000236800221A70012010BD0020034B1860BB
:104AF00010BD002010BD00BF348004408894FF1F0B
:104B00006C9C0000114B1B6813F4806F1BD01228A3
:104B100004D140F202320E4B1A600DE0142804D189
:104B200040F202320B4B1A6006E00B4B5A7B02F04C
:104B3000FE025A7300207047074B5A7B42F0010275
:104B40005A73012070470020704700BF3480044032
:104B50000CA0044014C0044000A006402DE9F04120
:104B600007461F4B1B6813F4806F37D01D4B1B6823
:104B70000BB101221A701C4B1C780134402C28BF49
:104B800000241A4D1A4EDFF86C8017E0FEF758F932
:104B900040280FDC337913F0800F0FD02B780133CE
:104BA000402B28BF002318F80320D2B2F271DBB2E9
:104BB0002B7003E0FF2801DDFFF722FC2B78DBB22E
:104BC0009C42E3D0FFB20B4B1F5501220A4B1A70D7
:104BD000E4B2054B1C70BC22054BDA70BDE8F081D5
:104BE000348004401895FF1F1C95FF1F1595FF1F6B
:104BF00000A006409094FF1F8C94FF1F2DE9F84FF2
:104C00000746284B1B6813F4806F49D0264B1B685E
:104C10000BB101221A7007EB010B5F453DD2DFF8A3
:104C20009890224EDFF88C80DFF890A099F8004031
:104C30000134402C28BF00243578EDB2A54220D1A4
:104C4000BC2388F80330FEF7FBF8402811DC98F805
:104C5000043013F0800F10D033780133402B28BF7D
:104C600000231AF80320D2B288F80720DBB2337091
:104C700003E0FF2801DDFFF7C3FB3378DBB29D4281
:104C8000E1D017F8013B0AF804300122084B1A70F2
:104C9000E4B289F800405F45C8D1BC22054BDA7008
:104CA000BDE8F88F348004401895FF1F1595FF1F4D
:104CB0008C94FF1F00A006401C95FF1F9094FF1FBF
:104CC00010B5064B1B7813F0FF0F06D0034CFFF70F
:104CD00097FB237813F0FF0FF9D110BD8C94FF1FC1
:104CE000064B1B78DBB2064A1278D2B293422CBF35
:104CF0003F3202F1FF32D01A704700BF1C95FF1FF0
:104D00001595FF1F054B1878C0B2054B1B78DBB219
:104D1000984238BF4030C01A704700BF1495FF1F3B
:104D20008D94FF1F10B4184B1A78D2B2174B1B7812
:104D3000DBB29A4218D001333F2B18D81449C85C13
:104D4000C0B2DCB211490C7012490968C9B19A426B
:104D500003D300E00023D31A01E04032D31A1A2B08
:104D60000FDC00230B700CE04FF0FF3009E0084B24
:104D70001878C0B20021054B1970064B196800293C
:104D8000E8D15DF8044B70471495FF1F8D94FF1F09
:104D9000D494FF1F8894FF1F094B1A78D2B2094B95
:104DA0001B78DBB29A4207D00133402B28BF002387
:104DB000054AD05CC0B270474FF0FF30704700BF6B
:104DC0001495FF1F8D94FF1FD494FF1F0D4B1B687C
:104DD00013F4806F14D00C4BDA7802F0CB02DA7047
:104DE00040225A74DA7842F03402DA70074B1A78AB
:104DF000D2B2074B1A70074B1B680BB100221A7016
:104E0000704700BF3480044000A006408D94FF1F0F
:104E10001495FF1F8894FF1F70B43D4B1B7913F04E
:104E2000300F33D072B63A4B9B7D03F0FF022BB9A3
:104E3000374BDA7940225A7462B627E062B6354BB6
:104E40001978C9B2344B1C78E4B2314D334EEB794A
:104E5000D8B24B1C402B28BF0023A3421CBFF054E8
:104E60001946531E13F0FF02F1D1CAB2294B1A7032
:104E70002B4B1B6853B1A1422EBFC4EB0101C4F1FF
:104E8000400409192729C4BF01221A70204BDA787F
:104E9000D2B212F0800F27D01B7913F0800F23D0ED
:104EA000204B1C78E4B2204B1B78DBB29C4210D024
:104EB00017491E4D01E0A3420BD00133402B28BF00
:104EC00000230879E85CC0B2C871087DC0B2072829
:104ED000F1D9DBB214490B700D4B1B7913F0800F25
:104EE00002D07C210A4BD97012F0400F0ED0084B33
:104EF0001B7913F0400F09D000220D4B1A700D4B97
:104F00001B6803B11A703C22014BDA7070BC704709
:104F100000A006401495FF1F8D94FF1FD494FF1F1F
:104F20008894FF1F1C95FF1F1595FF1F9094FF1F6E
:104F30008C94FF1F1895FF1F254B1A6842F40062DE
:104F40001A600023234A1370234A1370234A1370F4
:104F5000234A1370234A1370234B1B78092B02D06A
:104F60001A2B05D008E040F21332204B1A6003E000
:104F700040F213321E4B1A601E4B1B780A2B02D0D4
:104F80001F2B05D008E04FF451721B4B1A6003E051
:104F90004FF45172194B1A60C0F34432184B1A7017
:104FA000C0F347125A7000F01F00987204229A70E2
:104FB0000221D9745A7588221A743C22DA70402270
:104FC000104B1A704FF40042A3F22B331A60704753
:104FD000348004409095FF1F2595FF1F9895FF1F73
:104FE0009195FF1F2495FF1F4D89FF1F0CB00440B2
:104FF00004D004404E89FF1F10B0044000D004408C
:1050000000B006402FE400E0164B9B7803F0EC0361
:1050100000F00302134310F0040F18BF43F0100315
:10502000104A937000F00F03042B04D113469279B9
:1050300042F040029A710B4B5A7902F0EF0210F0E5
:10504000100F18BF42F01002064B5A719B7903F003
:10505000EF0310F0200F18BF43F01003014A9371C3
:10506000704700BF00B0064010B5224B1B6813F418
:10507000006F3ED0204B1B7813F0FF0F06D01E4C64
:10508000FFF7BEF9237813F0FF0FF9D14FF4004278
:105090001A4B1A6000221A4BDA701A4B1B78092B34
:1050A00002D01A2B05D008E040F20312164B1A600A
:1050B00003E040F20312154B1A60154B1B7803F006
:1050C0007F030A2B02D01F2B05D008E040F2031209
:1050D000104B1A6003E040F203120F4B1A600023DA
:1050E0000E4A13700E4A13700E4B1B680BB101224F
:1050F0001A7010BD348004402495FF1F84E100E045
:1051000000B006404D89FF1F0CB0044004D004409D
:105110004E89FF1F10B0044000D004409095FF1F3F
:105120002595FF1F2095FF1F10B50446094A1378E7
:1051300013F0FF0FFBD120460121FEF799F820461E
:105140000021FEF763F8044B53F83420034B1A6038
:1051500010BD00BF2495FF1F6C9C00009495FF1F9D
:1051600010B40C4609B140F08000184B1B789842EF
:1051700028D0174A126812F4006F21D003F07F0381
:105180000A2B02D01F2B04D006E00022114B1A601C
:1051900002E00022104B1A60002C0CBF4422602257
:1051A00000F07F030A2B02D01F2B05D008E042F449
:1051B0004072084B1A6003E042F44072064B1A60DA
:1051C000024B18705DF8044B704700BF4E89FF1FFB
:1051D0003480044010B0044000D00440124B1B78CF
:1051E000984220D0114A126812F4006F19D0092B8E
:1051F00002D01A2B04D006E000220D4B1A6002E008
:1052000000220C4B1A60092802D01A2805D008E0A9
:1052100040F21332064B1A6003E040F21332054BA2
:105220001A60014B187070474D89FF1F348004408D
:105230000CB0044004D0044010B50D4B1B6813F4AF
:10524000006F12D021280CD80A4C0B4B53F8303089
:1052500023600121FEF70CF8236800221A70012058
:1052600010BD0020034B186010BD002010BD00BF12
:10527000348004402095FF1F6C9C00000D4B1B6880
:1052800013F4006F13D017280AD140F202320A4BF0
:105290001A600A4B5A7B42F001025A730120704790
:1052A000064B5A7B02F0FE025A7300207047002022
:1052B000704700BF3480044008B0044000B006408E
:1052C0002DE9F04107461F4B1B6813F4006F37D0E0
:1052D0001D4B1B680BB101221A701C4B1C7801344A
:1052E000282C28BF00241A4D1A4EDFF86C8017E0D6
:1052F000FDF7A6FD40280FDC337913F0800F0FD0A7
:105300002B780133282B28BF002318F80320D2B2B2
:10531000F271DBB22B7003E0FF2801DDFFF770F8BC
:105320002B78DBB29C42E3D0FFB20B4B1F5501221E
:105330000A4B1A70E4B2054B1C70BC22054BDA70A4
:10534000BDE8F081348004409495FF1F9895FF1FBD
:105350009195FF1F00B006402895FF1F2495FF1F61
:105360002DE9F84F0746284B1B6813F4006F49D00E
:10537000264B1B680BB101221A7007EB010B5F452E
:105380003DD2DFF89890224EDFF88C80DFF890A0B5
:1053900099F800400134282C28BF00243578EDB25C
:1053A000A54220D1BC2388F80330FDF749FD4028F1
:1053B00011DC98F8043013F0800F10D033780133EB
:1053C000282B28BF00231AF80320D2B288F8072020
:1053D000DBB2337003E0FF2801DDFFF711F833780B
:1053E000DBB29D42E1D017F8013B0AF804300122FC
:1053F000084B1A70E4B289F800405F45C8D1BC225E
:10540000054BDA70BDE8F88F348004409495FF1F97
:105410009195FF1F2495FF1F00B006409895FF1F30
:105420002895FF1F10B5064B1B7813F0FF0F06D011
:10543000034CFEF7E5FF237813F0FF0FF9D110BD01
:105440002495FF1F064B1B78DBB2064A1278D2B2B6
:1054500093422CBF273202F1FF32D01A704700BFAF
:105460009895FF1F9195FF1F054B1878C0B2054B0B
:105470001B78DBB2984238BF4030C01A704700BF7B
:105480009095FF1F2595FF1F10B4184B1A78D2B2C4
:10549000174B1B78DBB29A4218D001333F2B18D838
:1054A0001449C85CC0B2DCB211490C7012490968D9
:1054B000C9B19A4203D300E00023D31A01E040327D
:1054C000D31A1A2B0FDC00230B700CE04FF0FF30C7
:1054D00009E0084B1878C0B20021054B1970064B43
:1054E00019680029E8D15DF8044B70479095FF1FBB
:1054F0002595FF1F5095FF1F2095FF1F094B1A7818
:10550000D2B2094B1B78DBB29A4207D00133402B51
:1055100028BF0023054AD05CC0B270474FF0FF306F
:10552000704700BF9095FF1F2595FF1F5095FF1FE7
:105530000D4B1B6813F4006F14D00C4BDA7802F09B
:10554000CB02DA7040225A74DA7842F03402DA7010
:10555000074B1A78D2B2074B1A70074B1B680BB176
:1055600000221A70704700BF3480044000B006402B
:105570002595FF1F9095FF1F2095FF1F70B43D4B91
:105580001B7913F0300F33D072B63A4B9B7D03F08A
:10559000FF022BB9374BDA7940225A7462B627E002
:1055A00062B6354B1978C9B2344B1C78E4B2314D30
:1055B000334EEB79D8B24B1C402B28BF0023A342BB
:1055C0001CBFF0541946531E13F0FF02F1D1CAB2AA
:1055D000294B1A702B4B1B6853B1A1422EBFC4EB51
:1055E0000101C4F1400409192729C4BF01221A701E
:1055F000204BDA78D2B212F0800F27D01B7913F04B
:10560000800F23D0204B1C78E4B2204B1B78DBB2F8
:105610009C4210D017491E4D01E0A3420BD001332C
:10562000282B28BF00230879E85CC0B2C871087D28
:10563000C0B20728F1D9DBB214490B700D4B1B79AE
:1056400013F0800F02D07C210A4BD97012F0400F6A
:105650000ED0084B1B7913F0400F09D000220D4BE0
:105660001A700D4B1B6803B11A703C22014BDA70A3
:1056700070BC704700B006409095FF1F2595FF1F36
:105680005095FF1F2095FF1F9895FF1F9195FF1FB5
:105690002895FF1F2495FF1F9495FF1F174B1A682D
:1056A00042F480521A600023154A1370154A137091
:1056B000154A1370154A1370154A137040F21331CE
:1056C000144A11604FF4517104321160C0F3443137
:1056D000114A1170C0F34711517000F01F00907211
:1056E000937013742C23D37040220C4B1A704FF418
:1056F0000032A3F22D331A60704700BF348004409B
:105700000C96FF1FA195FF1F1496FF1F0D96FF1FFC
:10571000A095FF1F08C0044000C0064031E400E02F
:10572000164B9B7803F0EC0300F00302134310F0D8
:10573000040F18BF43F01003104A937000F00F03DA
:10574000042B04D11346927942F040029A710B4B1C
:105750005A7902F0EF0210F0100F18BF42F0100259
:10576000064B5A719B7903F0EF0310F0200F18BF1E
:1057700043F01003014A9371704700BF00C0064018
:1057800010B5144B1B6813F4805F21D0124B1B78AB
:1057900013F0FF0F06D0104CFEF732FE237813F003
:1057A000FF0FF9D14FF400320C4B1A6000230C4A62
:1057B000D37040F203120B490A6004310A600A4AAE
:1057C00013700A4A13700A4B1B680BB101221A703E
:1057D00010BD00BF34800440A095FF1F84E100E0AD
:1057E00000C0064008C004400C96FF1FA195FF1F93
:1057F0009C95FF1F10B50446094A137813F0FF0F5C
:10580000FBD120460121FDF733FD20460021FDF7A5
:10581000FDFC044B53F83420034B1A6010BD00BF4D
:10582000A095FF1F6C9C00001096FF1F10B40C4643
:1058300009B140F08000104B1B78984219D00F4AF4
:10584000126812F4805F12D003F07F03082B02D19C
:1058500000220B4B1A60002C0CBF4422602200F087
:105860007F03082B03D142F44072054B1A60024BB0
:1058700018705DF8044B70474F89FF1F3480044057
:105880000CC00440704700BF10B50D4B1B6813F4EB
:10589000805F12D021280CD80A4C0B4B53F83030C3
:1058A00023600121FDF7E4FC236800221A70012027
:1058B00010BD0020034B186010BD002010BD00BFBC
:1058C000348004409C95FF1F6C9C00000D4B1B68AE
:1058D00013F4805F13D00E280AD140F202320A4B33
:1058E0001A600A4B5A7B42F001025A73012070473A
:1058F000064B5A7B02F0FE025A73002070470020CC
:10590000704700BF3480044004C0044000C006401B
:105910002DE9F04107461F4B1B6813F4805F37D019
:105920001D4B1B680BB101221A701C4B1C780134F3
:10593000282C28BF00241A4D1A4EDFF86C8017E07F
:10594000FDF77EFA40280FDC337913F0800F0FD07B
:105950002B780133282B28BF002318F80320D2B25C
:10596000F271DBB22B7003E0FF2801DDFEF748FD8A
:105970002B78DBB29C42E3D0FFB20B4B1F550122C8
:105980000A4B1A70E4B2054B1C70AC22054BDA705E
:10599000BDE8F081348004401096FF1F1496FF1F6D
:1059A0000D96FF1F00C00640A495FF1FA095FF1F86
:1059B00038B505460C4629B115F8010BFFF7A8FFCD
:1059C000013CF9D138BD00BF10B5064B1B7813F070
:1059D000FF0F06D0034CFEF713FD237813F0FF0FE3
:1059E000F9D110BDA095FF1F064B1B78DBB2064A0C
:1059F0001278D2B293422CBF273202F1FF32D01A72
:105A0000704700BF1496FF1F0D96FF1F054B1878B7
:105A1000C0B2054B1B78DBB2984238BF4030C01A89
:105A2000704700BF0C96FF1FA195FF1F10B4184BC5
:105A30001A78D2B2174B1B78DBB29A4218D00133D6
:105A40003F2B18D81449C85CC0B2DCB211490C70A5
:105A500012490968C9B19A4203D300E00023D31A5E
:105A600001E04032D31A1A2B0FDC00230B700CE03C
:105A70004FF0FF3009E0084B1878C0B20021054B09
:105A80001970064B19680029E8D15DF8044B70477E
:105A90000C96FF1FA195FF1FCC95FF1F9C95FF1F24
:105AA000094B1A78D2B2094B1B78DBB29A4207D065
:105AB0000133402B28BF0023054AD05CC0B2704799
:105AC0004FF0FF30704700BF0C96FF1FA195FF1FDE
:105AD000CC95FF1F054B1A78D2B2054B1A70054BB7
